:020000040800F2
:10000000280600200D0200084F260008ED230008F6
:100010004D26000875040008E32F000800000000CA
:10002000000000000000000000000000112800088F
:100030002905000800000000CD260008132800084C
:1000400027020008270200082702000827020008EC
:1000500027020008270200082702000827020008DC
:1000600027020008270200082702000827020008CC
:100070002702000827020008790400082702000868
:1000800027020008270200082702000827020008AC
:10009000270200082702000827020008270200089C
:1000A000270200082702000827020008270200088C
:1000B0002529000827020008270200082702000857
:1000C000270200082702000827020008270200086C
:1000D000270200082702000827020008B12F0008A5
:1000E000270200082702000827020008270200084C
:1000F000270200082702000827020008270200083C
:10010000270200082702000827020008270200082B
:10011000270200082702000827020008270200081B
:10012000270200082702000827020008270200080B
:1001300027020008270200082702000827020008FB
:1001400027020008270200082702000827020008EB
:1001500027020008270200082702000827020008DB
:1001600027020008270200082702000827020008CB
:1001700027020008270200082702000800000000EC
:1001800027020008270200082702000827020008AB
:10019000270200082702000827020008270200089B
:1001A000270200082702000827020008270200088B
:1001B000270200082702000827020008270200087B
:1001C000270200082702000800000000270200089C
:1001D000270200082702000827020008270200085B
:1001E000270200082702000827020008270200084B
:1001F0002702000827020008DFF80CD000F078F88A
:10020000004800475531000828060020064880476E
:1002100006480047FEE7FEE7FEE7FEE7FEE7FEE7EB
:10022000FEE7FEE7FEE7FEE7D1280008F901000837
:100230002DE9F05F0546002092469B46884606461B
:10024000814640241BE0284641464746224600F0AE
:100250003EF853465A46C01A914110D311461846EB
:10026000224600F025F82D1A67EB01084F4622467A
:100270000120002100F01CF817EB00094E41201E60
:10028000A4F10104DFDC484631462A464346BDE876
:10029000F09F30B505460020034600E05B1C93420A
:1002A00005D2EC5CC85C201A01D1002CF6D130BD1F
:1002B000202A04DB203A00FA02F100207047914026
:1002C000C2F1200320FA03F3194390407047202A1B
:1002D00004DB203A21FA02F00021704721FA02F3F0
:1002E000D040C2F1200291400843194670470000F7
:1002F000064C074D06E0E06840F0010394E8070073
:1003000098471034AC42F6D3FFF77AFFE832000882
:10031000083300082DE9F0414D4C074616460D46BE
:10032000204600F12C02B4F85830B0F85A00A3F57A
:10033000407105391FD0B3F5017F36D0B3F5007F8A
:100340003AD00121A3F5007CBCF5837C1DD0A3F538
:100350000072013A4AD0A3F50072023A51D0A3F5D7
:100360000071033958D0B3F57A7F69D0032084F83F
:100370008600BDE8F081022384F88630A4F862008C
:1003800000212980B4F85C0008E0092084F8860088
:1003900029800A20B4F85A10B1FBF0F02C4B3080C1
:1003A0002988BDE8F04100F055B8062084F88600A1
:1003B000BDE8F04102F056BF254A0823962884F88C
:1003C000863002F1830205D0A02809D0BDE8F041B3
:1003D00002F028BFE11D1046BDE8F04100F0A8B8CA
:1003E000A11D1046BDE8F04100F0AEB8042184F82C
:1003F0008610050A1E2D02D9002002F0D9FE2846DB
:1004000006E084F8861002F0D3FEE08C0028B0D11C
:10041000BDE8F04102F0DEBE6422052184F88610BA
:100420005043B0F5803F01DB4FF6FF70084A80B2C1
:100430003880BDE8F041083202F15C0102F012BBE5
:10044000072184F88610BDE8F04102F0D9BE000013
:100450005801002010B51C8814805C8854809C884A
:10046000948022F811001088188050885880908855
:10047000988010BDFEE70000014800F033BB00008B
:10048000E000002001681823CAB2103AB2FBF3F270
:10049000054B6FF30901032A9B5CC36500D9091D55
:1004A0008165084670470000C832000810B58369AE
:1004B0004FF0C074826A0146002053B1B3F5005F6B
:1004C00015D072B1012A0CD0022A0AD0032A09D110
:1004D00004E01AB1012A06D0022A03D1C96AC9016F
:1004E00000D5012010BDC96AA142FAD010BD002A72
:1004F000F7D0012AF2D0022AF3D0032AF3D010BD9C
:1005000030B50468256825F480252560046863609B
:100510008368402B036803D099600068C26030BDD7
:100520009A600068C16030BD70470121017070475A
:1005300070B505460C460846FFF7F7FF207828708F
:1005400070BD00210170704770B505460C46084625
:10055000FFF7F7FF2078287070BD00002DE9F04FFD
:10056000C14885B0811E031FCDE90010821F891F7D
:10057000293002F023FDBC4C0125603C032694F891
:100580008500E8B1214694F886C001F12C024FF0B5
:10059000020901F1830040F2053701F1080340F23E
:1005A000063A643140F2012BBCF1090F40F2022EF1
:1005B0007BD2DFE80CF0EA080E141A206D8BAB003A
:1005C00084F8855061E004AA03A902A8FFF7A2FEFF
:1005D000E0E004AA03A902A800F0CAF9DAE004AA3C
:1005E00003A902A801F004FFD4E004AA03A902A809
:1005F00002F06EF8CEE0B4F858C0BC457ED0BCF531
:10060000017F7CD0BCF5007F13D0D44578D0DC4589
:1006100023D1042084F88600B4F85A00050A1E2D60
:1006200002D9002002F0C4FD4FEA050002F0D2FD1D
:10063000B0E0082184F886107EE0E11DFFF778FF26
:10064000A8E0A11DFFF780FFA4E0104602F0EAFD3C
:10065000A0E000BFFFF7FEFE9CE0F4450AD100BF1A
:1006600084F88650B4F85A0002F0A2FDE08C00280D
:10067000DCD08FE0ACF50070033820D164227AE042
:1006800080B21A4602F0EEF984E084F8866081E0D8
:10069000B4F858C0BC453DD0BCF5017F06D0BCF5D0
:1006A000007FC6D0D44553D05EE06EE002F0DAFDA4
:1006B00070E0F445D4D0ACF50070033857D0BCF5E9
:1006C0007A7FE2D1072084F8860016E0B4F858C09B
:1006D000BC451FD0BCF5017F36D0BCF5007FA8D04B
:1006E000D44535D0DC4594D0F445B9D0ACF5007094
:1006F00003383CD0BCF57A7FC7D102E00AE023E0A2
:1007000026E0B4F85A0002F07BFD43E0B4F858C08C
:10071000BC450BD1544B84F88690B4F85A00603B2A
:10072000A4F862000021B4F85C0093E7BCF5017FF7
:100730000AD0BCF5007FB5D1B4F85A20962A3FF410
:100740007CAFA02A81D17CE7062084F88600ADE743
:10075000092084F88600B4F85A100A20424BB1FBF5
:10076000F0F0603B012175E7DC45A2D151E705209F
:1007700084F886006422B4F85A005043B0F5803FF4
:10078000FFF67EAF4FF6FF707AE704AA03A902A82E
:1007900002F028FC3448B4F8581034300186B4F81C
:1007A0005A104186B4F85C108186B4F85E10C18698
:1007B000B4F86010018794F8661029B9218CA4F868
:1007C0004610618CA4F8481094F8671041B9A18DC7
:1007D000A4F84A10E18DA4F84C10218EA4F84E1014
:1007E00094F8681029B9A18CA4F85010E18CA4F8F1
:1007F000521094F8691029B9218DA4F85410618D14
:10080000A4F8561094F86A1039B994F86B1084F86B
:10081000811094F86C1084F88210B4F86210018092
:10082000A18D4180E18D8180218EC18094F884105A
:100830000173218C0181A18CC18194F86B108174AA
:10084000218D8182618C4181E18C018294F86C1050
:10085000C174618DC182B4F86410018394F883106F
:10086000817605B0BDE8F08FB80100202DE9FE4F7C
:100870003E4801220021B0F85890B0F8627080F82C
:100880006620B0F846C06CF30F06B0F848C080F898
:10089000661080F867206CF31F46B0F84AC06CF30E
:1008A0000F03B0F84CC06CF31F431B0C0293B0F85D
:1008B0004EC080F8671080F86820B0F850C06CF324
:1008C0000F05B0F852C080F8681080F869206CF30A
:1008D0001F45B0F854C06CF30F04B0F856C080F850
:1008E000691080F86A2090F881206CF31F4462F34D
:1008F000070890F8822080F86A104FEA164BA0F89B
:1009000032904FEA154A878662F30F28C686A0F810
:1009100038B0C8F3072143874FEA1448019185870F
:10092000A0F83EA0A0F84040A0F84280A0F84410F3
:1009300000F16D013230009101F0B8FE009802F034
:10094000A1FC0A489430A0F81C90C7830684A0F844
:1009500022B0029B8384C584A0F828A04485A0F817
:100960002C800199C185BDE8FE8F00005801002050
:100970002DE9F041514C0D460021164604F12C02A0
:100980002980B4F85830A3F54077053F1ED0B3F561
:10099000017F36D0B3F5007F3AD00127A3F540712F
:1009A00006391ED0A3F5007101394CD0A3F50071B2
:1009B000023955D0A3F5007103395ED0B3F57A7FC3
:1009C00072D0032084F88600BDE8F081022084F80C
:1009D0008600B4F85A00A4F862002980B4F85C00DC
:1009E00008E0092084F886002F800A20B4F85A1005
:1009F000B1FBF0F0314B30802988BDE8F041FFF7C2
:100A000029BD062084F88600BDE8F04102F02ABC2A
:100A10002A4A082084F88600B4F85A0083329628BF
:100A200005D0A02809D0BDE8F04102F0FBBBE11DD4
:100A30001046BDE8F041FFF77BBDA11D1046BDE8A3
:100A4000F041FFF781BD042084F88600B4F85A0015
:100A5000040A1E2C02D9002002F0AAFB204608E05E
:100A600084F88670B4F85A0002F0A2FBE08C0028EB
:100A7000AAD1BDE8F04102F0ADBB052184F8861093
:100A8000B4F85A1064225143B1F5803F01DB4FF6B0
:100A9000FF710A4A8BB20380BDE8F0410832184664
:100AA00002F15C0101F0DEBF072084F88600B4F893
:100AB0005A00BDE8F04102F0A3BB0000580100203D
:100AC00090F83510022903D080214165012070473C
:100AD000052180F835100068016821F001010160EE
:100AE000002070472DE9F84304464FF00009644B9D
:100AF0000820CDF800904FF41652A56D94F85C10C4
:100B00001B682E68B3FBF2F700FA01F131420FD0F7
:100B100021680A6852070BD50A6822F004020A60AD
:100B200094F85C108840A860606D40F0010060653A
:100B300094F85C104FF0010808FA01F0304208D038
:100B400021684969090604D5A860606D40F002007B
:100B5000606594F85C1004208840304208D0216819
:100B60000968890704D5A860606D40F004006065DD
:100B700094F85C1010208840304218D02168096831
:100B8000090714D5A86020680168490304D50068E6
:100B9000000308D5A16C07E00168C90503D401680A
:100BA00021F008010160216C09B12046884794F8C2
:100BB0005C1020208840304231D021680968C90685
:100BC0002DD5A86094F8350005282068016806D066
:100BD000490347D5006800031DD4616C1CE021F077
:100BE000160101602068416921F080014161206C9B
:100BF00008B9A06C20B12068016821F008010160EB
:100C000094F85C303F229A40AA6084F8349084F8CB
:100C10003580216D1FE0E16B09B120468847606D8A
:100C200000282BD0606DC00714D0052084F8350053
:100C30002068016821F0010101600098401C0090CB
:100C4000B84203D820680068C007F6D184F8349011
:100C500084F83580E16C002910D001B02046BDE851
:100C6000F04308470168C905D5D4036823F0100391
:100C7000036084F8349084F83580CCE7BDE8F883CD
:100C8000200000202DE9F047044600F0B3F90546A6
:100C900064B14FF0000984F83490022184F83510D3
:100CA0002068016821F0010101600EE00120BDE82B
:100CB000F08700BF00F09EF9401B052805D92021D0
:100CC0006165032084F83500F1E720680068C007FB
:100CD000F0D1D4E90020D4E90251D4E9043C2843FE
:100CE00004F1180519430843116895E8E00140EA4A
:100CF0000C001C4B2843194040EA060040EA07005C
:100D0000B8F1040F40EA010003D1D4E90B131943F1
:100D10000843106020680126656A4069042D20F0B0
:100D2000070045EA00050CD1D4E90A01054341B1A9
:100D30002046FFF7BBFB20B14020606584F835609A
:100D4000B4E7206845612046FFF79CFB94F85C30CF
:100D50003F229A408260C4F8549084F835600020A5
:100D6000A5E700003F8010E02DE9F041044690F82F
:100D7000340000250128A66D0ED094F835C0012757
:100D8000002084F83470BCF1010F07D0022584F8EC
:100D900034002846BDE8F0810220FBE7022784F8F2
:100DA000357060652046FFF7ABFB94F85C103F2080
:100DB0008840B0602068016841F016010160206839
:100DC000416941F080014161206C20B120680168D7
:100DD00041F0080101602068016841F001010160F3
:100DE000D7E7000070B5044600F004F90546601C22
:100DF00002D004480078044400F0FCF8401BA042F4
:100E0000FAD370BD140000202DE9F84FDFF89CE103
:100E100000224FF001084FF0030B4FF00F0A00BF04
:100E20000B6808FA02F42340A34271D14D68022DE9
:100E300001D0122D0FD1D5080E69570700EB85059B
:100E4000A9462D6AFF0E0AFA07FCBE4025EA0C05EA
:100E50002E43C9F820600F79550006680BFA05FC8F
:100E600007F0030726EA0C06AF40374307604E68D9
:100E7000012E05D0022E03D0112E01D0122E0ED13C
:100E80008668CF6826EA0C06AF403743876046681D
:100E90000F79A643C7F30017974037434760C468EC
:100EA0008E6824EA0C04AE402643C6604C68E40019
:100EB00075D53F4C256845F480452560246822F0AF
:100EC0000306950704F4804400943A4C2D0F264401
:100ED000D6F80848DFF8E0C00AFA05F7604524EACA
:100EE000070401D100272EE0344FB84201D1012779
:100EF00029E0334FB84201D1022724E0314FB842F4
:100F000001D103271FE0304FB84202D104271AE075
:100F100045E02E4FB84201D1052714E02C4FB842CE
:100F200001D106270FE02B4FB84201D107270AE075
:100F3000294FB84201D1082705E0284FB84201D116
:100F4000092700E00A27AF4027437546C6F808780E
:100F50004E68DEF80040F60324EA030400D51C4383
:100F6000124E2C60361D4D683468AD0324EA03042C
:100F700000D51C430D4F346008374D683C68ED02C6
:100F800024EA030400D51C43084D3C600C354E6830
:100F90002C68B60224EA030400D51C432C60521CC2
:100FA000102AFFF43DAFBDE8F88F0000003C01407F
:100FB000443802400030014000000240000402407A
:100FC00000080240000C02400010024000140240E1
:100FD00000180240001C0240002002400024024091
:100FE00042694A40426170470AB181617047090411
:100FF000FBE70000014880687047000014000020F3
:101000000248816802781144816070471400002012
:10101000032010B500F096F8002000F005F800F06D
:1010200023F8002010BD000070B50D4D04464FF4AC
:101030007A700C4A29781268B0FBF1F0B2FBF0F03C
:1010400000F0C7FD48B9102C07D200222146501EDF
:1010500000F058F800206C6070BD012070BD0000E9
:1010600014000020200000201F4808B5016841F04E
:1010700080510160006800F0805000901A48001D07
:10108000016841F480410160006800F480400090F4
:10109000032000F057F800226FF00B00114600F01B
:1010A00031F800226FF00A00114600F02BF8002200
:1010B0006FF00900114600F025F80022501F11467C
:1010C00000F020F80022101F114600F01BF800224B
:1010D000901E114600F016F80022BDE80840501E90
:1010E000114600F00FB8000040380240410900F0FE
:1010F0001F028900012001F1E0219040C1F80001A8
:10110000704700000E4BF0B41B680D46C3F302237A
:10111000C3F10706042E00D90426191D072901D2A0
:10112000002300E0DB1E012404FA06F19C40491E66
:101130002940641E994014402143F0BC01F088BA54
:101140000CED00E0064900F0070210B54FF6FF0471
:101150000868044B204040EA02201843086010BD94
:101160000CED00E00000FA052DE9F84F0446007888
:10117000DFF824944FF000063746C0070ED0D9F8A8
:10118000001021F40001C9F80010D9F80010626BBA
:101190001143C9F80010606B00B90126FE4D2068AC
:1011A000843500030ED5E16B286820F44010084315
:1011B0002860E06BB0F5801F01D010B102E001267D
:1011C00000E0012720684FF4800BC0020CD5216C91
:1011D000286820F4400008432860206C584501D15D
:1011E000012601E000B901272068C10100D50126D0
:1011F000800666D5E8483830016841F080510160CA
:101200000068DFF898A300F080500090DAF8001032
:1012100041F48071CAF80010FFF7ECFE804605E04B
:10122000FFF7E8FEA0EB080064287DD8DAF800009C
:10123000C005F5D5DFF8608308F16808D8F800002C
:1012400010F440702AD0218E01F44071814225D0E3
:10125000D8F80010D8F8002021F4407142F4803210
:10126000C8F80020D8F8002022F48032C8F8002006
:10127000C8F80010D8F80000C0070FD0FFF7BAFE7A
:10128000824607E0FFF7B6FEA0EB0A0141F2883084
:101290008142CAD8D8F800008007F3D5206BC0F38C
:1012A000012103297ED0D9F8001021F4F811C9F8E2
:1012B0000010228ED8F80010C2F30B021143C8F8B8
:1012C00000102078C00607D5286820F080702860BC
:1012D0002868A16B084328602188AF4888304904FA
:1012E00005D5626E016821F4403111430160218807
:1012F000090405D5A26E016821F440211143016063
:101300002168C90305D5E26E016821F4401111433B
:1013100001602168890305D5226F016821F440012D
:1013200011430160217800E034E1490605D5626C83
:10133000016821F00301114301602178090605D5F8
:10134000A26C016821F00C01114301602188C905DC
:1013500005D5E26C016821F030011143016021885C
:10136000890505D5226D016821F0C0011143016096
:101370002188490505D5626D016821F4407111434A
:1013800001602188090505D5A26D016821F440613D
:10139000114301602188C90407D5E26D016821F479
:1013A000405100E05FE0114301602188890405D5C8
:1013B000226E016821F44041114301602168490215
:1013C00005D5A26F016821F0806111430160216899
:1013D0004FF0006A890209D5E26F016821F00061CF
:1013E00011430160E16F514500D1012721680A07CF
:1013F00000D50127490305D5626F016821F04071CE
:10140000114301602168090206D5D4F880200168E3
:1014100021F08051114301602168490106D5D4F8BB
:101420008420016821F0005111430160206800010F
:1014300006D5D4F88810286820F00070084328608A
:101440002068C00006D5D4F88C10286820F0806091
:1014500008432860DFF84891012E0ED02068B0F1D3
:10146000007F0AD08FE04F4AD9F80030104023F4B3
:10147000F8120243C9F800201BE7D9F800004E46D5
:1014800020F08060C9F80000FFF7B4FD804605E059
:10149000FFF7B0FDA0EB080064287BD8306800019E
:1014A000F6D421783C487C30C90712D0616B81B9F1
:1014B000237A62680168D0F800C09201C1F301414B
:1014C00042EA0142CCF3036142EA016141EA03715D
:1014D000016021680A0303D5E26BB2F5801F04D0D6
:1014E000C9021AD5216C594517D16368016894F86F
:1014F0000CC002689B01C1F3014143EA0141C2F300
:10150000027241EA0C6141EA027101602968626A73
:1015100021F01F01521E114329602168C90110D515
:10152000238A62680168D0F800C09201C1F30361A8
:1015300042EA034242EA0162CCF3027142EA0171DB
:101540000160216889010CD56168228A237B94F8A7
:1015500008C0890141EA024141EA036141EA0C7194
:1015600001603168B04641F080613160FFF742FDB3
:10157000064604E0FFF73EFD801B64280AD8D8F831
:1015800000000001F6D5E7B3D9F800004E4620F080
:10159000805009E07BE00000083802400070004005
:1015A00000380240FFFCFF0FC9F80000FFF722FDE2
:1015B000074604E0FFF71EFDC01B642867D83068AB
:1015C000C0438000F6D5216835480A0301D5E26B97
:1015D0001AB1C9021DD5216CD9B963690168277E8A
:1015E00002689B01C1F3014143EA0143C2F3027166
:1015F00043EA076242EA0171016029686FF0FF0364
:1016000000E04BE0A26A21F4F85103EB02221143FF
:1016100029602168890212D5E16F51450FD1238CD1
:101620006269016807689201C1F3036142EA0342FB
:1016300042EA0162C7F3027142EA01710160217856
:10164000090716D561690268D0F800C08B01277FB1
:10165000C2F30362CCF3014143EA014141EA026172
:1016600041EA077101602868E16A20F440300843CC
:101670002860306840F080503060FFF7BBFC0446C3
:1016800008E000BFFFF7B6FC001B642802D9032066
:10169000BDE8F88F3068C0438000F3D40020F7E73E
:1016A000883802402DE9F04705000F4663D0444ECC
:1016B000306800F00F00B84209D2306820F00F0007
:1016C00038433060306800F00F00B84253D12868CA
:1016D0003C4C810712D5400703D5206840F4E05008
:1016E00020602878000703D5206840F4604020601F
:1016F000A968206820F0F000084320602878C0071F
:101700002AD0304968680839012810D009680228B1
:1017100010D0890700292EDA216821F00301014346
:101720002160FFF767FC804641F288390DE00968C7
:101730008903EFE78901EDE7FFF75CFCA0EB080107
:10174000494502D90320BDE8F0876868216801F0A7
:101750000C01B1EB800FEFD1306800F00F00B84200
:101760000BD9306820F00F0038433060306800F04B
:101770000F00B84201D00120E5E72878400705D5E1
:10178000E968206820F4E0500843206028780007CA
:1017900006D52869216821F4604141EAC000206033
:1017A00000F03CF82168084AC1F30311515CC840BD
:1017B000064908600020FFF737FC0020C3E700005F
:1017C000003C024008380240D032000820000020CF
:1017D00001480068704700002000002004490548C7
:1017E00009680068044AC1F38221515CC84070470F
:1017F0000838024020000020E03200080449054873
:1018000009680068044AC1F34231515CC84070471E
:101810000838024020000020E0320008154910B5C9
:101820001548096811F00C0213D04110042A0FD09A
:10183000082A0ED10F4C241F2268236802F03F02B1
:101840005B0207D52068C0F38810A0FB010106E009
:10185000084610BD2168C1F38811A1FB00010023D7
:10186000FEF7E6FC2168C1F30141491C4900B0FBC9
:10187000F1F010BD083802400024F4002DE9F84FC3
:1018800005004FF000076ED02878DFF82093A9F10B
:10189000040AC007AAF104044CD0D9F80010484645
:1018A000C1F38101012908D00068C0F3810002283A
:1018B0000AD1DAF80000400206D52068800339D545
:1018C00068680028DFD035E06868B0F5803F0BD04D
:1018D00010B1B0F5A02F11D0206820F48030206026
:1018E000206820F4802002E0206840F480302060EE
:1018F000686890B1FFF77EFB06460AE0206840F476
:1019000080202060F0E700BFFFF774FB801B642895
:1019100072D820688003F7D50CE0FFF76BFB064612
:1019200005E000BFFFF766FB801B6428F0D8206845
:101930008003F7D42878800742D5D9F800104846AC
:1019400011F00C0F08D00068C0F3810002280BD101
:10195000DAF80000400207D42068800718D5E8684C
:10196000012800D114E01EE1E8680028206817D0A3
:1019700040F001002060FFF73DFB064605E000BF98
:10198000FFF738FB801B0228C2D820688007F7D5F4
:101990002869216821F0F80141EAC00020600FE0C9
:1019A00020F001002060FFF725FB064605E000BFA0
:1019B000FFF720FB801B02281ED820688007F7D481
:1019C0002878000729D5794869696C300029804654
:1019D000016812D041F001010160FFF70BFB0646E0
:1019E00005E000BFFFF706FB801B022804D8D8F8EB
:1019F00000008007F6D510E089E021F001010160C8
:101A0000FFF7F8FA064604E0FFF7F4FA801B022815
:101A10007DD8D8F800008007F6D4287840076BD529
:101A2000DFF8888108F13808D8F80000C0000BD42E
:101A3000D8F8001041F08051C8F80010D8F8000024
:101A4000012700F08050009059480168C90512D460
:101A50000168834641F480710160FFF7CBFA0646C6
:101A600005E000BFFFF7C6FA801B64284FD8DBF8FB
:101A70000000C005F6D54D4EA868683601280AD08A
:101A800008B1052811D0306820F0010030603068BE
:101A900020F0040002E0306840F001003060A868E7
:101AA000A0B1FFF7A7FA83460CE0306840F00400CD
:101AB0003060F0E7FFF79EFAA0EB0B0141F28830AF
:101AC000814268D830688007F4D50EE0FFF792FABB
:101AD000834607E0FFF78EFAA0EB0B0141F2883056
:101AE000814258D830688007F4D42FB1D8F800105C
:101AF00021F08051C8F80010A869E0B3D9F80010AF
:101B0000C1F3810102294ED00228206800E042E0A2
:101B100020F08070206003D0FFF76CFA05463DE0AE
:101B2000FFF768FA064604E0FFF764FA801B022814
:101B300031D820688001F7D4D5E90921DFF874C0D5
:101B4000D5E9070695F830304F0895F82C1030434A
:101B50000CEB074545EA8212104340EA016040EA77
:101B60000370CAF80000206840F080702060FFF722
:101B700041FA054605E014E0FFF73CFA401B022855
:101B800009D820688001F7D50BE000BFFFF732FAD3
:101B9000401B022802D90320BDE8F88F206880018D
:101BA000F4D40020F8E70120F6E7000008380240EE
:101BB000007000400000FFFF04284FF0E0200169A2
:101BC00003D021F004010161704741F00401FAE7FC
:101BD0007047401EB0F1807F10B501D3012010BDC9
:101BE0004FF0E02460610F21601700F031FD00200C
:101BF000A0610721216110BD10B5FFF7E9FF10BDFD
:101C00007047704770B590F83C20012A1FD0012220
:101C100080F83C2002680F4C5368A242956802D0BD
:101C20000D4CA24203D14C6823F4700323430C688B
:101C30008968002623F070031C43546025F080055A
:101C400002682943916080F83C60304670BD0220F4
:101C500070BD0000000001400004014010B5040008
:101C600003D094F83D0010B107E0012010BD002022
:101C700084F83C00204600F00DF8022084F83D0076
:101C80002068211D00F054FE012084F83D00002052
:101C900010BD000008B50068B0F1804F12D10A48AD
:101CA000016841F00101016000680022114600F066
:101CB000010000901C20FFF725FABDE808401C2019
:101CC000FFF714BA08BD0000403802400168CA6836
:101CD00042F00102CA600068016841F00101016040
:101CE0000020704770B5044690F83C00012817D0DA
:101CF0003A4E012584F83C50022084F83D002268C9
:101D00009068304020F47F4090600868502839D0B7
:101D10000DDC20285BD005DC98B3102843D153E0BC
:101D2000022070BD302855D040283CD141E06028C9
:101D300030D070280CD0B0F5805F03D0B0F5005FD4
:101D400031D112E02068254A70328168114016E0D6
:101D50004A682068D1E9021300F050FE21688868C3
:101D6000304040F0770088601DE04A682068D1E983
:101D7000021300F043FE2068816841F480418160D5
:101D800011E01EE0CA684968206800F048FE20683B
:101D9000502106E0CA684968206800F051FE2068BA
:101DA000602100F034FE002084F83D5084F83C00AF
:101DB00070BDCA684968206800F031FE2068402183
:101DC000EFE720680021ECE720681021E9E72068B0
:101DD0002021E6E720683021E3E7000088FFFEFFCE
:101DE000704770B50446006800250169C94389073A
:101DF00015D4C168C943890711D4EA1E02610121C3
:101E00002177206880698007204602D0FFF7E8FF2D
:101E100004E000F0A5F8204600F0A3F8257720683C
:101E20000169C943490717D4C168C943490713D495
:101E300002216FF00402026121772068806910F4AA
:101E4000407F204602D0FFF7CBFF04E000F088F887
:101E5000204600F086F8257720680169C943090704
:101E600016D4C168C943090712D404216FF00802CF
:101E7000026121772068C0698007204602D0FFF701
:101E8000AFFF04E000F06CF8204600F06AF8257718
:101E900020680169C943C90617D4C168C943C90686
:101EA00013D408216FF01002026121772068C06905
:101EB00010F4407F204602D0FFF792FF04E000F0CC
:101EC0004FF8204600F04DF8257720680169C94396
:101ED000C90708D1C168C943C90704D1891E016176
:101EE000204600F03FF820686FF080050169C94383
:101EF000090607D4C168C943090603D40561204611
:101F0000FFF77EFE20680169C943C90507D4C1688F
:101F1000C943090603D405612046FFF771FE206816
:101F20000169C943490609D4C168C943490605D4B2
:101F30006FF040010161204600F038F82068016927
:101F4000C94389060BD4C168C943890607D46FF019
:101F5000200101612046BDE87040FFF752BE70BD10
:101F60007047704770B572B60068B0F1804F0DD100
:101F70000C4C0025A068312810D0401CA06060687F
:101F8000A0F58071F33903D0401C606062B670BD6B
:101F900005488021FFF724F86560F7E7FEF766FC47
:101FA000A560ECE700000020000402407047704785
:101FB00070B501680446C8690A688B6810F00F0F95
:101FC0005CD003F0010502F490762E4369D0C60779
:101FD00007D0D60505D501260E62E16E41F001015C
:101FE000E166810708D5D90706D02668022131624B
:101FF000E16E41F00401E166410708D5D90706D03A
:10200000236804211962E16E41F00201E1660107D3
:102010000AD502F02001294306D02368082119625D
:10202000E16E41F00801E166E16E002932D08006E0
:1020300004D5900602D5204600F020FEE06E000791
:1020400003D420688068400625D5204600F0FFFDB7
:102050002068816849061AD5816821F040018160B5
:10206000606EA0B12F490165606EFEF729FD002862
:1020700010D0606E016DBDE870400847830610D532
:1020800093060ED52046BDE8704000F0F7BD20460F
:10209000FFF78DFF70BD2046FFF789FF0020E06647
:1020A00070BD03062FD513062DD594F8690021289D
:1020B000F6D1B4F8520020B1A068B0F5805F0AD024
:1020C0000BE0086820F0800008602068016841F09B
:1020D0004001016070BD206960B1E06C411CE164A9
:1020E00021680078C1F82800B4F85200401EA4F816
:1020F000520070BDE06C0088C0F308008862E06C9C
:10210000801CE064F0E74006F3D55006F1D50B687B
:102110002022204623F040030B6084F8692000F061
:1021200063F970BDB92B000810B5040003D094F812
:10213000690010B107E0012010BD002084F868009C
:10214000204600F027F8242084F869002068016800
:1021500021F001010160204600F0CCFD0128EBD008
:10216000606A10B1204600F0A3FC2068416821F4A9
:10217000904141602068816821F02A0181602068D7
:10218000016841F0010101602046BDE8104000F007
:10219000F3BC000070B51F490646006886B088424F
:1021A00036D11D48016841F4802101600068002596
:1021B000022100F4802005904FF4407007238DE841
:1021C000230003221548CDE903236946FEF71CFED0
:1021D000134C402213484FF0006184E82700031598
:1021E0002046C4E90435A561E56125626562FEF714
:1021F00049FD18B19F210CA000F09CFF002234661D
:1022000027201146A663FEF77DFF2720FEF76EFF0D
:1022100006B070BD0048004040380240000C02404B
:10222000E0000020586002402E2E2F5372632F735F
:10223000746D3332663778785F68616C5F6D737088
:102240002E63000010B590F86A30202B3FD1C9B141
:10225000C2B190F86830012B39D083680124416500
:1022600080F86840A0F85820A0F85A20B3F5805FA5
:102270004FF0FF0108D04FF07F0253B1B3F1805F00
:102280000CD011E0012010BD026922B940F2FF110B
:1022900001E0036933B9A0F85C1005E0016909B1F8
:1022A0003F21F8E7A0F85C2000212222C16680F8D7
:1022B0006A2080F8681001688A6842F001028A602A
:1022C0000068016841F490710160002010BD022097
:1022D00010BD00002DE9F04172B61D4D01271D49CA
:1022E00000266C1C2878F0B11B4A00202E7002EBEF
:1022F000000C0B5C401C0A288CF80130F7DBEF6007
:10230000FEF72CF912490322491C01F10F00FDF7D9
:10231000C0FF78B10F490122A1F17000FFF792FFD1
:1023200062B6BDE8F08160782070A07860700878AF
:10233000A070E7E707490A222F70A1F17000FFF7AC
:1023400081FF00202654401C0328FBDBE8E7000047
:1023500000000020D4000020E001002070B50446F9
:1023600090F86900202836D191B38AB394F86800B8
:10237000012830D0012384F86830E1640025A4F8F6
:1023800050202120A4F85220E56684F86900236ECD
:102390001248D863236E12481864236E1148D8641B
:1023A0001346206E05652068266E4C3400F1280225
:1023B0003046FEF7D9FC54F84C1C402008622577C3
:1023C00054F84C0C816841F080018160002070BDA0
:1023D000FFE70120FBE70220F9E70000172C0008C7
:1023E000452C0008CD2B000870477047FEE7000021
:1023F0002DE9F0414D4C074616460D46204600F1AA
:102400002C02B4F85830B0F85A00A3F540710539E1
:102410001FD0B3F5017F36D0B3F5007F3AD001214C
:10242000A3F5007CBCF5837C1DD0A3F50072013AB6
:102430004AD0A3F50072023A51D0A3F500710339D6
:1024400058D0B3F57A7F69D0032084F88600BDE8C0
:10245000F081022384F88630A4F8620000212980EC
:10246000B4F85C0008E0092084F8860029800A207E
:10247000B4F85A10B1FBF0F02C4B30802988BDE83D
:10248000F041FDF7E7BF062084F88600BDE8F04183
:1024900000F0E8BE254A0823962884F8863002F129
:1024A000830205D0A02809D0BDE8F04100F0BABEF3
:1024B000E11D1046BDE8F041FEF73AB8A11D1046F7
:1024C000BDE8F041FEF740B8042184F88610050A03
:1024D0001E2D02D9002000F06BFE284606E084F88D
:1024E000861000F065FEE08C0028B0D1BDE8F04118
:1024F00000F070BE6422052184F886105043B0F5C8
:10250000803F01DB4FF6FF70084A80B23880BDE89B
:10251000F041083202F15C0100F0A4BA072184F80E
:102520008610BDE8F04100F06BBE000058010020AD
:102530001F4870B586B0016841F004010160016870
:1025400001F004010591016841F08001016001681A
:1025500001F080010591016841F00201016001680C
:1025600001F002010591016841F008010160006875
:1025700044F281050F4E002200F008002946059024
:102580003046FEF731FD0C4900244FF400508DE831
:1025900013000A486946FEF737FC01200095CDE993
:1025A0000104694630460394FEF72EFC06B070BD68
:1025B00030380240000402400000111000080240C0
:1025C0001348482110B5002488B0C0E902414FF4F7
:1025D0007A7204614FF080438461C0E90032FFF7F2
:1025E0003DFB00B1FEE74FF480500390084803A97B
:1025F000FFF778FB00B1FEE70548694600940294B6
:10260000FFF700FB002800D0FEE708B010BD000077
:10261000240000200C48002110B50A4C0C224FF475
:10262000E1330460C0E90131C160C0E90412816195
:10263000C16101624162FFF777FD002800D0FEE72B
:1026400010BD00000048004064000020FEE7704715
:10265000090700284FEA116106DA00F00F0000F1C7
:10266000E02080F8141D704700F1E02080F800148D
:10267000704770B5DDE904450688360A2E7000788B
:1026800068700888000AA8700878E8701088000A46
:102690002871107868711888000AA8711878E87194
:1026A0002088000A28722078687270BD002210B558
:1026B00001EB420430F812301B0A01F8123010F816
:1026C0001230521C0A2A6370F2DB10BD7047000002
:1026D0002DE9F0414D4C074616460D46204600F1C7
:1026E0002C02B4F85830B0F85A00A3F540710539FF
:1026F0001FD0B3F5017F36D0B3F5007F3AD001216A
:10270000A3F5007CBCF5837C1DD0A3F50072013AD3
:102710004AD0A3F50072023A51D0A3F500710339F3
:1027200058D0B3F57A7F69D0032084F88600BDE8DD
:10273000F081022384F88630A4F862000021298009
:10274000B4F85C0008E0092084F8860029800A209B
:10275000B4F85A10B1FBF0F02C4B30802988BDE85A
:10276000F041FDF777BE062084F88600BDE8F04111
:1027700000F078BD254A0823962884F8863002F1B7
:10278000830205D0A02809D0BDE8F04100F04ABD81
:10279000E11D1046BDE8F041FDF7CABEA11D10467F
:1027A000BDE8F041FDF7D0BE042184F88610050A8B
:1027B0001E2D02D9002000F0FBFC284606E084F81C
:1027C000861000F0F5FCE08C0028B0D1BDE8F041A7
:1027D00000F000BD6422052184F886105043B0F556
:1027E000803F01DB4FF6FF70084A80B23880BDE8B9
:1027F000F041083202F15C0100F034B9072184F89D
:102800008610BDE8F04100F0FBBC0000580100203C
:10281000704710B5FEF7F4FBBDE81040FFF7ECB9C8
:10282000294830B5B7B0016841F0805101600068B7
:1028300000F0805036902548016821F4404141F471
:1028400080410160006801230224990500F44040A2
:1028500036900420CDE92A412CA990221D0481E85C
:1028600015002F9024A8CDE92435FFF707F800B113
:10287000FEE7802133AB00254A0183E826000F20C4
:10288000CDE93104022131A8FEF70CFF00B1FEE7CB
:102890004FF48070139500906846FEF765FC00B118
:1028A000FEE7FEF795FF4FF47A71B0FBF1F0FFF70A
:1028B00090F90420FFF780F90022501E1146FEF720
:1028C00021FC37B030BD00004038024000700040AD
:1028D000104A30B51048146800210F4B44F47004BE
:1028E0001460083305680D4A0D4C45F0010505607C
:1028F00019600368051D1340074A03600C322C6001
:102900000568E305034C25F480250560803C1160D3
:10291000236030BD88ED00E000380240FFFFF6FE86
:10292000103000240148FFF75CBA000024000020AA
:10293000F0B5274B4FF0804E264D02689842264E48
:10294000264F274C09D0704507D0A84205D0B04289
:1029500003D0B84201D0A04205D1D1F804C022F082
:1029600070024CEA020298421BD0704519D0A8426E
:1029700017D0B04215D0B84213D0A04211D0194D93
:10298000A8420ED0184DA8420BD0184DA84208D02E
:10299000174DA84205D0174DA84202D0164DA842A7
:1029A00003D1CD6822F440722A434D6922F080029F
:1029B0002A43026098428A68C2620A68826201D031
:1029C000A04201D10969016301214161F0BD00000C
:1029D000000001400004004000080040000C0040DE
:1029E0000004014000400140004401400048014013
:1029F00000180040001C00400020004042EA032272
:102A000083680A4323F47F410A43826070478268E7
:102A100022F070020A4342F007018160704710B54E
:102A2000036A046A23F00A0324F00104046284693F
:102A30000B4324F0F00141EA02118161036210BDF1
:102A400010B5036A23F0100303628369046A23F458
:102A5000704324F0A00443EA0232826144EA011187
:102A6000016210BD7CB50D460F4E111D1446334654
:102A700028801A46CDE900610C482946FFF7F9FD88
:102A80002A88642104F10E003346B2FBF1F122469C
:102A90002180CDE900600548011D801CFFF7E9FD9C
:102AA000288860807CBD0000C0320008C232000867
:102AB00090F82410C90706D00168836A4A6822F496
:102AC00000321A434A6090F82410890706D501683D
:102AD000C36A4A6822F480321A434A6090F824108C
:102AE000490706D50168036B4A6822F480221A431D
:102AF0004A6090F82410090706D50168436B4A68BC
:102B000022F400421A434A6090F82410C90606D500
:102B10000168836B8A6822F480521A438A6090F8B5
:102B20002410890606D50168C36B8A6822F4005216
:102B30001A438A6090F82410490611D50168036C85
:102B40004A6822F480121A434A60016CB1F5801F72
:102B500006D10168436C4A6822F4C0021A434A60F5
:102B600090F82410090606D50168826C486820F4A4
:102B7000002010434860704738B500250446C566FC
:102B8000FEF738FA03462068006800070BD56FF09F
:102B90007E400090002220464FF4001100F0D6F94C
:102BA00008B1032038BD202084F8690084F86850FB
:102BB00084F86A00002038BD10B5806B0021A0F8B1
:102BC0005A10A0F85210FFF7F2F910BD10B5846B3F
:102BD0000021A4F85A10A4F8521094F86900212892
:102BE00006D120688068000602D5204600F03DF836
:102BF00094F86A00222806D120688068400602D531
:102C0000204600F024F8E06E40F01000E066204618
:102C1000FFF7CDF910BD10B501680968806BC905D3
:102C20000DD40021A0F8521001688A6822F08002B9
:102C30008A600068016841F04001016010BDFFF743
:102C4000D3FB10BD10B5806BFFF7CFFB10BD016843
:102C500020220B6823F490730B6001688B6823F0CB
:102C600001038B6080F86A207047016820220B689E
:102C700023F0C0030B6080F86920704710B590F80E
:102C80006A10B0F85C202229016805D0886940F0FC
:102C900008008861022010BD8368B3F5805F01D110
:102CA000036973B14B6A416D13404A1C42650B7056
:102CB000B0F85A10491E0904090CA0F85A1008D09F
:102CC00016E04B6A416D13400B80416D891C4165D4
:102CD000EEE7016820220B6823F490730B60016813
:102CE0008B6823F001038B6080F86A20FFF7F2FA0B
:102CF000002010BD2DE9F04704468068874B884FBF
:102D00002668D4E90415E2690843D6F800C010210A
:102D100015430022284315460CEA030C814B4CEA6C
:102D2000000CC6F800C04FF400492068D4F80CC06D
:102D3000466826F4405646EA0C0646602668D4F8F3
:102D40002080A069D6F808C040EA08002CF4306C56
:102D50004CEA000CC6F808C02068B8420AD11B68CB
:102D600013F0030352D0012B7AD0022B76D0032B21
:102D700079D177E06C4EB0420AD11B6813F00C0396
:102D80006AD0042B6CD0082B68D00C2B6BD169E077
:102D9000664EB0420AD11B6813F030035CD0102B92
:102DA0005ED0202B5AD0302B5DD15BE0604EB0421C
:102DB0000AD11B6813F0C0034ED0402B50D0802B9B
:102DC0004CD0C02B4FD14DE05A4EB0420DD11B68B4
:102DD00013F4407340D0B3F5807F41D0B3F5007F4A
:102DE0003CD0B3F5407F3ED13CE0534EB0420FD1D2
:102DF0001B6813F4406309D0B3F5806F30D0B3F58E
:102E0000006F2BD0B3F5406F2DD12BE001212AE0CC
:102E10004A4EB0420DD11B6813F440531CD0B3F599
:102E2000805F1DD0B3F5005F18D0B3F5405F1AD1B5
:102E300018E0434EB04216D11B6813F440430BD048
:102E4000B3F5804F0CD04B4508D0B3F5404F0AD1B5
:102E500008E005E002E0FFE7002104E0022102E0D3
:102E6000042100E00821E6694E452AD109291FD234
:102E7000DFE801F00508141E171E1E1E1A00FEF7DB
:102E8000ADFC01E0FEF7BAFC0146D4F804004900AD
:102E900001EB5001B1FBF0F082B20AE02949606811
:102EA000F6E7FEF7BBFCEFE760684FF48031EFE731
:102EB0000125216822F00F00C2F342021043C860CE
:102EC00028E0092925D2DFE801F005080B241024A9
:102ED00024241C00FEF782FC09E0FEF78FFC06E0CC
:102EE0006168194A02EB51020EE0FEF797FC0146B9
:102EF000D4E9002001EB5001B1FBF0F080B2D060CA
:102F000008E0616809EB5102B2FBF1F189B2C160DE
:102F100000E001252846BDE8F0870000F369FFEFD7
:102F2000001001409038024000440040004800403A
:102F3000004C004000500040001401400078004068
:102F4000007C00400048E8010024F4002DE9F04135
:102F5000984617460E460446069D1DE0681C1BD089
:102F60002DB1FEF747F8A0EB0800A84214D3216862
:102F7000202000220B6823F4D0730B6021688B683B
:102F800023F001038B6084F8690084F86A00032051
:102F900084F86820BDE8F0812068C06936EA000046
:102FA00004D00020B842D9D00020F3E70120F9E78F
:102FB0000148FEF7FDBF00006400002070B5DDE9A8
:102FC0000445068876BA0E80418849BA1180818806
:102FD00049BA1980C18849BA2180008940BA28803D
:102FE00070BDFEE72DE9F0410E465149012514461A
:102FF00001F12C023580B1F85830A3F54077053F38
:103000001ED0B3F5017F37D0B3F5007F3BD0A3F5D9
:103010004077063F20D0A3F500720C46013A4CD011
:10302000A3F50071023955D0A3F5007103395ED0C4
:10303000B3F57A7F72D0032084F88600BDE8F08172
:10304000022381F88630B1F85A300020A1F86230AE
:103050003080B1F85C0008E0092081F886003580F6
:103060000A20B1F85A10B1FBF0F0314B20803188C2
:10307000BDE8F041FDF7EEB9062081F88600BDE815
:10308000F04100F0EFB82A48082281F88620B1F814
:103090005A208330962A06D0A02A09D0BDE8F041F4
:1030A000104600F0BFB8BDE8F041C91DFDF740BAB9
:1030B000BDE8F041891DFDF747BA042084F8860079
:1030C000B1F85A00040A1E2C02D9002000F070F852
:1030D000204608E084F88650B4F85A0000F068F8FA
:1030E000E08C0028AAD1BDE8F04100F073B80521BA
:1030F00084F88610B4F85A1064225143B1F5803F29
:1031000001DB4FF6FF710A4A8BB20380BDE8F04144
:103110000832184602F15C01FFF7A4BC072084F8CE
:103120008600B4F85A00BDE8F04100F069B800002C
:1031300058010020FEE702E008C8121F08C1002A5B
:10314000FAD170477047002001E001C1121F002A28
:10315000FBD1704708B5FDF75BFFFFF761FBFFF799
:10316000E7F91148016841F400110160006800228C
:10317000114600F4001000900E20FDF7C3FF0E2052
:10318000FDF7B4FFFFF746FAFFF71AFA0748FEF714
:103190009DFD06490122B031A1F17000FFF752F800
:1031A0003220FDF71FFEFBE73038024024000020EC
:1031B00007498A8CFF2A01D3002205E0521CB2F590
:1031C000803F01DB4FF6FF728A84C884704700009D
:1031D00058010020094991F86B20FF2A01D30022F1
:1031E00003E0521CFF2A00DDFF2281F86B20FF283C
:1031F00000D9FF2081F86C007047000058010020C2
:1032000007490A8DFF2A01D3002205E0521CB2F5BE
:10321000803F01DB4FF6FF720A854885704700004A
:10322000580100200E4A118CFF2901D3002105E02E
:10323000491CB1F5803F01DB4FF6FF71118408494D
:10324000508488310978642908D0322803D0642852
:1032500001D0C82802D10020FFF7AABF70470000A4
:1032600058010020064991F88400FF2801D300206E
:1032700003E0401CFF2800DDFF2081F88400704738
:10328000580100200BA10C4A30B4096811700B0AD8
:1032900053700C0C947000215418435C491C142981
:1032A000E370F9DB0D20D07530BC034918220348C8
:1032B000FFF754B8686472004001002064000020E9
:1032C0000000000519030300000610160006101682
:1032D00000000000000000000102030406070809C6
:1032E0000000000001020304083300080000002071
:1032F00024000000363100082C3300082400002090
:10330000040600004631000800000000090000002B
:10331000000000000000000068647200010000006E
:0C33200010000000000000000024F40079
:04000005080001F9F5
:00000001FF
