:020000040800F2
:10000000100800200D020008B5400008153B00084C
:1000100059400008C1080008D94C00080000000041
:10002000000000000000000000000000494200083D
:10003000850A000800000000114100085D42000828
:1000400027020008270200082702000827020008EC
:1000500027020008270200082702000827020008DC
:1000600027020008270200082702000827020008CC
:100070002702000827020008D50900082702000807
:100080002702000827020008270200083D0900088F
:10009000F9080008050900082702000827020008DF
:1000A000270200082702000827020008270200088C
:1000B0005143000827020008270200082702000811
:1000C000270200082702000827020008270200086C
:1000D000270200082702000827020008954C0008A4
:1000E000270200082702000827020008270200084C
:1000F000270200082702000827020008270200083C
:10010000270200082702000827020008270200082B
:10011000270200082702000827020008270200081B
:10012000270200082702000827020008270200080B
:1001300027020008270200082702000827020008FB
:1001400027020008270200082702000827020008EB
:1001500027020008270200082702000827020008DB
:1001600027020008270200082702000827020008CB
:1001700027020008270200082702000800000000EC
:1001800027020008270200082702000827020008AB
:10019000270200082702000827020008270200089B
:1001A000270200082702000827020008270200088B
:1001B000270200082702000827020008270200087B
:1001C000270200082702000800000000270200089C
:1001D000270200082702000827020008270200085B
:1001E000270200082702000827020008270200084B
:1001F0002702000827020008DFF80CD000F08AF878
:1002000000480047C54F00081008002006488047F6
:1002100006480047FEE7FEE7FEE7FEE7FEE7FEE7EB
:10022000FEE7FEE7FEE7FEE7FD420008F9010008F1
:100230002DE9F05F0546002092469B46884606461B
:10024000814640241BE0284641464746224600F0AE
:1002500050F853465A46C01A914110D311461846D9
:10026000224600F037F82D1A67EB01084F46224668
:100270000120002100F02EF817EB00094E41201E4E
:10028000A4F10104DFDC484631462A464346BDE876
:10029000F09FD2B201E000F8012B491EFBD270475B
:1002A0000022F6E710B513460A4604461946FFF742
:1002B000F0FF204610BD30B505460020034600E0A3
:1002C0005B1C934205D2EC5CC85C201A01D1002C67
:1002D000F6D130BD202A04DB203A00FA02F10020DA
:1002E00070479140C2F1200320FA03F31943904074
:1002F0007047202A04DB203A21FA02F000217047DF
:1003000021FA02F3D040C2F120029140084319467D
:1003100070470000064C074D06E0E06840F001031E
:1003200094E8070098471034AC42F6D3FFF768FF13
:100330009C520008BC520008F8B54B4C8446164647
:10034000204600F11603B4F80A5100F1B202B0F8E9
:100350000C01A5F54077053F1ED0B5F5017F33D0E0
:10036000B5F5007F36D00127A5F5007EBEF5837E6A
:100370001CD0A5F50071013942D0A5F500710239F4
:100380004CD0A5F50071033953D0B5F57A7F64D010
:10039000032084F88E01F8BD022784F88E71A4F83A
:1003A000140100250D80B4F80E0108E0092084F83E
:1003B0008E010F800A20B4F80C41B4FBF0F03080BD
:1003C000098800F053F8F8BD062084F88E0104F087
:1003D000B9FEF8BD082184F88E11962804D0A02813
:1003E00008D004F08DFEF8BD1F4968461D3100F0AD
:1003F00051FBF8BD1C4968461C3100F05AFBF8BDA2
:10040000042184F88E11000A8DF800001E2802D9FC
:10041000002004F037FE9DF8000007E084F88E719C
:1004200004F030FEB4F8AC000028E8D104F03EFE41
:10043000F8BD6422052184F88E115043B0F5803F49
:1004400001DB4FF6FF70084A80B2ACF800001E32A4
:1004500002F1F80104F060F9F8BD072184F88E116B
:1004600004F03AFEF8BD00004002002010B51C88E0
:1004700014805C8854809C88948022F81100108835
:100480001880508858809088988010BD2DE9F04FD2
:10049000DFF81894022700244FF0030A48462DED98
:1004A000028B81B000F1110B00F5B37000900125B3
:1004B000B9F8A200B9F82211884238D000985946FC
:1004C00004F001FCB9F8A400D8B1022819D0012821
:1004D00017D089F87B41032889F87A4120D089F820
:1004E000794189F877A1B9F8A200A9F82201D9F8D1
:1004F00090000146401C814200D9601EC9F890005E
:1005000036E089F87B4189F87A4189F8794189F8A0
:1005100077A101B0BDEC028BBDE8F04F04F032BD15
:1005200089F87751B9F8A200A9F822011CE0DF4947
:10053000192699F87931012B91F87BE1B1F81E2148
:10054000B1F8A000B1F89E1006D0022B7ED19142E6
:100550000CD001287BD009E099F87A31012B10D01A
:10056000022B73D189F87A4189F87971A9F804517D
:1005700004F0C0FC01B0BDEC028BBDE8F04F04F00C
:100580009DBC914200D060B19FEDC98BC74BBEF1BD
:10059000060FB3F8243159D2DFE80EF0E51499F3D1
:1005A000F1F0A9F81E11594689F87B4189F87A7152
:1005B000009804F088FBA9F8065121462846A9F8BE
:1005C00008417BE0012B4C467BD8914201D00228A8
:1005D00004D084F87B51A4F804A1F4E00520A4F829
:1005E0001E1184F87B01002004F0E4FC00EE100AE8
:1005F000B8EEC00B84ED120BB4EEC80BF1EE10FA9E
:100600000CD2B5EEC00BF1EE10FA05DBBCEEC00B60
:1006100010EE100AC0B202E0002000E0FF2000F05F
:10062000C7F9022004F0C6FC90FBF6F10020A046BA
:10063000C4F8881004F0BEFC0446012004F0BAFCA3
:10064000002C014608DB6FF0004001E08BE0DEE0AB
:10065000221A914208DB06E004F10040814202DDEB
:100660004FF0004000E0601A6FF0004280FB06404F
:100670000021121B814102DA6FF0004407E04FF0C5
:100680000041611A70F1FF3001DA4FF0004402209E
:1006900004F090FC00EE100A28463946B8EEC01B64
:1006A00000EE104AB8EEC00B80EE012B88ED142B43
:1006B000A8F82461A8F80651A8F808717B4AEDE073
:1006C000FFE75B1E00D50023A9F8243180E0012B51
:1006D0004C464DD8D4F88800002806DD012004F0EF
:1006E00069FC94F8691188420FDB002000F060F982
:1006F0000098594604F0E7FA84F87BA1A4F8246135
:1007000094F8610184F8890140E084F87B7194EDEC
:10071000120B94ED141B30EE410B84ED120BB4EE72
:10072000C80BF1EE10FA0DD2B5EEC00BF1EE10FAD7
:1007300006DB00BFBCEEC00B10EE100AC0B202E038
:10074000002000E0FF2000F033F9D4F888004FF0DB
:100750000041884202DCC4F8881002E0401EC4F860
:100760008800A4F8246101B0BDEC028BBDE8F08FD5
:100770005B1E00D50023A9F82431F4E72FE01BE02D
:10078000FFE799F861014E46052806D001B0BDEC9F
:10079000028BBDE8F04F04F065BB86F87B415946FB
:1007A00086F87A71009804F08EFAA6F80651284669
:1007B0002146A6F8084181E7012B4846D8D880F8A1
:1007C0007B51A0F804A16420A9F8246100F0F0F89E
:1007D00001B0BDEC028BBDE8F04F04F08BBB012BE8
:1007E0004C46C5D884F87B7194ED120B94ED141B24
:1007F00030EE410B84ED120BB4EEC80BF1EE10FAA3
:10080000A0D2B5EEC00BF1EE10FA99DB92E709F138
:100810005808A9F81E1132234FF0FA0C89F87951C3
:1008200042F6F82288E81810C9F8642009F1740A21
:10083000C9F868204FF07108C9F86C202E21C9F85A
:1008400080803D2348464FF04D0CC9F87020BEF122
:10085000040F8AE80A109FED180BA0F8244180EDE0
:10086000120B80ED140BC0F8884089F87A5184D0BF
:10087000042089F87B010D49A9F80471A9F82461C5
:100880001231009803F0E1FC642000F091F8074A6F
:100890002846A9F806510146A9F8085101B0BDEC57
:1008A000028BBDE8F04F04F07BBC0000400200204A
:1008B0000000000000007040000000000000000088
:1008C000FEE700000B48012230B400214FF47853BA
:1008D00041610E25C0E90612C0E900314FF47E44A3
:1008E000C0E9024101610146C0E9082530BC5C3025
:1008F00001F028B850000020014801F032B9000092
:10090000AC000020014801F02CB90000AC00002030
:1009100010B5FFF7D7FF0848012101F001F806489C
:10092000022100F0FDFF0448102100F0F9FFBDE8AE
:100930001040014801F02ABBAC000020014801F042
:1009400010B90000AC00002010B500F029F8BDE897
:10095000104002480C2102F07DBE0000140100206E
:1009600010B5007888B0642800D964200B4964234E
:100970006024CA68002100944243B2FBF3F00C22C9
:10098000CDE9010105480491694602F0B2FD034832
:100990000C2102F05FFE08B010BD00001401002021
:1009A00008B564208DF800006846FFF7D9FF08BD40
:1009B0000649642881F8690100D36420C0F164000D
:1009C00081F86F010248FFF7CBBF00004002002012
:1009D000AF030020014801F01FBB0000E001002030
:1009E00001681823CAB2103AB2FBF3F2054B6FF359
:1009F0000901032A9B5CC36500D9091D816508466E
:100A0000704700007C52000810B583694FF0C07435
:100A1000826A0146002053B1B3F5005F15D072B170
:100A2000012A0CD0022A0AD0032A09D104E01AB103
:100A3000012A06D0022A03D1C96AC90100D50120C2
:100A400010BDC96AA142FAD010BD002AF7D0012A10
:100A5000F2D0022AF3D0032AF3D010BD30B50468D7
:100A6000256825F480252560046863608368402B31
:100A7000036803D099600068C26030BD9A60006866
:100A8000C16030BD7047704701210170704701217E
:100A90000170704770B505460C460846FFF7F7FF32
:100AA0002078287070BD002101707047002101700E
:100AB000704770B505460C460846FFF7F7FF2078EB
:100AC000287070BD70B505460C46084600F003F866
:100AD0002078287070BD01210170704700210170DD
:100AE000704770472DE9F041134F03261348321F1A
:100AF000322342F6F82100247E70FA253E702E261D
:100B0000C0F884203D2283654D23C46571240566A9
:100B1000072541668166C166C0E91C1600F17801AF
:100B200081E81C0080F87451FFF70EFFFFF7ABFF60
:100B3000BDE8F04100F04CBE24000020400200203F
:100B4000F8B5644C022601254FF0FF32002094F8DE
:100B5000711184F8611194F9261101EB410104EB44
:100B60004101B1F8CC30A4F89430B1F8CE30A4F8FB
:100B70009630B1F8D010A4F8981094F9271104EB2E
:100B80008101B1F8D830A4F89A30B1F8DA10A4F89D
:100B90009C1094F8721184F8621194F9281104EBF6
:100BA0008101B1F8E030A4F89E30B1F8E210A4F869
:100BB000A01094F9291104EB410191F85B3184F8FC
:100BC0002F3191F85C1184F8301194F92A1104EB5B
:100BD0008101B1F8E830A4F8A230B1F8EA10A4F825
:100BE000A410C4F8842094F87611E9B194F878013F
:100BF00008B103F02BF894F87D0108B103F02EFA48
:100C000094F87F0108B100F0D9FB94F8880188B30B
:100C100094F8870101282ED02E4964260A31022833
:100C200038D0032847D135E084F8765184F87851DC
:100C3000A4F81E01A4F8200184F88A01A4F8220176
:100C400084F8776184F87D5184F87C5184F87F5171
:100C5000C4F88C0094F87E11042902D0042184F891
:100C60007E1184F88851032184F88B0184F88C016B
:100C700084F887111FE094F88C0128B1401E00D53C
:100C8000002084F88C0116E0134884F88761FFF790
:100C900025FF10E094F8620194F88B2190420AD06D
:100CA000684684F88751FFF70DFF94F8620184F8D5
:100CB0008B0184F88C6194F8660108B1012100E091
:100CC00000210648417094F8731101B101210170AF
:100CD000F8BD000040020020AA03002024000020EC
:100CE0002DE9F04FFE4C8BB0012540F202264FF06B
:100CF00002094FF0030A94F8681184F8631194F81C
:100D00007401082848D2DFE800F047041060131A85
:100D10003741052184F874114FF40070A4F8FE00E7
:100D20004FF4C872A4F800214FE004F04BFA4CE0F5
:100D300084F87451A4F8FE60A4F8005145E0B4F8BA
:100D40001C01012801D041B113E0062184F874117F
:100D5000A4F8FE60A4F8009137E094F87521012A08
:100D600007D1401CB0F5803F01D34FF6FF70A4F8C7
:100D70001C0184F8751128E084F874910020A4F80F
:100D8000FE00A4F81801A4F81A011EE008209FED47
:100D9000D50B84F8740116E094ED100BB2EE041B31
:100DA000B4EE410BF1EE10FA09D1042184F874116C
:100DB0004FF47A70A4F8FE00A4F800A105E0B7EEA5
:100DC000001B30EE010B84ED100BC848C849A0F1A0
:100DD00039020B46CDE90010911E3D3803F06BF946
:100DE000C249553191ED040BBDEEC00B10EE100A57
:100DF000012836D002284FF000003BD02118401CBB
:100E00000A2891F83B2181F83121F7DBB748A34646
:100E100094F86921293884F86421811E031FCDE9E3
:100E20000010821F891F1F3003F03AFF94F88D01D4
:100E300048B3AB4F40F2053E9BF88E0107F1160315
:100E4000DC1D621C07F1B20107F11C0C092807F533
:100E50008B7770D2DFE800F06F1A20262C328BB32C
:100E6000DA00002023180A5C401C0A2883F831218C
:100E7000F8DBCBE70A182318401C127E0A2883F8F7
:100E80003121F7DBC2E78BF88D516DE004AA03A98D
:100E900002A8FFF751FAFAE004AA03A902A800F099
:100EA000D7FBF4E004AA03A902A802F035FEEEE0A5
:100EB00004AA03A902A803F02DF9E8E0BBF80A018F
:100EC000704576D0B0F5017FD84673D0B0F5007F7D
:100ED00028D0A0F5007C5C46BCF5837C6BD0A0F5E7
:100EE000007101390CD0B04233D100BF84F88E516B
:100EF000B4F80C0104F0C6F8B4F8AC0078B1C6E060
:100F0000042084F88E01BBF80C01000A8DF828003B
:100F10001E2802D9002004F0B5F89DF8280004F03E
:100F2000C5F8B4E008218BF88E1185E00AA82146A7
:100F3000FFF7B0FDABE0A5E00AA86146FFF7B9FDF9
:100F4000A5E000BF04F0DCF8A1E000BFFFF78EFAD7
:100F50009DE0A0F50071033924D1642188E080B2BE
:100F6000394603F0D9FB92E08BF88EA18FE0BBF8F5
:100F70000A0170454ED0B0F5017FD8461CD0B0F5BF
:100F8000007FCFD0A0F5007C5C46BCF5837C60D0B0
:100F9000A0F500710139B3D0B042A7D0A0F500711F
:100FA000033961D0B0F57A7FDED1072084F88E0155
:100FB00023E02FE049E04CE004F0C4F867E0BBF820
:100FC0000A01704526D0B0F5017FD8461AD0B0F599
:100FD000007FA7D0A0F5007C5C46BCF5837C38D0B0
:100FE000A0F5007101398BD0B042D6D0A0F50071C8
:100FF000033939D0B0F57A7FB6D1BBF80C0104F0D3
:101000006BF844E006208BF88E01D5E7BBF80A01A7
:1010100070450AD18BF88E91BBF80C21ABF81421E6
:101020000A46BBF80E01002190E7B0F5017FD846D3
:101030000BD0B0F5007FA5D1B8F80C0196283FF48D
:1010400075AFA0287FF47EAF76E7062088F88E0182
:10105000B2E7092084F88E01BBF80C210A20B2FB0C
:10106000F0F00A46012171E7052084F88E01642121
:10107000BBF80C014843B0F5803FFFF670AF4FF668
:10108000FF706CE704AA03A902A803F027FE9BF8EF
:101090002B11584659B9B0F8B210A0F8F010B0F8BA
:1010A000B410A0F8F210B0F8B610A0F8F41090F850
:1010B0002C1139B9B0F8A610A0F8F610B0F8A810A5
:1010C000A0F8F81090F82D1139B9B0F8AE10A0F8CA
:1010D000FA10B0F8B010A0F8FC1090F82E1109E04A
:1010E0004002002000000000000000007B03002000
:1010F0007452000839B990F8451180F85F1190F8E2
:10110000461180F8601190F8141180F8651180F88C
:10111000711190F82621B0F8B210EAB35FF0000226
:1011200002EB420200EB4202A2F8CC1090F826211A
:10113000B0F8B4108AB3002202EB420200EB420284
:10114000A2F8CE1090F82621B0F8B61032B30022E3
:1011500002EB420200EB4202A2F8D01090F82611F6
:10116000E9B3002180F8261190F82721B0F8A610E5
:10117000B2B3002200EB8202A2F8D81090F8271137
:10118000B0F8A82069B3002100EB8101A1F8DA20B2
:1011900090F8271131B302E06AE06BE06CE00021C7
:1011A00080F8271190F8701180F8721190F82821BA
:1011B000B0F8AA10EAB3002200EB8202A2F8E01015
:1011C00090F82821B0F8AC10A2B3002200EB820204
:1011D000A2F8E21090F8281169B3002103E04DE075
:1011E0004EE04FE050E080F8281190F8292190F867
:1011F0004511D2B35FF0000200EB420282F85B11AE
:1012000090F8292190F8461182B3002200EB4202A7
:1012100082F85C1190F8291149B3002180F8291156
:1012200090F82A21B0F8AE1082B3002200EB8202BF
:1012300002E02CE02DE02EE0A2F8E81090F82A2140
:10124000B0F8B0107AB3002200EB8202A2F8EA10E4
:1012500090F82A1141B3002180F82A1190F8161154
:1012600080F873110BB0BDE8F08F16E017E018E0BE
:10127000012255E701225FE7012269E7012171E7B9
:10128000012277E701217FE7012189E70DE00122B3
:1012900092E701229AE70121A0E70122ACE70122AF
:1012A000B4E70121BAE702E003E00122BEE7012230
:1012B000CAE70121D0E700002DE9FE4F3D48012596
:1012C000002480F82B51B0F8F07067F30F06B0F8E7
:1012D000F27067F31F464FEA164CCDF808C0B0F81D
:1012E000F46080F82B4180F82C51B0F8F66066F37A
:1012F0000F01B0F8F86080F82C4180F82D5166F3AA
:101300001F41B0F8FA6066F30F03B0F8FC6080F894
:101310002D4180F82E5190F85F51894665F3070200
:1013200090F8605180F82E4166F31F43B0F890406A
:1013300090F8657165F30F22B0F804814FEA134A03
:1013400090F86861D1B290F86951C2F3072BA0F808
:10135000B840A0F8BA70A0F8BCC0A0F8BE80A0F851
:10136000C060A0F8C250A0F8C490A0F8C6A0019137
:10137000A0F8C81000F24711A0F8CAB0B830009128
:1013800002F0B6FE009803F0EDFE0B4804804780A3
:10139000DDF808C0A0F804C0A0F8068006814581E9
:1013A000A0F80C90A0F80EA001990182A0F812B04C
:1013B000BDE8FE8F40020020F80300202DE9F04F29
:1013C000A14C89B00125234603F2671094F87EC131
:1013D00003F5B472009003F10B0BD3F88C000021DD
:1013E0000492032793F884A1421E93F88091022669
:1013F000EB07BCF1070F46D2DFE80CF04504F263BF
:10140000F2BAF200BAF1010FD4460AD0BCF1020FD1
:1014100010D0BCF1030F16D0BAF1040F33D1A8B32A
:10142000BCE000286FD184F8861184F8841184F818
:101430007E61CAE0002866D184F8847100F044FA25
:10144000C4F88C00C1E000285DD184F8845100F01C
:101450003BFAC4F88C0094F86901512894F886018D
:1014600007D201280FD0502084F88651FFF7A0FA48
:1014700003E0022807D084F8866103A9009A5B463E
:10148000049800F0EBF909B0BDE8F08FFFE784F8AD
:10149000851184F8846104F5B37400F015FA6B4A81
:1014A00044F8DA0C511E481E00F0A0F9E079607093
:1014B0006079A070E7E7C4F88C30E4E7C4F88C20CA
:1014C000E1E7D4F88410042019B30229DBD1052206
:1014D00084F87E21B9F1040F05D084F8800100F072
:1014E000F3F9C4F88C0094F87C01032894F8830184
:1014F0000AD00128C7D0544903A884F88351143175
:1015000002F0A3FEBFE749E00228BCD084F8836163
:1015100029E0BAF1040F84F87E5105D084F88401E3
:1015200000F0D2F9C4F88C0094F87C01032810D0A4
:1015300004281AD094F869013C2816D894F885013B
:101540000128A0D05FF03C0084F88551FFF730FA05
:1015500099E794F869015028ECD894F8850103289C
:1015600091D084F885715020F0E784F885618AE78E
:10157000B9F1010FCC460AD0BCF1020F11D0BCF179
:10158000030F2FD0B9F1040F94D150B306E028B95E
:1015900084F88011062084F87E0116E098428DDCE4
:1015A00089E70028FAD184F8821184F8807100F06C
:1015B0008BF9C4F88C0094F87C01032894F881011D
:1015C00006D001289ED084F8815100F05BF95AE7DB
:1015D000022897D0002084F88161FFF7E9F9F4E749
:1015E0002FE00AE00028D9D184F8811184F88051D5
:1015F00000F06AF9C4F88C003FE784F8831184F89E
:10160000806100F061F9104FC4F88C0094F87C01FF
:101610000E37032894F8820108D0012898D0791D4C
:1016200084F8825103A803F04EFB03E002288FD018
:1016300084F8826103A9009A3B46049800F030F9CF
:1016400021E784F87E711EE740020020AD030020F0
:10165000F8B5504D00270F8016462A4602F11603B2
:10166000B5F80A41B232A4F5407CBCF1050C1ED09D
:10167000B4F5017F34D0B4F5007F37D00127A4F54D
:10168000007CBCF5837C1DD0A4F50071013945D0E8
:10169000A4F50071023951D0A4F5007103395AD074
:1016A000B4F57A7F6DD0032085F88E01F8BD022055
:1016B00085F88E01B5F80C01A5F814010F80B5F876
:1016C0000E0108E0092085F88E010F800A20B5F888
:1016D0000C41B4FBF0F030800988FEF7C7FEF8BD7E
:1016E000062085F88E0103F02DFDF8BD082085F851
:1016F0008E01B5F80C01962804D0A02808D003F07C
:10170000FFFCF8BD234968461D31FFF7C3F9F8BD5A
:10171000204968461C31FFF7CCF9F8BD042085F854
:101720008E01B5F80C01000A8DF800001E2802D9C0
:10173000002003F0A7FC9DF8000009E085F88E71F9
:10174000B5F80C0103F09EFCB5F8AC000028E4D11C
:1017500003F0ACFCF8BD052185F88E11B5F80C112D
:1017600064225143B1F5803F01DB4FF6FF71094A16
:101770008BB203801E32184602F1F80102F0CCFF52
:10178000F8BD072085F88E01B5F80C0103F0A4FC24
:10179000F8BD00004002002010B5002303700124B2
:1017A0000B7014701A46A103074C204600F0B9FED6
:1017B00006480022211500F0B4FE01222046BDE8B3
:1017C0001040D10300F0ADBE001002400004024002
:1017D00008B5684600F002F808BD00000248002283
:1017E0004FF4004100F09DBE0010024010B50024EF
:1017F000047001230B7013702246084C9903204695
:1018000000F08FFE01220648910200F08AFE0122BC
:101810002046BDE81040D10300F083BE0010024016
:101820000004024010B50123037000240C70094C21
:10183000990313701A46204600F073FE06480022F2
:10184000211500F06EFE01222046BDE81040D103B4
:1018500000F067BE00100240000402402DE9F04194
:101860001C4615469A1C0E46591C07462046FFF793
:1018700093FFA07828702078387060783070BDE8C9
:10188000F0810000044810B5FFF7A8FF034890F866
:101890006E1180F8671110BDAE03002040020020D9
:1018A0002DE9F0411C4615469A1C0E46591C074668
:1018B0002046FFF7B7FFA07828702078387060784E
:1018C0003070BDE8F08100001448014690F8802196
:1018D00091F87C11042A0FD0022A0FD0032A09D0D4
:1018E000012A15D090F88401042815D002280BD0C5
:1018F000032801D00F207047142070470329FBD024
:1019000090F86101012801D064207047732070476E
:101910000329F1D123207047462070474002002060
:1019200090F82020012A07D0022A05D0416A41F40C
:101930008021416201207047006842690A43426188
:101940000020704730B590F820300268012B07D096
:10195000022B05D0416A41F480214162012030BD53
:101960003E4C3F48A24200D00246D2F800328242AA
:1019700043F00103C2F800320CD1D2F8000220F487
:101980007C50C2F80002D2F800024B6A40EA032001
:10199000C2F800020C7D0120D2F81C3204F01F04B2
:1019A000A0408343C2F81C32CB69B3B9D2F80C32E1
:1019B0008343C2F80C328C894B684D6964F31F4332
:1019C00002EBC504C4F840320C890B684D6964F31E
:1019D0001F4302EBC504C4F84432CB69012B16D176
:1019E000D2F80C320343C2F80C320C884B684D69B4
:1019F00064F31F4302EBC504C4F840320C89CB6882
:101A00004D6964F31F4302EBC504C4F844328B698B
:101A1000002BD2F804320FD053EA0003C2F804328C
:101A20000B69002BD2F8143208D00343C2F81432E9
:101A3000096A012904D008E08343EFE78343F5E70F
:101A4000D2F81C120143C2F81C12D2F8000220F096
:101A50000100C2F80002002030BD00000034004048
:101A60000064004070470000F0B590F82040012C61
:101A700005D0022C03D0416A41F4802166E004685D
:101A800000295ED02469A4075DD005684FF4D8749E
:101A900004EB01142D5915F00405956005682D59C6
:101AA00057D0ED08C2F8045007684FF4DA754FF4C8
:101AB000DC7C4FF4DE763C59002905EB0115C4F3BC
:101AC0004007D7600CEB011406EB0111066876594C
:101AD00006F00F06166106687659C6F3072696616A
:101AE000066875594FEA15455561026812591A7012
:101AF000026812594FEA12225A70026812594FEACC
:101B000012429A70026812594FEA1262DA70026841
:101B100052581A71026852584FEA12225A710268DA
:101B200052584FEA12429A71026851584FEA1161B5
:101B3000D971006810D0016941F0200101610020D5
:101B4000F0BDE4689FE7416A41F400114162012061
:101B5000F0BD6D0D1560A7E7C16841F02001C160BF
:101B6000EDE72DE9F05F0546006800244669D0F8EE
:101B700004908768D0F80CB0D0F810A0F207D0F825
:101B8000188048D0F90714D001218160BA0703D525
:101B9000284600F028FA0CE0780702D54FF40064DC
:101BA00007E0380702D54FF4805402E0284600F0E1
:101BB00019FAF80516D52868BA054FF480718160C6
:101BC00003D5284600F011FA0CE0780502D544F45C
:101BD000005407E0380502D544F4804402E028466A
:101BE00000F002FAF80316D52868BA034FF48031E2
:101BF000816003D5284600F0FAF90CE0780302D59D
:101C000044F4004407E0380302D544F4803402E091
:101C1000284600F0EBF9300707D55FEACB6004D522
:101C20002968102044F40074C86070074FF008075A
:101C300007D55FEA0B7004D52868C760284600F016
:101C400065F9B00706D52868C068800702D0284625
:101C500000F05EF9700607D55FEACA6004D529680E
:101C6000102044F480640861B00607D55FEA0A706A
:101C700004D528680761284600F084F9F00606D5E7
:101C800028680069800702D0284600F07CF9B0037C
:101C900008D55FEAC96005D5296810204860284644
:101CA00000F072F9F00307D55FEA097004D52868DF
:101CB0004760284600F09CF9300446D55FEA497039
:101CC00040D5F00504D55FEAC87001D044F00104A6
:101CD000B00504D55FEA887001D544F002047005B0
:101CE00004D55FEA487001D544F00404300529D5D5
:101CF00018F0700F26D008F07000402815D006DCD0
:101D0000102809D020280AD0302816D10AE05028FF
:101D10000ED0602811D10EE044F008040DE044F02C
:101D200010040AE044F0200407E044F0400404E01A
:101D300044F0800401E044F480742868816921F053
:101D400070018161296804204860002C05D0686A10
:101D5000204368622846FFF785FEBDE8F09F70B516
:101D6000040003D094F8200010B104E0012070BDFD
:101D7000204600F081F82068016821F0020101602E
:101D800000F0D4FB0526054604E000F0CFFB401B25
:101D90000A2811D8206840688007F6D420680168B6
:101DA00041F00101016000F0C1FB05460BE000F0CD
:101DB000BDFB401B0A2806D9606A40F4003060620F
:101DC00084F82060D2E720684068C007EFD0207E0A
:101DD0000128206801683DD021F080010160607E0B
:101DE00001282068016838D021F040010160A07E00
:101DF00001282068016833D021F020010160E07ED5
:101E00000128206801682ED041F010010160207F78
:101E100001282068016829D021F008010160607F55
:101E200001282068016824D021F004010160D4E970
:101E30000110D4E903326569491E184323682A4317
:101E4000104300220843D8610121626284F8201007
:101E5000104670BD41F08001C0E741F04001C5E788
:101E600041F02001CAE721F01001CFE741F008015D
:101E7000D4E741F00401D9E710B586B00446142137
:101E80006846FEF70DFA1E492068884236D11D4883
:101E9000016841F000710160006800F00070059079
:101EA00018481038016841F00801016000680221FB
:101EB000002200F008000590032009238DE80700A8
:101EC000CDE903031048694600F038FA00221320D8
:101ED000114600F08BFB132000F07AFB0022142047
:101EE000114600F083FB142000F072FB0022152045
:101EF000114600F07BFB152000F06AFB06B010BD18
:101F00000064004040380240000C0240704700006E
:101F1000194A0021174B02F1340010B5FFF7A4FD58
:101F20001649002210460B18401C0A281A76FADBC4
:101F300011480B7E028843EA12200876487E10433F
:101F40000C4A487602200C18135C401C0A282376A1
:101F5000F9DB91ED040BB0EE001BB4EE410BF1EE9A
:101F600010FA01D1FEF7BCFEBDE810400448012183
:101F700000F0D0BA0000002078000020D00300203C
:101F800000040240704770477047000070B5044677
:101F900090F82000012804D0606A40F400206062BC
:101FA00018E0022084F820002068016821F0010177
:101FB000016000F0BBFA05460EE000BF00F0B6FA83
:101FC000401B0A2808D9616A052041F4003161628A
:101FD00084F82000012070BD20684068C007EDD162
:101FE000606270BD704770477047704770477047B8
:101FF000704790F83510022903D0802141650120F7
:102000007047052180F835100068016821F0010152
:1020100001600020704700002DE9F84304464FF0AE
:102020000009644B0820CDF800904FF41652A56DBE
:1020300094F85C101B682E68B3FBF2F700FA01F10C
:1020400031420FD021680A6852070BD50A6822F086
:1020500004020A6094F85C108840A860606D40F04B
:102060000100606594F85C104FF0010808FA01F077
:10207000304208D021684969090604D5A860606D1E
:1020800040F00200606594F85C1004208840304203
:1020900008D021680968890704D5A860606D40F000
:1020A0000400606594F85C1010208840304218D01D
:1020B00021680968090714D5A860206801684903E8
:1020C00004D50068000308D5A16C07E00168C905C4
:1020D00003D4016821F008010160216C09B1204698
:1020E000884794F85C1020208840304231D0216825
:1020F0000968C9062DD5A86094F835000528206820
:10210000016806D0490347D5006800031DD4616CFF
:102110001CE021F0160101602068416921F0800176
:102120004161206C08B9A06C20B12068016821F0E1
:102130000801016094F85C303F229A40AA6084F85C
:10214000349084F83580216D1FE0E16B09B12046A1
:102150008847606D00282BD0606DC00714D0052023
:1021600084F835002068016821F0010101600098C1
:10217000401C0090B84203D820680068C007F6D120
:1021800084F8349084F83580E16C002910D001B0D7
:102190002046BDE8F04308470168C905D5D4036867
:1021A00023F01003036084F8349084F83580CCE782
:1021B000BDE8F883340000202DE9F047044600F024
:1021C000B5F9054664B14FF0000984F83490022156
:1021D00084F835102068016821F0010101600EE0EB
:1021E0000120BDE8F08700BF00F0A0F9401B0528E2
:1021F00005D920216165032084F83500F1E72068C6
:102200000068C007F0D1D4E90020D4E90251D4E934
:10221000043C284304F1180519430843116895E864
:10222000E00140EA0C001C4B2843194040EA06003C
:1022300040EA0700B8F1040F40EA010003D1D4E9F5
:102240000B1319430843106020680126656A406932
:10225000042D20F0070045EA00050CD1D4E90A015D
:10226000054341B12046FEF7CFFB20B14020606519
:1022700084F83560B4E7206845612046FEF7B0FB7E
:1022800094F85C303F229A408260C4F8549084F8FD
:1022900035600020A5E700003F8010E02DE9F04107
:1022A000044690F8340000250128A66D0ED094F85D
:1022B00035C00127002084F83470BCF1010F07D02D
:1022C000022584F834002846BDE8F0810220FBE7AF
:1022D000022784F8357060652046FEF7BFFB94F84E
:1022E0005C103F208840B0602068016841F0160112
:1022F00001602068416941F080014161206C20B19A
:102300002068016841F0080101602068016841F01F
:1023100001010160D7E7000070B5044600F006F93E
:102320000546601C02D004480078044400F0FEF822
:10233000401BA042FAD370BD280000202DE9F84FC1
:10234000DFF89CE100224FF001084FF0030B4FF043
:102350000F0A00BF0B6808FA02F42340A34271D1B0
:102360004D68022D01D0122D0FD1D5080E695707E7
:1023700000EB8505A9462D6AFF0E0AFA07FCBE4050
:1023800025EA0C052E43C9F820600F795500066830
:102390000BFA05FC07F0030726EA0C06AF403743AB
:1023A00007604E68012E05D0022E03D0112E01D0F9
:1023B000122E0ED18668CF6826EA0C06AF4037434E
:1023C000876046680F79A643C7F3001797403743E5
:1023D0004760C4688E6824EA0C04AE402643C66099
:1023E0004C68E40075D53F4C256845F48045256070
:1023F000246822F00306950704F4804400943A4CC4
:102400002D0F2644D6F80848DFF8E0C00AFA05F791
:10241000604524EA070401D100272EE0344FB8427A
:1024200001D1012729E0334FB84201D1022724E02E
:10243000314FB84201D103271FE0304FB84202D1DB
:1024400004271AE045E02E4FB84201D1052714E0D9
:102450002C4FB84201D106270FE02B4FB84201D1D3
:1024600007270AE0294FB84201D1082705E0284F85
:10247000B84201D1092700E00A27AF40274375463B
:10248000C6F808784E68DEF80040F60324EA030434
:1024900000D51C43124E2C60361D4D683468AD03C8
:1024A00024EA030400D51C430D4F346008374D68FF
:1024B0003C68ED0224EA030400D51C43084D3C604F
:1024C0000C354E682C68B60224EA030400D51C4380
:1024D0002C60521C102AFFF43DAFBDE8F88F0000BD
:1024E000003C0140443802400030014000000240FE
:1024F0000004024000080240000C024000100240AC
:102500000014024000180240001C0240002002405B
:1025100000240240426931EA020200D109048161CB
:1025200070470AB1816170470904FBE70148806880
:10253000704700002800002002488168027811449A
:102540008160704728000020032010B500F06EF86D
:10255000002000F005F800F023F8002010BD000076
:1025600070B50D4D04464FF47A700C4A2978126804
:10257000B0FBF1F0B2FBF0F000F0C2FD48B9102C56
:1025800007D200222146501E00F030F800206C6077
:1025900070BD012070BD0000280000203400002024
:1025A0000A4808B5016841F080510160006800F0F8
:1025B000805000900548001D016841F48041016091
:1025C000006800F48040009008BD000040380240E0
:1025D000002809DB410900F01F028900012001F1F8
:1025E000E0219040C1F80001704700000E4BF0B4AC
:1025F0001B680D46C3F30223C3F10706042E00D95E
:102600000426191D072901D2002300E0DB1E012446
:1026100004FA06F19C40491E2940641E994014406A
:102620002143F0BC02F0FEBB0CED00E0064900F0D7
:10263000070210B54FF6FF040868044B204040EA3B
:1026400002201843086010BD0CED00E00000FA0500
:102650001848F8B5016841F0805101600068164CD7
:1026600000F080500090206840F480302060FFF738
:102670005DFF4FF47A76054605E000BFFFF756FF91
:10268000401BB0420FD86068C003F7D5206840F403
:1026900000302060FFF74AFF054606E0FFF746FFDF
:1026A000401BB04201D90320F8BD60688003F5D516
:1026B0000020F8BD40380240007000402DE9F84F7E
:1026C00004460078DFF824944FF000063746C00730
:1026D0000ED0D9F8001021F40001C9F80010D9F883
:1026E0000010626B1143C9F80010606B00B901263D
:1026F000FE4D2068843500030ED5E16B286820F478
:10270000401008432860E06BB0F5801F01D010B185
:1027100002E0012600E0012720684FF4800BC00290
:102720000CD5216C286820F4400008432860206CF8
:10273000584501D1012601E000B901272068C101F7
:1027400000D50126800666D5E8483830016841F09A
:10275000805101600068DFF898A300F0805000907D
:10276000DAF8001041F48071CAF80010FFF7DEFEBD
:10277000804605E0FFF7DAFEA0EB080064287DD86C
:10278000DAF80000C005F5D5DFF8608308F16808C5
:10279000D8F8000010F440702AD0218E01F4407166
:1027A000814225D0D8F80010D8F8002021F44071DB
:1027B00042F48032C8F80020D8F8002022F4803299
:1027C000C8F80020C8F80010D8F80000C0070FD0E3
:1027D000FFF7ACFE824607E0FFF7A8FEA0EB0A0178
:1027E00041F288308142CAD8D8F800008007F3D57A
:1027F000206BC0F3012103297ED0D9F8001021F409
:10280000F811C9F80010228ED8F80010C2F30B029C
:102810001143C8F800102078C00607D5286820F0BA
:10282000807028602868A16B084328602188AF4821
:102830008830490405D5626E016821F440311143A6
:1028400001602188090405D5A26E016821F44021A8
:10285000114301602168C90305D5E26E016821F4C6
:102860004011114301602168890305D5226F016879
:1028700021F4400111430160217800E034E1490670
:1028800005D5626C016821F00301114301602178D4
:10289000090605D5A26C016821F00C011143016005
:1028A0002188C90505D5E26C016821F0300111438A
:1028B00001602188890505D5226D016821F0C001DC
:1028C000114301602188490505D5626D016821F435
:1028D0004071114301602188090505D5A26D016889
:1028E00021F44061114301602188C90407D5E26DDC
:1028F000016821F4405100E05FE01143016021884C
:10290000890405D5226E016821F44041114301601C
:102910002168490205D5A26F016821F08061114349
:10292000016021684FF0006A890209D5E26F0168F1
:1029300021F0006111430160E16F514500D1012791
:1029400021680A0700D50127490305D5626F016890
:1029500021F04071114301602168090206D5D4F8C5
:102960008020016821F080511143016021684901F4
:1029700006D5D4F88420016821F00051114301608C
:102980002068000106D5D4F88810286820F000706F
:10299000084328602068C00006D5D4F88C10286849
:1029A00020F0806008432860DFF84891012E0ED0A7
:1029B0002068B0F1007F0AD08FE04F4AD9F800308C
:1029C000104023F4F8120243C9F800201BE7D9F89D
:1029D00000004E4620F08060C9F80000FFF7A6FD19
:1029E000804605E0FFF7A2FDA0EB080064287BD835
:1029F00030680001F6D421783C487C30C90712D0F9
:102A0000616B81B9237A62680168D0F800C09201D5
:102A1000C1F3014142EA0142CCF3036142EA0161A0
:102A200041EA0371016021680A0303D5E26BB2F544
:102A3000801F04D0C9021AD5216C594517D163688B
:102A4000016894F80CC002689B01C1F3014143EA9C
:102A50000141C2F3027241EA0C6141EA0271016074
:102A60002968626A21F01F01521E11432960216802
:102A7000C90110D5238A62680168D0F800C09201AC
:102A8000C1F3036142EA034242EA0162CCF30271FC
:102A900042EA01710160216889010CD56168228ACE
:102AA000237B94F808C0890141EA024141EA0361AD
:102AB00041EA0C7101603168B04641F080613160DB
:102AC000FFF734FD064604E0FFF730FD801B642865
:102AD0000AD8D8F800000001F6D5E7B3D9F800000D
:102AE0004E4620F0805009E07BE0000008380240AC
:102AF0000070004000380240FFFCFF0FC9F80000E2
:102B0000FFF714FD074604E0FFF710FDC01B642823
:102B100067D83068C0438000F6D5216835480A037D
:102B200001D5E26B1AB1C9021DD5216CD9B963690F
:102B30000168277E02689B01C1F3014143EA01431A
:102B4000C2F3027143EA076242EA01710160296837
:102B50006FF0FF0300E04BE0A26A21F4F85103EBB1
:102B60000222114329602168890212D5E16F514583
:102B70000FD1238C6269016807689201C1F3036178
:102B800042EA034242EA0162C7F3027142EA01717A
:102B900001602178090716D561690268D0F800C084
:102BA0008B01277FC2F30362CCF3014143EA014169
:102BB00041EA026141EA077101602868E16A20F494
:102BC000403008432860306840F080503060FFF7A4
:102BD000ADFC044608E000BFFFF7A8FC001B64281A
:102BE00002D90320BDE8F88F3068C0438000F3D4D9
:102BF0000020F7E7883802402DE9F04705000F462E
:102C000063D0444E306800F00F00B84209D23068FB
:102C100020F00F0038433060306800F00F00B842F9
:102C200053D128683C4C810712D5400703D5206852
:102C300040F4E05020602878000703D5206840F475
:102C400060402060A968206820F0F0000843206000
:102C50002878C0072AD0304968680839012810D080
:102C60000968022810D0890700292EDA216821F08E
:102C7000030101432160FFF759FC804641F2883986
:102C80000DE009688903EFE78901EDE7FFF74EFCE6
:102C9000A0EB0801494502D90320BDE8F087686828
:102CA000216801F00C01B1EB800FEFD1306800F02A
:102CB0000F00B8420BD9306820F00F003843306065
:102CC000306800F00F00B84201D00120E5E7287815
:102CD000400705D5E968206820F4E05008432060EB
:102CE0002878000706D52869216821F4604141EA67
:102CF000C000206000F036F82168084AC1F30311D3
:102D0000515CC840064908600020FFF729FC0020FC
:102D1000C3E70000003C024008380240845200082B
:102D2000340000200449054809680068044AC1F3DA
:102D30008221515CC84070470838024034000020AE
:102D4000945200080449054809680068044AC1F320
:102D50004231515CC84070470838024034000020BE
:102D600094520008154910B51548096811F00C0275
:102D700013D04110042A0FD0082A0ED10F4C241F63
:102D80002268236802F03F025B0207D52068C0F387
:102D90008810A0FB010106E0084610BD2168C1F3C0
:102DA0008811A1FB00010023FDF742FA2168C1F35D
:102DB0000141491C4900B0FBF1F010BD0838024048
:102DC0000024F4002DE9F84F05004FF000076ED005
:102DD0002878DFF82093A9F1040AC007AAF10404B7
:102DE0004CD0D9F800104846C1F38101012908D020
:102DF0000068C0F3810002280AD1DAF8000040021E
:102E000006D52068800339D568680028DFD035E012
:102E10006868B0F5803F0BD010B1B0F5A02F11D08D
:102E2000206820F480302060206820F4802002E0B8
:102E3000206840F480302060686890B1FFF776FB2E
:102E400006460AE0206840F480202060F0E700BFDA
:102E5000FFF76CFB801B642872D820688003F7D5CD
:102E60000CE0FFF763FB064605E000BFFFF75EFBE3
:102E7000801B6428F0D820688003F7D42878800766
:102E800042D5D9F80010484611F00C0F08D0006860
:102E9000C0F3810002280BD1DAF80000400207D409
:102EA0002068800718D5E868012800D114E01EE1E9
:102EB000E8680028206817D040F001002060FFF784
:102EC00035FB064605E000BFFFF730FB801B0228FC
:102ED000C2D820688007F7D52869216821F0F80159
:102EE00041EAC00020600FE020F001002060FFF701
:102EF0001DFB064605E000BFFFF718FB801B0228FC
:102F00001ED820688007F7D42878000729D579488B
:102F100069696C3000298046016812D041F00101D6
:102F20000160FFF703FB064605E000BFFFF7FEFA6E
:102F3000801B022804D8D8F800008007F6D510E0DE
:102F400089E021F001010160FFF7F0FA064604E094
:102F5000FFF7ECFA801B02287DD8D8F80000800724
:102F6000F6D4287840076BD5DFF8888108F1380857
:102F7000D8F80000C0000BD4D8F8001041F0805100
:102F8000C8F80010D8F80000012700F08050009029
:102F900059480168C90512D40168834641F480711B
:102FA0000160FFF7C3FA064605E000BFFFF7BEFA6F
:102FB000801B64284FD8DBF80000C005F6D54D4EC5
:102FC000A868683601280AD008B1052811D03068F1
:102FD00020F001003060306820F0040002E030682A
:102FE00040F001003060A868A0B1FFF79FFA834667
:102FF0000CE0306840F004003060F0E7FFF796FA2C
:10300000A0EB0B0141F28830814268D8306880071C
:10301000F4D50EE0FFF78AFA834607E0FFF786FA59
:10302000A0EB0B0141F28830814258D8306880070C
:10303000F4D42FB1D8F8001021F08051C8F8001056
:10304000A869E0B3D9F80010C1F3810102294ED07C
:103050000228206800E042E020F08070206003D069
:10306000FFF764FA05463DE0FFF760FA064604E024
:10307000FFF75CFA801B022831D820688001F7D462
:10308000D5E90921DFF874C0D5E9070695F8303095
:103090004F0895F82C1030430CEB074545EA821297
:1030A000104340EA016040EA0370CAF8000020685B
:1030B00040F080702060FFF739FA054605E014E023
:1030C000FFF734FA401B022809D820688001F7D5A1
:1030D0000BE000BFFFF72AFA401B022802D90320A9
:1030E000BDE8F88F20688001F4D40020F8E70120C3
:1030F000F6E7000008380240007000400000FFFFC3
:10310000401EB0F1807F10B501D3012010BD4FF0FB
:10311000E02460610F21601701F084FE0020A061AF
:103120000721216110BD70477047704770B590F856
:103130003C20012A24D0134C012580F83C50022267
:1031400080F83D2002685368A242966802D00E4C77
:10315000A24203D14C6823F4700323430C6823F08C
:10316000700389681C435460002326F080060268BF
:103170003143916080F83D5080F83C30184670BD76
:10318000022070BD000001400004014010B50400A1
:1031900003D094F83D0010B107E0012010BD0020DD
:1031A00084F83C00204600F00DF8022084F83D0031
:1031B0002068211D01F0D2F8012084F83D00002094
:1031C00010BD000008B501681048B1F1804F0BD068
:1031D0000F4A914207D1016841F004010160006883
:1031E00000F00400009008BD016841F00101016099
:1031F00000680022114600F0010000901C20FFF73B
:10320000F5F9BDE808401C20FFF7E2B9403802405C
:10321000000800400168094ACB6843F00103CB6015
:10322000016888681040062806D0B0F5803F03D0BA
:10323000086840F0010008600020704707000100A6
:1032400070B5044690F83C00012817D0324B012598
:1032500084F83C50022084F83D00226890681840B1
:1032600020F47F4090600868502830D00DDC202882
:103270004DD005DC98B310283BD148E0022070BD4A
:10328000302844D0402834D139E0602828D0702834
:1032900006D0B0F5805F2CD0B0F5005F29D10AE0F0
:1032A0004A682068D1E9021301F0CBF820688168F0
:1032B00041F0770109E04A682068D1E9021301F082
:1032C000C0F82068816841F48041816011E0CA68DB
:1032D0004968206801F0FCF92068502107E016E0F9
:1032E000CA684968206801F004FA2068602101F08A
:1032F000B1F8002084F83D5084F83C0070BDCA68E5
:103300004968206801F0E4F920684021EFE722686D
:1033100001461046EBE7000088FFFEFF704770B5DE
:103320000446006800250169C943890715D4C168AE
:10333000C943890711D4EA1E02610121217720685F
:1033400080698007204602D0FFF7E8FF04E000F024
:10335000CFF8204600F07DF9257720680169C94340
:10336000490717D4C168C943490713D402216FF034
:103370000402026121772068806910F4407F2046B2
:1033800002D0FFF7CBFF04E000F0B2F8204600F0D7
:1033900060F9257720680169C943090716D4C16817
:1033A000C943090712D404216FF008020261217792
:1033B0002068C0698007204602D0FFF7AFFF04E015
:1033C00000F096F8204600F044F92577206801695E
:1033D000C943C90617D4C168C943C90613D4082113
:1033E0006FF01002026121772068C06910F4407FFD
:1033F000204602D0FFF792FF04E000F079F8204663
:1034000000F027F9257720680169C943C90708D169
:10341000C168C943C90704D1891E0161204600F073
:103420003FF920680169C943090609D4C168C94345
:10343000090605D46FF0800101612046FFF774FE94
:1034400020680169C943C90509D4C168C94309068F
:1034500005D46FF4807101612046FFF764FE206897
:103460000169C943490609D4C168C943490605D45D
:103470006FF040010161204600F038F920680169D1
:10348000C94389060BD4C168C943890607D46FF0C4
:10349000200101612046BDE87040FFF746BE70BDC7
:1034A00010B586B0044614216846FCF7F9FE0D49B4
:1034B0002068884214D10C48016841F0080101607D
:1034C0000068002100F008000590022082030092AD
:1034D000CDE90101CDE9031004486946FEF72EFF4E
:1034E00006B010BD0008004030380240000C024019
:1034F000704770B5044690F83C000D4601280ED088
:10350000012684F83C60022084F83D000C2A45D056
:1035100007DC5AB1042A1BD0082A78D12CE00220FB
:1035200070BD102A4ED0142A71D15DE0206800F0E1
:1035300099FF2068816941F00801816120688169F3
:1035400021F00401816120682A698169114311E039
:10355000206800F0C1FF2068816941F40061816149
:103560002068816921F4806181612068296982690C
:1035700042EA012181614AE0206800F0E9FF206809
:10358000C16941F00801C1612068C16921F00401ED
:10359000C16120682A69C169114311E0206801F006
:1035A00013F82068C16941F40061C1612068C169F4
:1035B00021F48061C16120682969C26942EA012160
:1035C000C16124E0206801F02BF82068416D41F0D2
:1035D000080141652068416D21F0040141652068C2
:1035E0002A69416D114311E0206801F045F8206817
:1035F000416D41F4006141652068416D21F48061B5
:10360000416520682969426D42EA01214165002037
:1036100084F83D6084F83C0070BD10B5040003D010
:1036200094F83D0010B107E0012010BD002084F89F
:103630003C00204600F00CF8022084F83D00206891
:10364000211D00F08BFE012084F83D00002010BDFC
:103650007047704710B501220446006800F0E4FE90
:103660000C492068884202D00B49884203D1416C42
:1036700041F4004141642068084A816811400629EC
:1036800006D0B1F5803F03D0016841F0010101602F
:10369000002010BD000001400004014007000100AF
:1036A00070B572B60068B0F1804F18D10D4C20682B
:1036B000401C20606068401C6060FDF741FA206893
:1036C0000025322802DBFDF7F7FD25606068B0F5C4
:1036D000FA7F04DB04488021FEF71CFF656062B6B8
:1036E00070BD0000100000200004024070477047C9
:1036F0002DE9F041026804460025D06911689368FD
:1037000010F00F0F5BD003F0010601F49077374300
:1037100069D0C70707D0CF0505D501271762E26F2B
:1037200042F00102E267820708D5DA0706D027686F
:1037300002223A62E26F42F00402E267420708D5D1
:10374000DA0706D0236804221A62E26F42F002020E
:10375000E26702070AD501F02002324306D023684F
:1037600008221A62E26F42F00802E267E26F002A62
:1037700032D0800605D5880603D5216E09B12046D2
:1037800088472168E06F8968490601D4000725D57C
:10379000204601F0B2F820688168490619D5816891
:1037A00021F040018160E06E98B11A490165E06E38
:1037B000FEF71FFC00280FD0E06E016D06E08306C7
:1037C00011D58B060FD5216E12E02046BDE8F041E1
:1037D00008472046FFF78BFFBDE8F0812046FFF742
:1037E00086FFE567F8E7030605D50B0603D5616E8E
:1037F0000029EAD1F0E74006EED54806ECD513687B
:103800002021204623F0400313606167656600F0C5
:103810007FF9E1E76948000810B5040002D0606F45
:1038200010B107E0012010BD002084F87000204690
:1038300000F026F8242060672068016821F001016B
:103840000160204601F0CCF80128ECD0606A10B18C
:10385000204600F087FF2068416821F490414160D4
:103860002068816821F02A0181602068016841F0A8
:10387000010101602046BDE8104000F0D7BF000004
:1038800070B586B0064614216846FCF709FD22494A
:10389000306888423ED12148016841F480210160AE
:1038A000006800F4802005901C481038016841F041
:1038B0000801016000680025022100F00800059061
:1038C0004FF4407007238DE8230003221448CDE90C
:1038D00003236946FEF732FD124C402212484FF096
:1038E000006184E8270003152046C4E90435A5617A
:1038F000E56125626562FEF75FFC08B1FDF7F1F84E
:103900000022B46627201146A663FEF76FFE27202B
:10391000FEF75EFE06B070BD004800404038024031
:10392000000C0240E00100205860024070B5836F37
:10393000202B4BD1B9B1B2B190F87030012B45D0EA
:103940008368012680F870600024416535030466B1
:10395000AB42A0F85820A0F85A204FF0FF0107D141
:10396000026912B126E0012070BD40F2FF1121E092
:103970004FF07F02E3B1B3F1805F1ED0A0F85C404E
:103980002221C467816701688A6842F001028A6067
:103990008168A94201D10169B1B10D49016680F880
:1039A00070400068016841F490710160002070BDB2
:1039B000036933B9A0F85C10E2E7016909B13F215E
:1039C000F8E7A0F85C20DBE70249E7E7022070BDDA
:1039D000854900082B4900082DE9F04172B6234DB6
:1039E000012723494FF000086C1C287848B3214E6A
:1039F000002085F800800A5C3254401C0A28FADB5B
:103A00001D484FF48041FEF785FDAF6096ED040B35
:103A1000B7EE001BB4EE410BF1EE10FA01D1FDF749
:103A20005FF912490322491CC81CFCF744FC78B119
:103A30000F49012201F10C00FFF778FF62B6BDE8E3
:103A4000F08160782070A07860700878A070E8E756
:103A500007490A222F7001F10C00FFF767FF0020D1
:103A600041462154401C0328FBDBE7E718000020F7
:103A700054010020D00300200004024070B5044629
:103A8000406F20283BD161B35AB394F870000128ED
:103A900035D0A4F85020A4F852200025A06E0123B0
:103AA000E164212184F87030E5676167D8B1154978
:103AB0001346C163A16E14480864A16E1348C8641C
:103AC000A06E05652068A66E00F12802E16C304604
:103AD000FEF7E4FB38B11021E167202084F8705034
:103AE0006067012070BD21684020086284F8705032
:103AF0002068816841F080018160002070BD022053
:103B000070BD0000C3480008F14800087D48000867
:103B100070477047FEE70000F8B54B4C84461646E8
:103B2000204600F11603B4F80A5100F1B202B0F8D1
:103B30000C01A5F54077053F1ED0B5F5017F33D0C8
:103B4000B5F5007F36D00127A5F5007EBEF5837E52
:103B50001CD0A5F50071013942D0A5F500710239DC
:103B60004CD0A5F50071033953D0B5F57A7F64D0F8
:103B7000032084F88E01F8BD022784F88E71A4F822
:103B8000140100250D80B4F80E0108E0092084F826
:103B90008E010F800A20B4F80C41B4FBF0F03080A5
:103BA0000988FCF763FCF8BD062084F88E0101F05B
:103BB000C9FAF8BD082184F88E11962804D0A028EF
:103BC00008D001F09DFAF8BD1F4968461D31FCF789
:103BD00061FFF8BD1C4968461C31FCF76AFFF8BD5F
:103BE000042184F88E11000A8DF800001E2802D9E5
:103BF000002001F047FA9DF8000007E084F88E717C
:103C000001F040FAB4F8AC000028E8D101F04EFA17
:103C1000F8BD6422052184F88E115043B0F5803F31
:103C200001DB4FF6FF70084A80B2ACF800001E328C
:103C300002F1F80100F070FDF8BD072184F88E1143
:103C400001F04AFAF8BD00004002002028492DE9A1
:103C5000F04191F877E1BEF1010F26D008464FF010
:103C6000020C03252A1F90F879710126B0F8A230C2
:103C7000BEF1020FB0F8A440D0F8900006D0BEF11B
:103C8000030F32D1B1F822E1734522D02CB1022CBE
:103C900003D0012C01D0032C0ED0441C81F87751A5
:103CA000A042A1F8223112D803E0BDE8F041FCF7B0
:103CB000EDBBC1F8904012E081F87761022FA1F8C6
:103CC000223112D081F879C1A1F8046107E01446CD
:103CD000EFE7431C984200D91346C1F8903001F039
:103CE00009F9BDE8F04101F0E9B8BDE8F081000054
:103CF000400200201048002170B50E4D06240560DA
:103D00004FF46022C0E9014100F10C044FF480132C
:103D100084E80E00017641768176C176017741779D
:103D2000FEF71DF8002803D0BDE87040FCF7D9BEAF
:103D300070BD000000640040AC000020094808B5D8
:103D4000016841F40011016000680022114600F48E
:103D5000001000900E20FEF749FCBDE808400E2040
:103D6000FEF736BC30380240704700002DE9F04FB6
:103D700087B014216846FCF793FA5F48016841F068
:103D800010010160016801F010010591016841F026
:103D900004010160016801F004010591016841F02E
:103DA00020010160016801F020010591016841F0E6
:103DB00080010160016801F080010591016841F016
:103DC00001010160016801F001010591016841F004
:103DD00002010160016801F002010591016841F0F2
:103DE00040010160016801F040010591016841F066
:103DF00008010160006844F68149DFF800B1002243
:103E000000F00800494605905846FEF78AFB4FF43B
:103E100000573B4800223946FEF783FB4FF4404AE7
:103E2000384800225146FEF77CFB032543F6FF701D
:103E3000002469460294CDE900053248FEF77EFA77
:103E400031486946DFF8C4800097CDE90104404657
:103E5000FEF774FA4DF6FF760096CDE901546946F7
:103E60004046FEF76BFA009669462548CDE90154B5
:103E7000FEF764FA4FF6FF78CDF8008024486946D3
:103E8000CDE90154FEF75AFA0126CDF80090CDE9AC
:103E90000164694658460394FEF750FA4BF27E30AF
:103EA0006946CDE9000558460294FEF747FA0097A7
:103EB0006946CDE9016412480394FEF73FFACDF854
:103EC000008069461348CDE90154FEF737FACDF872
:103ED00000A06946CDE901640A480394FEF72EFA72
:103EE00047F6FC406946CDE900050B480294FEF711
:103EF00025FA07B0BDE8F08F3038024000040240D8
:103F0000001402400010024000001110000802409E
:103F10000000024000180240000C024010B588B0BA
:103F20001648002440F2E7324FF0804100946B23A2
:103F300001940294039404940594069480E8160076
:103F4000C0E903348461FFF721F908B1FCF7C9FD2A
:103F50004FF48050009009486946FFF771F908B1A5
:103F6000FCF7BFFD054804A904940694FFF7DEF8AA
:103F7000002801D0FCF7B5FD08B010BDD40000202A
:103F800010B58EB000241C21009407A8019402945F
:103F90000394049405940694FCF782F91E4840F2B9
:103FA000CF7140F237421B4BC0E90241046184618A
:103FB000C0E90032FFF7EAF808B1FCF792FD4FF4D0
:103FC0008050009014486946FFF73AF908B1FCF7B1
:103FD00088FD1148FFF721FB08B1FCF782FD0E4870
:103FE00004A904940694FFF7A1F808B1FCF779FD41
:103FF0006020CDE9070408480C2207A909940B9416
:10400000FFF777FA08B1FCF76CFD0348FFF748FAB1
:104010000EB010BD00080040140100200D48002122
:1040200010B50B4C0C224FF4E1330460C0E90131B0
:10403000C160C0E904128161C16101624162FFF7A0
:10404000EBFB002803D0BDE81040FCF74ABD10BDD3
:104050000048004060010020FEE7000014480146CF
:1040600090F87C21D1F88410012A0ED0022A12D0B7
:104070000146032A91F87E1113D0042A10D1022997
:1040800001D006290CD1022108E0022901D0002923
:1040900006D1042102E0012902D1032180F87C111C
:1040A0007047022901D00629FAD10121F6E7000064
:1040B00040020020704770B5DDE904450688360AE5
:1040C0002E70007868700888000AA8700878E87078
:1040D0001088000A2871107868711888000AA87181
:1040E0001878E8712088000A28722078687270BDFC
:1040F000002210B501EB420430F812301B0A01F81F
:10410000123010F81230521C0A2A6370F2DB10BD14
:1041100070470000F8B54B4C84461646204600F127
:104120001603B4F80A5100F1B202B0F80C01A5F57B
:104130004077053F1ED0B5F5017F33D0B5F5007F40
:1041400036D00127A5F5007EBEF5837E1CD0A5F5EF
:104150000071013942D0A5F5007102394CD0A5F5A6
:104160000071033953D0B5F57A7F64D0032084F809
:104170008E01F8BD022784F88E71A4F81401002581
:104180000D80B4F80E0108E0092084F88E010F803C
:104190000A20B4F80C41B4FBF0F030800988FCF739
:1041A00065F9F8BD062084F88E0100F0CBFFF8BD5C
:1041B000082184F88E11962804D0A02808D000F099
:1041C0009FFFF8BD1F4968461D31FCF763FCF8BD31
:1041D0001C4968461C31FCF76CFCF8BD042184F8CE
:1041E0008E11000A8DF800001E2802D9002000F070
:1041F00049FF9DF8000007E084F88E7100F042FF4F
:10420000B4F8AC000028E8D100F050FFF8BD6422FB
:10421000052184F88E115043B0F5803F01DB4FF645
:10422000FF70084A80B2ACF800001E3202F1F801BB
:1042300000F072FAF8BD072184F88E1100F04CFFEF
:10424000F8BD000040020020704770B505460C46DE
:104250000846FCF719FC2078287070BDFEF76CB991
:1042600030B5B7B0342124A8FCF71AF8142131A8CE
:10427000FCF716F890216846FCF712F81D48016813
:1042800041F080510160006800F0805036901A487B
:10429000016841F44041016000680224D82500F41F
:1042A000404036900420012103058203CDE92C050E
:1042B000CDE92A43CDE92E40CDE9241224A8FEF70A
:1042C00081FDFEF7C5F9E2024FF4A0510025CDE9CA
:1042D000341231AA0F20072182E8310031A8FEF7FD
:1042E0008BFCE001139500906846FEF7E7F937B0C4
:1042F00030BD00004038024000700040104A30B528
:104300001048146800210F4B44F470041460083303
:1043100005680D4A0D4C45F00105056019600368FC
:10432000051D1340074A03600C322C600568E30545
:10433000034C25F480250560803C1160236030BD6E
:1043400088ED00E000380240FFFFF6FE1030002448
:104350000148FEF7E4BF0000D4000020F0B5274B71
:104360004FF0804E264D02689842264E264F274C2D
:1043700009D0704507D0A84205D0B04203D0B8425A
:1043800001D0A04205D1D1F804C022F070024CEA5D
:10439000020298421BD0704519D0A84217D0B042F3
:1043A00015D0B84213D0A04211D0194DA8420ED05A
:1043B000184DA8420BD0184DA84208D0174DA8425E
:1043C00005D0174DA84202D0164DA84203D1CD68A2
:1043D00022F440722A434D6922F080022A4302608F
:1043E00098428A68C2620A68826201D0A04201D102
:1043F0000969016301214161F0BD00000000014035
:104400000004004000080040000C0040000401408F
:1044100000400140004401400048014000180040B5
:10442000001C00400020004010B5046A012301F088
:104430001F018B409C4304628A40016A1143016260
:1044400010BD42EA032283680A4323F47F410A43F2
:1044500082607047826822F070020A4342F00701CE
:1044600081607047F0B5026ADFF860C0184F22F033
:104470000102DFF860E00262066A4268836926F0A2
:1044800002060D68B8428C6803EA0C0323F00303AC
:1044900044EA060445EA030501D0704505D1CB681E
:1044A00024F00804234323F00404B84201D07045EB
:1044B00005D122F44076D1E9053233431A434260F4
:1044C0008561496841630462F0BD00008FFFFEFF13
:1044D0000000014000040140F0B5026A194E1A4C78
:1044E00022F01002DFF864E00262056A4368826924
:1044F00025F02005D1F808C0A0420F6802EA0602A4
:1045000022F4407245EA0C1542EA072201D07045B8
:1045100006D1CE6825F0800545EA061525F0400550
:10452000A04201D0704507D1D1E9054623F440638C
:1045300043EA840343EA86034360826149688163F6
:104540000562F0BDFF8FFFFE000001400004014046
:10455000F0B5026A194F1A4E22F48072DFF864E057
:104560000262056A4368C26925F40075D1F808C083
:10457000B0420C6802EA070222F0030245EA0C2569
:1045800044EA020401D0704506D1CF6825F40062E8
:1045900042EA072222F48065B04201D0704507D17B
:1045A00023F44052D1E9053642EA031242EA0613E7
:1045B0004360C4614968C1630562F0BD8FFFFEFFBF
:1045C0000000014000040140F0B5026A124B114F97
:1045D00022F4805298420262046A4268C36924F459
:1045E00000548E680D6803EA070323F4407344EA1D
:1045F000063443EA052302D0084DA84204D14D6990
:1046000022F4804242EA85124260C3614968016433
:104610000462F0BDFF8FFFFE000001400004014076
:10462000F0B5026ADFF844C022F480320262056A03
:104630004268446D25F400350E8960450C4F0B68C7
:1046400004EA070445EA064543EA040302D0094C9C
:10465000A04204D14C6922F4803242EA0422426032
:104660004365496881650562F0BD000000000140B6
:104670008FFFFEFF00040140F0B5026ADFF844C07E
:1046800022F480120262046A4268436D24F400142A
:104690000E8960450C4F0D6803EA070344EA06548F
:1046A00043EA052302D0094DA84204D14D6922F402
:1046B000802242EA8522426043654968C1650462FE
:1046C000F0BD000000000140FF8FFFFE000401402C
:1046D00010B5036A046A23F00A0324F0010404629B
:1046E00084690B4324F0F00141EA02118161036205
:1046F00010BD10B5036A23F0100303628369046AD6
:1047000023F4704324F0A00443EA0232826144EAB5
:104710000111016210BD00007CB50D460F4E111D48
:104720001446334628801A46CDE900610C482946D4
:10473000FFF7C1FC2A88642104F10E003346B2FB66
:10474000F1F122462180CDE900600548011D801C61
:10475000FFF7B1FC288860807CBD0000745200081F
:104760007652000890F82410C90706D00168836AC1
:104770004A6822F400321A434A6090F824108907EC
:1047800006D50168C36A4A6822F480321A434A6037
:1047900090F82410490706D50168036B4A6822F493
:1047A00080221A434A6090F82410090706D5016850
:1047B000436B4A6822F400421A434A6090F824107E
:1047C000C90606D50168836B8A6822F480521A43B1
:1047D0008A6090F82410890606D50168C36B8A6840
:1047E00022F400521A438A6090F82410490611D529
:1047F0000168036C4A6822F480121A434A60016C13
:10480000B1F5801F06D10168436C4A6822F4C002EA
:104810001A434A6090F82410090606D50168826C94
:10482000486820F4002010434860704738B50025E0
:104830000446C567FDF77AFE034620680068000756
:104840000BD56FF07E400090002220464FF40011FF
:1048500000F0F0F908B1032038BD2020606784F82B
:104860007050A067002038BD10B5806B0021A0F803
:104870005A10A0F85210FEF73AFF10BD70B5846BC5
:1048800000252168606FA66F8968090606D5212872
:1048900004D1A4F85250204600F03FF82068806808
:1048A000400606D5222E04D1A4F85A50204600F026
:1048B00024F8E06F40F01000E0672046FEF717FF95
:1048C00070BD10B5C169806BB1F5807F0DD000213E
:1048D000A0F8521001688A6822F080028A6000689D
:1048E000016841F04001016010BDFFF711F910BDF2
:1048F00010B5806BFFF70DF910BD10B501682022CF
:1049000000230C6824F490740C6001688C6824F017
:1049100001048C608267036610BD016820220B6869
:1049200023F0C0030B604267704710B5816FB0F889
:104930005C202229016804D0886940F00800886161
:1049400010BD496A436D11401980416D891C416554
:10495000B0F85A10491EA0F85A10B0F85A100029A1
:10496000EED10168202200230C6824F490740C60BE
:1049700001688C6824F001048C6082670366FFF78D
:104980002BF810BD10B5816FB0F85C2022290168AA
:1049900004D0886940F00800886110BD496A436D01
:1049A00011401970416D491C4165B0F85A10491EFB
:1049B000A0F85A10B0F85A100029EED10168202250
:1049C00000230C6824F490740C6001688C6824F057
:1049D00001048C6082670366FEF7FEFF10BD0000D5
:1049E0002DE9F04104468068DFF818C2864F23683D
:1049F000D4E90452E16928431E6800250A4383492B
:104A0000104306EA0C0606431E604FF4004220687D
:104A1000E668436823F44053334343602368A66940
:104A2000206AD3F808C030432CF4306606439E60F9
:104A30002068B8420AD1086810F0030052D001285B
:104A40007BD002287AD003286ED186E0704B984242
:104A50000AD1086810F00C0079D004287BD008280F
:104A600077D00C2860D178E06A4B98420AD1086868
:104A700010F030006BD010286DD0202869D030287D
:104A800052D16AE0644B98420AD1086810F0C00025
:104A90005DD040285FD080285BD0C02844D15CE046
:104AA0005E4B98420DD1086810F440704FD0B0F5BD
:104AB000807F50D0B0F5007F4BD0B0F5407F33D130
:104AC0004BE0574B98420FD1086810F4406009D072
:104AD000B0F5806F3FD0B0F5006F3AD0B0F5406FC1
:104AE00022D13AE0012120E04E4B98420DD10868D6
:104AF00010F440502BD0B0F5805F2CD0B0F5005FA3
:104B000027D0B0F5405F0FD127E0474B98420BD13B
:104B1000086810F440401AD0B0F5804F1BD0904286
:104B200017D0B0F5404F18D01021E0694FF6EF765E
:104B3000904238D109295DD202E00CE009E006E09C
:104B4000DFE801F00D1027582A5858582D00002191
:104B5000EBE70221E9E70421E7E70821E5E7FEF7B3
:104B6000E1F801E0FEF7EEF80146D4F80400490050
:104B700001EB5001B1FBF0F080B2A0F11001B142A5
:104B800038D84FF6F0732168C0F342021840104342
:104B900024E026496068EBE7FEF7E4F8E4E76068A4
:104BA0004FF48031E4E7092924D2DFE801F0050859
:104BB00019231C2323231F00FEF7B4F801E0FEF79E
:104BC000C1F80146D4F8040001EB5001B1FBF0F04C
:104BD00080B2A0F11001B1420CD82168C8600AE08F
:104BE00013496068F0E7FEF7BDF8EAE7606802EB9A
:104BF0005001EBE701250020206660662846BDE8ED
:104C0000F0810000F369FFEF00100140903802408E
:104C10000044004000480040004C0040005000406C
:104C20000014014000780040007C00400048E8018A
:104C30000024F4002DE9F041984617460E4604463C
:104C4000069D08E0681C06D0FDF770FCA0EB08008C
:104C5000A8420BD855B12068C06936EA000017D0C9
:104C60000020B842EED00020BDE8F081216820206D
:104C700000220B6823F4D0730B6021688B6823F04B
:104C800001038B606067A067032084F87020EBE766
:104C90000120E6E70148FEF72BBD0000600100207F
:104CA00070B5DDE90445068876BA0E80418849BAB8
:104CB0001180818849BA1980C18849BA2180008948
:104CC00040BA288070BD70B505460C460846FBF713
:104CD000EAFE2078287070BDFEE70000F8B5504D60
:104CE00001270F8016462A4602F11603B5F80A413D
:104CF000B232A4F5407CBCF1050C1DD0B4F5017FA7
:104D000034D0B4F5007F37D0A4F5007CBCF5837CAB
:104D10001ED0A4F50071013946D0A4F50071023906
:104D200052D0A4F5007103395BD0B4F57A7F6FD00F
:104D3000032085F88E01F8BD022485F88E41B5F870
:104D40000C410020A5F814410880B5F80E0108E0D8
:104D5000092085F88E010F800A20B5F80C41B4FBBC
:104D6000F0F030800988FBF781FBF8BD062085F85C
:104D70008E0100F0E7F9F8BD082085F88E01B5F83E
:104D80000C01962804D0A02808D000F0B9F9F8BD8D
:104D9000234968461D31FBF77DFEF8BD2049684672
:104DA0001C31FBF786FEF8BD042085F88E01B5F8AE
:104DB0000C01000A8DF800001E2802D9002000F026
:104DC00061F99DF8000009E085F88E71B5F80C01D5
:104DD00000F058F9B5F8AC000028E4D100F066F90D
:104DE000F8BD052185F88E11B5F80C1164225143E8
:104DF000B1F5803F01DB4FF6FF71094A8BB20380AA
:104E00001E32184602F1F801FFF786FCF8BDFFE7F5
:104E1000072085F88E01B5F80C0100F05DF9F5E783
:104E200040020020090700284FEA116104DB00F16D
:104E3000E02080F80014704700F00F0000F1E0203F
:104E400080F8141D704702E008C8121F08C1002A2C
:104E5000FAD170477047002001E001C1121F002AFB
:104E6000FBD1704770B5144C94F8891194F8610126
:104E700081421FD104EB8000B4F89410026E91427D
:104E800018DB006FB4F89610814213DBD4F884501D
:104E90000220C4F8840094F87F0108B1FCF78EFA70
:104EA000C4F8845094F88901401CFF2800DDFF20DD
:104EB00084F8890170BD0000400200200C4890F881
:104EC0002F2190F88A118A4208D0014690F87E314D
:104ED000012B91F87C1102D0032902D170470429DB
:104EE000FCD180F88A2190F83001FBF761BD000009
:104EF000400200202DE9F041214CB4F89A10B4F89A
:104F00002001814225D02046A4F82011B4F89C202D
:104F10000226D0F88450B2F5C87F90F87D0110D0F9
:104F2000C82A4FF0000716D0322A4FF001011FD0D7
:104F3000642A0ED1C4F8841088B100BFFFF78EF840
:104F40000DE0C4F88460B8B9C4F8846009E0C4F81E
:104F50008450BDE8F0810028C4F88470EED1C4F814
:104F6000847094F87F010028F1D0FCF727FAEEE76F
:104F70000028C4F88410E7D0FFF770F8E4E70000D9
:104F8000400200200A4810B5B0F8A210A0F8221183
:104F9000D0F890100A46491C8A4201D94FF0FF31DF
:104FA000C0F89010FFF7A6FFBDE81040FFF786BFDE
:104FB00040020020024901EB8000806D7047000034
:104FC000400200202DED028BFDF7BEFAFFF748F9F5
:104FD000FEF7CCFEFEF7B2FEFFF720F8FEF79EFFCD
:104FE000FEF7C2FEFEF7CCFFFEF784FE1E48FEF77A
:104FF00011F91E4901221E48FEF798FC1D4C0122A2
:10500000D1022046FDF78DFA012220469102FDF7DC
:1050100088FA194C0122D1032046FDF782FA0122B9
:1050200020469103FDF77DFA012214485103FDF754
:1050300078FAFBF757FD124CB7EE000B84ED040B2A
:10504000FBF74EFEFBF764FCB0EE088B94ED040B0F
:10505000B4EE480BF1EE10FAF8D1FBF741FE6420F4
:10506000FDF75AF9F2E70000D400002054010020B7
:1050700060010020000402400010024000140240C1
:10508000D00300200849B1F8AA20FF2A01D300224A
:1050900005E0521CB2F5803F01DB4FF6FF72A1F82C
:1050A000AA20A1F8AC00704740020020094991F8FD
:1050B0004521FF2A01D3002203E0521CFF2A00DD14
:1050C000FF2281F84521FF2800D9FF2081F8460101
:1050D00070470000400200200849B1F8AE20FF2AC6
:1050E00001D3002205E0521CB2F5803F01DB4FF6F0
:1050F000FF72A1F8AE20A1F8B00070474002002076
:105100000F49B1F8A620FF2A01D3002205E0521C66
:10511000B2F5803F01DB4FF6FF72A1F8A620A1F89F
:10512000A80091F86411642908D0322803D06428BB
:1051300001D0C82802D10020FFF7A4BF70470000AB
:1051400040020020064991F87001FF2801D3002099
:1051500003E0401CFF2800DDFF2081F8700170474C
:10516000400200200BA10C4A30B4096811700B0AF0
:1051700053700C0C947000215418435C491C142982
:10518000E370F9DB0D20D07530BC034918220348C9
:10519000FEF774BC686472003800002060010020D3
:1051A00007B582B0054802A90346CDE900020448CC
:1051B00003AAFEF780FF05B000BD0000745200088E
:1051C00078520008284930B50A4691F863414FF4F7
:1051D0008035681EB2F81C311CB991F87521012A7E
:1051E00024D0012C29D0B1F818219632AA4200D33C
:1051F0000246A1F81821B1F81A21521DAA4200D383
:10520000024690B2A1F81A0191ED0E0BB5EEC00B5B
:10521000F1EE10FA16D040F206329FED140B81ED3C
:105220000E0BA1F8FE20A1F8000119E05A1CAA42B9
:1052300000D30246A1F81C2112E00020A1F81801B9
:10524000A1F81A0140F20530B7EE000B81ED0E0B0C
:10525000A1F8FE00A1F80031B1F81801A1F802018F
:1052600081F8754130BD00004002002000000000C0
:1052700000000000000000051903030000061016DE
:1052800000061016000000000000000001020304E8
:10529000060708090000000001020304BC520008D0
:1052A0000000002038000000464E0008F4520008BC
:1052B00038000020D8070000564E0008000000000B
:1052C00000000000000000000000000000000000DE
:1052D0000000000000000000686472000000000090
:1052E00000000000010000001000000000000000AD
:0452F0000024F400A2
:04000005080001F9F5
:00000001FF
