:020000040800F2
:10000000980800200D020008E9400008F13A0008B5
:100010008D400008950A00080D4D00080000000002
:100020000000000000000000000000007D42000809
:10003000E10B000800000000454100089142000863
:1000400027020008270200082702000827020008EC
:1000500027020008270200082702000827020008DC
:1000600027020008270200082702000827020008CC
:100070002702000827020008250B000827020008B5
:10008000270200082702000851090008270200087B
:10009000270200082702000827020008270200089C
:1000A000270200082702000827020008270200088C
:1000B00085430008270200082702000827020008DD
:1000C000270200082702000827020008270200086C
:1000D000270200082702000827020008C94C000870
:1000E000270200082702000827020008270200084C
:1000F000270200082702000827020008270200083C
:10010000270200082702000827020008270200082B
:10011000270200082702000827020008270200081B
:10012000310B0008270200082702000827020008F8
:1001300027020008270200082702000827020008FB
:1001400027020008270200082702000827020008EB
:1001500027020008270200082702000827020008DB
:1001600027020008270200082702000827020008CB
:1001700027020008270200082702000800000000EC
:1001800027020008270200082702000827020008AB
:10019000270200082702000827020008270200089B
:1001A000270200082702000827020008270200088B
:1001B000270200082702000827020008270200087B
:1001C000270200082702000800000000270200089C
:1001D000270200082702000827020008270200085B
:1001E000270200082702000827020008270200084B
:1001F0002702000827020008DFF80CD000F08AF878
:1002000000480047F94F000898080020064880473A
:1002100006480047FEE7FEE7FEE7FEE7FEE7FEE7EB
:10022000FEE7FEE7FEE7FEE731430008F9010008BC
:100230002DE9F05F0546002092469B46884606461B
:10024000814640241BE0284641464746224600F0AE
:1002500050F853465A46C01A914110D311461846D9
:10026000224600F037F82D1A67EB01084F46224668
:100270000120002100F02EF817EB00094E41201E4E
:10028000A4F10104DFDC484631462A464346BDE876
:10029000F09FD2B201E000F8012B491EFBD270475B
:1002A0000022F6E710B513460A4604461946FFF742
:1002B000F0FF204610BD30B505460020034600E0A3
:1002C0005B1C934205D2EC5CC85C201A01D1002C67
:1002D000F6D130BD202A04DB203A00FA02F10020DA
:1002E00070479140C2F1200320FA03F31943904074
:1002F0007047202A04DB203A21FA02F000217047DF
:1003000021FA02F3D040C2F120029140084319467D
:1003100070470000064C074D06E0E06840F001031E
:1003200094E8070098471034AC42F6D3FFF768FF13
:10033000F852000818530008F8B54B4C844616468E
:10034000204600F11603B4F8325100F1DA02B0F899
:100350003401A5F54077053F1ED0B5F5017F33D0B8
:10036000B5F5007F36D00127A5F5007EBEF5837E6A
:100370001CD0A5F50071013942D0A5F500710239F4
:100380004CD0A5F50071033953D0B5F57A7F64D010
:10039000032084F8B601F8BD022784F8B671A4F8EA
:1003A0003C0100250D80B4F8360108E0092084F8EE
:1003B000B6010F800A20B4F83441B4FBF0F030806D
:1003C000098800F053F8F8BD062084F8B60104F05F
:1003D000DDFEF8BD082184F8B611962804D0A028C7
:1003E00008D004F0B1FEF8BD1F4968461D3100F089
:1003F000FFFBF8BD1C4968461C3100F008FCF8BD45
:10040000042184F8B611000A8DF800001E2802D9D4
:10041000002004F05BFE9DF8000007E084F8B67150
:1004200004F054FEB4F8D4000028E8D104F062FED1
:10043000F8BD6422052184F8B6115043B0F5803F21
:1004400001DB4FF6FF70084A80B2ACF800001E32A4
:1004500002F5907104F07AF9F8BD072184F8B6111D
:1004600004F05EFEF8BD00002800002010B51C88D6
:1004700014805C8854809C88948022F81100108835
:100480001880508858809088988010BD2DE9F04FD2
:10049000DFF81894022700244FF0030A48462DED98
:1004A000028B81B000F1110B00F5C770009001259F
:1004B000B9F8CA00B9F84A11884238D000985946AC
:1004C00004F01BFCB9F8CC00D8B1022819D00128DF
:1004D00017D089F8A341032889F8A24120D089F8D0
:1004E000A14189F89FA1B9F8CA00A9F84A01D9F831
:1004F000B8000146401C814200D9601EC9F8B8000E
:1005000036E089F8A34189F8A24189F8A14189F828
:100510009FA101B0BDEC028BBDE8F04F04F04CBDD3
:1005200089F89F51B9F8CA00A9F84A011CE0DF49CF
:10053000192699F8A131012B91F8A3E1B1F84621D0
:10054000B1F8C800B1F8C61006D0022B7ED1914296
:100550000CD001287BD009E099F8A231012B10D0F2
:10056000022B73D189F8A24189F8A171A9F82C5105
:1005700004F0DAFC01B0BDEC028BBDE8F04F04F0F2
:10058000B7BC914200D060B19FEDC98BC74BBEF1A3
:10059000060FB3F84C3159D2DFE80EF0E51499F3A9
:1005A000F1F0A9F84611594689F8A34189F8A271DA
:1005B000009804F0A2FBA9F82E5121462846A9F87C
:1005C00030417BE0012B4C467BD8914201D0022880
:1005D00004D084F8A351A4F82CA1F4E00520A4F8D9
:1005E000461184F8A301002004F0FEFC00EE100A7E
:1005F000B8EEC00B84ED120BB4EEC80BF1EE10FA9E
:100600000CD2B5EEC00BF1EE10FA05DBBCEEC00B60
:1006100010EE100AC0B202E0002000E0FF2000F05F
:100620006FFA022004F0E0FC90FBF6F10020A046F7
:10063000C4F8881004F0D8FC0446012004F0D4FC6F
:10064000002C014608DB6FF0004001E08BE0DEE0AB
:10065000221A914208DB06E004F10040814202DDEB
:100660004FF0004000E0601A6FF0004280FB06404F
:100670000021121B814102DA6FF0004407E04FF0C5
:100680000041611A70F1FF3001DA4FF0004402209E
:1006900004F0AAFC00EE100A28463946B8EEC01B4A
:1006A00000EE104AB8EEC00B80EE012B88ED142B43
:1006B000A8F84C61A8F82E51A8F830717B4AEDE0FB
:1006C000FFE75B1E00D50023A9F84C3180E0012B29
:1006D0004C464DD8D4F88800002806DD012004F0EF
:1006E00083FC94F8911188420FDB002000F008FA97
:1006F0000098594604F001FB84F8A3A1A4F84C61CA
:1007000094F8890184F8B10140E084F8A37194ED74
:10071000120B94ED141B30EE410B84ED120BB4EE72
:10072000C80BF1EE10FA0DD2B5EEC00BF1EE10FAD7
:1007300006DB00BFBCEEC00B10EE100AC0B202E038
:10074000002000E0FF2000F0DBF9D4F888004FF033
:100750000041884202DCC4F8881002E0401EC4F860
:100760008800A4F84C6101B0BDEC028BBDE8F08FAD
:100770005B1E00D50023A9F84C31F4E72FE01BE005
:10078000FFE799F889014E46052806D001B0BDEC77
:10079000028BBDE8F04F04F07FBB86F8A3415946B9
:1007A00086F8A271009804F0A8FAA6F82E512846FF
:1007B0002146A6F8304181E7012B4846D8D880F879
:1007C000A351A0F82CA16420A9F84C6100F098F97D
:1007D00001B0BDEC028BBDE8F04F04F0A5BB012BCE
:1007E0004C46C5D884F8A37194ED120B94ED141BFC
:1007F00030EE410B84ED120BB4EEC80BF1EE10FAA3
:10080000A0D2B5EEC00BF1EE10FA99DB92E709F138
:100810005808A9F8461132234FF0FA0C89F8A15173
:1008200042F6F82288E81810C9F8642009F1740A21
:10083000C9F868204FF07108C9F86C202E21C9F85A
:1008400080803D2348464FF04D0CC9F87020BEF122
:10085000040F8AE80A109FED180BA0F84C4180EDB8
:10086000120B80ED140BC0F8884089F8A25184D097
:10087000042089F8A3010D49A9F82C71A9F84C614D
:100880001231009803F0FBFC642000F039F9074AAC
:100890002846A9F82E510146A9F8305101B0BDEC07
:1008A000028BBDE8F04F04F09FBC00002800002040
:1008B0000000000000007040000000000000000088
:1008C00010B50146806B026C12F0500F05D0026C1F
:1008D000D20626D501F0ABF910BD016C41F40071D0
:1008E000016401688A6812F0405F17D18269AAB971
:1008F000CA6A12F4700F02D08A6852050ED44A6890
:1009000022F020024A60016C21F480710164016CC4
:10091000C90403D4016C41F00101016401F07CF9C8
:1009200010BD806BC26C0846BDE81040104710B582
:10093000806B40210164416C41F00401416401F08D
:1009400076F910BD10B5806B01F070F910BD000094
:10095000014801F06DB90000840200204A496FF09F
:10096000706210B5D1F8043323F44033C1F8043376
:10097000D1F8043344682343C1F8043301684B6859
:1009800023F480734B60016803694C6844EA0323D5
:100990004B6001684B6823F040734B6001688468CA
:1009A0004B6823434B6001688B6823F400638B60C2
:1009B0000168C4688B6823438B60816AD1420168F7
:1009C0008A6822F070628A6001680DD0836A8A6842
:1009D0001A438A6001688A6822F040528A6001687E
:1009E000C36A8A681A4302E08A6822F040528A6029
:1009F00001688A6822F002028A60016882698B6855
:100A000043EA42028A6090F820100029016811D060
:100A10001E4A4B6843F400634B6001684B6823F443
:100A200060434B600168446A4B6802EB44321343F5
:100A30004B6003E04A6822F400624A600168144B8C
:100A4000CA6A22F47002CA620168848BCA6A03EB24
:100A500004531A43CA6201688A6822F400728A60E9
:100A6000016890F830208B6843EA42228A6001686E
:100A70008A6822F480628A60016840698A6842EA72
:100A80008020886010BD00000020014000E0FFFFD2
:100A90000000F0FFFEE7000010B500F029F8BDE807
:100AA000104002480C2102F0C3BD00006C0300207E
:100AB00010B5007888B0642800D964200B496423FD
:100AC0006024CA68002100944243B2FBF3F00C2278
:100AD000CDE9010105480491694602F0F8FC03489C
:100AE0000C2102F0A5FD08B010BD00006C03002031
:100AF00008B564208DF800006846FFF7D9FF08BDEF
:100B00000649642881F8910100D36420C0F1640093
:100B100081F897010248FFF7CBBF000028000020B2
:100B2000BF010020014801F065BA00003804002030
:100B3000014801F05FBA0000CC02002001681823D0
:100B4000CAB2103AB2FBF3F2054B6FF30901032A64
:100B50009B5CC36500D9091D81650846704700008C
:100B6000D852000810B583694FF0C074826A0146FC
:100B7000002053B1B3F5005F15D072B1012A0CD03B
:100B8000022A0AD0032A09D104E01AB1012A06D0A8
:100B9000022A03D1C96AC90100D5012010BDC96A62
:100BA000A142FAD010BD002AF7D0012AF2D0022AC1
:100BB000F3D0032AF3D010BD30B50468256825F4BE
:100BC00080252560046863608368402B036803D038
:100BD00099600068C26030BD9A600068C16030BD35
:100BE0007047704701210170704701210170704703
:100BF00070B505460C460846FFF7F7FF20782870C9
:100C000070BD00210170704700210170704770B500
:100C100005460C460846FFF7F7FF2078287070BDA0
:100C200070B505460C46084600F003F82078287099
:100C300070BD01210170704700210170704770473D
:100C40002DE9F041134F03261348321F322342F699
:100C5000F82100247E70FA253E702E26C0F88420EC
:100C60003D2283654D23C4657124056607254166D1
:100C70008166C166C0E91C1600F1780181E81C009C
:100C800080F89C51FFF708FFFFF7ABFFBDE8F0418C
:100C900000F066BE0000002028000020F8B5644C7B
:100CA000022601254FF0FF32002094F8991184F8B4
:100CB000891194F94E1101EB410104EB4101B1F8A6
:100CC000F430A4F8BC30B1F8F630A4F8BE30B1F876
:100CD000F810A4F8C01094F94F1104EB8101B1F899
:100CE0000031A4F8C230B1F80211A4F8C41094F88D
:100CF0009A1184F88A1194F9501104EB8101B1F82A
:100D00000831A4F8C630B1F80A11A4F8C81094F953
:100D1000511104EB410191F8833184F8573191F876
:100D2000841184F8581194F9521104EB8101B1F83F
:100D30001031A4F8CA30B1F81211A4F8CC10C4F8DC
:100D4000842094F89E11E9B194F8A00108B102F052
:100D50006BFF94F8A50108B103F09AF994F8A70184
:100D600008B100F0F3FB94F8B00188B394F8AF0138
:100D700001282ED02E4964260A31022838D00328B3
:100D800047D135E084F89E5184F8A051A4F846017B
:100D9000A4F8480184F8B201A4F84A0184F89F61DC
:100DA00084F8A55184F8A45184F8A751C4F88C00A4
:100DB00094F8A611042902D0042184F8A61184F81D
:100DC000B051032184F8B30184F8B40184F8AF1161
:100DD0001FE094F8B40128B1401E00D5002084F82B
:100DE000B40116E0134884F8AF61FFF725FF10E067
:100DF00094F88A0194F8B32190420AD0684684F8A6
:100E0000AF51FFF70DFF94F88A0184F8B30184F81D
:100E1000B46194F88E0108B1012100E00021064878
:100E2000417094F89B1101B101210170F8BD0000DF
:100E300028000020BA010020000000202DE9F04F1A
:100E4000FE4C8BB0012540F202264FF002094FF014
:100E5000030A94F8901184F88B1194F89C010828E7
:100E600048D2DFE800F047041060131A374105212B
:100E700084F89C114FF40070A4F826014FF4C87256
:100E8000A4F828214FE004F0C1F94CE084F89C510B
:100E9000A4F82661A4F8285145E0B4F844010128DB
:100EA00001D041B113E0062184F89C11A4F8266119
:100EB000A4F8289137E094F89D21012A07D1401C1D
:100EC000B0F5803F01D34FF6FF70A4F8440184F8D9
:100ED0009D1128E084F89C910020A4F82601A4F834
:100EE0004001A4F842011EE008209FEDD50B84F8D4
:100EF0009C0116E094ED100BB2EE041BB4EE410B16
:100F0000F1EE10FA09D1042184F89C114FF47A70A3
:100F1000A4F82601A4F828A105E0B7EE001B30EEE6
:100F2000010B84ED100BC848C849A0F139020B46EB
:100F3000CDE90010911E3D3803F0D7F8C249553174
:100F400091ED040BBDEEC00B10EE100A012836D057
:100F500002284FF000003BD02118401C0A2891F8CD
:100F6000632181F85921F7DBB748A34694F8912112
:100F7000293884F88C21811E031FCDE90010821FBF
:100F8000891F1F3003F0A6FE94F8B50148B3AB4F9C
:100F900040F2053E9BF8B60107F11603DC1D621C0A
:100FA00007F1DA0107F11C0C092807F59F7770D2C9
:100FB000DFE800F06F1A20262C328BB3DA00002015
:100FC00023180A5C401C0A2883F85921F8DBCBE778
:100FD0000A182318401C127E0A2883F85921F7DBCF
:100FE000C2E78BF8B5516DE004AA03A902A8FFF788
:100FF000A3F9FAE004AA03A902A800F0F1FBF4E0C7
:1010000004AA03A902A802F075FDEEE004AA03A950
:1010100002A803F099F8E8E0BBF83201704576D0F9
:10102000B0F5017FD84673D0B0F5007F28D0A0F589
:10103000007C5C46BCF5837C6BD0A0F50071013967
:101040000CD0B04233D100BF84F8B651B4F83401AB
:1010500004F03CF8B4F8D40078B1C6E0042084F879
:10106000B601BBF83401000A8DF828001E2802D909
:10107000002004F02BF89DF8280004F03BF8B4E0C1
:1010800008218BF8B61185E00AA82146FFF7B0FDCC
:10109000ABE0A5E00AA86146FFF7B9FDA5E000BFF7
:1010A00004F052F8A1E000BFFFF7E0F99DE0A0F5E1
:1010B0000071033924D1642188E080B2394603F0FD
:1010C00045FB92E08BF8B6A18FE0BBF8320170458A
:1010D0004ED0B0F5017FD8461CD0B0F5007FCFD000
:1010E000A0F5007C5C46BCF5837C60D0A0F5007167
:1010F0000139B3D0B042A7D0A0F50071033961D057
:10110000B0F57A7FDED1072084F8B60123E02FE026
:1011100049E04CE004F03AF867E0BBF83201704572
:1011200026D0B0F5017FD8461AD0B0F5007FA7D001
:10113000A0F5007C5C46BCF5837C38D0A0F500713E
:1011400001398BD0B042D6D0A0F50071033939D027
:10115000B0F57A7FB6D1BBF8340103F0E1FF44E08B
:1011600006208BF8B601D5E7BBF8320170450AD1ED
:101170008BF8B691BBF83421ABF83C210A46BBF89A
:101180003601002190E7B0F5017FD8460BD0B0F5CD
:10119000007FA5D1B8F8340196283FF475AFA02898
:1011A0007FF47EAF76E7062088F8B601B2E7092023
:1011B00084F8B601BBF834210A20B2FBF0F00A46ED
:1011C000012171E7052084F8B6016421BBF83401E0
:1011D0004843B0F5803FFFF670AF4FF6FF706CE705
:1011E00004AA03A902A803F093FD9BF853115846E3
:1011F00059B9B0F8DA10A0F81811B0F8DC10A0F85E
:101200001A11B0F8DE10A0F81C1190F8541139B979
:10121000B0F8CE10A0F81E11B0F8D010A0F8201130
:1012200090F8551139B9B0F8D610A0F82211B0F8DD
:10123000D810A0F8241190F8561109E028000020D9
:1012400000000000000000008B010020D0520008C8
:1012500039B990F86D1180F8871190F86E1180F807
:10126000881190F83C1180F88D1180F8991190F850
:101270004E21B0F8DA10EAB35FF0000202EB42024E
:1012800000EB4202A2F8F41090F84E21B0F8DC1006
:101290008AB3002202EB420200EB4202A2F8F610EF
:1012A00090F84E21B0F8DE1032B3002202EB420279
:1012B00000EB4202A2F8F81090F84E11E9B30021B9
:1012C00080F84E1190F84F21B0F8CE10B2B3002242
:1012D00000EB8202A2F8001190F84F11B0F8D02074
:1012E00069B3002100EB8101A1F8022190F84F11B0
:1012F00031B302E06AE06BE06CE0002180F84F114E
:1013000090F8981180F89A1190F85021B0F8D21006
:10131000EAB3002200EB8202A2F8081190F85021F3
:10132000B0F8D410A2B3002200EB8202A2F80A1196
:1013300090F8501169B3002103E04DE04EE04FE01A
:1013400050E080F8501190F8512190F86D11D2B30F
:101350005FF0000200EB420282F8831190F8512105
:1013600090F86E1182B3002200EB420282F88411E1
:1013700090F8511149B3002180F8511190F8522191
:10138000B0F8D61082B3002200EB820202E02CE01B
:101390002DE02EE0A2F8101190F85221B0F8D810EC
:1013A0007AB3002200EB8202A2F8121190F85211D7
:1013B00041B3002180F8521190F83E1180F89B1142
:1013C0000BB0BDE8F08F16E017E018E0012255E7FA
:1013D00001225FE7012269E7012171E7012277E736
:1013E00001217FE7012189E70DE0012292E7012237
:1013F0009AE70121A0E70122ACE70122B4E701212D
:10140000BAE702E003E00122BEE70122CAE70121B8
:10141000D0E700002DE9FE4F3D480125002480F86B
:101420005351B0F8187167F30F06B0F81A7167F3EB
:101430001F464FEA164CCDF808C0B0F81C6180F882
:10144000534180F85451B0F81E6166F30F01B0F8B3
:10145000206180F8544180F8555166F31F41B0F87F
:10146000226166F30F03B0F8246180F8554180F8DB
:10147000565190F88751894665F3070290F88851D4
:1014800080F8564166F31F43B0F8B84090F88D716C
:1014900065F30F22B0F82C814FEA134A90F890615F
:1014A000D1B290F89151C2F3072BA0F8E040A0F818
:1014B000E270A0F8E4C0A0F8E680A0F8E860A0F828
:1014C000EA50A0F8EC90A0F8EEA00191A0F8F0107E
:1014D00000F26F11A0F8F2B0E030009102F022FEAD
:1014E000009803F063FE0B4804804780DDF808C0D5
:1014F000A0F804C0A0F8068006814581A0F80C90F1
:10150000A0F80EA001990182A0F812B0BDE8FE8FEC
:1015100028000020300200200B4910B501F5A6700C
:1015200003F0CCFE08490020903901F5027200BF9B
:1015300001EB800402EB8003401CD4F890400A28A1
:101540005C61F5DB10BD0000B80000202DE9F04F14
:10155000A14C89B00125234603F28F1094F8A6C14F
:1015600003F5C872009003F10B0BD3F88C00002137
:101570000492032793F8ACA1421E93F8A891022687
:10158000EB07BCF1070F46D2DFE80CF04504F2632D
:10159000F2BAF200BAF1010FD4460AD0BCF1020F40
:1015A00010D0BCF1030F16D0BAF1040F33D1A8B399
:1015B000BCE000286FD184F8AE1184F8AC1184F837
:1015C000A661CAE0002866D184F8AC7100F044FA44
:1015D000C4F88C00C1E000285DD184F8AC5100F063
:1015E0003BFAC4F88C0094F89101512894F8AE01AC
:1015F00007D201280FD0502084F8AE51FFF780FAAF
:1016000003E0022807D084F8AE6103A9009A5B4684
:10161000049800F0EBF909B0BDE8F08FFFE784F81B
:10162000AD1184F8AC6104F5BB7400F015FA6B4A97
:1016300044F8EA0C511E481E00F0A0F9E07F6076E5
:10164000607FA076E7E7C4F88C30E4E7C4F88C202C
:10165000E1E7D4F88410042019B30229DBD1052274
:1016600084F8A621B9F1040F05D084F8A80100F090
:10167000F3F9C4F88C0094F8A401032894F8AB01A2
:101680000AD00128C7D0544903A884F8AB511431BB
:1016900002F0F5FDBFE749E00228BCD084F8AB6159
:1016A00029E0BAF1040F84F8A65105D084F8AC0102
:1016B00000F0D2F9C4F88C0094F8A401032810D0EB
:1016C00004281AD094F891013C2816D894F8AD015A
:1016D0000128A0D05FF03C0084F8AD51FFF710FA6C
:1016E00099E794F891015028ECD894F8AD010328BB
:1016F00091D084F8AD715020F0E784F8AD618AE7AD
:10170000B9F1010FCC460AD0BCF1020F11D0BCF1E7
:10171000030F2FD0B9F1040F94D150B306E028B9CC
:1017200084F8A811062084F8A60116E098428DDC02
:1017300089E70028FAD184F8AA1184F8A87100F08A
:101740008BF9C4F88C0094F8A401032894F8A9013B
:1017500006D001289ED084F8A95100F05BF95AE721
:10176000022897D0002084F8A961FFF7C9F9F4E7AF
:101770002FE00AE00028D9D184F8A91184F8A851F3
:1017800000F06AF9C4F88C003FE784F8AB1184F8E4
:10179000A86100F061F9104FC4F88C0094F8A4011E
:1017A0000E37032894F8AA0108D0012898D0791D93
:1017B00084F8AA5103A803F0A0FA03E002288FD00E
:1017C00084F8AA6103A9009A3B46049800F030F916
:1017D00021E784F8A6711EE728000020BD01002043
:1017E000F8B5504D00270F8016462A4602F1160321
:1017F000B5F83241DA32A4F5407CBCF1050C1ED0BC
:10180000B4F5017F34D0B4F5007F37D00127A4F5BB
:10181000007CBCF5837C1DD0A4F50071013945D056
:10182000A4F50071023951D0A4F5007103395AD0E2
:10183000B4F57A7F6DD0032085F8B601F8BD02209B
:1018400085F8B601B5F83401A5F83C010F80B5F86C
:10185000360108E0092085F8B6010F800A20B5F8A6
:101860003441B4FBF0F030800988FEF7FFFDF8BD8D
:10187000062085F8B60103F089FCF8BD082085F83C
:10188000B601B5F83401962804D0A02808D003F09A
:101890005BFCF8BD234968461D31FFF7A9F9F8BD87
:1018A000204968461C31FFF7B2F9F8BD042085F8DD
:1018B000B601B5F83401000A8DF800001E2802D9DF
:1018C000002003F003FC9DF8000009E085F8B671E4
:1018D000B5F8340103F0FAFBB5F8D4000028E4D1E0
:1018E00003F008FCF8BD052185F8B611B5F83411F0
:1018F00064225143B1F5803F01DB4FF6FF71094A85
:101900008BB203801E32184602F5907102F01EFF62
:10191000F8BD072085F8B601B5F8340103F000FCE6
:10192000F8BD00002800002010B50023037001243A
:101930000B7014701A46A103074C204600F0DFFD1F
:1019400006480022211500F0DAFD01222046BDE8FC
:101950001040D10300F0D3BD00100240000402404B
:1019600008B5684600F002F808BD000002480022F1
:101970004FF4004100F0C3BD0010024010B5002438
:10198000047001230B7013702246084C9903204603
:1019900000F0B5FD01220648910200F0B0FD0122E1
:1019A0002046BDE81040D10300F0A9BD0010024060
:1019B0000004024010B50123037000240C70094C90
:1019C000990313701A46204600F099FD064800223C
:1019D000211500F094FD01222046BDE81040D103FE
:1019E00000F08DBD00100240000402402DE9F041DE
:1019F0001C4615469A1C0E46591C07462046FFF702
:101A000093FFA07828702078387060783070BDE837
:101A1000F0810000044810B5FFF7A8FF034890F8D4
:101A2000961180F88F1110BDBE0100202800002003
:101A30002DE9F0411C4615469A1C0E46591C0746D6
:101A40002046FFF7B7FFA0782870207838706078BC
:101A50003070BDE8F08100001448014690F8A821DC
:101A600091F8A411042A0FD0022A0FD0032A09D01A
:101A7000012A15D090F8AC01042815D002280BD00B
:101A8000032801D00F207047142070470329FBD092
:101A900090F88901012801D06420704773207047B5
:101AA0000329F1D1232070474620704728000020E9
:101AB00070470000F8B50025009590F83C20012AF9
:101AC00018D0012280F83C200A6807234E4C066893
:101AD000092A1AD90A3A02EB4207F268BB409A4334
:101AE000F2600E680268A64206D10B7AD66846EA12
:101AF000036308E00220F8BD0A3E8B68D76806EB56
:101B00004606B3403B43D3600EE002EB4207326926
:101B1000BB409A43326103680E788A681F6906EBFE
:101B20004606B2403A431A614A681F23072A13D275
:101B30000668521E02EB8207726BBB409A437263C7
:101B400003680E790A88761E5F6B92B206EB8606F2
:101B5000B2403A435A6327E006680D2A12D2D21FD8
:101B600002EB8207326BBB409A43326302680E7904
:101B70000B88F61F176B9BB206EB8606B3403B4300
:101B8000136311E00D3A02EB8207F26ABB409A43FD
:101B9000F26202680E790B880D3ED76A9BB206EBA3
:101BA0008606B3403B43D362184A0368934208D188
:101BB0000B68122B05D1D2F8043343F48003C2F82A
:101BC0000433036893421AD10B68A34201D0112B4E
:101BD00015D1D2F8043343F40003C2F80433096882
:101BE000A1420CD10A490B4A0968B1FBF2F101EBA1
:101BF0008101490000E0491E00910029FBD180F8D5
:101C00003C500020F8BD00001200001000200140F0
:101C10002400002040420F0000680349884201D19F
:101C2000FFF77ABC70470000002001407047704702
:101C300070B50446006801684268C1F34001C2F310
:101C4000401251B34AB3216CC90603D4216C41F44C
:101C500000712164816811F0405F17D1A169A9B9B1
:101C6000C16A11F4700F02D0816849050ED4416831
:101C700021F020014160206C20F480702064206CF1
:101C8000C00403D4206C40F0010020642046FFF71C
:101C9000C3FF21686FF01200086020680168426885
:101CA000C1F38001C2F3C01289B382B3216CC906AB
:101CB00003D4216C41F400512164816811F4401F68
:101CC0001ED1816B11F4401F02D08168490517D4E1
:101CD0004168490514D4816811F0405F10D1A169B1
:101CE00071B9416821F080014160206C20F480507E
:101CF0002064206CC00503D4206C40F001002064F7
:101D00002046FFF7D5FE21686FF00C0008602068C0
:101D10000168436811F0010FC3F380110ED069B15F
:101D20000068C0070AD0206C40F480302064204650
:101D300000F046F821686FF0010008602068016833
:101D40004268C1F340110029C2F380620DD0002A1D
:101D50000BD0616C6FF0200541F0020161640560F9
:101D60002046FFF764FF2068056070BD70B5040071
:101D70004FF0000503D0206C002610B107E00120D1
:101D800070BD204600F01EF8666484F83C60206C4C
:101D9000C00610D4206C20F4885040F0020020646B
:101DA0002046FEF7DBFD6664206C20F0020040F068
:101DB0000100206400E0012584F83C60284670BDE5
:101DC00070470000F0B587B0064614216846FEF75C
:101DD00067FA30493068884259D12F48016841F488
:101DE0008071016000682C4900F4807005901439FE
:101DF000086840F004000860086800F004000590DE
:101E0000086840F001000860086800F001000590D3
:101E1000086840F00200086008680324002569464D
:101E200000F00200059033208DE831001B4800F0DF
:101E300073FAF02069468DE83100194800F06CFA19
:101E4000022069468DE83100164800F065FA164C0C
:101E500016480115C4E900058715A5600B01C4E902
:101E6000035182142046C4E907756562C4E905235D
:101E700000F090F908B1FEF7E2FE0022B4631220F0
:101E80001146A66300F0A0FB122000F08FFB07B004
:101E9000F0BD00000020014044380240000802402C
:101EA0000000024000040240CC0200201064024006
:101EB000F8B50D4604460021009190F83C00012839
:101EC00007D0012084F83C0020688368DB0702D03B
:101ED00011E00220F8BD8668364B46F001068660A8
:101EE00035480068B0FBF3F000EB400000E0401E16
:101EF00000900028FBD120688368DB0758D0236C52
:101F000040F20166B34343F48073236440684005A4
:101F100005D5206C20F4005040F480502064206CE3
:101F2000C00404D5606C20F00600606400E06164C9
:101F30006FF0220084F83C10A36B2049D963A36B97
:101F40001F491964A36B1F49D96421680860206880
:101F5000416841F0806141602068816841F480718E
:101F6000816021681346A06B2A464C3100F084F949
:101F70001549D1F80403C006206811D0884207D162
:101F8000826812F0405F03D1826842F08042826032
:101F9000D1F80403C0060BD40C492068884207D14D
:101FA000816811F0405F03D1816841F08041816018
:101FB0000020F8BD40420F0024000020C1080008A6
:101FC000450900082F0900080020014000220140B7
:101FD00090F83510022903D0802141650120704717
:101FE000052180F835100068016821F001010160C9
:101FF000002070472DE9F84304464FF00009644B78
:102000000820CDF800904FF41652A56D94F85C109E
:102010001B682E68B3FBF2F700FA01F131420FD0D2
:1020200021680A6852070BD50A6822F004020A6088
:1020300094F85C108840A860606D40F00100606515
:1020400094F85C104FF0010808FA01F0304208D013
:1020500021684969090604D5A860606D40F0020056
:10206000606594F85C1004208840304208D02168F4
:102070000968890704D5A860606D40F004006065B8
:1020800094F85C1010208840304218D0216809680C
:10209000090714D5A86020680168490304D50068C1
:1020A000000308D5A16C07E00168C90503D40168E5
:1020B00021F008010160216C09B12046884794F89D
:1020C0005C1020208840304231D021680968C90660
:1020D0002DD5A86094F8350005282068016806D041
:1020E000490347D5006800031DD4616C1CE021F052
:1020F000160101602068416921F080014161206C76
:1021000008B9A06C20B12068016821F008010160C5
:1021100094F85C303F229A40AA6084F8349084F8A6
:102120003580216D1FE0E16B09B120468847606D65
:1021300000282BD0606DC00714D0052084F835002E
:102140002068016821F0010101600098401C0090A6
:10215000B84203D820680068C007F6D184F83490EC
:1021600084F83580E16C002910D001B02046BDE82C
:10217000F04308470168C905D5D4036823F010036C
:10218000036084F8349084F83580CCE7BDE8F883A8
:10219000240000202DE9F047044600F0B5F905467B
:1021A00064B14FF0000984F83490022184F83510AE
:1021B0002068016821F0010101600EE00120BDE806
:1021C000F08700BF00F0A0F9401B052805D92021A9
:1021D0006165032084F83500F1E720680068C007D6
:1021E000F0D1D4E90020D4E90251D4E9043C2843D9
:1021F00004F1180519430843116895E8E00140EA25
:102200000C001C4B2843194040EA060040EA070036
:10221000B8F1040F40EA010003D1D4E90B131943CC
:102220000843106020680126656A4069042D20F08B
:10223000070045EA00050CD1D4E90A01054341B184
:102240002046FEF78FFC20B14020606584F83560A1
:10225000B4E7206845612046FEF770FC94F85C30D6
:102260003F229A408260C4F8549084F83560002080
:10227000A5E700003F8010E02DE9F041044690F80A
:10228000340000250128A66D0ED094F835C0012732
:10229000002084F83470BCF1010F07D0022584F8C7
:1022A00034002846BDE8F0810220FBE7022784F8CD
:1022B000357060652046FEF77FFC94F85C103F2087
:1022C0008840B0602068016841F016010160206814
:1022D000416941F080014161206C20B120680168B2
:1022E00041F0080101602068016841F001010160CE
:1022F000D7E7000070B5044600F006F90546601CFB
:1023000002D004480078044400F0FEF8401BA042CC
:10231000FAD370BD180000202DE9F84FDFF89CE1DA
:1023200000224FF001084FF0030B4FF00F0A00BFDF
:102330000B6808FA02F42340A34271D14D68022DC4
:1023400001D0122D0FD1D5080E69570700EB850576
:10235000A9462D6AFF0E0AFA07FCBE4025EA0C05C5
:102360002E43C9F820600F79550006680BFA05FC6A
:1023700007F0030726EA0C06AF40374307604E68B4
:10238000012E05D0022E03D0112E01D0122E0ED117
:102390008668CF6826EA0C06AF40374387604668F8
:1023A0000F79A643C7F30017974037434760C468C7
:1023B0008E6824EA0C04AE402643C6604C68E400F4
:1023C00075D53F4C256845F480452560246822F08A
:1023D0000306950704F4804400943A4C2D0F2644DC
:1023E000D6F80848DFF8E0C00AFA05F7604524EAA5
:1023F000070401D100272EE0344FB84201D1012754
:1024000029E0334FB84201D1022724E0314FB842CE
:1024100001D103271FE0304FB84202D104271AE050
:1024200045E02E4FB84201D1052714E02C4FB842A9
:1024300001D106270FE02B4FB84201D107270AE050
:10244000294FB84201D1082705E0284FB84201D1F1
:10245000092700E00A27AF4027437546C6F80878E9
:102460004E68DEF80040F60324EA030400D51C435E
:10247000124E2C60361D4D683468AD0324EA030407
:1024800000D51C430D4F346008374D683C68ED02A1
:1024900024EA030400D51C43084D3C600C354E680B
:1024A0002C68B60224EA030400D51C432C60521C9D
:1024B000102AFFF43DAFBDE8F88F0000003C01405A
:1024C0004438024000300140000002400004024055
:1024D00000080240000C02400010024000140240BC
:1024E00000180240001C024000200240002402406C
:1024F000426931EA020200D10904816170470AB1E0
:10250000816170470904FBE701488068704700005B
:1025100018000020024881680278114481607047E9
:1025200018000020032010B500F06EF8002000F025
:1025300005F800F023F8002010BD000070B50D4D27
:1025400004464FF47A700C4A29781268B0FBF1F017
:10255000B2FBF0F000F0C2FD48B9102C07D2002207
:102560002146501E00F030F800206C6070BD012044
:1025700070BD000018000020240000200A4808B5A3
:10258000016841F080510160006800F080500090C7
:102590000548001D016841F480410160006800F4B5
:1025A0008040009008BD000040380240002809DB50
:1025B000410900F01F028900012001F1E021904053
:1025C000C1F80001704700000E4BF0B41B680D46C7
:1025D000C3F30223C3F10706042E00D90426191DF4
:1025E000072901D2002300E0DB1E012404FA06F1D2
:1025F0009C40491E2940641E994014402143F0BC70
:1026000002F02ABC0CED00E0064900F0070210B50C
:102610004FF6FF040868044B204040EA02201843AC
:10262000086010BD0CED00E00000FA051848F8B590
:10263000016841F0805101600068164C00F0805044
:102640000090206840F480302060FFF75DFF4FF479
:102650007A76054605E000BFFFF756FF401BB04203
:102660000FD86068C003F7D5206840F400302060C0
:10267000FFF74AFF054606E0FFF746FF401BB04262
:1026800001D90320F8BD60688003F5D50020F8BDAE
:1026900040380240007000402DE9F84F04460078B1
:1026A000DFF824944FF000063746C0070ED0D9F863
:1026B000001021F40001C9F80010D9F80010626B75
:1026C0001143C9F80010606B00B90126FE4D206867
:1026D000843500030ED5E16B286820F440100843D0
:1026E0002860E06BB0F5801F01D010B102E0012638
:1026F00000E0012720684FF4800BC0020CD5216C4C
:10270000286820F4400008432860206C584501D117
:10271000012601E000B901272068C10100D501268A
:10272000800666D5E8483830016841F08051016084
:102730000068DFF898A300F080500090DAF80010ED
:1027400041F48071CAF80010FFF7DEFE804605E014
:10275000FFF7DAFEA0EB080064287DD8DAF8000065
:10276000C005F5D5DFF8608308F16808D8F80000E7
:1027700010F440702AD0218E01F44071814225D09E
:10278000D8F80010D8F8002021F4407142F48032CB
:10279000C8F80020D8F8002022F48032C8F80020C1
:1027A000C8F80010D8F80000C0070FD0FFF7ACFE43
:1027B000824607E0FFF7A8FEA0EB0A0141F288304D
:1027C0008142CAD8D8F800008007F3D5206BC0F347
:1027D000012103297ED0D9F8001021F4F811C9F89D
:1027E0000010228ED8F80010C2F30B021143C8F873
:1027F00000102078C00607D5286820F08070286077
:102800002868A16B084328602188AF4888304904B4
:1028100005D5626E016821F44031114301602188C1
:10282000090405D5A26E016821F44021114301601D
:102830002168C90305D5E26E016821F440111143F6
:1028400001602168890305D5226F016821F44001E8
:1028500011430160217800E034E1490605D5626C3E
:10286000016821F00301114301602178090605D5B3
:10287000A26C016821F00C01114301602188C90597
:1028800005D5E26C016821F0300111430160218817
:10289000890505D5226D016821F0C0011143016051
:1028A0002188490505D5626D016821F44071114305
:1028B00001602188090505D5A26D016821F44061F8
:1028C000114301602188C90407D5E26D016821F434
:1028D000405100E05FE0114301602188890405D583
:1028E000226E016821F440411143016021684902D0
:1028F00005D5A26F016821F0806111430160216854
:102900004FF0006A890209D5E26F016821F0006189
:1029100011430160E16F514500D1012721680A0789
:1029200000D50127490305D5626F016821F0407188
:10293000114301602168090206D5D4F8802001689E
:1029400021F08051114301602168490106D5D4F876
:102950008420016821F000511143016020680001CA
:1029600006D5D4F88810286820F000700843286045
:102970002068C00006D5D4F88C10286820F080604C
:1029800008432860DFF84891012E0ED02068B0F18E
:10299000007F0AD08FE04F4AD9F80030104023F46E
:1029A000F8120243C9F800201BE7D9F800004E4690
:1029B00020F08060C9F80000FFF7A6FD804605E022
:1029C000FFF7A2FDA0EB080064287BD83068000167
:1029D000F6D421783C487C30C90712D0616B81B9AC
:1029E000237A62680168D0F800C09201C1F3014106
:1029F00042EA0142CCF3036142EA016141EA037118
:102A0000016021680A0303D5E26BB2F5801F04D090
:102A1000C9021AD5216C594517D16368016894F829
:102A20000CC002689B01C1F3014143EA0141C2F3BA
:102A3000027241EA0C6141EA027101602968626A2E
:102A400021F01F01521E114329602168C90110D5D0
:102A5000238A62680168D0F800C09201C1F3036163
:102A600042EA034242EA0162CCF3027142EA017196
:102A70000160216889010CD56168228A237B94F862
:102A800008C0890141EA024141EA036141EA0C714F
:102A900001603168B04641F080613160FFF734FD7C
:102AA000064604E0FFF730FD801B64280AD8D8F8FA
:102AB00000000001F6D5E7B3D9F800004E4620F03B
:102AC000805009E07BE000000838024000700040C0
:102AD00000380240FFFCFF0FC9F80000FFF714FDAB
:102AE000074604E0FFF710FDC01B642867D8306874
:102AF000C0438000F6D5216835480A0301D5E26B52
:102B00001AB1C9021DD5216CD9B963690168277E44
:102B100002689B01C1F3014143EA0143C2F3027120
:102B200043EA076242EA0171016029686FF0FF031E
:102B300000E04BE0A26A21F4F85103EB02221143BA
:102B400029602168890212D5E16F51450FD1238C8C
:102B50006269016807689201C1F3036142EA0342B6
:102B600042EA0162C7F3027142EA01710160217811
:102B7000090716D561690268D0F800C08B01277F6C
:102B8000C2F30362CCF3014143EA014141EA02612D
:102B900041EA077101602868E16A20F44030084387
:102BA0002860306840F080503060FFF7ADFC04468C
:102BB00008E000BFFFF7A8FC001B642802D903202F
:102BC000BDE8F88F3068C0438000F3D40020F7E7F9
:102BD000883802402DE9F04705000F4663D0444E87
:102BE000306800F00F00B84209D2306820F00F00C2
:102BF00038433060306800F00F00B84253D1286885
:102C00003C4C810712D5400703D5206840F4E050C2
:102C100020602878000703D5206840F460402060D9
:102C2000A968206820F0F000084320602878C007D9
:102C30002AD0304968680839012810D0096802286C
:102C400010D0890700292EDA216821F00301014301
:102C50002160FFF759FC804641F288390DE0096890
:102C60008903EFE78901EDE7FFF74EFCA0EB0801D0
:102C7000494502D90320BDE8F0876868216801F062
:102C80000C01B1EB800FEFD1306800F00F00B842BB
:102C90000BD9306820F00F0038433060306800F006
:102CA0000F00B84201D00120E5E72878400705D59C
:102CB000E968206820F4E050084320602878000785
:102CC00006D52869216821F4604141EAC0002060EE
:102CD00000F036F82168084AC1F30311515CC8407E
:102CE000064908600020FFF729FC0020C3E7000028
:102CF000003C024008380240E05200082400002056
:102D00000449054809680068044AC1F38221515CFE
:102D1000C84070470838024024000020F0520008E4
:102D20000449054809680068044AC1F34231515C0E
:102D3000C84070470838024024000020F0520008C4
:102D4000154910B51548096811F00C0213D041104F
:102D5000042A0FD0082A0ED10F4C241F22682368A2
:102D600002F03F025B0207D52068C0F38810A0FB89
:102D7000010106E0084610BD2168C1F38811A1FBDE
:102D800000010023FDF754FA2168C1F30141491CF9
:102D90004900B0FBF1F010BD083802400024F400F7
:102DA0002DE9F84F05004FF000076ED02878DFF8C6
:102DB0002093A9F1040AC007AAF104044CD0D9F861
:102DC00000104846C1F38101012908D00068C0F312
:102DD000810002280AD1DAF80000400206D52068F6
:102DE000800339D568680028DFD035E06868B0F521
:102DF000803F0BD010B1B0F5A02F11D0206820F487
:102E000080302060206820F4802002E0206840F4B8
:102E100080302060686890B1FFF776FB06460AE0D4
:102E2000206840F480202060F0E700BFFFF76CFBD3
:102E3000801B642872D820688003F7D50CE0FFF768
:102E400063FB064605E000BFFFF75EFB801B6428BE
:102E5000F0D820688003F7D42878800742D5D9F8C5
:102E60000010484611F00C0F08D00068C0F3810034
:102E700002280BD1DAF80000400207D4206880074E
:102E800018D5E868012800D114E01EE1E8680028A0
:102E9000206817D040F001002060FFF735FB0646A0
:102EA00005E000BFFFF730FB801B0228C2D8206876
:102EB0008007F7D52869216821F0F80141EAC000B0
:102EC00020600FE020F001002060FFF71DFB0646A8
:102ED00005E000BFFFF718FB801B02281ED8206802
:102EE0008007F7D42878000729D5794869696C30BC
:102EF00000298046016812D041F001010160FFF70E
:102F000003FB064605E000BFFFF7FEFA801B022820
:102F100004D8D8F800008007F6D510E089E021F049
:102F200001010160FFF7F0FA064604E0FFF7ECFA52
:102F3000801B02287DD8D8F800008007F6D42878B6
:102F400040076BD5DFF8888108F13808D8F8000011
:102F5000C0000BD4D8F8001041F08051C8F8001020
:102F6000D8F80000012700F080500090594801680F
:102F7000C90512D40168834641F480710160FFF7EE
:102F8000C3FA064605E000BFFFF7BEFA801B6428BF
:102F90004FD8DBF80000C005F6D54D4EA86868365E
:102FA00001280AD008B1052811D0306820F00100AE
:102FB0003060306820F0040002E0306840F001002A
:102FC0003060A868A0B1FFF79FFA83460CE0306834
:102FD00040F004003060F0E7FFF796FAA0EB0B0139
:102FE00041F28830814268D830688007F4D50EE01D
:102FF000FFF78AFA834607E0FFF786FAA0EB0B019A
:1030000041F28830814258D830688007F4D42FB11B
:10301000D8F8001021F08051C8F80010A869E0B37A
:10302000D9F80010C1F3810102294ED0022820688E
:1030300000E042E020F08070206003D0FFF764FAE7
:1030400005463DE0FFF760FA064604E0FFF75CFA4C
:10305000801B022831D820688001F7D4D5E90921E6
:10306000DFF874C0D5E9070695F830304F0895F8B9
:103070002C1030430CEB074545EA8212104340EA1E
:10308000016040EA0370CAF80000206840F08070D8
:103090002060FFF739FA054605E014E0FFF734FA3F
:1030A000401B022809D820688001F7D50BE000BF3B
:1030B000FFF72AFA401B022802D90320BDE8F88F47
:1030C00020688001F4D40020F8E70120F6E7000032
:1030D00008380240007000400000FFFF401EB0F1C1
:1030E000807F10B501D3012010BD4FF0E024606156
:1030F0000F21601701F0B0FE0020A06107212161BF
:1031000010BD70477047704770B590F83C20012A99
:1031100024D0134C012580F83C50022280F83D2039
:1031200002685368A242966802D00E4CA24203D1B4
:103130004C6823F4700323430C6823F07003896800
:103140001C435460002326F08006026831439160DE
:1031500080F83D5080F83C30184670BD022070BDAC
:10316000000001400004014010B5040003D094F8B1
:103170003D0010B107E0012010BD002084F83C00A4
:10318000204600F00DF8022084F83D002068211D43
:1031900001F0FEF8012084F83D00002010BD000081
:1031A00008B501681048B1F1804F0BD00F4A914229
:1031B00007D1016841F004010160006800F00400DB
:1031C000009008BD016841F0010101600068002223
:1031D000114600F0010000901C20FFF7F5F9BDE852
:1031E00008401C20FFF7E2B94038024000080040C8
:1031F0000168094ACB6843F00103CB600168886825
:103200001040062806D0B0F5803F03D0086840F093
:1032100001000860002070470700010070B50446F7
:1032200090F83C00012817D0324B012584F83C501F
:10323000022084F83D0022689068184020F47F4006
:1032400090600868502830D00DDC20284DD005DC77
:1032500098B310283BD148E0022070BD302844D0FC
:10326000402834D139E0602828D0702806D0B0F545
:10327000805F2CD0B0F5005F29D10AE04A68206851
:10328000D1E9021301F0F7F82068816841F0770175
:1032900009E04A682068D1E9021301F0ECF82068DF
:1032A000816841F48041816011E0CA684968206802
:1032B00001F028FA2068502107E016E0CA68496842
:1032C000206801F030FA2068602101F0DDF800206C
:1032D00084F83D5084F83C0070BDCA684968206895
:1032E00001F010FA20684021EFE7226801461046FD
:1032F000EBE7000088FFFEFF704770B504460068EA
:1033000000250169C943890715D4C168C9438907E4
:1033100011D4EA1E026101212177206880698007AB
:10332000204602D0FFF7E8FF04E000F0CFF8204687
:1033300000F07DF9257720680169C943490717D452
:10334000C168C943490713D402216FF00402026126
:1033500021772068806910F4407F204602D0FFF773
:10336000CBFF04E000F0B2F8204600F060F92577CA
:1033700020680169C943090716D4C168C943090710
:1033800012D404216FF00802026121772068C0691D
:103390008007204602D0FFF7AFFF04E000F096F868
:1033A000204600F044F9257720680169C943C90621
:1033B00017D4C168C943C90613D408216FF010029D
:1033C000026121772068C06910F4407F204602D056
:1033D000FFF792FF04E000F079F8204600F027F9AB
:1033E000257720680169C943C90708D1C168C94365
:1033F000C90704D1891E0161204600F03FF9206809
:103400000169C943090609D4C168C943090605D43D
:103410006FF0800101612046FFF774FE20680169AA
:10342000C943C90509D4C168C943090605D46FF465
:10343000807101612046FFF764FE20680169C9437D
:10344000490609D4C168C943490605D46FF0400153
:103450000161204600F038F920680169C9438906F6
:103460000BD4C168C943890607D46FF020010161FC
:103470002046BDE87040FFF746BE70BD10B586B06F
:10348000044614216846FCF70BFF0D49206888426A
:1034900014D10C48016841F0080101600068002166
:1034A00000F008000590022082030092CDE901019E
:1034B000CDE9031004486946FEF72EFF06B010BDA3
:1034C0000008004030380240000C0240704770B5E0
:1034D000044690F83C000D4601280ED0012684F8E1
:1034E0003C60022084F83D000C2A45D007DC5AB12C
:1034F000042A1BD0082A78D12CE0022070BD102AA3
:103500004ED0142A71D15DE0206800F0C5FF20681C
:10351000816941F0080181612068816921F004011D
:10352000816120682A698169114311E0206800F0F7
:10353000EDFF2068816941F4006181612068816943
:1035400021F48061816120682969826942EA012150
:1035500081614AE0206801F015F82068C16941F0F6
:103560000801C1612068C16921F00401C1612068BE
:103570002A69C169114311E0206801F03FF8206811
:10358000C16941F40061C1612068C16921F48061B1
:10359000C16120682969C26942EA0121C16124E050
:1035A000206801F057F82068416D41F0080141653D
:1035B0002068416D21F00401416520682A69416D50
:1035C000114311E0206801F071F82068416D41F469
:1035D000006141652068416D21F48061416520688A
:1035E0002969426D42EA01214165002084F83D606D
:1035F00084F83C0070BD10B5040003D094F83D0081
:1036000010B107E0012010BD002084F83C002046E6
:1036100000F00CF8022084F83D002068211D00F025
:10362000B7FE012084F83D00002010BD70477047B0
:1036300010B501220446006800F010FF0C49206814
:10364000884202D00B49884203D1416C41F40041C9
:1036500041642068084A81681140062906D0B1F506
:10366000803F03D0016841F001010160002010BDDE
:1036700000000140000401400700010070B572B66F
:103680000068B0F1804F18D10D4C2068401C2060BC
:103690006068401C6060FDF701FB2068002532284F
:1036A00002DBFDF7B7FE25606068B0F5FA7F04DB4A
:1036B00004488021FEF71CFF656062B670BD000003
:1036C0000400002000040240704770472DE9F041DB
:1036D000026804460025D0691168936810F00F0F46
:1036E0005BD003F0010601F49077374369D0C70738
:1036F00007D0CF0505D501271762E26F42F001021E
:10370000E267820708D5DA0706D0276802223A6204
:10371000E26F42F00402E267420708D5DA0706D0FA
:10372000236804221A62E26F42F00202E267020793
:103730000AD501F02002324306D0236808221A621B
:10374000E26F42F00802E267E26F002A32D08006A0
:1037500005D5880603D5216E09B120468847216822
:10376000E06F8968490601D4000725D5204601F09D
:10377000DEF820688168490619D5816821F040018A
:103780008160E06E98B11A490165E06EFEF720FC99
:1037900000280FD0E06E016D06E0830611D58B0680
:1037A0000FD5216E12E02046BDE8F04108472046C3
:1037B000FFF78BFFBDE8F0812046FFF786FFE56746
:1037C000F8E7030605D50B0603D5616E0029EAD19B
:1037D000F0E74006EED54806ECD5136820212046D8
:1037E00023F0400313606167656600F07FF9E1E74D
:1037F0009D48000810B5040002D0606F10B107E0CA
:10380000012010BD002084F87000204600F026F84A
:10381000242060672068016821F0010101602046D2
:1038200001F0F8F80128ECD0606A10B1204600F0F1
:10383000B3FF2068416821F49041416020688168AD
:1038400021F02A0181602068016841F001010160D6
:103850002046BDE8104001F003B8000070B586B006
:10386000064614216846FCF71BFD22493068884251
:103870003ED12148016841F480210160006800F4D4
:10388000802005901C481038016841F00801016053
:1038900000680025022100F0080005904FF44070F8
:1038A00007238DE8230003221448CDE9032369464A
:1038B000FEF732FD124C402212484FF0006184E8BE
:1038C000270003152046C4E90435A561E56125629A
:1038D0006562FEF75FFC08B1FDF7B1F90022B4663E
:1038E00027201146A663FEF76FFE2720FEF75EFE37
:1038F00006B070BD0048004040380240000C024055
:10390000380400205860024070B5836F202B4BD1E3
:10391000B9B1B2B190F87030012B45D0836801265F
:1039200080F870600024416535030466AB42A0F85E
:103930005820A0F85A204FF0FF0107D1026912B1B8
:1039400026E0012070BD40F2FF1121E04FF07F0220
:10395000E3B1B3F1805F1ED0A0F85C402221C467C0
:10396000816701688A6842F001028A608168A94221
:1039700001D10169B1B10D49016680F8704000685C
:10398000016841F490710160002070BD036933B992
:10399000A0F85C10E2E7016909B13F21F8E7A0F85F
:1039A0005C20DBE70249E7E7022070BDB949000867
:1039B0005F4900082DE9F04172B6234D01272349E4
:1039C0004FF000086C1C287848B3214E002085F881
:1039D00000800A5C3254401C0A28FADB1D484FF470
:1039E0008041FEF785FDAF6096ED040BB7EE001B3E
:1039F000B4EE410BF1EE10FA01D1FDF71FFA1249B6
:103A00000322491CC81CFCF756FC78B10F4901225F
:103A100001F10C00FFF778FF62B6BDE8F081607835
:103A20002070A07860700878A070E8E707490A2243
:103A30002F7001F10C00FFF767FF00204146215471
:103A4000401C0328FBDBE7E70C000020AC03002050
:103A5000E00100200004024070B50446406F2028B9
:103A60003BD161B35AB394F87000012835D0A4F863
:103A70005020A4F852200025A06E0123E1642121EA
:103A800084F87030E5676167D8B115491346C163A2
:103A9000A16E14480864A16E1348C864A06E056541
:103AA0002068A66E00F12802E16C3046FEF7E4FBC8
:103AB00038B11021E167202084F870506067012040
:103AC00070BD21684020086284F8705020688168C9
:103AD00041F080018160002070BD022070BD0000B7
:103AE000F748000825490008B148000870477047AA
:103AF000FEE70000F8B54B4C84461646204600F120
:103B00001603B4F8325100F1DA02B0F83401A5F529
:103B10004077053F1ED0B5F5017F33D0B5F5007F66
:103B200036D00127A5F5007EBEF5837E1CD0A5F515
:103B30000071013942D0A5F5007102394CD0A5F5CC
:103B40000071033953D0B5F57A7F64D0032084F82F
:103B5000B601F8BD022784F8B671A4F83C0100252F
:103B60000D80B4F8360108E0092084F8B6010F8012
:103B70000A20B4F83441B4FBF0F030800988FCF737
:103B800075FCF8BD062084F8B60101F0FFFAF8BD17
:103B9000082184F8B611962804D0A02808D001F096
:103BA000D3FAF8BD1F4968461D31FDF721F8F8BD6D
:103BB0001C4968461C31FDF72AF8F8BD042184F839
:103BC000B611000A8DF800001E2802D9002001F06D
:103BD0007DFA9DF8000007E084F8B67101F076FAEE
:103BE000B4F8D4000028E8D101F084FAF8BD6422CA
:103BF000052184F8B6115043B0F5803F01DB4FF644
:103C0000FF70084A80B2ACF800001E3202F59071D5
:103C100000F09CFDF8BD072184F8B61101F080FA90
:103C2000F8BD00002800002028492DE9F04191F856
:103C30009FE1BEF1010F26D008464FF0020C03258C
:103C40002A1F90F8A1710126B0F8CA30BEF1020F08
:103C5000B0F8CC40D0F8B80006D0BEF1030F32D196
:103C6000B1F84AE1734522D02CB1022C03D0012CCB
:103C700001D0032C0ED0441C81F89F51A042A1F822
:103C80004A3112D803E0BDE8F041FCF7FFBBC1F8B0
:103C9000B84012E081F89F61022FA1F84A3112D09A
:103CA00081F8A1C1A1F82C6107E01446EFE7431C9D
:103CB000984200D91346C1F8B83001F035F9BDE893
:103CC000F04101F015B9BDE8F081000028000020A6
:103CD0002DE9FF41414800214FF440353E4B009112
:103CE000012401914FF0090802910391C0E90035C8
:103CF0000461846181603A4B80F82010C0E90A3188
:103D0000C0F81C80C16080F830404461FEF72EF896
:103D100008B1FCF794FF0725304804260096694651
:103D2000CDE90145FDF7C6FE08B1FCF788FF02208A
:103D300069460524CDE900402848FDF7BBFE08B1DF
:103D4000FCF77DFF032069460627CDE90070234874
:103D5000FDF7B0FE08B1FCF772FF20486946CDE9D7
:103D60000056FDF7A7FE08B1FCF769FF1B48464661
:103D7000CDE900846946FDF79DFE08B1FCF75FFFC1
:103D80000A206946CDE900071448FDF793FE08B103
:103D9000FCF755FF0B206946CDE900050F48FDF7FC
:103DA00089FE08B1FCF74BFF08210E20CDE9000188
:103DB0000A486946FDF77EFE08B1FCF740FF0F2078
:103DC0006946CDE900060548FDF774FE002801D0DC
:103DD000FCF735FFBDE8FF81002001408402002090
:103DE0000100000F114808B5016841F4001101609D
:103DF000016801F400110091016841F48001016043
:103E000000680022114600F4800000900E20FEF7AA
:103E1000DBFB0E20FEF7CAFB002238201146FEF71E
:103E2000D3FBBDE808403820FEF7C0BB3038024065
:103E3000704700002DE9F04F87B014216846FCF769
:103E40002FFA3D48016841F004010160016801F06A
:103E500004010591016841F080010160016801F0F1
:103E600080010591016841F001010160016801F0E4
:103E700001010591016841F002010160016801F052
:103E800002010591016841F020010160016801F023
:103E900020010591016841F010010160016801F005
:103EA00010010591016841F008010160006844F6C5
:103EB0008147DFF88890002200F00800394605901D
:103EC0004846FEF71CFBDFF878A04FF400560022AE
:103ED00031465046FEF713FBDFF868B04FF4404818
:103EE000002241465846FEF70AFB00241648009679
:103EF0006946CDE901041548FEF70EFA0125009741
:103F0000CDE90154694648460394FEF705FA009648
:103F10006946CDE9015450460394FEF7FDF9CDF80A
:103F200000806946CDE9015458460394FEF7F4F940
:103F300007B0BDE8F08F00003038024000040240B6
:103F4000001402400010024000001110000802405E
:103F500010B588B01648002440F2E7324FF0804197
:103F600000946B23019402940394049405940694A2
:103F700080E81600C0E903348461FFF7F5F808B162
:103F8000FCF75DFE4FF48050009009486946FFF74A
:103F900045F908B1FCF753FE054804A904940694BA
:103FA000FFF7B2F8002801D0FCF749FE08B010BDB9
:103FB0002C03002010B58EB000241C21009407A80B
:103FC000019402940394049405940694FCF768F910
:103FD0001E4840F2CF7140F237421B4BC0E902410C
:103FE00004618461C0E90032FFF7BEF808B1FCF754
:103FF00026FE4FF48050009014486946FFF70EF9F2
:1040000008B1FCF71CFE1148FFF7F5FA08B1FCF700
:1040100016FE0E4804A904940694FFF775F808B13B
:10402000FCF70DFE6020CDE9070408480C2207A923
:1040300009940B94FFF74BFA08B1FCF700FE034814
:10404000FFF71CFA0EB010BD000800406C03002002
:104050000D48002110B50B4C0C224FF4E1330460E5
:10406000C0E90131C160C0E904128161C16101622E
:104070004162FFF7BFFB002803D0BDE81040FCF70A
:10408000DEBD10BD00480040B8030020FEE7000080
:104090001448014690F8A421D1F88410012A0ED0CA
:1040A000022A12D00146032A91F8A61113D0042A3D
:1040B00010D1022901D006290CD1022108E00229E1
:1040C00001D0002906D1042102E0012902D10321F7
:1040D00080F8A4117047022901D00629FAD10121E4
:1040E000F6E7000028000020704770B5DDE90445C0
:1040F0000688360A2E70007868700888000AA87052
:104100000878E8701088000A28711078687118889B
:10411000000AA8711878E8712088000A28722078AF
:10412000687270BD002210B501EB420430F8123005
:104130001B0A01F8123010F81230521C0A2A637060
:10414000F2DB10BD70470000F8B54B4C84461646B4
:10415000204600F11603B4F8325100F1DA02B0F84B
:104160003401A5F54077053F1ED0B5F5017F33D06A
:10417000B5F5007F36D00127A5F5007EBEF5837E1C
:104180001CD0A5F50071013942D0A5F500710239A6
:104190004CD0A5F50071033953D0B5F57A7F64D0C2
:1041A000032084F8B601F8BD022784F8B671A4F89C
:1041B0003C0100250D80B4F8360108E0092084F8A0
:1041C000B6010F800A20B4F83441B4FBF0F030801F
:1041D0000988FCF74BF9F8BD062084F8B60100F019
:1041E000D5FFF8BD082184F8B611962804D0A02880
:1041F00008D000F0A9FFF8BD1F4968461D31FCF743
:10420000F7FCF8BD1C4968461C31FCF700FDF8BD01
:10421000042184F8B611000A8DF800001E2802D986
:10422000002000F053FF9DF8000007E084F8B6710D
:1042300000F04CFFB4F8D4000028E8D100F05AFF99
:10424000F8BD6422052184F8B6115043B0F5803FD3
:1042500001DB4FF6FF70084A80B2ACF800001E3256
:1042600002F5907100F072FAF8BD072184F8B611DA
:1042700000F056FFF8BD000028000020704770B520
:1042800005460C460846FCF7ADFC2078287070BD4A
:10429000FEF740B930B5B7B0342124A8FCF700F8D8
:1042A000142131A8FBF7FCFF90216846FBF7F8FFCB
:1042B0001D48016841F080510160006800F08050A5
:1042C00036901A48016841F44041016000680224B8
:1042D000D82500F4404036900420012103058203D4
:1042E000CDE92C05CDE92A43CDE92E40CDE92412B4
:1042F00024A8FEF755FDFEF799F9E2024FF4A0510C
:104300000025CDE9341231AA0F20072182E83100BF
:1043100031A8FEF75FFCE001139500906846FEF7B8
:10432000BBF937B030BD000040380240007000409B
:10433000104A30B51048146800210F4B44F4700443
:104340001460083305680D4A0D4C45F00105056001
:1043500019600368051D1340074A03600C322C6086
:104360000568E305034C25F480250560803C116059
:10437000236030BD88ED00E000380240FFFFF6FE0C
:10438000103000240148FEF7B8BF00002C030020C5
:10439000F0B5274B4FF0804E264D02689842264ECE
:1043A000264F274C09D0704507D0A84205D0B0420F
:1043B00003D0B84201D0A04205D1D1F804C022F008
:1043C00070024CEA020298421BD0704519D0A842F4
:1043D00017D0B04215D0B84213D0A04211D0194D19
:1043E000A8420ED0184DA8420BD0184DA84208D0B4
:1043F000174DA84205D0174DA84202D0164DA8422D
:1044000003D1CD6822F440722A434D6922F0800224
:104410002A43026098428A68C2620A68826201D0B6
:10442000A04201D10969016301214161F0BD000091
:10443000000001400004004000080040000C004063
:104440000004014000400140004401400048014098
:1044500000180040001C00400020004010B5046A15
:10446000012301F01F018B409C4304628A40016AD2
:104470001143016210BD42EA032283680A4323F418
:104480007F410A4382607047826822F070020A43CB
:1044900042F0070181607047F0B5026ADFF860C042
:1044A000184F22F00102DFF860E00262066A4268FB
:1044B000836926F002060D68B8428C6803EA0C0393
:1044C00023F0030344EA060445EA030501D07045DE
:1044D00005D1CB6824F00804234323F00404B84238
:1044E00001D0704505D122F44076D1E9053233433D
:1044F0001A4342608561496841630462F0BD00006F
:104500008FFFFEFF0000014000040140F0B5026A89
:10451000194E1A4C22F01002DFF864E00262056ABC
:104520004368826925F02005D1F808C0A0420F68D1
:1045300002EA060222F4407245EA0C1542EA07221A
:1045400001D0704506D1CE6825F0800545EA0615F4
:1045500025F04005A04201D0704507D1D1E90546BC
:1045600023F4406343EA840343EA860343608261A1
:10457000496881630562F0BDFF8FFFFE00000140C6
:1045800000040140F0B5026A194F1A4E22F48072FD
:10459000DFF864E00262056A4368C26925F40075C9
:1045A000D1F808C0B0420C6802EA070222F0030208
:1045B00045EA0C2544EA020401D0704506D1CF68D3
:1045C00025F4006242EA072222F48065B04201D05D
:1045D000704507D123F44052D1E9053642EA03126F
:1045E00042EA06134360C4614968C1630562F0BDD5
:1045F0008FFFFEFF0000014000040140F0B5026A99
:10460000124B114F22F4805298420262046A4268AF
:10461000C36924F400548E680D6803EA070323F489
:10462000407344EA063443EA052302D0084DA84209
:1046300004D14D6922F4804242EA85124260C3618E
:10464000496801640462F0BDFF8FFFFE0000014075
:1046500000040140F0B5026ADFF844C022F4803261
:104660000262056A4268446D25F400350E89604592
:104670000C4F0B6804EA070445EA064543EA0403C5
:1046800002D0094CA04204D14C6922F4803242EAA3
:10469000042242604365496881650562F0BD0000FF
:1046A000000001408FFFFEFF00040140F0B5026AE8
:1046B000DFF844C022F480120262046A4268436D4B
:1046C00024F400140E8960450C4F0D6803EA0703BB
:1046D00044EA065443EA052302D0094DA84204D116
:1046E0004D6922F4802242EA85224260436549688E
:1046F000C1650462F0BD000000000140FF8FFFFEB5
:104700000004014010B5036A046A23F00A0324F090
:104710000104046284690B4324F0F00141EA0211B0
:104720008161036210BD10B5036A23F010030362B8
:104730008369046A23F4704324F0A00443EA02323C
:10474000826144EA0111016210BD00007CB50D4692
:104750000F4E111D1446334628801A46CDE90061DC
:104760000C482946FFF7C1FC2A88642104F10E0099
:104770003346B2FBF1F122462180CDE900600548C5
:10478000011D801CFFF7B1FC288860807CBD000003
:10479000D0520008D252000890F82410C90706D061
:1047A0000168836A4A6822F400321A434A6090F82A
:1047B0002410890706D50168C36A4A6822F480324A
:1047C0001A434A6090F82410490706D50168036B24
:1047D0004A6822F480221A434A6090F8241009079C
:1047E00006D50168436B4A6822F400421A434A60C6
:1047F00090F82410C90606D50168836B8A6822F4F4
:1048000080521A438A6090F82410890606D5016800
:10481000C36B8A6822F400521A438A6090F824100D
:10482000490611D50168036C4A6822F480121A43C4
:104830004A60016CB1F5801F06D10168436C4A687B
:1048400022F4C0021A434A6090F82410090606D5E3
:104850000168826C486820F400201043486070476B
:1048600038B500250446C567FDF74EFE03462068AF
:10487000006800070BD56FF07E40009000222046B4
:104880004FF4001100F0F0F908B1032038BD2020EA
:10489000606784F87050A067002038BD10B5806B49
:1048A0000021A0F85A10A0F85210FEF70EFF10BD1C
:1048B00070B5846B00252168606FA66F8968090652
:1048C00006D5212804D1A4F85250204600F03FF824
:1048D00020688068400606D5222E04D1A4F85A50DC
:1048E000204600F024F8E06F40F01000E06720461A
:1048F000FEF7EBFE70BD10B5C169806BB1F5807F2E
:104900000DD00021A0F8521001688A6822F08002C0
:104910008A600068016841F04001016010BDFFF746
:10492000E5F810BD10B5806BFFF7E1F810BD10B5CC
:104930000168202200230C6824F490740C60016844
:104940008C6824F001048C608267036610BD0168E6
:1049500020220B6823F0C0030B604267704710B53C
:10496000816FB0F85C202229016804D0886940F08A
:104970000800886110BD496A436D11401980416D7E
:10498000891C4165B0F85A10491EA0F85A10B0F8B9
:104990005A100029EED10168202200230C6824F46B
:1049A00090740C6001688C6824F001048C6082674C
:1049B0000366FEF7FFFF10BD10B5816FB0F85C20F5
:1049C0002229016804D0886940F00800886110BD80
:1049D000496A436D11401970416D491C4165B0F839
:1049E0005A10491EA0F85A10B0F85A100029EED1FA
:1049F0000168202200230C6824F490740C60016884
:104A00008C6824F001048C6082670366FEF7D2FF95
:104A100010BD00002DE9F04104468068DFF818C29F
:104A2000864F2368D4E90452E16928431E680025B3
:104A30000A438349104306EA0C0606431E604FF4FE
:104A400000422068E668436823F4405333434360E0
:104A50002368A669206AD3F808C030432CF4306676
:104A600006439E602068B8420AD1086810F003002F
:104A700052D001287BD002287AD003286ED186E05C
:104A8000704B98420AD1086810F00C0079D00428C5
:104A90007BD0082877D00C2860D178E06A4B984208
:104AA0000AD1086810F030006BD010286DD0202893
:104AB00069D0302852D16AE0644B98420AD1086824
:104AC00010F0C0005DD040285FD080285BD0C028A7
:104AD00044D15CE05E4B98420DD1086810F4407000
:104AE0004FD0B0F5807F50D0B0F5007F4BD0B0F5FF
:104AF000407F33D14BE0574B98420FD1086810F4F8
:104B0000406009D0B0F5806F3FD0B0F5006F3AD06B
:104B1000B0F5406F22D13AE0012120E04E4B98429F
:104B20000DD1086810F440502BD0B0F5805F2CD028
:104B3000B0F5005F27D0B0F5405F0FD127E0474BBD
:104B400098420BD1086810F440401AD0B0F5804F5D
:104B50001BD0904217D0B0F5404F18D01021E0691B
:104B60004FF6EF76904238D109295DD202E00CE091
:104B700009E006E0DFE801F00D1027582A585858E0
:104B80002D000021EBE70221E9E70421E7E70821F6
:104B9000E5E7FEF7B5F801E0FEF7C2F80146D4F804
:104BA0000400490001EB5001B1FBF0F080B2A0F12C
:104BB0001001B14238D84FF6F0732168C0F34202B9
:104BC0001840104324E026496068EBE7FEF7B8F888
:104BD000E4E760684FF48031E4E7092924D2DFE894
:104BE00001F0050819231C2323231F00FEF788F872
:104BF00001E0FEF795F80146D4F8040001EB5001FE
:104C0000B1FBF0F080B2A0F11001B1420CD82168E4
:104C1000C8600AE013496068F0E7FEF791F8EAE738
:104C2000606802EB5001EBE701250020206660661A
:104C30002846BDE8F0810000F369FFEF0010014055
:104C4000903802400044004000480040004C0040C2
:104C5000005000400014014000780040007C0040FB
:104C60000048E8010024F4002DE9F0419846174679
:104C70000E460446069D08E0681C06D0FDF744FC7D
:104C8000A0EB0800A8420BD855B12068C06936EAED
:104C9000000017D00020B842EED00020BDE8F0811F
:104CA0002168202000220B6823F4D0730B60216858
:104CB0008B6823F001038B606067A067032084F892
:104CC0007020EBE70120E6E70148FEF7FFBC00009B
:104CD000B803002070B5DDE90445068876BA0E8079
:104CE000418849BA1180818849BA1980C18849BA76
:104CF0002180008940BA288070BD70B505460C46F9
:104D00000846FBF77EFF2078287070BDFEE70000A4
:104D1000F8B5504D01270F8016462A4602F11603BA
:104D2000B5F83241DA32A4F5407CBCF1050C1DD057
:104D3000B4F5017F34D0B4F5007F37D0A4F5007C02
:104D4000BCF5837C1ED0A4F50071013946D0A4F5D2
:104D50000071023952D0A4F5007103395BD0B4F56B
:104D60007A7F6FD0032085F8B601F8BD022485F85C
:104D7000B641B5F834410020A5F83C410880B5F8AB
:104D8000360108E0092085F8B6010F800A20B5F841
:104D90003441B4FBF0F030800988FBF767FBF8BDC5
:104DA000062085F8B60100F0F1F9F8BD082085F875
:104DB000B601B5F83401962804D0A02808D000F038
:104DC000C3F9F8BD234968461D31FBF711FFF8BD53
:104DD000204968461C31FBF71AFFF8BD042085F80E
:104DE000B601B5F83401000A8DF800001E2802D97A
:104DF000002000F06BF99DF8000009E085F8B6711D
:104E0000B5F8340100F062F9B5F8D4000028E4D117
:104E100000F070F9F8BD052185F8B611B5F8341128
:104E200064225143B1F5803F01DB4FF6FF71094A1F
:104E30008BB203801E32184602F59071FFF786FC94
:104E4000F8BDFFE7072085F8B601B5F8340100F09A
:104E500067F9F5E728000020090700284FEA1161EB
:104E600004DB00F1E02080F80014704700F00F0030
:104E700000F1E02080F8141D704702E008C8121FFE
:104E800008C1002AFAD170477047002001E001C133
:104E9000121F002AFBD1704770B5144C94F8B11161
:104EA00094F8890181421FD104EB8000B4F8BC1052
:104EB000026E914218DB006FB4F8BE10814213DB22
:104EC000D4F884500220C4F8840094F8A70108B1F3
:104ED000FCF73CFBC4F8845094F8B101401CFF2857
:104EE00000DDFF2084F8B10170BD00002800002023
:104EF0000C4890F8572190F8B2118A4208D0014628
:104F000090F8A631012B91F8A41102D0032902D107
:104F100070470429FCD180F8B22190F85801FBF7C2
:104F2000EFBD0000280000202DE9F041214CB4F82D
:104F3000C210B4F84801814225D02046A4F8481197
:104F4000B4F8C4200226D0F88450B2F5C87F90F897
:104F5000A50110D0C82A4FF0000716D0322A4FF012
:104F600001011FD0642A0ED1C4F8841088B100BF9B
:104F7000FFF78EF80DE0C4F88460B8B9C4F8846017
:104F800009E0C4F88450BDE8F0810028C4F88470BA
:104F9000EED1C4F8847094F8A7010028F1D0FCF792
:104FA000D5FAEEE70028C4F88410E7D0FFF770F8D0
:104FB000E4E70000280000200A4810B5B0F8CA1045
:104FC000A0F84A11D0F8B8100A46491C8A4201D903
:104FD0004FF0FF31C0F8B810FFF7A6FFBDE8104052
:104FE000FFF786BF28000020024901EB8000806D9A
:104FF00070470000280000202DED028BFDF792FA8B
:10500000FFF748F9FEF716FFFEF7ECFEFFF720F872
:10501000FEF79EFFFEF7CEFFFEF70AFFFEF758FEF3
:105020002248FEF7E5F8224901222248FEF76CFCEF
:10503000214909222148FCF73BFF214C0122D102E2
:105040002046FDF75CFA012220469102FDF757FA4F
:105050001C4C0122D1032046FDF751FA01222046C3
:105060009103FDF74CFA012217485103FDF747FA67
:10507000FBF7E6FD104CB7EE000B243C84ED040B6F
:10508000FBF7DCFEB0EE088B4FF4FA752846FDF70F
:1050900031F994ED040BB4EE480BF1EE10FAF5D1B2
:1050A000FBF7CCFE6420FDF725F9EFE72C03002089
:1050B000AC030020B803002004020020840200207A
:1050C0000004024000100240001402400849B1F8F8
:1050D000D220FF2A01D3002205E0521CB2F5803F06
:1050E00001DB4FF6FF72A1F8D220A1F8D40070477F
:1050F00028000020094991F86D21FF2A01D30022E0
:1051000003E0521CFF2A00DDFF2281F86D21FF28F9
:1051100000D9FF2081F86E017047000028000020B0
:105120000849B1F8D620FF2A01D3002205E0521C1D
:10513000B2F5803F01DB4FF6FF72A1F8D620A1F84F
:10514000D8007047280000200F49B1F8CE20FF2A70
:1051500001D3002205E0521CB2F5803F01DB4FF67F
:10516000FF72A1F8CE20A1F8D00091F88C1164292B
:1051700008D0322803D0642801D0C82802D10020EA
:10518000FFF7A4BF7047000028000020064991F8EF
:105190009801FF2801D3002003E0401CFF2800DD18
:1051A000FF2081F898017047280000200BA10C4ACD
:1051B00030B4096811700B0A53700C0C9470002104
:1051C0005418435C491C1429E370F9DB0D20D07599
:1051D00030BC034918220348FEF73EBC68647200E5
:1051E0006C020020B803002007B582B0054802A970
:1051F0000346CDE90002044803AAFEF776FF05B096
:1052000000BD0000D0520008D4520008284930B533
:105210000A4691F88B414FF48035681EB2F844314C
:105220001CB991F89D21012A24D0012C29D0B1F874
:1052300040219632AA4200D30246A1F84021B1F89B
:105240004221521DAA4200D3024690B2A1F8420167
:1052500091ED0E0BB5EEC00BF1EE10FA16D040F248
:1052600006329FED140B81ED0E0BA1F82621A1F85B
:10527000280119E05A1CAA4200D30246A1F8442191
:1052800012E00020A1F84001A1F8420140F20530EF
:10529000B7EE000B81ED0E0BA1F82601A1F8283125
:1052A000B1F84001A1F82A0181F89D4130BD00000C
:1052B0002800002000000000000000005FF0000255
:1052C00050F8223041F82230521C092AF8DB70478E
:1052D0000000000519030300000610160006101652
:1052E0000000000000000000010203040607080996
:1052F0000000000001020304185300080000002011
:10530000280000007A4E00084053000828000020C2
:10531000700800008A4E0008000000000000000035
:10532000000000000000000068647200000000003F
:105330000100000010000000000000000024F40044
:04000005080001F9F5
:00000001FF
