:020000040800F2
:10000000180C00200D02000885490008594400081A
:1000100029490008550900085B5400080000000049
:10002000000000000000000000000000294A000855
:100030001D0B0008000000000F4A0008414A00089C
:1000400027020008270200082702000827020008EC
:1000500027020008270200082702000827020008DC
:1000600027020008270200082702000827020008CC
:100070002702000827020008610A0008270200087A
:100080002702000827020008110800086509000877
:100090005909000827020008270200082702000863
:1000A000270200082702000827020008270200088C
:1000B000354B000827020008270200082702000825
:1000C000270200082702000827020008270200086C
:1000D0002702000827020008270200082954000808
:1000E000270200082702000827020008270200084C
:1000F000270200082702000827020008270200083C
:10010000270200082702000827020008270200082B
:10011000270200082702000827020008270200081B
:100120006D0A0008270200082702000827020008BD
:1001300027020008270200082702000827020008FB
:1001400027020008270200082702000827020008EB
:1001500027020008270200082702000827020008DB
:1001600027020008270200082702000827020008CB
:1001700027020008270200082702000800000000EC
:1001800027020008270200082702000827020008AB
:10019000270200082702000827020008270200089B
:1001A000270200082702000827020008270200088B
:1001B000270200082702000827020008270200087B
:1001C000270200082702000800000000270200089C
:1001D000270200082702000827020008270200085B
:1001E000270200082702000827020008270200084B
:1001F0002702000827020008DFF80CD000F09CF866
:1002000000480047E5560008180C002006488047C3
:1002100006480047FEE7FEE7FEE7FEE7FEE7FEE7EB
:10022000FEE7FEE7FEE7FEE7E14A0008F901000805
:100230002DE9F05F0546002092469B46884606461B
:10024000814640241BE0284641464746224600F0AE
:1002500062F853465A46C01A914110D311461846C7
:10026000224600F049F82D1A67EB01084F46224656
:100270000120002100F040F817EB00094E41201E3C
:10028000A4F10104DFDC484631462A464346BDE876
:10029000F09F40EA01039B0703D009E008C9121F41
:1002A00008C0042AFAD203E011F8013B00F8013B30
:1002B000521EF9D27047D2B201E000F8012B491E5C
:1002C000FBD270470022F6E710B513460A460446F3
:1002D0001946FFF7F0FF204610BD30B50546002057
:1002E000034600E05B1C934205D2EC5CC85C201A1C
:1002F00001D1002CF6D130BD202A04DB203A00FACF
:1003000002F1002070479140C2F1200320FA03F36C
:10031000194390407047202A04DB203A21FA02F06A
:100320000021704721FA02F3D040C2F1200291402F
:100330000843194670470000064C074D06E0E06888
:1003400040F0010394E8070098471034AC42F6D31C
:10035000FFF756FFCC590008EC59000810B51C886F
:1003600014805C8854809C88948022F81100108846
:100370001880508858809088988010BD2DE9F04FE3
:10038000FA4C02254FF003094FF0000B26464FF0C0
:1003900001082DED028B81B006F1110006F20F4627
:1003A0000090B4F89A02B4F8C612884243D0B4F868
:1003B0009C12B4F8C80281423DD00099304600F04A
:1003C000D7FB00205E46A4F83EB300F037FBB4F83C
:1003D0009C02042805D0062803D003280AD005284B
:1003E00018D084F8286484F8276484F8266484F894
:1003F000249408E084F82864484684F8276484F844
:10040000266484F82494B4F89A12A4F8C612A4F8C6
:10041000C80231E084F8286484F8276484F82484CE
:10042000B4F89612A4F89013B4F89A12A4F8C6126D
:10043000A4F8C8021CE0CD49192794F82604012825
:1004400091F828C4B1F89033B1F89822B1F8961217
:1004500006D0022879D199420CD0012A76D009E041
:1004600094F82704012810D002286ED184F827B40C
:1004700084F82654A4F83E8305F058F801B0BDEC8A
:10048000028BBDE8F04F05F035B8994200D06AB153
:10049000A2469FEDB78BB548BCF1060FB0F89403A8
:1004A00053D2DFE80CF0DA0A8FE5FDFCA4F89013D4
:1004B00084F828B484F82754EAE0012854467BD80D
:1004C000994201D0022A04D084F82884A4F83E93EB
:1004D000F4E00520A4F8901384F82804002005F027
:1004E0006DF800EE100AB8EEC00B84ED0C0BB4EE04
:1004F000C80BF1EE10FA0CD2B5EEC00BF1EE10FA0B
:1005000005DBBCEEC00B10EE100AC0B202E000200A
:1005100000E0FF2000F092FA022005F04FF83E467E
:10052000274690FBF6F10020C4F8EC1105F046F8E0
:100530000446012005F042F8002C014607DB6FF06D
:100540000040221A91420ADB08E086E0DAE004F17A
:100550000040814202DD4FF0004000E0601A6FF081
:10056000004280FB06400021121B814102DA6FF03D
:10057000004407E04FF00041611A70F1FF3001DAEA
:100580004FF00044022005F019F800EE100A774AF7
:1005900040462946B8EEC01B00EE104AB8EEC00B2C
:1005A00080EE012B87ED0E2BA7F89463A7F840830C
:1005B000A7F84253D3E0FFE7401E00D50020AAF879
:1005C000940380E0012854464CD8D4F8EC0100286C
:1005D00006DD012004F0F2FF94F8131488420FDBCB
:1005E000002000F02BFA0099304600F0C1FA84F8A0
:1005F0002894A4F8947394F80A0484F838043CE02E
:1006000084F8285494ED0C0B94ED0E1B30EE410B46
:1006100084ED0C0BB4EEC80BF1EE10FA0CD2B5EE73
:10062000C00BF1EE10FA05DBBCEEC00B10EE100AA9
:10063000C0B202E0002000E0FF2000F0FFF9D4F893
:10064000EC014FF00041884202DCC4F8EC1102E0FA
:10065000401EC4F8EC01A4F8947301B0BDEC028B09
:10066000BDE8F08F401E00D50020AAF89403F4E7FF
:100670009AF80A145046052906D001B0BDEC028B49
:10068000BDE8F04F04F00ABF80F828B48AF8275478
:100690003046009900F06CFA002001B001E019E04A
:1006A00005E0BDEC028BBDE8F04F00F0C7B90128B2
:1006B0005146D7D881F82884A1F83E936420AAF83F
:1006C000947300F0BBF901B0BDEC028BBDE8F04FB4
:1006D00004F02CBF01285446C4D884F8285494ED63
:1006E0000C0B94ED0E1B30EE410B84ED0C0BB4EEB5
:1006F000C80BF1EE10FA9FD2B5EEC00BF1EE10FA76
:1007000098DB91E7A4F89013BCF1040F9FED1A0B4E
:1007100084F82684A4F894B384ED0C0B84ED0E0BBE
:10072000C4F8ECB184F8278497D0042084F8280416
:10073000A4F83E530D4DA4F8947304F23E341235E0
:10074000284600F0F7F928783070642000F076F938
:10075000064A4046A4F802800146A4F8048001B08D
:10076000BDEC028BBDE8F04F05F090B840000020D2
:1007700000000000000070400000000000000000C9
:1007800010B50146806B026C12F0500F05D0026C60
:10079000D20626D501F015FB10BD016C41F40071A5
:1007A000016401688A6812F0405F17D18269AAB9B2
:1007B000CA6A12F4700F02D08A6852050ED44A68D1
:1007C00022F020024A60016C21F480710164016C06
:1007D000C90403D4016C41F00101016401F0E6FA9F
:1007E00010BD806BC26C0846BDE81040104710B5C4
:1007F000806B40210164416C41F00401416401F0CF
:10080000E0FA10BD10B5806B01F0DAFA10BD0000FF
:10081000014801F0D7BA0000680500204A496FF08E
:10082000706210B5D1F8043323F44033C1F80433B7
:10083000D1F8043344682343C1F8043301684B689A
:1008400023F480734B60016803694C6844EA032316
:100850004B6001684B6823F040734B60016884680B
:100860004B6823434B6001688B6823F400638B6003
:100870000168C4688B6823438B60816AD142016838
:100880008A6822F070628A6001680DD0836A8A6883
:100890001A438A6001688A6822F040528A600168BF
:1008A000C36A8A681A4302E08A6822F040528A606A
:1008B00001688A6822F002028A60016882698B6896
:1008C00043EA42028A6090F820100029016811D0A2
:1008D0001E4A4B6843F400634B6001684B6823F485
:1008E00060434B600168446A4B6802EB4432134337
:1008F0004B6003E04A6822F400624A600168144BCE
:10090000CA6A22F47002CA620168848BCA6A03EB65
:1009100004531A43CA6201688A6822F400728A602A
:10092000016890F830208B6843EA42228A600168AF
:100930008A6822F480628A60016840698A6842EAB3
:100940008020886010BD00000020014000E0FFFF13
:100950000000F0FFFEE70000014801F090BD00003C
:100960006C060020014801F08ABD00006C060020E2
:100970000A480E230021012230B44FF47854C0E914
:100980000612C0E900418160C160C0E90413C0E9FA
:10099000082330BC0146024801F062BC100600206A
:1009A0006C0600207047000010B5FFF7E1FF084813
:1009B000012101F0D7FB0648022101F0D3FB0448D6
:1009C000102101F0CFFBBDE81040014801F072BFDB
:1009D0006C06002008B564208DF80000684600F021
:1009E00007F802480C2103F0CFFA08BDEC060020FE
:1009F00001789FED0D2B00EE101A9FED0E1B0C4899
:100A0000B8EE404BD0ED030A016884EE023BB8EE2D
:100A1000600B33EE011B21EE000BBDEEC00B10EEA0
:100A2000100A0864704700000000000000409F406A
:100A3000EC0600209A9999999999A93F064964284A
:100A400081F8130400D36420C0F1640081F81B0412
:100A50000248FFF7CDBF0000400000205B040020EB
:100A6000014801F06DBF0000B8070020014801F007
:100A700067BF0000B005002001681823CAB2103A11
:100A8000B2FBF3F2054B6FF30901032A9B5CC365CC
:100A900000D9091D8165084670470000AC5900085F
:100AA00010B583694FF0C074826A0146002053B1CB
:100AB000B3F5005F15D072B1012A0CD0022A0AD01A
:100AC000032A09D104E01AB1012A06D0022A03D16F
:100AD000C96AC90100D5012010BDC96AA142FAD076
:100AE00010BD002AF7D0012AF2D0022AF3D0032A3F
:100AF000F3D010BD30B50468256825F48025256045
:100B0000046863608368402B036803D099600068C1
:100B1000C26030BD9A600068C16030BD70477047E8
:100B20000121017002480A46C90202F093B900008F
:100B3000000402400121017002480A46490302F004
:100B400089B90000001402400021017002480A46E1
:100B50004FF4006102F07EB90004024000210170F0
:100B600002480A464FF4005102F074B900140240E2
:100B700070B505460C460846FFF7F0FF2078287050
:100B800070BD70B505460C46084600F003F82078A5
:100B9000287070BD012101707047002101707047FD
:100BA000704700001C48032110B5002280F8261071
:100BB000417680F827108176417001701146431804
:100BC000491C17299A70FADB00214318491C0B298C
:100BD000DA76FADB114808214FF0FF32C0F8E8213D
:100BE00080F82114C83004F0F1FC0C48F43004F013
:100BF00003FD0B48FFF7D6FEFFF7D6FEFFF7EAFE30
:100C0000FFF78DFF00F04AFF03F028FC03F02CFCF7
:100C1000BDE8104003F00ABF80040020400000201F
:100C2000DE0200202DE9F04FE84F8FB0002501AE25
:100C3000A7F5886404EB85007919891CD0F8F420A5
:100C4000002004F081FD70556D1C172DF2DB002093
:100C500000E009B9315C01B10121401C1728F8DB23
:100C6000DB48079021B15C2200F18801FFF711FBFE
:100C700000254FEA070A09AE04EB85020AEB0501DD
:100C80000020D2F8C8201B3104F05EFD70556D1CA9
:100C90000B2DF1DB002000E009B9315C01B101212D
:100CA000401C0B28F8DB49B15FF0000004EB800129
:100CB000401C0B28D1F8C8200A64F7DBD4F8D861AF
:100CC000D4F8DC510020C1493246263104F03CFD05
:100CD000BE49074600202A46273104F035FD074368
:100CE00015D0BA49C4F88862BC39A4F88453A1F17C
:100CF000FC0004F03FFE002004EB8001401C0B28A8
:100D0000D1F8AC210A64F7DB04EB86000564D4F863
:100D1000E061D4F8E4510020AC493246193104F0C6
:100D200013FDAA49074600202A461A3104F00CFD9B
:100D30000743A74800F1E400089011D000F23221E7
:100D4000C4F8846200F59A70A4F8825304F012FE8D
:100D50005C22DDE90701FFF79CFA04EB8600C5661B
:100D6000022694F81E0401254FF0FF314FF0000BCE
:100D700084F80A0494F9960300EB400004EB400069
:100D8000B0F80423A4F88C22B0F80623A4F88E222D
:100D9000B0F80803A4F8900294F9970304EB8000DC
:100DA000B0F81023A4F89222B0F81203A4F8940229
:100DB00094F81F0484F80B0494F9980304EB800062
:100DC000B0F81823A4F89622B0F81A03A4F89802F1
:100DD00094F9990304EB400090F8062484F89E23CC
:100DE00090F8070484F89F0394F99A0304EB8000B9
:100DF000B0F82023A4F89A22B0F82203A4F89C02A9
:100E0000C4F8E81194F82304F8B194F8250408B163
:100E100003F034FB94F82A04A04608B103F086FDE1
:100E200098F82C0408B100F0C9FC98F83504E8B330
:100E30006749642798F83404C146623901283BD0D9
:100E400002284FD003285ED14CE084F82354584642
:100E500084F82554A4F890B3A4F892B384F839B474
:100E600084F8246484F82A5484F8295484F82C548F
:100E7000C4F8F0B194F82B14042902D0042284F8A9
:100E80002B2484F83554032284F83A04214684F84C
:100E90003B0484F8342494F83724012A03D081F8E1
:100EA0003754A1F88E0391F8360400E02BE00128B6
:100EB00049D084F836543BE099F83B0458B199F88E
:100EC0000B2499F83A349A4212D1401E00D50020E2
:100ED00088F83B0417E03D4888F834642C38FFF765
:100EE0005CFE10E099F80B0499F83A2490420AD07D
:100EF0000CA889F83454FFF744FE99F80B0489F8DC
:100F00003A0489F83B7498F83704E0B198F836044D
:100F1000012802D0022816D104E088F83664A8F827
:100F20008EB310E0B8F88E030A2804D388F836543C
:100F300003F07CFD07E0401CB0F5803F01DB4FF67D
:100F4000FF70A8F88E0394F80F1409B1012300E094
:100F500000239AF801205046012A0ED00025AB420A
:100F600003D0032A01D084F80E1401B1012141708D
:100F700094F8201419B1012202E00125EFE70022C4
:100F8000017801291FD000239A4205D0032903D0FC
:100F900094F8201484F80E1494F8201401B101215F
:100FA0008AF800105C22DDE90710FFF772F90020D3
:100FB00004EB8001401C0B280A6CC1F8AC21F7DB64
:100FC0000FB0BDE8F08F0123DEE7000080040020B1
:100FD000AC0000202DE9FC47FE4C0221002640F227
:100FE000022720464FF6FF754FF4007A40F20129A0
:100FF00094F811244FF4803884F80C2494F82134A8
:10100000B0F88C03092B4BD2DFE803F04A05610DE1
:101010006119213A4400062284F821244FF4C87152
:10102000A4F838A31CE0042802D004F041FC4EE0F0
:1010300084F821144FF47A70A4F8380310E00120EA
:1010400084F82104A4F83873A4F83A033FE0012897
:1010500001D042B111E0072084F82104A4F83873CC
:10106000A4F83A1333E094F82214012905D1401C66
:10107000404500D32846A4F88C0384F8222426E0B7
:10108000032084F82104A4F83863A4F88863A4F842
:101090008A631CE009209FEDD00B84F8210414E042
:1010A00094ED0A0BB2EE041BB4EE410BF1EE10FA14
:1010B00007D1052084F82104A4F83893A4F83C0350
:1010C00005E0B7EE001B30EE010B84ED0A0BC448BF
:1010D000C449A0F16E020B46CDE90010911E723892
:1010E00003F068FCBE49BE3191ED040BBDEEC00BB0
:1010F00010EE100A01283BD002284FF0000040D02B
:101100002118401C0A2891F8AA2381F8A023F7DBB4
:10111000B34994F813245E3984F80D24881E831E85
:10112000CDE90001021F811F563004F083F9A94A5E
:10113000B4F8440302F11403A0F54071053902F23A
:10114000D6220DD0B0F5017F24D0504546D1B4F859
:10115000CA02B4F84613FF282AD3A4F8CA622DE0C5
:10116000B4F846030021A4F84E03B4F848034FE056
:10117000002023180A5C401C0A2883F8A023F8DB0F
:10118000C6E70A182318401C127E0A2883F8A023F9
:10119000F7DBBDE794F81D04FF2802D384F81D6433
:1011A00066E0401CFF2800DDFF2084F81D045FE09E
:1011B000401C404500DB2846A4F8CA02A4F8CC1223
:1011C00094F80D04642853D0322903D0642901D047
:1011D000C8294DD1002004F0F1FA49E0A0F5407192
:1011E00006390FD048452AD1B4F84673FF2F00D9ED
:1011F000FF27B4F8D202B4F84813FF280BD3A4F8A1
:10120000D2620EE0B4F846130A20B1FBF0F00121DF
:10121000FFF7A4F82CE0401C404500DB2846A4F86A
:10122000D202A4F8D412F9B2B4F84A031E29A4F8E1
:101230005A0302D9002004F0C1FAF8B208E0B8421B
:1012400009D1B4F8460304F0B9FAB4F8D00278B979
:1012500004F0E6FA0CE0A0F50071033908D1B4F807
:10126000460364214843404500DB2846A4F8500368
:1012700094F89B0358B9B4F8D602A4F82803B4F83C
:10128000D802A4F82A03B4F8DA02A4F82C03B4F8BC
:101290005433B4F85203B4F85823B4F85613C4F8CE
:1012A000D831C4F8DC01C4F8E021C4F8E41194F8A2
:1012B0004E0384F81E0494F89613B4F8D602E9B3EA
:1012C0005FF0000101EB410104EB4101A1F80403CF
:1012D00094F89613B4F8D80289B3002101EB4101C8
:1012E00004EB4101A1F8060394F89613B4F8DA026E
:1012F00031B3002101EB410104EB4101A1F80803E6
:1013000094F89603E8B3002084F8960394F89713B2
:10131000B4F8CA02B1B3002104EB8101A1F81003B3
:1013200094F89713B4F8CC0269B3002104EB81015F
:10133000A1F8120394F8970330B302E075E076E069
:1013400077E0002084F8970394F81D0484F81F04C4
:1013500094F89803B4F8CE12D0B3002004EB8000C8
:10136000A0F8181394F89813B4F8D00289B30021A8
:1013700004EB8101A1F81A0394F89803A0B30020AC
:1013800003E058E059E05AE05BE084F8980394F8F1
:10139000991394F8B40341B35FF0000104EB4101E9
:1013A00081F8060494F8991394F8B503D1B3002199
:1013B00004EB410181F8070494F8990398B30020E5
:1013C00084F8990394F89A13B4F8D20261B30DE04B
:1013D00039E03AE04000002000000000000000007A
:1013E000EA0300207659000831E032E05FF00001A6
:1013F00004EB8101A1F8200394F89A13B4F8D40205
:1014000079B3002104EB8101A1F8220394F89A0337
:1014100040B3002084F89A0394F81C0484F8200454
:10142000BDE8FC8717E018E019E001214AE7012137
:1014300054E701215EE7012066E701216CE7012105
:1014400074E701207EE7012088E7012190E7012071
:1014500096E70121A2E70121AAE70120B0E70121D7
:10146000C6E700E001E00121CCE70120D2E700005F
:101470002DE9F04F4749012400239BB018460DF198
:10148000080C81F89B43B1F82853B1F82A43B1F80E
:101490002C6381F89B3391F99C3365F30F02B1F80B
:1014A0005053139564F31F42B1F85A5303EBC3032F
:1014B000129591F813441894B1F83E431794B1F87B
:1014C000C8A291F811B491F8129491F81074C4184C
:1014D00001EB8404D4F818424CF82040401C092841
:1014E000F5DBB1F8866300200BAC91F80E5400BF19
:1014F00001EB40083CF82030A8F8DC3224F810302A
:10150000401C0928F4DBA1F8EE624FEA1248A1F86A
:10151000F052189AA1F8F222179AA1F8F422139A1D
:10152000A1F8F622A1F8F8A2129AA1F8FA22A1F8DD
:10153000FC82A1F8FEB2A1F80093A1F8027316494B
:101540000091A1F5817003F052FA009804F07EF941
:101550001148002110F1D20034F8112020F8112098
:10156000491C0929F8DB468285821899C18217999E
:10157000018313994183A0F81CA01299C183A0F89C
:101580002080A0F822B0A0F82490C7841BB0BDE84A
:10159000F08F0000400000201E040020274930B5D5
:1015A00089B001F5267004F0DBF9254D00206C466A
:1015B00005EB8001D1F8F41144F82010401C0928F3
:1015C000F6DB204803F024FA95F89D0348B900BFE4
:1015D00005EB800254F82010C2F86012401C092864
:1015E000F6DB1949002000BF01EB800254F82030DF
:1015F000401C09289362F7DB5FF0000095F89C23FC
:1016000054F82010B2B1002202EBC2020244401C86
:1016100005EB82020928C2F81812EFDB95F89C034B
:1016200050B1002085F89C03B5F88003A5F8860327
:1016300009B030BD0122E7E70120F3E734020020C2
:1016400040000020C0030020F0040020F0B5574CFB
:101650008BB00122002001A9B4F850C3A4F82EC316
:10166000B4F85A33A4F83033B4F83E3394F8135432
:10167000A4F83233B4F8C832A4F8343384F89D2384
:1016800004EB8002D2F8602241F82020401C092897
:10169000F6DB002084F89D034FF4A061B4F88003CA
:1016A00094F80E644FF44472A4F83603531CA4F863
:1016B0007613971DA4F8782340F2173E3C4A604603
:1016C000A4F87A330723A4F87C7302F110010F46C3
:1016D000A4F87EE304F2423403F0B4FF60830723EE
:1016E000334A3946A083304603F0ACFF314FE083E4
:1016F000A7F18003009703F12A02911E881E03F0D0
:1017000042F9A7F14000394604F06CF8258407F14E
:101710000805274BA5F18E02111D0095203301F11C
:101720002E0003F030F9A5F14600294604F05AF8DE
:1017300008356684A5F194031F4A181F009503F12C
:10174000320103F020F9A5F14C00294604F04AF8D3
:1017500005980835A084A5F1620306989A1EE084D6
:10176000911E0498208509986085881E009503F0D5
:101770000AF9A5F15200294604F034F80798083513
:10178000A085A5F1620301989A1EE085911E02983A
:10179000208603986086881E009503F0F4F8A5F172
:1017A0005800294604F01EF80BB0F0BD40000020A0
:1017B00088590008F6030020765900082DE9FE4FED
:1017C000A64C012500274FF00309214601F5826050
:1017D00094F82BC401F2124202900226D1F8F001D3
:1017E000EB070192521E0092421E91F831A401F1C2
:1017F0000B0B91F82D14BCF1070F59D2DFE80CF058
:101800005804F260F2BCF200BAF1010F514609D05F
:10181000022910D0032917D0BAF1040F48D10128AA
:101820002DD0BCE001287CD184F8337484F8317465
:1018300084F82B64CAE0012873D184F8319400F055
:10184000ABF9C4F8F001C1E001286AD184F8315441
:1018500000F0A2F9C4F8F00194F81304512894F8A8
:10186000330407D2012823D0502084F83354FFF7E3
:10187000E5F8C2E002281BD084F83364BDE084F8A8
:10188000327484F8316400F087F9754AC4F8F001C5
:10189000511E481E00F012F994F8170484F8100441
:1018A00094F8150484F8110494F8160484F81204CA
:1018B000BDE8FE8FC4F8F031FAE7C4F8F021F7E78D
:1018C000D4F8E8210420022A21D0002AF0D1BAF16C
:1018D000040F84F82B5405D084F8310400F05CF92F
:1018E000C4F8F00194F82904032836D0042840D025
:1018F00094F813043C283CD894F832040128D7D03B
:101900003C2084F83254BDE8FE4FFFF797B894F8B6
:101910000A24052ACCD2052284F82B24042907D0D6
:1019200000E03CE084F82D0400F036F9C4F8F00142
:1019300094F82904032894F8300409D00128B7D07A
:1019400084F83054BDE8FE4F4548C01CFFF7E8B8A6
:101950000228ADD084F8306409E094F813045028CC
:10196000C6D894F832040328A2D084F832945020C8
:10197000C9E784F832649BE7012908D0022911D015
:10198000032930D0042993D101283ED007E0012853
:1019900005D184F82D74062084F82B0416E09842B3
:1019A0008BDC87E70128FAD184F82F7484F82D9412
:1019B00000F0F2F8C4F8F00194F82904032894F830
:1019C0002E0407D00128D6D084F82E54BDE8FE4F4F
:1019D00000F0C0B80228CED0002084F82E64FFF7B3
:1019E0002DF8F3E736E00128D9D184F82E7484F875
:1019F0002D5400F0D1F8C4F8F0015B469DE80700D3
:101A000003B0BDE8F04F00F091B884F8307484F86A
:101A10002D6400F0C1F8114FC4F8F00194F82904C6
:101A20000E37032894F82F0408D00128A3D007F21A
:101A30000B4084F82F54FFF787F803E002289AD070
:101A400084F82F643B469DE8070003B0BDE8F04FE3
:101A500000F08EB884F82B942AE7000040000020A4
:101A60005704002010B50023037001240B7014707C
:101A70001A46A103074C204601F0ECF90648002263
:101A8000211501F0E7F901222046BDE81040D103FD
:101A900001F0E0B9001002400004024008B56846B9
:101AA00000F002F808BD00000021017002480A465B
:101AB0004FF4004101F0CEB90010024010B50024EF
:101AC000047001230B7013702246084C99032046C2
:101AD00001F0C0F901220648910201F0BBF9012290
:101AE0002046BDE81040D10301F0B4B90010024017
:101AF0000004024010B50123037000240C70094C4F
:101B0000990313701A46204601F0A4F906480022F2
:101B1000211501F09FF901222046BDE81040D103B4
:101B200001F098B900100240000402402DE9F04194
:101B30001C4615469A1C0E46591C07462046FFF7C0
:101B400091FFA07828702078387060783070BDE8F8
:101B5000F0810000044810B5FFF7A6FF034890F895
:101B6000181480F8101410BD580400204000002004
:101B70002DE9F0411C4615469A1C0E46591C074695
:101B80002046FFF7B7FFA07828702078387060787B
:101B90003070BDE8F08100002949084691F82D24F5
:101BA00090F82904042A10D0022A16D0032A2FD034
:101BB000012A34D091F83104042837D0022838D0D3
:101BC000032839D0D1F898007047032802D0D1F803
:101BD000AC007047D1F8BC00704703280FD091F8D3
:101BE0000A24012A0ED01648022AD0F8A000F3D009
:101BF000032A0AD0042AEFD1D1F8A8007047D1F8FF
:101C0000B8007047D1F89C007047D1F8A400704725
:101C1000032802D0D1F8B0007047486F70470328FE
:101C200002D0D1F8B4007047886F7047D1F89000A7
:101C30007047D1F88C007047D1F8940070470000CD
:101C40004000002070470000F8B50025009590F88E
:101C50003C20012A18D0012280F83C200A68072382
:101C60004E4C0668092A1AD90A3A02EB4207F26872
:101C7000BB409A43F2600E680268A64206D10B7A16
:101C8000D66846EA036308E00220F8BD0A3E8B6886
:101C9000D76806EB4606B3403B43D3600EE002EB49
:101CA00042073269BB409A43326103680E788A6802
:101CB0001F6906EB4606B2403A431A614A681F2381
:101CC000072A13D20668521E02EB8207726BBB40D2
:101CD0009A43726303680E790A88761E5F6B92B22C
:101CE00006EB8606B2403A435A6327E006680D2A9F
:101CF00012D2D21F02EB8207326BBB409A4332638F
:101D000002680E790B88F61F176B9BB206EB8606EE
:101D1000B3403B43136311E00D3A02EB8207F26AD2
:101D2000BB409A43F26202680E790B880D3ED76A77
:101D30009BB206EB8606B3403B43D362184A036866
:101D4000934208D10B68122B05D1D2F8043343F427
:101D50008003C2F80433036893421AD10B68A3428C
:101D600001D0112B15D1D2F8043343F40003C2F88B
:101D700004330968A1420CD10A490B4A0968B1FB36
:101D8000F2F101EB8101490000E0491E00910029B8
:101D9000FBD180F83C500020F8BD0000120000107C
:101DA000002001403C00002040420F000068034931
:101DB000884201D1FFF7F2BB7047000000200140CC
:101DC0007047704770B50446006801684268C1F307
:101DD0004001C2F3401251B34AB3216CC90603D487
:101DE000216C41F400712164816811F0405F17D1CA
:101DF000A169A9B9C16A11F4700F02D081684905BF
:101E00000ED4416821F020014160206C20F48070E4
:101E10002064206CC00403D4206C40F001002064D6
:101E20002046FFF7C3FF21686FF0120008602068AA
:101E300001684268C1F38001C2F3C01289B382B362
:101E4000216CC90603D4216C41F4005121648168DE
:101E500011F4401F1ED1816B11F4401F02D0816824
:101E6000490517D44168490514D4816811F0405FD1
:101E700010D1A16971B9416821F080014160206CE5
:101E800020F480502064206CC00503D4206C40F006
:101E9000010020642046FFF7D5FE21686FF00C009A
:101EA000086020680168436811F0010FC3F38011D6
:101EB0000ED069B10068C0070AD0206C40F48030B1
:101EC0002064204600F046F821686FF001000860A9
:101ED000206801684268C1F340110029C2F38062A2
:101EE0000DD0002A0BD0616C6FF0200541F002018B
:101EF000616405602046FFF764FF2068056070BDDF
:101F000070B504004FF0000503D0206C002610B11E
:101F100007E0012070BD204600F01EF8666484F8DA
:101F20003C60206CC00610D4206C20F4885040F037
:101F3000020020642046FEF771FC6664206C20F0ED
:101F4000020040F00100206400E0012584F83C60BC
:101F5000284670BD70470000F0B587B006461421D2
:101F60006846FEF7AFF930493068884259D12F48AA
:101F7000016841F48071016000682C4900F48070B0
:101F800005901439086840F004000860086800F003
:101F900004000590086840F001000860086800F03F
:101FA00001000590086840F00200086008680324FA
:101FB0000025694600F00200059033208DE83100CD
:101FC0001B4800F04FFEF02069468DE831001948AB
:101FD00000F048FE022069468DE83100164800F006
:101FE00041FE164C16480115C4E900058715A56089
:101FF0000B01C4E9035182142046C4E907756562E8
:10200000C4E9052300F06CFD08B1FEF7C9FD00220C
:10201000B46312201146A66300F082FF122000F084
:1020200071FF07B0F0BD00000020014044380240BD
:10203000000802400000024000040240B0050020F9
:1020400010640240F8B50D4604460021009190F856
:102050003C00012807D0012084F83C0020688368F8
:10206000DB0702D011E00220F8BD8668364B46F04F
:102070000106866035480068B0FBF3F000EB4000D5
:1020800000E0401E00900028FBD120688368DB0739
:1020900058D0236C40F20166B34343F48073236449
:1020A0004068400505D5206C20F4005040F4805075
:1020B0002064206CC00404D5606C20F006006064CD
:1020C00000E061646FF0220084F83C10A36B2049AB
:1020D000D963A36B1F491964A36B1F49D964216895
:1020E00008602068416841F0806141602068816833
:1020F00041F48071816021681346A06B2A464C31FF
:1021000000F060FD1549D1F80403C006206811D025
:10211000884207D1826812F0405F03D1826842F0A2
:1021200080428260D1F80403C0060BD40C492068B9
:10213000884207D1816811F0405F03D1816841F086
:10214000804181600020F8BD40420F003C0000202B
:102150008107000805080008EF070008002001407B
:102160000022014090F82020012A07D0022A05D041
:10217000416A41F480214162012070470068426950
:102180000A43426100207047F0B590F8205004687F
:10219000A468012D05D0022D03D0416A41F48021AD
:1021A0005AE014F0406F01D1E50052D5C4F3016448
:1021B000022C03D9416A41F400014DE001264FF49D
:1021C000C075A6401E608B68ABB1CE684F68D0F872
:1021D00000C0334305EB041643EAC7034CF806304E
:1021E00007684FF4C27303EB04130E69FE50097DB8
:1021F000012909D00DE00E88CB68076843EA4653F1
:1022000005EB0416BB51EBE70168CE5846F4807627
:10221000CE50D2F805304FF4C67C11790CEB041C7B
:1022200006684FF4C47741EA032107EB041346F82C
:102230000C10167805EB0411D2F80120076846EA65
:102240000222FA500068425842F001024250002037
:10225000F0BD416A41F4001141620120F0BD00006F
:1022600030B590F820300268012B07D0022B05D042
:10227000416A41F480214162012030BD3E4C3F481B
:10228000A24200D00246D2F80032824243F001035B
:10229000C2F800320CD1D2F8000220F47C50C2F80F
:1022A0000002D2F800024B6A40EA0320C2F80002A2
:1022B0000C7D0120D2F81C3204F01F04A04083439F
:1022C000C2F81C32CB69B3B9D2F80C328343C2F8DE
:1022D0000C328C894B684D6964F31F4302EBC504D3
:1022E000C4F840320C890B684D6964F31F4302EB5C
:1022F000C504C4F84432CB69012B16D1D2F80C3294
:102300000343C2F80C320C884B684D6964F31F43D9
:1023100002EBC504C4F840320C89CB684D6964F304
:102320001F4302EBC504C4F844328B69002BD2F87A
:1023300004320FD053EA0003C2F804320B69002BB9
:10234000D2F8143208D00343C2F81432096A0129C2
:1023500004D008E08343EFE78343F5E7D2F81C128B
:102360000143C2F81C12D2F8000220F00100C2F8AA
:102370000002002030BD0000003400400064004036
:1023800070470000F0B590F82040012C05D0022CD9
:1023900003D0416A41F4802166E0046800295ED0E0
:1023A0002469A4075DD005684FF4D87404EB0114C8
:1023B0002D5915F00405956005682D5957D0ED0885
:1023C000C2F8045007684FF4DA754FF4DC7C4FF420
:1023D000DE763C59002905EB0115C4F34007D760B0
:1023E0000CEB011406EB01110668765906F00F0696
:1023F000166106687659C6F3072696610668755910
:102400004FEA15455561026812591A70026812594F
:102410004FEA12225A70026812594FEA12429A7019
:10242000026812594FEA1262DA70026852581A7141
:10243000026852584FEA12225A71026852584FEA03
:1024400012429A71026851584FEA1161D9710068BD
:1024500010D0016941F0200101610020F0BDE46865
:102460009FE7416A41F4001141620120F0BD6D0D0A
:102470001560A7E7C16841F02001C160EDE72DE9D3
:10248000F05F0546006800244669D0F8049087682C
:10249000D0F80CB0D0F810A0F207D0F8188048D0CF
:1024A000F90714D001218160BA0703D5284600F04E
:1024B0002EFA0CE0780702D54FF4006407E03807E5
:1024C00002D54FF4805402E0284600F01FFAF805C8
:1024D00016D52868BA054FF48071816003D5284667
:1024E00000F017FA0CE0780502D544F4005407E038
:1024F000380502D544F4804402E0284600F008FA8A
:10250000F80316D52868BA034FF48031816003D5EB
:10251000284600F000FA0CE0780302D544F40044A9
:1025200007E0380302D544F4803402E0284600F086
:10253000F1F9300707D55FEACB6004D52968102090
:1025400044F40074C86070074FF0080707D55FEACD
:102550000B7004D52868C760284600F06BF9B007F7
:1025600006D52868C068800702D0284600F064F9C4
:10257000700607D55FEACA6004D52968102044F4C4
:1025800080640861B00607D55FEA0A7004D5286840
:102590000761284600F08AF9F00606D52868006928
:1025A000800702D0284600F082F9B00308D55FEA20
:1025B000C96005D5296810204860284600F078F9E0
:1025C000F00307D55FEA097004D5286847602846FC
:1025D00000F0A2F9300446D55FEA497040D5F00515
:1025E00004D55FEAC87001D044F00104B00504D5F9
:1025F0005FEA887001D544F00204700504D55FEAF3
:10260000487001D544F00404300529D518F0700F46
:1026100026D008F07000402815D006DC102809D01C
:1026200020280AD0302816D10AE050280ED0602881
:1026300011D10EE044F008040DE044F010040AE06B
:1026400044F0200407E044F0400404E044F0800437
:1026500001E044F480742868816921F0700181618F
:10266000296804204860002C05D0686A204368620D
:102670002846FFF785FEBDE8F09F70B5040003D043
:1026800094F8200010B104E0012070BD204600F055
:1026900081F82068016821F00201016000F0E0FB90
:1026A0000526054604E000F0DBFB401B0A2811D894
:1026B000206840688007F6D42068016841F0010175
:1026C000016000F0CDFB05460BE000F0C9FB401BAC
:1026D0000A2806D9606A40F40030606284F82060FD
:1026E000D2E720684068C007EFD0207E012820682C
:1026F00001683DD021F080010160607E01282068E2
:10270000016838D021F040010160A07E01282068D6
:10271000016833D021F020010160E07E01282068AB
:1027200001682ED041F010010160207F012820684F
:10273000016829D021F008010160607F012820682C
:10274000016824D021F004010160D4E90110D4E92A
:1027500003326569491E184323682A431043002247
:102760000843D8610121626284F82010104670BDD0
:1027700041F08001C0E741F04001C5E741F0200190
:10278000CAE721F01001CFE741F00801D4E741F09A
:102790000401D9E7F0B587B0044614216846FDF777
:1027A00091FD2149206888423CD12048016841F0D0
:1027B00000710160006800F0007005901B4810383F
:1027C000016841F001010160006802AA0224184F6B
:1027D00000F00100059003250926012182E862002E
:1027E000A0026946CDE90004384600F03BFA02AA8F
:1027F0000021E00282E86200CDE900046946384623
:1028000000F030FA00221320114600F089FB13205B
:1028100000F078FB00221420114600F081FB142008
:1028200000F070FB07B0F0BD00640040403802408B
:102830000000024070470000194A0021174B02F1C6
:10284000340010B5FFF79EFD1649002210460B1804
:10285000401C0A281A76FADB11480B7E028843EAEC
:1028600012200876487E10430C4A487602200C1845
:10287000135C401C0A282376F9DB91ED040BB0EEC3
:10288000001BB4EE410BF1EE10FA01D1FEF7A2FBF2
:10289000BDE810400448012100F0D5BA080000202E
:1028A00038060020A804002000040240704770474A
:1028B0007047000070B5044690F82000012804D04D
:1028C000606A40F40020606218E0022084F8200072
:1028D0002068016821F00101016000F0C1FA05469D
:1028E0000EE000BF00F0BCFA401B0A2808D9616A5C
:1028F000052041F40031616284F82000012070BDA0
:1029000020684068C007EDD1606270BD70477047B5
:102910007047704770477047704790F8351002292C
:1029200003D08021416501207047052180F83510D2
:102930000068016821F0010101600020704700007B
:102940002DE9F84304464FF00009644B0820CDF808
:1029500000904FF41652A56D94F85C101B682E6819
:10296000B3FBF2F700FA01F131420FD021680A6897
:1029700052070BD50A6822F004020A6094F85C1032
:102980008840A860606D40F00100606594F85C10BC
:102990004FF0010808FA01F0304208D02168496977
:1029A000090604D5A860606D40F00200606594F8E7
:1029B0005C1004208840304208D0216809688907EB
:1029C00004D5A860606D40F00400606594F85C1068
:1029D00010208840304218D021680968090714D5B2
:1029E000A86020680168490304D50068000308D581
:1029F000A16C07E00168C90503D4016821F0080152
:102A00000160216C09B12046884794F85C102020B1
:102A10008840304231D021680968C9062DD5A860A8
:102A200094F8350005282068016806D0490347D589
:102A3000006800031DD4616C1CE021F016010160E8
:102A40002068416921F080014161206C08B9A06CC7
:102A500020B12068016821F00801016094F85C3021
:102A60003F229A40AA6084F8349084F83580216D22
:102A70001FE0E16B09B120468847606D00282BD02C
:102A8000606DC00714D0052084F835002068016807
:102A900021F0010101600098401C0090B84203D869
:102AA00020680068C007F6D184F8349084F8358037
:102AB000E16C002910D001B02046BDE8F043084782
:102AC0000168C905D5D4036823F01003036084F8B6
:102AD000349084F83580CCE7BDE8F8833C000020D2
:102AE0002DE9F047044600F0BBF9054664B14FF00C
:102AF000000984F83490022184F8351020680168B8
:102B000021F0010101600EE00120BDE8F08700BF67
:102B100000F0A6F9401B052805D920216165032096
:102B200084F83500F1E720680068C007F0D1D4E9E7
:102B30000020D4E90251D4E9043C284304F11805EB
:102B400019430843116895E8E00140EA0C001C4B6A
:102B50002843194040EA060040EA0700B8F1040F94
:102B600040EA010003D1D4E90B1319430843106074
:102B700020680126656A4069042D20F0070045EAB7
:102B800000050CD1D4E90A01054341B12046FDF707
:102B900087FF20B14020606584F83560B4E7206885
:102BA00045612046FDF768FF94F85C303F229A406B
:102BB0008260C4F8549084F835600020A5E70000D6
:102BC0003F8010E02DE9F041044690F834000025E4
:102BD0000128A66D0ED094F835C00127002084F896
:102BE0003470BCF1010F07D0022584F83400284668
:102BF000BDE8F0810220FBE7022784F835706065AC
:102C00002046FDF777FF94F85C103F208840B060C5
:102C10002068016841F0160101602068416941F0B7
:102C200080014161206C20B12068016841F00801F9
:102C300001602068016841F001010160D7E70000F0
:102C400070B5044600F00CF90546601C02D004483B
:102C50000078044400F004F9401BA042FAD370BD90
:102C6000300000202DE9F84FDFF89CE100224FF002
:102C700001084FF0030B4FF00F0A00BF0B6808FA72
:102C800002F42340A34271D14D68022D01D0122DD0
:102C90000FD1D5080E69570700EB8505A9462D6AA7
:102CA000FF0E0AFA07FCBE4025EA0C052E43C9F8C0
:102CB00020600F79550006680BFA05FC07F0030742
:102CC00026EA0C06AF40374307604E68012E05D058
:102CD000022E03D0112E01D0122E0ED18668CF689D
:102CE00026EA0C06AF403743876046680F79A64353
:102CF000C7F30017974037434760C4688E6824EADB
:102D00000C04AE402643C6604C68E40075D53F4CC9
:102D1000256845F480452560246822F00306950760
:102D200004F4804400943A4C2D0F2644D6F8084809
:102D3000DFF8E0C00AFA05F7604524EA070401D18C
:102D400000272EE0344FB84201D1012729E0334F4C
:102D5000B84201D1022724E0314FB84201D1032704
:102D60001FE0304FB84202D104271AE045E02E4F51
:102D7000B84201D1052714E02C4FB84201D10627F3
:102D80000FE02B4FB84201D107270AE0294FB84284
:102D900001D1082705E0284FB84201D1092700E0FA
:102DA0000A27AF4027437546C6F808784E68DEF814
:102DB0000040F60324EA030400D51C43124E2C60A5
:102DC000361D4D683468AD0324EA030400D51C4366
:102DD0000D4F346008374D683C68ED0224EA030467
:102DE00000D51C43084D3C600C354E682C68B6027B
:102DF00024EA030400D51C432C60521C102AFFF463
:102E00003DAFBDE8F88F0000003C0140443802406F
:102E1000003001400000024000040240000802406F
:102E2000000C024000100240001402400018024052
:102E3000001C0240002002400024024000690840BB
:102E400000D001207047426931EA020200D1090432
:102E5000816170470AB1816170470904FBE7000096
:102E600001488068704700003000002002488168F7
:102E7000027811448160704730000020032010B5B3
:102E800000F06EF8002000F005F800F023F80020B4
:102E900010BD000070B50D4D04464FF47A700C4A19
:102EA00029781268B0FBF1F0B2FBF0F000F0C2FD3F
:102EB00048B9102C07D200222146501E00F030F8ED
:102EC00000206C6070BD012070BD0000300000204B
:102ED0003C0000200A4808B5016841F080510160BB
:102EE000006800F0805000900548001D016841F422
:102EF00080410160006800F48040009008BD00003F
:102F000040380240002809DB410900F01F02890017
:102F1000012001F1E0219040C1F80001704700005C
:102F20000E4BF0B41B680D46C3F30223C3F1070632
:102F3000042E00D90426191D072901D2002300E020
:102F4000DB1E012404FA06F19C40491E2940641E40
:102F5000994014402143F0BC02F080BA0CED00E02F
:102F6000064900F0070210B54FF6FF040868044B4D
:102F7000204040EA02201843086010BD0CED00E03C
:102F80000000FA051848F8B5016841F08051016069
:102F90000068164C00F080500090206840F48030AB
:102FA0002060FFF75DFF4FF47A76054605E000BF2D
:102FB000FFF756FF401BB0420FD86068C003F7D53B
:102FC000206840F400302060FFF74AFF054606E025
:102FD000FFF746FF401BB04201D90320F8BD6068EF
:102FE0008003F5D50020F8BD403802400070004055
:102FF0002DE9F84F04460078DFF824944FF00006DE
:103000003746C0070ED0D9F8001021F40001C9F8E6
:103010000010D9F80010626B1143C9F80010606B02
:1030200000B90126FE4D2068843500030ED5E16B02
:10303000286820F4401008432860E06BB0F5801F3A
:1030400001D010B102E0012600E0012720684FF412
:10305000800BC0020CD5216C286820F44000084386
:103060002860206C584501D1012601E000B90127F4
:103070002068C10100D50126800666D5E8483830B1
:10308000016841F0805101600068DFF898A300F00A
:1030900080500090DAF8001041F48071CAF80010F6
:1030A000FFF7DEFE804605E0FFF7DAFEA0EB080042
:1030B00064287DD8DAF80000C005F5D5DFF8608314
:1030C00008F16808D8F8000010F440702AD0218E6A
:1030D00001F44071814225D0D8F80010D8F80020C2
:1030E00021F4407142F48032C8F80020D8F8002062
:1030F00022F48032C8F80020C8F80010D8F8000088
:10310000C0070FD0FFF7ACFE824607E0FFF7A8FE2E
:10311000A0EB0A0141F288308142CAD8D8F80000F9
:103120008007F3D5206BC0F3012103297ED0D9F8A5
:10313000001021F4F811C9F80010228ED8F8001000
:10314000C2F30B021143C8F800102078C00607D55F
:10315000286820F0807028602868A16B08432860E8
:103160002188AF488830490405D5626E016821F492
:103170004031114301602188090405D5A26E016820
:1031800021F44021114301602168C90305D5E26E95
:10319000016821F44011114301602168890305D5BC
:1031A000226F016821F4400111430160217800E0A1
:1031B00034E1490605D5626C016821F00301114331
:1031C00001602178090605D5A26C016821F00C0187
:1031D000114301602188C90505D5E26C016821F021
:1031E0003001114301602188890505D5226D0168F0
:1031F00021F0C001114301602188490505D5626DA8
:10320000016821F44071114301602188090505D549
:10321000A26D016821F44061114301602188C90455
:1032200007D5E26D016821F4405100E05FE01143F1
:1032300001602188890405D5226E016821F440418E
:10324000114301602168490205D5A26F016821F090
:1032500080611143016021684FF0006A890209D53D
:10326000E26F016821F0006111430160E16F514597
:1032700000D1012721680A0700D50127490305D598
:10328000626F016821F040711143016021680902F9
:1032900006D5D4F88020016821F0805111430160E7
:1032A0002168490106D5D4F88420016821F0005135
:1032B000114301602068000106D5D4F88810286801
:1032C00020F00070084328602068C00006D5D4F8BC
:1032D0008C10286820F0806008432860DFF848914F
:1032E000012E0ED02068B0F1007F0AD08FE04F4A47
:1032F000D9F80030104023F4F8120243C9F8002036
:103300001BE7D9F800004E4620F08060C9F80000A5
:10331000FFF7A6FD804605E0FFF7A2FDA0EB080041
:1033200064287BD830680001F6D421783C487C3092
:10333000C90712D0616B81B9237A62680168D0F83D
:1033400000C09201C1F3014142EA0142CCF30361A2
:1033500042EA016141EA0371016021680A0303D571
:10336000E26BB2F5801F04D0C9021AD5216C594511
:1033700017D16368016894F80CC002689B01C1F31F
:10338000014143EA0141C2F3027241EA0C6141EAA0
:10339000027101602968626A21F01F01521E114307
:1033A00029602168C90110D5238A62680168D0F8B4
:1033B00000C09201C1F3036142EA034242EA0162A2
:1033C000CCF3027142EA01710160216889010CD5D8
:1033D0006168228A237B94F808C0890141EA02418E
:1033E00041EA036141EA0C7101603168B04641F085
:1033F00080613160FFF734FD064604E0FFF730FDE1
:10340000801B64280AD8D8F800000001F6D5E7B37D
:10341000D9F800004E4620F0805009E07BE0000023
:10342000083802400070004000380240FFFCFF0FE7
:10343000C9F80000FFF714FD074604E0FFF710FD90
:10344000C01B642867D83068C0438000F6D5216867
:1034500035480A0301D5E26B1AB1C9021DD5216CAA
:10346000D9B963690168277E02689B01C1F30141F4
:1034700043EA0143C2F3027143EA076242EA01717F
:10348000016029686FF0FF0300E04BE0A26A21F4BD
:10349000F85103EB0222114329602168890212D5F9
:1034A000E16F51450FD1238C626901680768920171
:1034B000C1F3036142EA034242EA0162C7F30271C7
:1034C00042EA017101602178090716D56169026835
:1034D000D0F800C08B01277FC2F30362CCF3014117
:1034E00043EA014141EA026141EA0771016028684B
:1034F000E16A20F4403008432860306840F0805092
:103500003060FFF7ADFC044608E000BFFFF7A8FC01
:10351000001B642802D90320BDE8F88F3068C0433F
:103520008000F3D40020F7E7883802402DE9F04707
:1035300005000F4663D0444E306800F00F00B842DB
:1035400009D2306820F00F0038433060306800F056
:103550000F00B84253D128683C4C810712D5400770
:1035600003D5206840F4E05020602878000703D598
:10357000206840F460402060A968206820F0F000D6
:10358000084320602878C0072AD030496868083985
:10359000012810D00968022810D0890700292EDAE6
:1035A000216821F0030101432160FFF759FC8046A7
:1035B00041F288390DE009688903EFE78901EDE7F9
:1035C000FFF74EFCA0EB0801494502D90320BDE8F6
:1035D000F0876868216801F00C01B1EB800FEFD132
:1035E000306800F00F00B8420BD9306820F00F00AF
:1035F00038433060306800F00F00B84201D001203D
:10360000E5E72878400705D5E968206820F4E05010
:10361000084320602878000706D52869216821F42E
:10362000604141EAC000206000F036F82168084A95
:10363000C1F30311515CC840064908600020FFF740
:1036400029FC0020C3E70000003C0240083802408B
:10365000B45900083C000020044905480968006886
:10366000044AC1F38221515CC840704708380240C7
:103670003C000020C4590008044905480968006856
:10368000044AC1F34231515CC840704708380240D7
:103690003C000020C4590008154910B515480968B8
:1036A00011F00C0213D04110042A0FD0082A0ED1B9
:1036B0000F4C241F2268236802F03F025B0207D5EB
:1036C0002068C0F38810A0FB010106E0084610BD89
:1036D0002168C1F38811A1FB00010023FCF7A8FDBC
:1036E0002168C1F30141491C4900B0FBF1F010BD54
:1036F000083802400024F4002DE9F84F05004FF08F
:1037000000076ED02878DFF82093A9F1040AC007DB
:10371000AAF104044CD0D9F800104846C1F3810145
:10372000012908D00068C0F3810002280AD1DAF824
:103730000000400206D52068800339D5686800285B
:10374000DFD035E06868B0F5803F0BD010B1B0F540
:10375000A02F11D0206820F480302060206820F451
:10376000802002E0206840F480302060686890B1DA
:10377000FFF776FB06460AE0206840F480202060D0
:10378000F0E700BFFFF76CFB801B642872D820684D
:103790008003F7D50CE0FFF763FB064605E000BFAA
:1037A000FFF75EFB801B6428F0D820688003F7D405
:1037B0002878800742D5D9F80010484611F00C0F40
:1037C00008D00068C0F3810002280BD1DAF80000AD
:1037D000400207D42068800718D5E868012800D186
:1037E00014E01EE1E8680028206817D040F00100CE
:1037F0002060FFF735FB064605E000BFFFF730FB12
:10380000801B0228C2D820688007F7D52869216864
:1038100021F0F80141EAC00020600FE020F0010033
:103820002060FFF71DFB064605E000BFFFF718FB11
:10383000801B02281ED820688007F7D4287800074C
:1038400029D5794869696C3000298046016812D011
:1038500041F001010160FFF703FB064605E000BFF0
:10386000FFF7FEFA801B022804D8D8F80000800772
:10387000F6D510E089E021F001010160FFF7F0FAD0
:10388000064604E0FFF7ECFA801B02287DD8D8F842
:1038900000008007F6D4287840076BD5DFF88881D0
:1038A00008F13808D8F80000C0000BD4D8F8001090
:1038B00041F08051C8F80010D8F80000012700F04E
:1038C0008050009059480168C90512D401688346A8
:1038D00041F480710160FFF7C3FA064605E000BFBE
:1038E000FFF7BEFA801B64284FD8DBF80000C00544
:1038F000F6D54D4EA868683601280AD008B10528CB
:1039000011D0306820F001003060306820F00400F1
:1039100002E0306840F001003060A868A0B1FFF715
:103920009FFA83460CE0306840F004003060F0E716
:10393000FFF796FAA0EB0B0141F28830814268D87C
:1039400030688007F4D50EE0FFF78AFA834607E077
:10395000FFF786FAA0EB0B0141F28830814258D87C
:1039600030688007F4D42FB1D8F8001021F08051CE
:10397000C8F80010A869E0B3D9F80010C1F38101BC
:1039800002294ED00228206800E042E020F080703A
:10399000206003D0FFF764FA05463DE0FFF760FAC8
:1039A000064604E0FFF75CFA801B022831D8206845
:1039B0008001F7D4D5E90921DFF874C0D5E90706FD
:1039C00095F830304F0895F82C1030430CEB074534
:1039D00045EA8212104340EA016040EA0370CAF8E7
:1039E0000000206840F080702060FFF739FA05463B
:1039F00005E014E0FFF734FA401B022809D82068DC
:103A00008001F7D50BE000BFFFF72AFA401B022820
:103A100002D90320BDE8F88F20688001F4D400208B
:103A2000F8E70120F6E70000083802400070004087
:103A30000000FFFF401EB0F1807F10B501D30120D0
:103A400010BD4FF0E02460610F21601701F006FD0A
:103A50000020A0610721216110BD704770477047A9
:103A600070B590F83C20012A24D0134C012580F831
:103A70003C50022280F83D2002685368A2429668BA
:103A800002D00E4CA24203D14C6823F470032343AE
:103A90000C6823F0700389681C435460002326F0EF
:103AA000800602683143916080F83D5080F83C30D8
:103AB000184670BD022070BD0000014000040140A6
:103AC00010B5040003D094F83D0010B107E00120C8
:103AD00010BD002084F83C00204600F00DF80220C4
:103AE00084F83D002068211D01F02AF8012084F8A7
:103AF0003D00002010BD000008B501681048B1F17C
:103B0000804F0BD00F4A914207D1016841F0040168
:103B10000160006800F00400009008BD016841F0F9
:103B20000101016000680022114600F001000090D0
:103B30001C20FFF7F5F9BDE808401C20FFF7E2B9AB
:103B400040380240000800400168094ACB6843F051
:103B50000103CB60016888681040062806D0B0F5E4
:103B6000803F03D0086840F00100086000207047E3
:103B70000700010070B5044690F83C00012817D0FA
:103B8000324B012584F83C50022084F83D00226825
:103B90009068184020F47F4090600868502830D02A
:103BA0000DDC20284DD005DC98B310283BD148E02F
:103BB000022070BD302844D0402834D139E060283C
:103BC00028D0702806D0B0F5805F2CD0B0F5005F0B
:103BD00029D10AE04A682068D1E9021301F023F8EC
:103BE0002068816841F0770109E04A682068D1E9DE
:103BF000021301F018F82068816841F48041816067
:103C000011E0CA684968206801F054F92068502121
:103C100007E016E0CA684968206801F05CF920688E
:103C2000602101F009F8002084F83D5084F83C0040
:103C300070BDCA684968206801F03CF920684021DD
:103C4000EFE7226801461046EBE7000088FFFEFF21
:103C5000704770B50446006800250169C9438907AB
:103C600015D4C168C943890711D4EA1E0261012134
:103C70002177206880698007204602D0FFF7E8FF9F
:103C800004E000F0CFF8204600F07DF925772068A9
:103C90000169C943490717D4C168C943490713D407
:103CA00002216FF00402026121772068806910F41C
:103CB000407F204602D0FFF7CBFF04E000F0B2F8CF
:103CC000204600F060F9257720680169C94309079B
:103CD00016D4C168C943090712D404216FF0080241
:103CE000026121772068C0698007204602D0FFF773
:103CF000AFFF04E000F096F8204600F044F9257785
:103D000020680169C943C90617D4C168C943C906F7
:103D100013D408216FF01002026121772068C06976
:103D200010F4407F204602D0FFF792FF04E000F03D
:103D300079F8204600F027F9257720680169C94302
:103D4000C90708D1C168C943C90704D1891E0161E7
:103D5000204600F03FF920680169C943090609D4EB
:103D6000C168C943090605D46FF08001016120468E
:103D7000FFF774FE20680169C943C90509D4C16809
:103D8000C943090605D46FF4807101612046FFF72D
:103D900064FE20680169C943490609D4C168C94362
:103DA000490605D46FF040010161204600F040F95A
:103DB00020680169C94389060BD4C168C9438906D3
:103DC00007D46FF0200101612046BDE87040FFF785
:103DD00046BE70BD10B586B0044614216846FCF797
:103DE00071FA0D492068884214D10C48016841F0ED
:103DF000080101600068002100F008000590022021
:103E000082030092CDE90101CDE90310044869461F
:103E1000FEF728FF06B010BD000800403038024011
:103E2000000C0240704770B5044690F83C000D4607
:103E300001280ED0012684F83C60022084F83D0061
:103E40000C2A45D007DC5AB1042A1BD0082A78D1A5
:103E50002CE0022070BD102A4ED0142A71D15DE0F2
:103E6000206800F0F1FE2068816941F0080181615D
:103E70002068816921F00401816120682A698169D3
:103E8000114311E0206800F019FF2068816941F4B6
:103E9000006181612068816921F48061816120680D
:103EA0002969826942EA012181614AE0206800F0C3
:103EB00041FF2068C16941F00801C1612068C16902
:103EC00021F00401C16120682A69C169114311E030
:103ED000206800F06BFF2068C16941F40061C16196
:103EE0002068C16921F48061C16120682969C269C3
:103EF00042EA0121C16124E0206800F083FF2068CC
:103F0000416D41F0080141652068416D21F00401D7
:103F1000416520682A69416D114311E0206800F075
:103F20009DFF2068416D41F4006141652068416D4D
:103F300021F48061416520682969426D42EA0121CE
:103F40004165002084F83D6084F83C0070BD10B5E8
:103F5000040003D094F83D0010B107E0012010BD2B
:103F6000002084F83C00204600F00CF8022084F881
:103F70003D002068211D00F0E3FD012084F83D0094
:103F8000002010BD7047704710B50122044600683C
:103F900000F03CFE0C492068884202D00B49884260
:103FA00003D1416C41F4004141642068084A8168B2
:103FB0001140062906D0B1F5803F03D0016841F0D9
:103FC00001010160002010BD00000140000401401B
:103FD0000700010070B572B60068B0F1804F21D1C2
:103FE000114C2068401C20606068401C6060A06824
:103FF000401CA060FCF716FE20680025322802DB7A
:10400000FDF736FA25606068B0F5FA7F04DB0748F3
:104010008021FEF718FF6560A068322802DBFDF7FB
:1040200015FBA56062B670BD1800002000040240B8
:10403000704770472DE9F041026804460025D069B9
:104040001168936810F00F0F5BD003F0010601F4C4
:104050009077374369D0C70707D0CF0505D501272B
:104060001762E26F42F00102E267820708D5DA07C1
:1040700006D0276802223A62E26F42F00402E26749
:10408000420708D5DA0706D0236804221A62E26FD5
:1040900042F00202E26702070AD501F02002324331
:1040A00006D0236808221A62E26F42F00802E26733
:1040B000E26F002A32D0800605D5880603D5216E2E
:1040C00009B1204688472168E06F8968490601D414
:1040D000000725D5204600F0DBFF206881684906EF
:1040E00019D5816821F040018160E06E98B11A49CC
:1040F0000165E06EFEF711FC00280FD0E06E016D47
:1041000006E0830611D58B060FD5216E12E02046FE
:10411000BDE8F04108472046FFF78BFFBDE8F0817E
:104120002046FFF786FFE567F8E7030605D50B068F
:1041300003D5616E0029EAD1F0E74006EED54806C6
:10414000ECD513682021204623F0400313606167FB
:10415000656600F07FF9E1E7FF4F000810B5040045
:1041600002D0606F10B107E0012010BD002084F87C
:104170007000204600F026F824206067206801685F
:1041800021F001010160204600F0F4FF0128ECD08D
:10419000606A10B1204600F0B0FE2068416821F44A
:1041A000904141602068816821F02A018160206887
:1041B000016841F0010101602046BDE8104000F0B7
:1041C00000BF000070B586B0064614216846FCF7B3
:1041D00079F82249306888423ED12148016841F48B
:1041E00080210160006800F4802005901C48103890
:1041F000016841F00801016000680025022100F01B
:10420000080005904FF4407007238DE82300032237
:104210001448CDE903236946FEF724FD124C4022E1
:1042200012484FF0006184E8270003152046C4E9D6
:104230000435A561E56125626562FEF751FC08B1B0
:10424000FCF7AEFC0022B46627201146A663FEF7F9
:1042500067FE2720FEF756FE06B070BD00480040FE
:1042600040380240000C0240B8070020586002406D
:1042700070B5836F202B4BD1B9B1B2B190F87030CB
:10428000012B45D08368012680F8706000244165C9
:1042900035030466AB42A0F85820A0F85A204FF02E
:1042A000FF0107D1026912B126E0012070BD40F282
:1042B000FF1121E04FF07F02E3B1B3F1805F1ED028
:1042C000A0F85C402221C467816701688A6842F0D7
:1042D00001028A608168A94201D10169B1B10D4929
:1042E000016680F870400068016841F490710160D7
:1042F000002070BD036933B9A0F85C10E2E70169E2
:1043000009B13F21F8E7A0F85C20DBE70249E7E7C5
:10431000022070BD1B510008C15000082DE9F0417A
:1043200072B6234D012723494FF000086C1C2878F2
:1043300048B3214E002085F800800A5C3254401CAE
:104340000A28FADB1D484FF48041FEF77CFDAF6080
:1043500096ED040BB7EE001BB4EE410BF1EE10FA34
:1043600001D1FCF737FE12490322491CC81CFBF798
:10437000B4FF78B10F49012201F10C00FFF778FF7B
:1043800062B6BDE8F08160782070A078607008782F
:10439000A070E8E707490A222F7001F10C00FFF72F
:1043A00067FF002041462154401C0328FBDBE7E760
:1043B000240000202C070020A80400200004024054
:1043C00070B50446406F20283BD161B35AB394F8CE
:1043D0007000012835D0A4F85020A4F85220002500
:1043E000A06E0123E164212184F87030E5676167E4
:1043F000D8B115491346C163A16E14480864A16E73
:104400001348C864A06E05652068A66E00F12802F6
:10441000E16C3046FEF7D6FB38B11021E167202071
:1044200084F870506067012070BD216840200862E8
:1044300084F870502068816841F08001816000201C
:1044400070BD022070BD0000595000088750000860
:104450001350000870477047FEE700000148FFF75F
:1044600073BB0000AC060020024901220248FFF79E
:10447000FFBE00002C07002038070020284A2DE945
:10448000F04192F824C4BCF1010F28D01046022755
:104490000323B0F89662012490F82654BCF1020F71
:1044A000B0F89A12B0F89C020AD0BCF1030F35D1D3
:1044B000B2F8C6C261452BD0B2F8C8C2604527D059
:1044C000042805D0062803D003280CD0052811D0D5
:1044D00082F82434A2F8C612A2F8C80218E0BDE897
:1044E000F041FBF74BBF82F82434A2F8C612A2F8C1
:1044F000C8320DE082F82444022DA2F89063A2F89D
:10450000C612A2F8C80209D082F82674A2F83E4367
:1045100001F00CF8BDE8F04100F0ECBFBDE8F0811F
:10452000400000202DE9FF41414800214FF4403573
:104530003E4B0091012401914FF009080291039133
:10454000C0E900350461846181603A4B80F8201035
:10455000C0E90A31C0F81C80C16080F83040446175
:10456000FDF7CEFC08B1FCF71BFB072530480426FD
:1045700000966946CDE90145FDF766FB08B1FCF7F9
:104580000FFB022069460524CDE900402848FDF7CD
:104590005BFB08B1FCF704FB032069460627CDE965
:1045A00000702348FDF750FB08B1FCF7F9FA2048EA
:1045B0006946CDE90056FDF747FB08B1FCF7F0FA74
:1045C0001B484646CDE900846946FDF73DFB08B12E
:1045D000FCF7E6FA0A206946CDE900071448FDF722
:1045E00033FB08B1FCF7DCFA0B206946CDE9000586
:1045F0000F48FDF729FB08B1FCF7D2FA08210E207D
:10460000CDE900010A486946FDF71EFB08B1FCF739
:10461000C7FA0F206946CDE900060548FDF714FBEF
:10462000002801D0FCF7BCFABDE8FF810020014062
:10463000680500200100000F70B510484FF080742D
:104640004FF4A0030C4E00210625C0E902144FF4DC
:104650006022C0E90423C0E90065017641768176D5
:10466000C17601774177FEF708F8002803D0BDE84E
:104670007040FCF795BA70BD006400406C060020E5
:10468000114808B5016841F400110160016801F4A6
:1046900000110091016841F480010160006800226E
:1046A000114600F4800000900E20FEF739FC0E2029
:1046B000FEF728FC002238201146FEF731FCBDE849
:1046C00008403820FEF71EBC30380240704700001A
:1046D0002DE9F04F87B014216846FBF7F3FD3D4804
:1046E000016841F004010160016801F004010591D5
:1046F000016841F080010160016801F080010591CD
:10470000016841F001010160016801F001010591BA
:10471000016841F002010160016801F002010591A8
:10472000016841F020010160016801F0200105915C
:10473000016841F010010160016801F0100105916C
:10474000016841F008010160006844F68147DFF824
:104750008890002200F00800394605904846FEF790
:1047600079FBDFF878A04FF400560022314650461E
:10477000FEF770FBDFF868B04FF440480022414676
:104780005846FEF767FB0024164800966946CDE9B7
:1047900001041548FEF766FA01250097CDE901549A
:1047A000694648460394FEF75DFA00966946CDE9EE
:1047B000015450460394FEF755FACDF8008069463F
:1047C000CDE9015458460394FEF74CFA07B0BDE812
:1047D000F08F000030380240000402400014024014
:1047E00000100240000011100008024010B588B00F
:1047F0001648002440F2E7324FF0804100946B23CA
:1048000001940294039404940594069480E816009D
:10481000C0E903348461FFF753F908B1FCF7C0F92C
:104820004FF48050009009486946FFF7A3F908B19A
:10483000FCF7B6F9054804A904940694FFF710F9AB
:10484000002801D0FCF7ACF908B010BDAC06002080
:1048500010B58EB000241C21009407A80194029486
:104860000394049405940694FBF72CFD1E4840F233
:10487000CF7140F237421B4BC0E9024104618461B1
:10488000C0E90032FFF71CF908B1FCF789F94FF4D1
:104890008050009014486946FFF76CF908B1FCF7A6
:1048A0007FF91148FFF753FB08B1FCF779F90E487F
:1048B00004A904940694FFF7D3F808B1FCF770F943
:1048C0006020CDE9070408480C2207A909940B943D
:1048D000FFF7A9FA08B1FCF763F90348FFF77AFA82
:1048E0000EB010BD00080040EC0600200D4800216D
:1048F00010B50B4C0C224FF4E1330460C0E90131D8
:10490000C160C0E904128161C16101624162FFF7C7
:1049100025FC002803D0BDE81040FCF741B910BDCC
:104920000048004038070020FEE700001448014618
:1049300090F82924D1F8E811012A0ED0022A12D0C9
:104940000146032A91F82B1413D0042A10D102290E
:1049500001D006290CD1022108E0022901D000294A
:1049600006D1042102E0012902D1032180F8291493
:104970007047022901D00629FAD10121F6E700008B
:1049800040000020704730B50588039C2D0A257033
:10499000007860700888000AA0700878E0701088BD
:1049A000000A2071107860711888000AA0711878C8
:1049B000E07130BD70B5DDE904450688360A2E7019
:1049C000007868700888000AA8700878E870108875
:1049D000000A2871107868711888000AA871187880
:1049E000E8712088000A28722078687270BD002261
:1049F00010B501EB420430F812301B0A01F81230F6
:104A000010F81230521C142A6370F2DB10BD70478C
:104A100010B54FF4005104460248FEF70FFA20800B
:104A200010BD000000080240704700000249092242
:104A30000248FDF707BB0000CC04002068050020F9
:104A4000FEF714BA30B5B7B0342124A8FBF73AFC0E
:104A5000142131A8FBF736FC90216846FBF732FCA5
:104A60001D48016841F080510160006800F08050ED
:104A700036901A48016841F4404101600068022400
:104A8000D82500F44040369004200121030582031C
:104A9000CDE92C05CDE92A43CDE92E40CDE92412FC
:104AA00024A8FEF729FEFEF76DFAE2024FF4A051AA
:104AB0000025CDE9341231AA0F20072182E8310008
:104AC00031A8FEF733FDE001139500906846FEF72C
:104AD0008FFA37B030BD000040380240007000400F
:104AE000104A30B51048146800210F4B44F470048C
:104AF0001460083305680D4A0D4C45F0010505604A
:104B000019600368051D1340074A03600C322C60CE
:104B10000568E305034C25F480250560803C1160A1
:104B2000236030BD88ED00E000380240FFFFF6FE54
:104B3000103000240148FFF78CB80000AC060020BC
:104B4000F0B5274B4FF0804E264D02689842264E16
:104B5000264F274C09D0704507D0A84205D0B04257
:104B600003D0B84201D0A04205D1D1F804C022F050
:104B700070024CEA020298421BD0704519D0A8423C
:104B800017D0B04215D0B84213D0A04211D0194D61
:104B9000A8420ED0184DA8420BD0184DA84208D0FC
:104BA000174DA84205D0174DA84202D0164DA84275
:104BB00003D1CD6822F440722A434D6922F080026D
:104BC0002A43026098428A68C2620A68826201D0FF
:104BD000A04201D10969016301214161F0BD0000DA
:104BE000000001400004004000080040000C0040AC
:104BF00000040140004001400044014000480140E1
:104C000000180040001C00400020004010B5046A5D
:104C1000012301F01F018B409C4304628A40016A1A
:104C20001143016210BD42EA032283680A4323F460
:104C30007F410A4382607047826822F070020A4313
:104C400042F0070181607047F0B5026ADFF860C08A
:104C5000184F22F00102DFF860E00262066A426843
:104C6000836926F002060D68B8428C6803EA0C03DB
:104C700023F0030344EA060445EA030501D0704526
:104C800005D1CB6824F00804234323F00404B84280
:104C900001D0704505D122F44076D1E90532334385
:104CA0001A4342608561496841630462F0BD0000B7
:104CB0008FFFFEFF0000014000040140F0B5026AD2
:104CC000194E1A4C22F01002DFF864E00262056A05
:104CD0004368826925F02005D1F808C0A0420F681A
:104CE00002EA060222F4407245EA0C1542EA072263
:104CF00001D0704506D1CE6825F0800545EA06153D
:104D000025F04005A04201D0704507D1D1E9054604
:104D100023F4406343EA840343EA860343608261E9
:104D2000496881630562F0BDFF8FFFFE000001400E
:104D300000040140F0B5026A194F1A4E22F4807245
:104D4000DFF864E00262056A4368C26925F4007511
:104D5000D1F808C0B0420C6802EA070222F0030250
:104D600045EA0C2544EA020401D0704506D1CF681B
:104D700025F4006242EA072222F48065B04201D0A5
:104D8000704507D123F44052D1E9053642EA0312B7
:104D900042EA06134360C4614968C1630562F0BD1D
:104DA0008FFFFEFF0000014000040140F0B5026AE1
:104DB000124B114F22F4805298420262046A4268F8
:104DC000C36924F400548E680D6803EA070323F4D2
:104DD000407344EA063443EA052302D0084DA84252
:104DE00004D14D6922F4804242EA85124260C361D7
:104DF000496801640462F0BDFF8FFFFE00000140BE
:104E000000040140F0B5026ADFF844C022F48032A9
:104E10000262056A4268446D25F400350E896045DA
:104E20000C4F0B6804EA070445EA064543EA04030D
:104E300002D0094CA04204D14C6922F4803242EAEB
:104E4000042242604365496881650562F0BD000047
:104E5000000001408FFFFEFF00040140F0B5026A30
:104E6000DFF844C022F480120262046A4268436D93
:104E700024F400140E8960450C4F0D6803EA070303
:104E800044EA065443EA052302D0094DA84204D15E
:104E90004D6922F4802242EA8522426043654968D6
:104EA000C1650462F0BD000000000140FF8FFFFEFD
:104EB0000004014010B5036A046A23F00A0324F0D9
:104EC0000104046284690B4324F0F00141EA0211F9
:104ED0008161036210BD10B5036A23F01003036201
:104EE0008369046A23F4704324F0A00443EA023285
:104EF000826144EA0111016210BD90F82410C907D3
:104F000006D00168836A4A6822F400321A434A6074
:104F100090F82410890706D50168C36A4A6822F40C
:104F200080321A434A6090F82410490706D5016878
:104F3000036B4A6822F480221A434A6090F82410D6
:104F4000090706D50168436B4A6822F400421A43F8
:104F50004A6090F82410C90606D50168836B8A68F8
:104F600022F480521A438A6090F82410890606D5EC
:104F70000168C36B8A6822F400521A438A6090F871
:104F80002410490611D50168036C4A6822F4801286
:104F90001A434A60016CB1F5801F06D10168436C69
:104FA0004A6822F4C0021A434A6090F824100906A5
:104FB00006D50168826C486820F4002010434860E0
:104FC000704738B500250446C567FDF749FF03461D
:104FD0002068006800070BD56FF07E40009000222B
:104FE00020464FF4001100F0EFF908B1032038BD5E
:104FF0002020606784F87050A067002038BD10B58D
:10500000806B0021A0F85A10A0F85210FFF711F899
:1050100010BD70B5846B00252168606FA66F89682C
:10502000090606D5212804D1A4F85250204600F0E4
:105030003FF820688068400606D5222E04D1A4F8E7
:105040005A50204600F024F8E06F40F01000E0676E
:105050002046FEF7EEFF70BD10B5C169806BB1F55B
:10506000807F0DD00021A0F8521001688A6822F0DC
:1050700080028A600068016841F04001016010BD53
:10508000FFF7E8F910BD10B5806BFFF7E4F910BD2C
:1050900010B50168202200230C6824F490740C6081
:1050A00001688C6824F001048C608267036610BD7F
:1050B000016820220B6823F0C0030B604267704731
:1050C00010B5816FB0F85C202229016804D088698E
:1050D00040F00800886110BD496A436D1140198095
:1050E000416D891C4165B0F85A10491EA0F85A104C
:1050F000B0F85A100029EED10168202200230C6874
:1051000024F490740C6001688C6824F001048C60B5
:1051100082670366FFF702F910BD10B5816FB0F822
:105120005C202229016804D0886940F00800886169
:1051300010BD496A436D11401970416D491C4165AC
:10514000B0F85A10491EA0F85A10B0F85A100029A9
:10515000EED10168202200230C6824F490740C60C6
:1051600001688C6824F001048C6082670366FFF795
:10517000D5F810BD2DE9F04104468068DFF818C26B
:10518000864F2368D4E90452E16928431E6800254C
:105190000A438349104306EA0C0606431E604FF497
:1051A00000422068E668436823F440533343436079
:1051B0002368A669206AD3F808C030432CF430660F
:1051C00006439E602068B8420AD1086810F00300C8
:1051D00052D001287BD002287AD003286ED186E0F5
:1051E000704B98420AD1086810F00C0079D004285E
:1051F0007BD0082877D00C2860D178E06A4B9842A1
:105200000AD1086810F030006BD010286DD020282B
:1052100069D0302852D16AE0644B98420AD10868BC
:1052200010F0C0005DD040285FD080285BD0C0283F
:1052300044D15CE05E4B98420DD1086810F4407098
:105240004FD0B0F5807F50D0B0F5007F4BD0B0F597
:10525000407F33D14BE0574B98420FD1086810F490
:10526000406009D0B0F5806F3FD0B0F5006F3AD004
:10527000B0F5406F22D13AE0012120E04E4B984238
:105280000DD1086810F440502BD0B0F5805F2CD0C1
:10529000B0F5005F27D0B0F5405F0FD127E0474B56
:1052A00098420BD1086810F440401AD0B0F5804FF6
:1052B0001BD0904217D0B0F5404F18D01021E069B4
:1052C0004FF6EF76904238D109295DD202E00CE02A
:1052D00009E006E0DFE801F00D1027582A58585879
:1052E0002D000021EBE70221E9E70421E7E708218F
:1052F000E5E7FEF7B1F901E0FEF7BEF90146D4F8A3
:105300000400490001EB5001B1FBF0F080B2A0F1C4
:105310001001B14238D84FF6F0732168C0F3420251
:105320001840104324E026496068EBE7FEF7B4F923
:10533000E4E760684FF48031E4E7092924D2DFE82C
:1053400001F0050819231C2323231F00FEF784F90D
:1053500001E0FEF791F90146D4F8040001EB500199
:10536000B1FBF0F080B2A0F11001B1420CD821687D
:10537000C8600AE013496068F0E7FEF78DF9EAE7D4
:10538000606802EB5001EBE70125002020666066B3
:105390002846BDE8F0810000F369FFEF00100140EE
:1053A000903802400044004000480040004C00405B
:1053B000005000400014014000780040007C004094
:1053C0000048E8010024F4002DE9F0419846174612
:1053D0000E460446069D08E0681C06D0FDF740FD19
:1053E000A0EB0800A8420BD855B12068C06936EA86
:1053F000000017D00020B842EED00020BDE8F081B8
:105400002168202000220B6823F4D0730B602168F0
:105410008B6823F001038B606067A067032084F82A
:105420007020EBE70120E6E70148FEF703BE00002D
:105430003807002070B5DDE90445068876BA0E808D
:10544000418849BA1180818849BA1980C18849BA0E
:105450002180008940BA288070BDFEE70907002836
:105460004FEA116104DB00F1E02080F8001470477E
:1054700000F00F0000F1E02080F8141D704702E0FA
:1054800008C8121F08C1002AFAD1704770470020CF
:1054900001E001C1121F002AFBD1704770B5144C06
:1054A00094F8381494F80A0481421FD104EB800068
:1054B000B4F88C12826C914218DB806DB4F88E12B5
:1054C000814213DBD4F8E8510220C4F8E80194F8D3
:1054D0002C0408B1FCF772F9C4F8E85194F83804C8
:1054E000401CFF2800DDFF2084F8380470BD000058
:1054F000400000200C4890F89E2390F839148A420E
:1055000008D0014690F82B34012B91F8291402D0D1
:10551000032902D170470429FCD180F8392490F87E
:105520009F03FBF78BBA0000400000202DE9F041FB
:10553000214CB4F89212B4F89203814225D020464F
:10554000A4F89213B4F894220226D0F8E851B2F5E8
:10555000C87F90F82A0410D0C82A4FF0000716D050
:10556000322A4FF001011FD0642A0ED1C4F8E8118D
:1055700088B100BFFFF7DAF90DE0C4F8E861B8B907
:10558000C4F8E86109E0C4F8E851BDE8F0810028FA
:10559000C4F8E871EED1C4F8E87194F82C0400283E
:1055A000F1D0FCF70BF9EEE70028C4F8E811E7D0DA
:1055B000FFF7BCF9E4E7000040000020024901EBDE
:1055C0008000006C704700004000002070B542F67B
:1055D000F8213222026000234360FA24C0E902412C
:1055E0002E2501613D2641614D227123183080E84E
:1055F0006200C0E9032370BD0F22F0B514216423BB
:10560000C0E9101273278164C0E90C7346278363D5
:10561000C3634FF496752324C0E90837C0E90A1222
:10562000826016231927C1640221C460C0E90035D5
:105630004FF4FA760665C0E91561C0E90624C0E9B1
:105640000475F0BD2DE9F04116460A880025824216
:1056500003D300200146044625E031F8132082429E
:105660001DD95A08002408E031F81270874201D988
:10567000134600E014461A1952081F1B012FF3D8D5
:1056800031F814200023801A070401EB4400394646
:105690004088801A82B21846FAF7CAFD03E000205B
:1056A0005C1E4FF4803106EB440336F814205B880F
:1056B00093420AD39B1A9BB2A3FB006405FB0040F4
:1056C00003FB010002EB104009E0D31A9BB2A3FBDD
:1056D000006405FB004003FB0100A2EB104080B218
:1056E000BDE8F0812DED028BFDF7C8FBFFF7AAF9AD
:1056F000FEF7EEFFFEF7C4FFFFF7F8F8FFF776F8C6
:10570000FFF7A6F8FEF7E2FFFEF70CFFFEF794FFA7
:10571000FBF748FA0B4CB7EE000B84ED040BFBF7DC
:1057200059FCB0EE088B00BF94ED040BB4EE480BAF
:10573000F1EE10FAF8D1FBF74DFC6420FDF780FA8A
:10574000F2E70000A8040020F0B50B78002A044618
:105750004FF0000003F003074FEA930501DD01233A
:1057600001E0D20F5300144A4FF0FF3602EB8702DC
:10577000B442D25C18D0ACB1012C17D00024224224
:1057800007D0AC0701D5540703D4EC0602D5940624
:1057900000D5002212F0380F43EA82030B7007D0C5
:1057A0003046F0BD3F24EAE73824E8E70724E6E77F
:1057B0005107F6D00120F0BD785900080849B1F82A
:1057C000CE22FF2A01D3002205E0521CB2F5803F11
:1057D00001DB4FF6FF72A1F8CE22A1F8D00270478C
:1057E0004000002038B5048800220A480823C2601F
:1057F00004600361826002750020074A0B5C135449
:10580000401C0828FADB044A6B4602490348FCF7AF
:10581000BBFC38BD94060020000000206C06002070
:10582000094991F8B423FF2A01D3002203E0521C56
:10583000FF2A00DDFF2281F8B423FF2800D9FF20D2
:1058400081F8B50370470000400000200CA10D4A0C
:1058500030B4096811700B0A53700C0C947000215D
:105860005418435C491C2829E370F9DB0D2082F8A9
:105870002B0030BC03492C220348FEF7A1BD0000D9
:10588000686472003C0500203807002007B582B02C
:10589000054802A90346CDE90002044803AAFFF720
:1058A00089F805B000BD000076590008AA59000823
:1058B000284930B50A4691F80C444FF48035681EEB
:1058C000B2F88C331CB991F82224012A24D0012C7F
:1058D00029D0B1F888239632AA4200D30246A1F813
:1058E0008823B1F88A23521DAA4200D3024690B2FF
:1058F000A1F88A0391ED080BB5EEC00BF1EE10FA9A
:1059000016D040F206329FED140B81ED080BA1F882
:105910003823A1F83A0319E05A1CAA4200D30246E0
:10592000A1F88C2312E00020A1F88803A1F88A03D3
:1059300040F20530B7EE000B81ED080BA1F83803FB
:10594000A1F83A33B1F88803A1F83C0381F8224466
:1059500030BD0000400000200000000000000000FA
:105960005FF0000250F8223041F82230521C092A20
:10597000F8DB7047704700000004200010000800AA
:10598000020100000000000000006400C8002C01BB
:105990009001F4015802BC02000001000200030063
:1059A0000400050006000700000019030006101699
:1059B00000061016000000000000000001020304B1
:1059C000060708090000000001020304EC59000862
:1059D00000000020400000007E5400082C5A0008FF
:1059E00040000020D80B00008E540008000000008A
:1059F00000000000000000000000000000000000A7
:105A00000000000000000000000000000000000096
:105A10000000000068647200000000000100000047
:0C5A200010000000000000000024F40052
:04000005080001F9F5
:00000001FF
