:020000040800F2
:10000000000C00200D020008ED480008BD43000868
:1000100091480008410900089753000800000000BB
:100020000000000000000000000000007949000806
:10003000050B000800000000774900087B49000814
:1000400027020008270200082702000827020008EC
:1000500027020008270200082702000827020008DC
:1000600027020008270200082702000827020008CC
:100070002702000827020008490A00082702000892
:100080002702000827020008FD07000851090008A0
:100090004509000827020008270200082702000877
:1000A000270200082702000827020008270200088C
:1000B000714A0008270200082702000827020008EA
:1000C000270200082702000827020008270200086C
:1000D00027020008270200082702000865530008CD
:1000E000270200082702000827020008270200084C
:1000F000270200082702000827020008270200083C
:10010000270200082702000827020008270200082B
:10011000270200082702000827020008270200081B
:10012000550A0008270200082702000827020008D5
:1001300027020008270200082702000827020008FB
:1001400027020008270200082702000827020008EB
:1001500027020008270200082702000827020008DB
:1001600027020008270200082702000827020008CB
:1001700027020008270200082702000800000000EC
:1001800027020008270200082702000827020008AB
:10019000270200082702000827020008270200089B
:1001A000270200082702000827020008270200088B
:1001B000270200082702000827020008270200087B
:1001C000270200082702000800000000270200089C
:1001D000270200082702000827020008270200085B
:1001E000270200082702000827020008270200084B
:1001F0002702000827020008DFF80CD000F09CF866
:100200000048004781550008000C00200648804740
:1002100006480047FEE7FEE7FEE7FEE7FEE7FEE7EB
:10022000FEE7FEE7FEE7FEE71D4A0008F9010008C9
:100230002DE9F05F0546002092469B46884606461B
:10024000814640241BE0284641464746224600F0AE
:1002500062F853465A46C01A914110D311461846C7
:10026000224600F049F82D1A67EB01084F46224656
:100270000120002100F040F817EB00094E41201E3C
:10028000A4F10104DFDC484631462A464346BDE876
:10029000F09F40EA01039B0703D009E008C9121F41
:1002A00008C0042AFAD203E011F8013B00F8013B30
:1002B000521EF9D27047D2B201E000F8012B491E5C
:1002C000FBD270470022F6E710B513460A460446F3
:1002D0001946FFF7F0FF204610BD30B50546002057
:1002E000034600E05B1C934205D2EC5CC85C201A1C
:1002F00001D1002CF6D130BD202A04DB203A00FACF
:1003000002F1002070479140C2F1200320FA03F36C
:10031000194390407047202A04DB203A21FA02F06A
:100320000021704721FA02F3D040C2F1200291402F
:100330000843194670470000064C074D06E0E06888
:1003400040F0010394E8070098471034AC42F6D31C
:10035000FFF756FF4C5800086C58000810B51C8871
:1003600014805C8854809C88948022F81100108846
:100370001880508858809088988010BD2DE9F04FE3
:10038000F54C02254FF003094FF0000B26464FF0C5
:1003900001082DED028B81B006F1110006F2ED3659
:1003A0000090B4F8AA02B4F8AE12884238D0B4F87B
:1003B000AC12B4F8B002814232D00099304600F05D
:1003C000CBFB00205E46A4F822B300F02BFBB4F870
:1003D000AC0228B1022803D0012801D003280ED096
:1003E00084F8066484F8056484F8046484F802944C
:1003F000B4F8AA12A4F8AE12A4F8B00231E084F85E
:10040000066484F8056484F80284B4F8A612A4F89B
:100410006613B4F8AA12A4F8AE12A4F8B0021CE055
:10042000CD49192794F80404012891F806C4B1F8BD
:100430006633B1F8A822B1F8A61206D0022879D105
:1004400099420CD0012A76D009E094F805040128DD
:1004500010D002286ED184F805B484F80454A4F8AE
:10046000228305F001F801B0BDEC028BBDE8F04F2E
:1004700004F0DEBF994200D06AB1A2469FEDB78B6F
:10048000B548BCF1060FB0F86A0353D2DFE80CF0B0
:10049000DB0A8FE6FDFCA4F8661384F806B484F842
:1004A0000554EBE0012854467BD8994201D0022A3A
:1004B00004D084F80684A4F82293F5E00520A4F87B
:1004C000661384F80604002005F016F800EE100A02
:1004D000B8EEC00B84ED0C0BB4EEC80BF1EE10FAC5
:1004E0000CD2B5EEC00BF1EE10FA05DBBCEEC00B82
:1004F00010EE100AC0B202E0002000E0FF2000F081
:1005000091FA022004F0F8FF3E46274690FBF6F1F0
:100510000020C4F8EC1104F0EFFF0446012004F0C1
:10052000EBFF002C014607DB6FF00040221A9142DE
:100530000ADB08E087E0DBE004F10040814202DDF5
:100540004FF0004000E0601A6FF0004280FB064070
:100550000021121B814102DA6FF0004407E04FF0E6
:100560000041611A70F1FF3001DA4FF000440220BF
:1005700004F0C2FF00EE100A774A40462946B8EE62
:10058000C01B00EE104AB8EEC00B80EE012B87EDC9
:100590000E2BA7F86A63A7F82483A7F82653D4E0A4
:1005A000FFE7401E00D50020AAF86A0381E0012879
:1005B00054464DD8D4F8EC01002806DD012004F0A3
:1005C0009BFF94F8F11388420FDB002000F02AFA19
:1005D0000099304600F0C0FA84F80694A4F86A73D3
:1005E00094F8E80384F814043DE084F8065494ED8C
:1005F0000C0B94ED0E1B30EE410B84ED0C0BB4EEA6
:10060000C80BF1EE10FA0DD2B5EEC00BF1EE10FAF8
:1006100006DB00BFBCEEC00B10EE100AC0B202E059
:10062000002000E0FF2000F0FDF9D4F8EC014FF0CD
:100630000041884202DCC4F8EC1102E0401EC4F81C
:10064000EC01A4F86A7301B0BDEC028BBDE8F08F39
:10065000401E00D50020AAF86A03F4E79AF8E813D0
:100660005046052906D001B0BDEC028BBDE8F04F25
:1006700004F0B2BE80F806B48AF8055430460099FA
:1006800000F06AFA002001E01AE006E001B0BDECDB
:10069000028BBDE8F04F00F0C5B901285146D7D80C
:1006A00081F80684A1F822936420AAF86A7300F006
:1006B000B9F901B0BDEC028BBDE8F04F04F0D4BE37
:1006C00001285446C4D884F8065494ED0C0B94EDDC
:1006D0000E1B30EE410B84ED0C0BB4EEC80BF1EEAB
:1006E00010FA9FD2B5EEC00BF1EE10FA98DB91E74D
:1006F000A4F86613BCF1040F9FED1A0B84F8048470
:10070000A4F86AB384ED0C0B84ED0E0BC4F8ECB1C5
:1007100084F8058497D0042084F80604A4F82253B2
:100720000D4DA4F86A7304F222341235284600F005
:10073000F5F928783070642000F074F9064A4046D4
:10074000A4F802800146A4F8048001B0BDEC028B3D
:10075000BDE8F04F04F0E8BF4000002000000000BA
:1007600000007040000000000000000010B50146CD
:10077000806B026C12F0500F05D0026CD20626D5A9
:1007800001F0D7FA10BD016C41F4007101640168F9
:100790008A6812F0405F17D18269AAB9CA6A12F456
:1007A000700F02D08A6852050ED44A6822F02002E7
:1007B0004A60016C21F480710164016CC90403D4A6
:1007C000016C41F00101016401F0A8FA10BD806BD9
:1007D000C26C0846BDE81040104710B5806B402140
:1007E0000164416C41F00401416401F0A2FA10BDC2
:1007F00010B5806B01F09CFA10BD0000014801F0BB
:1008000099BA00004C0500204A496FF0706210B59B
:10081000D1F8043323F44033C1F80433D1F804335E
:1008200044682343C1F8043301684B6823F48073A0
:100830004B60016803694C6844EA03234B6001681C
:100840004B6823F040734B60016884684B68234316
:100850004B6001688B6823F400638B600168C46897
:100860008B6823438B60816AD14201688A6822F0D9
:1008700070628A6001680DD0836A8A681A438A6050
:1008800001688A6822F040528A600168C36A8A68F7
:100890001A4302E08A6822F040528A6001688A683E
:1008A00022F002028A60016882698B6843EA420290
:1008B0008A6090F820100029016811D01E4A4B6808
:1008C00043F400634B6001684B6823F460434B6062
:1008D0000168446A4B6802EB443213434B6003E007
:1008E0004A6822F400624A600168144BCA6A22F422
:1008F0007002CA620168848BCA6A03EB04531A430C
:10090000CA6201688A6822F400728A60016890F8FD
:1009100030208B6843EA42228A6001688A6822F4A8
:1009200080628A60016840698A6842EA8020886043
:1009300010BD00000020014000E0FFFF0000F0FFBC
:10094000FEE70000014801F052BD00005006002003
:10095000014801F04CBD0000500600200A480E235B
:100960000021012230B44FF47854C0E90612C0E9E6
:1009700000418160C160C0E90413C0E9082330BCB4
:100980000146024801F024BCF40500205006002076
:1009900010B5FFF7E3FF0848012101F09BFB064873
:1009A000022101F097FB0448102101F093FBBDE800
:1009B0001040014801F036BF5006002004480C21C9
:1009C00010B503F093FABDE8104000F023B8000022
:1009D000D006002010B5007888B0642800D96420C3
:1009E0000B4964236024CA68002100944243B2FB8F
:1009F000F3F00C22CDE9010105480491694603F0AA
:100A0000C4F903480C2103F071FA08B010BD0000CE
:100A1000D006002008B564208DF800006846FFF776
:100A2000D9FF08BD0649642881F8F10300D364208A
:100A3000C0F1640081F8F9030248FFF7CBBF000062
:100A40004000002039040020014801F031BF0000BF
:100A50009C070020014801F02BBF000094050020F6
:100A600001681823CAB2103AB2FBF3F2054B6FF3D8
:100A70000901032A9B5CC36500D9091D81650846ED
:100A8000704700002A58000810B583694FF0C07401
:100A9000826A0146002053B1B3F5005F15D072B1F0
:100AA000012A0CD0022A0AD0032A09D104E01AB183
:100AB000012A06D0022A03D1C96AC90100D5012042
:100AC00010BDC96AA142FAD010BD002AF7D0012A90
:100AD000F2D0022AF3D0032AF3D010BD30B5046857
:100AE000256825F480252560046863608368402BB1
:100AF000036803D099600068C26030BD9A600068E6
:100B0000C16030BD704770470121017002480A463C
:100B1000C90202F052B90000000402400121017034
:100B200002480A46490302F048B900000014024096
:100B30000021017002480A464FF4006102F03DB9FD
:100B4000000402400021017002480A464FF400519F
:100B500002F033B90014024070B505460C46084651
:100B6000FFF7F0FF2078287070BD70B505460C4681
:100B7000084600F003F82078287070BD012101704C
:100B80007047002101707047704700001B48032127
:100B900010B5002280F82610417680F82710817663
:100BA0004170017011464318491C17299A70FADBED
:100BB00000214318491C0B29DA76FADB104808217A
:100BC0004FF0FF32C0F8E82180F8FF13C83004F07E
:100BD0009BFC0B48F43004F0ADFCFFF7D9FEFFF7A7
:100BE000EDFEFFF790FF00F011FF03F0E9FB03F0CB
:100BF000F1FBBDE8104003F0F3BB000058040020F7
:100C0000400000202DE9F04FCD4E8BB000256F46FF
:100C1000A6F5836404EB85007119891CD0F8F420D3
:100C2000002004F0DFFC78556D1C172DF2DB00204E
:100C300000E009B9395C01B10121401C1728F8DB3B
:100C4000C048824621B15C2200F18801FFF721FBF8
:100C5000002507AF04EB850071191B31D0F8C820BF
:100C6000002004F0BFFC78556D1C0B2DF2DB00203A
:100C700000E009B9395C01B10121401C0B28F8DB07
:100C800041B1002004EB8001401C0B28D1F8C820A2
:100C90000A64F7DBD4F8D871D4F8DC510020A849F5
:100CA0003A46263104F09EFCA549804600202A469B
:100CB000273104F097FC58EA000116D0A049C4F887
:100CC0009872BA39A4F85E53A1F1C60004F0A0FDF1
:100CD0005FF0000004EB8001401C0B28D1F8AC2130
:100CE0000A64F7DB04EB87000564D4F8E071D4F8FC
:100CF000E451002092493A46193104F073FC9049BE
:100D0000804600202A461A3104F06CFCDFF834B229
:100D100058EA00000BF1E40B11D00BF50371C4F895
:100D20009472A1F1C800A4F85C5304F071FD5C2238
:100D300059465046FFF7ADFA04EB8700C56601251A
:100D400094F8FC1300204FF0FF324FF0020984F8B2
:100D5000E81394F96C1301EB410104EB4101B1F884
:100D6000EC32A4F89C32B1F8EE32A4F89E32B1F81D
:100D7000F012A4F8A01294F96D1304EB8101B1F8FC
:100D8000F832A4F8A232B1F8FA12A4F8A41294F836
:100D9000FD1384F8E91394F96E1304EB8101B1F8A3
:100DA0000033A4F8A632B1F80213A4F8A81294F9FB
:100DB0006F1304EB410191F8E43384F8743391F834
:100DC000E51384F8751394F9701304EB8101B1F8FD
:100DD0000833A4F8AA32B1F80A13A4F8AC12C4F884
:100DE000E82194F80114F1B194F8030408B103F078
:100DF00001FB94F80804A04608B103F04BFD98F8F5
:100E00000A0408B100F092FC98F8130478B34D4935
:100E1000642798F812046239012829D002283DD0AD
:100E200003284CD13AE084F8015484F80354A4F820
:100E30006603A4F8680384F8150484F8029484F81F
:100E4000085484F8075484F80A54C4F8F00194F85C
:100E50000914042902D0042284F8092484F81354C4
:100E6000032284F8160484F8170484F8122426E078
:100E700098F8170458B198F8E92398F816349A426C
:100E800012D1401E00D5002088F8170417E02C4826
:100E900088F812942638FFF774FE10E098F8E903FA
:100EA00098F8162490420AD006A888F81254FFF742
:100EB0005CFE98F8E90388F8160488F8177494F82B
:100EC000ED0308B1012200E00022717801290ED063
:100ED00000239A4203D0032901D084F8EC0300B127
:100EE0000120707094F8FE0318B1012102E0012383
:100EF000EFE70021307801281FD00022914205D071
:100F0000032803D094F8FE0384F8EC0394F8FE035E
:100F100000B1012051465C2230705846FFF7B9F904
:100F20005FF0000004EB8001401C0B280A6CC1F844
:100F3000AC21F7DB0BB0BDE8F08F0122DEE700004B
:100F400058040020AC0000202DE9FC5FFE4C022379
:100F5000032140F202292046DF0394F8EF237D1E8F
:100F600084F8EA23002694F8FFC34FF4007BB0F81E
:100F700064034FF47A7ABCF1090F48D2DFE80CF031
:100F800047055E0D5E171F384100062284F8FF23D7
:100F90004FF4C871A4F81CB347E0042802D004F051
:100FA000D5FB4BE084F8FF33A4F81CA310E001202C
:100FB00084F8FF03A4F81C93A4F81E033EE0012864
:100FC00001D042B111E0072184F8FF13A4F81C936B
:100FD000A4F81E3332E094F80014012905D1401C16
:100FE000B84200D32846A4F8640384F8002425E01E
:100FF00084F8FF13A4F81C63A4F86063A4F8626388
:101000001CE009209FEDD10B84F8FF0314E094ED60
:101010000A0BB2EE041BB4EE410BF1EE10FA07D14D
:10102000052284F8FF23A4F81CA3A4F81E1305E0EE
:10103000B7EE001B30EE010B84ED0A0BC548C64924
:10104000A0F160020B46CDE90010911E643803F058
:1010500065FCC049C03191ED040BBDEEC00B10EE34
:10106000100A01283BD002284FF0000040D0211880
:10107000401C0A2891F8802381F87623F7DBB549D4
:1010800094F8F123503984F8EB23881E831ECDE9B0
:101090000001021F811F483004F06AF9AA4AB4F81F
:1010A000280302F11403A0F54071053902F2BE22B3
:1010B0000DD0B0F5017F24D0584546D1B4F8B20226
:1010C000B4F82A13FF282AD3A4F8B2622DE0B4F8AA
:1010D0002A030021A4F83203B4F82C034DE00020C9
:1010E00023180A5C401C0A2883F87623F8DBC6E73D
:1010F0000A182318401C127E0A2883F87623F7DB8F
:10110000BDE794F8FB03FF2802D384F8FB6385E076
:10111000401CFF2800DDFF2084F8FB037EE0401C1C
:10112000B84200DB2846A4F8B202A4F8B41294F83E
:10113000EB03642872D0322903D0642901D0C82976
:101140006CD1002004F088FA68E0A0F540710639FF
:101150000DD0A0F50071013912D048451CD1B4F86A
:101160002A0304F079FAB4F8B80290B156E0B4F862
:101170002A130A20B1FBF0F00121FFF7EFF84DE050
:10118000B4F82A03050A1E2D02D9002004F064FADF
:10119000284604F093FA41E0A0F5007103390ED01F
:1011A000A0F500715A3914D0504520D1B4F8BA02D4
:1011B000B4F82A13FF2811D3A4F8BA6214E0B4F8E3
:1011C0002A0364214843B84200DB2846A4F83403CC
:1011D00024E0B4F82A03A4F83E031FE0401CB84200
:1011E00000DB2846A4F8BA02A4F8BC1216E0A0F569
:1011F0000071593912D0B0F5167F0FD1B4F82A0317
:10120000A4F83803B4F82C03A4F83603B4F82E037A
:10121000A4F83C03B4F83003A4F83A0394F871033B
:1012200058B9B4F8BE02A4F81003B4F8C002A4F888
:101230001203B4F8C202A4F81403B4F83833B4F8B3
:101240003603B4F83C23B4F83A13C4F8D831C4F8E0
:10125000DC01C4F8E021C4F8E41194F8320384F806
:10126000FC0394F86C13B4F8BE02E9B35FF000011C
:1012700001EB410104EB4101A1F8EC0294F86C137D
:10128000B4F8C00289B3002101EB410104EB410134
:10129000A1F8EE0294F86C13B4F8C20231B3002145
:1012A00001EB410104EB4101A1F8F00294F86C0359
:1012B000E8B3002084F86C0394F86D13B4F8B2021C
:1012C000B1B3002104EB8101A1F8F80294F86D1389
:1012D000B4F8B40269B3002104EB8101A1F8FA0269
:1012E00094F86D0330B302E074E075E076E000201E
:1012F00084F86D0394F8FB0384F8FD0394F86E13EF
:10130000B4F8B60251B3002104EB8101A1F8000347
:1013100094F86E13B4F8B802E9B3002104EB81012C
:10132000A1F8020394F86E03B0B3002003E057E085
:1013300058E059E05AE084F86E0394F86F1394F87B
:101340008A0351B300210AE04000002000000000A1
:1013500000000000C00300201258000848E004EB21
:10136000410181F8E40394F86F1394F88B0379B387
:101370005FF0000104EB410181F8E50394F86F038D
:1013800038B3002084F86F0394F87003B4F8BA12ED
:1013900080B3002002E02EE02FE030E004EB80007C
:1013A000A0F8081394F87013B4F8BC0279B30021C4
:1013B00004EB8101A1F80A0394F8700340B3002004
:1013C00084F8700394F8FA0384F8FE03BDE8FC9FE8
:1013D00017E018E001214BE7012155E701215FE704
:1013E000012067E701216DE7012175E701207FE713
:1013F000012189E709E0012190E7012096E7012119
:10140000A1E70121B6E70120BCE70120C2E700E027
:1014100001E00121CCE70120D2E700002DE9F04FE7
:101420004349012400239BB018460DF1040C81F8B8
:101430007143B1F81053B1F81243B1F8146381F855
:10144000713391F9723365F30F02B1F83453149587
:1014500064F31F42B1F83E53199591F8F143189483
:1014600003EB8304B1F82293B1F8B0A2630091F8C2
:10147000EFB391F8F07391F8EE63C41801EB8404B4
:10148000D4F81C424CF82040401C0A28F5DB91F8A7
:10149000EC5300200CAC00BF01EB40083CF82030BE
:1014A000A8F8C43224F81030401C0A28F4DBA1F854
:1014B000D8524FEA1248189AA1F8DA22A1F8DC9221
:1014C000149AA1F8DE22A1F8E0A2199AA1F8E2226A
:1014D000A1F8E482A1F8E6B2A1F8E872A1F8EA6204
:1014E00014490091A1F1F80003F035FA009804F0D6
:1014F000FBF810480021D43034F8112020F81120D6
:10150000491C0A29F8DB85821899C182A0F8189035
:1015100014994183A0F81CA01999C183A0F82080D8
:10152000A0F822B08784C6841BB0BDE8F08F00000D
:1015300040000020FC030020244930B58BB001F5A9
:101540001C7004F05BF9224A0021684602EB81031B
:10155000D3F8F43140F82130491C0A29F6DB92F81F
:10156000731341B902EB810450F82130C4F86C3296
:10157000491C0A29F6DB174B002100BF03EB81044D
:1015800050F82150491C0A29A562F7DB5FF00001E1
:1015900092F8724350F82130A4B1002404EB840483
:1015A00001EB4404491C02EB84040A29C4F81C32F0
:1015B000EEDB92F8720338B15FF0000082F872033C
:1015C0000BB030BD0124E9E70120F7E73402002029
:1015D00040000020D00400202DE9F047504C8CB092
:1015E0000122002001A9B4F83E53B4F83483A4F8D2
:1015F0001653B4F8225394F8F193A4F81853B4F89E
:10160000B032A4F81A3384F8732300BF04EB8002CD
:10161000D2F86C2241F82020401C0A28F6DB414D0C
:10162000002084F8730394F8EC63A5F14603019855
:101630009A1EA4F84003911E0298A4F8420303984E
:10164000A4F844030498A4F84603881E04F55074D3
:10165000009503F04CF93448294604F011F8059838
:1016600008352081A5F1460306989A1E6081911ED7
:101670000798A0810898E081881E009503F037F94B
:101680002948294603F0FCFF099805F10807264D73
:10169000A7F14A0120820A98AB1C6082AA1C881E0E
:1016A000009703F024F93946284603F0E9FF642146
:1016B000B8FBF1F00837A7F18E0202F14001924623
:1016C000AB1CA082881EE6828046009703F00FF9CB
:1016D0003946284603F0D4FF268307F10806AB1CE1
:1016E0005246A6F154014046009603F000F93146F7
:1016F000284603F0C5FFA4F81A9006F10804A4F1E7
:101700009A020094911EAB1C01F1420003F0EFF825
:101710002146284603F0B4FF0CB0BDE8F087000076
:1017200040000020CC030020245800082DE9FE4F83
:10173000A64C012500274FF00309214601F2EE30A7
:1017400094F809C401F57C7202900226D1F8F001E8
:10175000EB070192521E0092421E91F80FA401F174
:101760000B0B91F80B14BCF1070F59D2DFE80CF00A
:101770005804F260F2BCF200BAF1010F514609D0F0
:10178000022910D0032917D0BAF1040F48D101283B
:101790002DD0BCE001287CD184F8117484F80F743A
:1017A00084F80964CAE0012873D184F80F9400F02A
:1017B000ABF9C4F8F001C1E001286AD184F80F54F4
:1017C00000F0A2F9C4F8F00194F8F103512894F85C
:1017D000110407D2012823D0502084F81154FFF7B8
:1017E00021F9C2E002281BD084F81164BDE084F81E
:1017F000107484F80F6400F087F9754AC4F8F0019A
:10180000511E481E00F012F994F8F50384F8EE0317
:1018100094F8F30384F8EF0394F8F40384F8F003E6
:10182000BDE8FE8FC4F8F031FAE7C4F8F021F7E71D
:10183000D4F8E8210420022A21D0002AF0D1BAF1FC
:10184000040F84F8095405D084F80F0400F05CF903
:10185000C4F8F00194F80704032836D0042840D0D7
:1018600094F8F1033C283CD894F810040128D7D010
:101870003C2084F81054BDE8FE4FFFF7D3B894F82D
:10188000E823052ACCD2052284F80924042907D0AC
:1018900000E03CE084F80B0400F036F9C4F8F001F5
:1018A00094F80704032894F80E0409D00128B7D04F
:1018B00084F80E54BDE8FE4F4548C01CFFF724B91C
:1018C0000228ADD084F80E6409E094F8F1035028A2
:1018D000C6D894F810040328A2D084F8109450209D
:1018E000C9E784F810649BE7012908D0022911D0C8
:1018F000032930D0042993D101283ED007E00128E4
:1019000005D184F80B74062084F8090416E0984287
:101910008BDC87E70128FAD184F80D7484F80B94E6
:1019200000F0F2F8C4F8F00194F80704032894F8E2
:101930000C0407D00128D6D084F80C54BDE8FE4F23
:1019400000F0C0B80228CED0002084F80C64FFF765
:1019500069F8F3E736E00128D9D184F80C7484F8EB
:101960000B5400F0D1F8C4F8F0015B469DE8070085
:1019700003B0BDE8F04F00F091B884F80E7484F81D
:101980000B6400F0C1F8114FC4F8F00194F807049B
:101990000E37032894F80D0408D00128A3D007F2CD
:1019A000E93084F80D54FFF7C3F803E002289AD019
:1019B00084F80D643B469DE8070003B0BDE8F04F96
:1019C00000F08EB884F809942AE700004000002057
:1019D0003504002010B50023037001240B7014702F
:1019E0001A46A103074C204601F0E7F906480022F9
:1019F000211501F0E2F901222046BDE81040D10393
:101A000001F0DBB9001002400004024008B568464E
:101A100000F002F808BD00000021017002480A46EB
:101A20004FF4004101F0C9B90010024010B5002484
:101A3000047001230B7013702246084C9903204652
:101A400001F0BBF901220648910201F0B6F901222A
:101A50002046BDE81040D10301F0AFB900100240AC
:101A60000004024010B50123037000240C70094CDF
:101A7000990313701A46204601F09FF90648002288
:101A8000211501F09AF901222046BDE81040D1034A
:101A900001F093B900100240000402402DE9F0412A
:101AA0001C4615469A1C0E46591C07462046FFF751
:101AB00091FFA07828702078387060783070BDE889
:101AC000F0810000044810B5FFF7A6FF034890F826
:101AD000F61380F8EE1310BD3604002040000020FD
:101AE0002DE9F0411C4615469A1C0E46591C074626
:101AF0002046FFF7B7FFA07828702078387060780C
:101B00003070BDE8F08100002949084691F80B24A7
:101B100090F80704042A10D0022A16D0032A2FD0E6
:101B2000012A34D091F80F04042837D0022838D085
:101B3000032839D0D1F898007047032802D0D1F893
:101B4000AC007047D1F8BC00704703280FD091F863
:101B5000E823012A0ED01648022AD0F8A000F3D0BC
:101B6000032A0AD0042AEFD1D1F8A8007047D1F88F
:101B7000B8007047D1F89C007047D1F8A4007047B6
:101B8000032802D0D1F8B0007047486F704703288F
:101B900002D0D1F8B4007047886F7047D1F8900038
:101BA0007047D1F88C007047D1F89400704700005E
:101BB0004000002070470000F8B50025009590F81F
:101BC0003C20012A18D0012280F83C200A68072313
:101BD0004E4C0668092A1AD90A3A02EB4207F26803
:101BE000BB409A43F2600E680268A64206D10B7AA7
:101BF000D66846EA036308E00220F8BD0A3E8B6817
:101C0000D76806EB4606B3403B43D3600EE002EBD9
:101C100042073269BB409A43326103680E788A6892
:101C20001F6906EB4606B2403A431A614A681F2311
:101C3000072A13D20668521E02EB8207726BBB4062
:101C40009A43726303680E790A88761E5F6B92B2BC
:101C500006EB8606B2403A435A6327E006680D2A2F
:101C600012D2D21F02EB8207326BBB409A4332631F
:101C700002680E790B88F61F176B9BB206EB86067F
:101C8000B3403B43136311E00D3A02EB8207F26A63
:101C9000BB409A43F26202680E790B880D3ED76A08
:101CA0009BB206EB8606B3403B43D362184A0368F7
:101CB000934208D10B68122B05D1D2F8043343F4B8
:101CC0008003C2F80433036893421AD10B68A3421D
:101CD00001D0112B15D1D2F8043343F40003C2F81C
:101CE00004330968A1420CD10A490B4A0968B1FBC7
:101CF000F2F101EB8101490000E0491E0091002949
:101D0000FBD180F83C500020F8BD0000120000100C
:101D1000002001403C00002040420F0000680349C1
:101D2000884201D1FFF708BC704700000020014045
:101D30007047704770B50446006801684268C1F397
:101D40004001C2F3401251B34AB3216CC90603D417
:101D5000216C41F400712164816811F0405F17D15A
:101D6000A169A9B9C16A11F4700F02D0816849054F
:101D70000ED4416821F020014160206C20F4807075
:101D80002064206CC00403D4206C40F00100206467
:101D90002046FFF7C3FF21686FF01200086020683B
:101DA00001684268C1F38001C2F3C01289B382B3F3
:101DB000216CC90603D4216C41F40051216481686F
:101DC00011F4401F1ED1816B11F4401F02D08168B5
:101DD000490517D44168490514D4816811F0405F62
:101DE00010D1A16971B9416821F080014160206C76
:101DF00020F480502064206CC00503D4206C40F097
:101E0000010020642046FFF7D5FE21686FF00C002A
:101E1000086020680168436811F0010FC3F3801166
:101E20000ED069B10068C0070AD0206C40F4803041
:101E30002064204600F046F821686FF00100086039
:101E4000206801684268C1F340110029C2F3806232
:101E50000DD0002A0BD0616C6FF0200541F002011B
:101E6000616405602046FFF764FF2068056070BD6F
:101E700070B504004FF0000503D0206C002610B1AF
:101E800007E0012070BD204600F01EF8666484F86B
:101E90003C60206CC00610D4206C20F4885040F0C8
:101EA000020020642046FEF7AFFC6664206C20F040
:101EB000020040F00100206400E0012584F83C604D
:101EC000284670BD70470000F0B587B00646142163
:101ED0006846FEF7F7F930493068884259D12F48F3
:101EE000016841F48071016000682C4900F4807041
:101EF00005901439086840F004000860086800F094
:101F000004000590086840F001000860086800F0CF
:101F100001000590086840F002000860086803248A
:101F20000025694600F00200059033208DE831005D
:101F30001B4800F04FFEF02069468DE8310019483B
:101F400000F048FE022069468DE83100164800F096
:101F500041FE164C16480115C4E900058715A56019
:101F60000B01C4E9035182142046C4E90775656278
:101F7000C4E9052300F06CFD08B1FEF705FE002260
:101F8000B46312201146A66300F07CFF122000F01B
:101F90006BFF07B0F0BD0000002001404438024054
:101FA00000080240000002400004024094050020A6
:101FB00010640240F8B50D4604460021009190F8E7
:101FC0003C00012807D0012084F83C002068836889
:101FD000DB0702D011E00220F8BD8668364B46F0E0
:101FE0000106866035480068B0FBF3F000EB400066
:101FF00000E0401E00900028FBD120688368DB07CA
:1020000058D0236C40F20166B34343F480732364D9
:102010004068400505D5206C20F4005040F4805005
:102020002064206CC00404D5606C20F0060060645D
:1020300000E061646FF0220084F83C10A36B20493B
:10204000D963A36B1F491964A36B1F49D964216825
:1020500008602068416841F08061416020688168C3
:1020600041F48071816021681346A06B2A464C318F
:1020700000F060FD1549D1F80403C006206811D0B6
:10208000884207D1826812F0405F03D1826842F033
:1020900080428260D1F80403C0060BD40C4920684A
:1020A000884207D1816811F0405F03D1816841F017
:1020B000804181600020F8BD40420F003C000020BC
:1020C0006D070008F1070008DB0700080020014049
:1020D0000022014090F82020012A07D0022A05D0D2
:1020E000416A41F4802141620120704700684269E1
:1020F0000A43426100207047F0B590F82050046810
:10210000A468012D05D0022D03D0416A41F480213D
:102110005AE014F0406F01D1E50052D5C4F30164D8
:10212000022C03D9416A41F400014DE001264FF42D
:10213000C075A6401E608B68ABB1CE684F68D0F802
:1021400000C0334305EB041643EAC7034CF80630DE
:1021500007684FF4C27303EB04130E69FE50097D48
:10216000012909D00DE00E88CB68076843EA465381
:1021700005EB0416BB51EBE70168CE5846F48076B8
:10218000CE50D2F805304FF4C67C11790CEB041C0C
:1021900006684FF4C47741EA032107EB041346F8BD
:1021A0000C10167805EB0411D2F80120076846EAF6
:1021B0000222FA500068425842F0010242500020C8
:1021C000F0BD416A41F4001141620120F0BD000000
:1021D00030B590F820300268012B07D0022B05D0D3
:1021E000416A41F480214162012030BD3E4C3F48AC
:1021F000A24200D00246D2F80032824243F00103EC
:10220000C2F800320CD1D2F8000220F47C50C2F89F
:102210000002D2F800024B6A40EA0320C2F8000232
:102220000C7D0120D2F81C3204F01F04A04083432F
:10223000C2F81C32CB69B3B9D2F80C328343C2F86E
:102240000C328C894B684D6964F31F4302EBC50463
:10225000C4F840320C890B684D6964F31F4302EBEC
:10226000C504C4F84432CB69012B16D1D2F80C3224
:102270000343C2F80C320C884B684D6964F31F436A
:1022800002EBC504C4F840320C89CB684D6964F395
:102290001F4302EBC504C4F844328B69002BD2F80B
:1022A00004320FD053EA0003C2F804320B69002B4A
:1022B000D2F8143208D00343C2F81432096A012953
:1022C00004D008E08343EFE78343F5E7D2F81C121C
:1022D0000143C2F81C12D2F8000220F00100C2F83B
:1022E0000002002030BD00000034004000640040C7
:1022F00070470000F0B590F82040012C05D0022C6A
:1023000003D0416A41F4802166E0046800295ED070
:102310002469A4075DD005684FF4D87404EB011458
:102320002D5915F00405956005682D5957D0ED0815
:10233000C2F8045007684FF4DA754FF4DC7C4FF4B0
:10234000DE763C59002905EB0115C4F34007D76040
:102350000CEB011406EB01110668765906F00F0626
:10236000166106687659C6F30726966106687559A0
:102370004FEA15455561026812591A7002681259E0
:102380004FEA12225A70026812594FEA12429A70AA
:10239000026812594FEA1262DA70026852581A71D2
:1023A000026852584FEA12225A71026852584FEA94
:1023B00012429A71026851584FEA1161D97100684E
:1023C00010D0016941F0200101610020F0BDE468F6
:1023D0009FE7416A41F4001141620120F0BD6D0D9B
:1023E0001560A7E7C16841F02001C160EDE72DE964
:1023F000F05F0546006800244669D0F804908768BD
:10240000D0F80CB0D0F810A0F207D0F8188048D05F
:10241000F90714D001218160BA0703D5284600F0DE
:102420002EFA0CE0780702D54FF4006407E0380775
:1024300002D54FF4805402E0284600F01FFAF80558
:1024400016D52868BA054FF48071816003D52846F7
:1024500000F017FA0CE0780502D544F4005407E0C8
:10246000380502D544F4804402E0284600F008FA1A
:10247000F80316D52868BA034FF48031816003D57C
:10248000284600F000FA0CE0780302D544F400443A
:1024900007E0380302D544F4803402E0284600F017
:1024A000F1F9300707D55FEACB6004D52968102021
:1024B00044F40074C86070074FF0080707D55FEA5E
:1024C0000B7004D52868C760284600F06BF9B00788
:1024D00006D52868C068800702D0284600F064F955
:1024E000700607D55FEACA6004D52968102044F455
:1024F00080640861B00607D55FEA0A7004D52868D1
:102500000761284600F08AF9F00606D528680069B8
:10251000800702D0284600F082F9B00308D55FEAB0
:10252000C96005D5296810204860284600F078F970
:10253000F00307D55FEA097004D52868476028468C
:1025400000F0A2F9300446D55FEA497040D5F005A5
:1025500004D55FEAC87001D044F00104B00504D589
:102560005FEA887001D544F00204700504D55FEA83
:10257000487001D544F00404300529D518F0700FD7
:1025800026D008F07000402815D006DC102809D0AD
:1025900020280AD0302816D10AE050280ED0602812
:1025A00011D10EE044F008040DE044F010040AE0FC
:1025B00044F0200407E044F0400404E044F08004C8
:1025C00001E044F480742868816921F07001816120
:1025D000296804204860002C05D0686A204368629E
:1025E0002846FFF785FEBDE8F09F70B5040003D0D4
:1025F00094F8200010B104E0012070BD204600F0E6
:1026000081F82068016821F00201016000F0DAFB26
:102610000526054604E000F0D5FB401B0A2811D82A
:10262000206840688007F6D42068016841F0010105
:10263000016000F0C7FB05460BE000F0C3FB401B48
:102640000A2806D9606A40F40030606284F820608D
:10265000D2E720684068C007EFD0207E01282068BC
:1026600001683DD021F080010160607E0128206872
:10267000016838D021F040010160A07E0128206867
:10268000016833D021F020010160E07E012820683C
:1026900001682ED041F010010160207F01282068E0
:1026A000016829D021F008010160607F01282068BD
:1026B000016824D021F004010160D4E90110D4E9BB
:1026C00003326569491E184323682A4310430022D8
:1026D0000843D8610121626284F82010104670BD61
:1026E00041F08001C0E741F04001C5E741F0200121
:1026F000CAE721F01001CFE741F00801D4E741F02B
:102700000401D9E7F0B587B0044614216846FDF707
:10271000D9FD2149206888423CD12048016841F018
:1027200000710160006800F0007005901B481038CF
:10273000016841F001010160006802AA0224184FFB
:1027400000F00100059003250926012182E86200BE
:10275000A0026946CDE90004384600F03BFA02AA1F
:102760000021E00282E86200CDE9000469463846B3
:1027700000F030FA00221320114600F083FB1320F2
:1027800000F072FB00221420114600F07BFB1420A5
:1027900000F06AFB07B0F0BD006400404038024022
:1027A0000000024070470000194A0021174B02F157
:1027B000340010B5FFF79EFD1649002210460B1895
:1027C000401C0A281A76FADB11480B7E028843EA7D
:1027D00012200876487E10430C4A487602200C18D6
:1027E000135C401C0A282376F9DB91ED040BB0EE54
:1027F000001BB4EE410BF1EE10FA01D1FEF7A4FB81
:10280000BDE810400448012100F0D0BA08000020C3
:102810001C0600208004002000040240704770471E
:102820007047000070B5044690F82000012804D0DD
:10283000606A40F40020606218E0022084F8200002
:102840002068016821F00101016000F0BBFA054633
:102850000EE000BF00F0B6FA401B0A2808D9616AF2
:10286000052041F40031616284F82000012070BD30
:1028700020684068C007EDD1606270BD7047704746
:102880007047704770477047704790F835100229BD
:1028900003D08021416501207047052180F8351063
:1028A0000068016821F0010101600020704700000C
:1028B0002DE9F84304464FF00009644B0820CDF899
:1028C00000904FF41652A56D94F85C101B682E68AA
:1028D000B3FBF2F700FA01F131420FD021680A6828
:1028E00052070BD50A6822F004020A6094F85C10C3
:1028F0008840A860606D40F00100606594F85C104D
:102900004FF0010808FA01F0304208D02168496907
:10291000090604D5A860606D40F00200606594F877
:102920005C1004208840304208D02168096889077B
:1029300004D5A860606D40F00400606594F85C10F8
:1029400010208840304218D021680968090714D542
:10295000A86020680168490304D50068000308D511
:10296000A16C07E00168C90503D4016821F00801E2
:102970000160216C09B12046884794F85C10202042
:102980008840304231D021680968C9062DD5A86039
:1029900094F8350005282068016806D0490347D51A
:1029A000006800031DD4616C1CE021F01601016079
:1029B0002068416921F080014161206C08B9A06C58
:1029C00020B12068016821F00801016094F85C30B2
:1029D0003F229A40AA6084F8349084F83580216DB3
:1029E0001FE0E16B09B120468847606D00282BD0BD
:1029F000606DC00714D0052084F835002068016898
:102A000021F0010101600098401C0090B84203D8F9
:102A100020680068C007F6D184F8349084F83580C7
:102A2000E16C002910D001B02046BDE8F043084712
:102A30000168C905D5D4036823F01003036084F846
:102A4000349084F83580CCE7BDE8F8833C00002062
:102A50002DE9F047044600F0B5F9054664B14FF0A2
:102A6000000984F83490022184F835102068016848
:102A700021F0010101600EE00120BDE8F08700BFF8
:102A800000F0A0F9401B052805D92021616503202D
:102A900084F83500F1E720680068C007F0D1D4E978
:102AA0000020D4E90251D4E9043C284304F118057C
:102AB00019430843116895E8E00140EA0C001C4BFB
:102AC0002843194040EA060040EA0700B8F1040F25
:102AD00040EA010003D1D4E90B1319430843106005
:102AE00020680126656A4069042D20F0070045EA48
:102AF00000050CD1D4E90A01054341B12046FDF798
:102B0000C3FF20B14020606584F83560B4E72068D9
:102B100045612046FDF7A4FF94F85C303F229A40BF
:102B20008260C4F8549084F835600020A5E7000066
:102B30003F8010E02DE9F041044690F83400002574
:102B40000128A66D0ED094F835C00127002084F826
:102B50003470BCF1010F07D0022584F834002846F8
:102B6000BDE8F0810220FBE7022784F8357060653C
:102B70002046FDF7B3FF94F85C103F208840B0601A
:102B80002068016841F0160101602068416941F048
:102B900080014161206C20B12068016841F008018A
:102BA00001602068016841F001010160D7E7000081
:102BB00070B5044600F006F90546601C02D00448D2
:102BC0000078044400F0FEF8401BA042FAD370BD28
:102BD000300000202DE9F84FDFF89CE100224FF093
:102BE00001084FF0030B4FF00F0A00BF0B6808FA03
:102BF00002F42340A34271D14D68022D01D0122D61
:102C00000FD1D5080E69570700EB8505A9462D6A37
:102C1000FF0E0AFA07FCBE4025EA0C052E43C9F850
:102C200020600F79550006680BFA05FC07F00307D2
:102C300026EA0C06AF40374307604E68012E05D0E8
:102C4000022E03D0112E01D0122E0ED18668CF682D
:102C500026EA0C06AF403743876046680F79A643E3
:102C6000C7F30017974037434760C4688E6824EA6B
:102C70000C04AE402643C6604C68E40075D53F4C5A
:102C8000256845F480452560246822F003069507F1
:102C900004F4804400943A4C2D0F2644D6F808489A
:102CA000DFF8E0C00AFA05F7604524EA070401D11D
:102CB00000272EE0344FB84201D1012729E0334FDD
:102CC000B84201D1022724E0314FB84201D1032795
:102CD0001FE0304FB84202D104271AE045E02E4FE2
:102CE000B84201D1052714E02C4FB84201D1062784
:102CF0000FE02B4FB84201D107270AE0294FB84215
:102D000001D1082705E0284FB84201D1092700E08A
:102D10000A27AF4027437546C6F808784E68DEF8A4
:102D20000040F60324EA030400D51C43124E2C6035
:102D3000361D4D683468AD0324EA030400D51C43F6
:102D40000D4F346008374D683C68ED0224EA0304F7
:102D500000D51C43084D3C600C354E682C68B6020B
:102D600024EA030400D51C432C60521C102AFFF4F3
:102D70003DAFBDE8F88F0000003C01404438024000
:102D80000030014000000240000402400008024000
:102D9000000C0240001002400014024000180240E3
:102DA000001C02400020024000240240426931EA37
:102DB000020200D10904816170470AB18161704744
:102DC0000904FBE7014880687047000030000020DC
:102DD0000248816802781144816070473000002009
:102DE000032010B500F06EF8002000F005F800F0A8
:102DF00023F8002010BD000070B50D4D04464FF4BF
:102E00007A700C4A29781268B0FBF1F0B2FBF0F04E
:102E100000F0C2FD48B9102C07D200222146501EF6
:102E200000F030F800206C6070BD012070BD000023
:102E3000300000203C0000200A4808B5016841F03D
:102E400080510160006800F0805000900548001D2E
:102E5000016841F480410160006800F48040009006
:102E600008BD000040380240002809DB410900F09D
:102E70001F028900012001F1E0219040C1F800010A
:102E8000704700000E4BF0B41B680D46C3F30223DD
:102E9000C3F10706042E00D90426191D072901D203
:102EA000002300E0DB1E012404FA06F19C40491EC9
:102EB0002940641E994014402143F0BC02F06CBAD2
:102EC0000CED00E0064900F0070210B54FF6FF04D4
:102ED0000868044B204040EA02201843086010BDF7
:102EE0000CED00E00000FA051848F8B5016841F063
:102EF000805101600068164C00F0805000902068FE
:102F000040F480302060FFF75DFF4FF47A7605468D
:102F100005E000BFFFF756FF401BB0420FD86068C6
:102F2000C003F7D5206840F400302060FFF74AFF67
:102F3000054606E0FFF746FF401BB04201D90320DB
:102F4000F8BD60688003F5D50020F8BD4038024028
:102F5000007000402DE9F84F04460078DFF8249413
:102F60004FF000063746C0070ED0D9F8001021F404
:102F70000001C9F80010D9F80010626B1143C9F8BC
:102F80000010606B00B90126FE4D206884350003F7
:102F90000ED5E16B286820F4401008432860E06BF0
:102FA000B0F5801F01D010B102E0012600E001273A
:102FB00020684FF4800BC0020CD5216C286820F4E7
:102FC000400008432860206C584501D1012601E0EB
:102FD00000B901272068C10100D50126800666D509
:102FE000E8483830016841F0805101600068DFF83E
:102FF00098A300F080500090DAF8001041F480713E
:10300000CAF80010FFF7DEFE804605E0FFF7DAFEA3
:10301000A0EB080064287DD8DAF80000C005F5D5DB
:10302000DFF8608308F16808D8F8000010F44070F9
:103030002AD0218E01F44071814225D0D8F80010A9
:10304000D8F8002021F4407142F48032C8F8002002
:10305000D8F8002022F48032C8F80020C8F8001008
:10306000D8F80000C0070FD0FFF7ACFE824607E09B
:10307000FFF7A8FEA0EB0A0141F288308142CAD8CE
:10308000D8F800008007F3D5206BC0F30121032995
:103090007ED0D9F8001021F4F811C9F80010228E62
:1030A000D8F80010C2F30B021143C8F800102078C2
:1030B000C00607D5286820F0807028602868A16BBA
:1030C000084328602188AF488830490405D5626EDE
:1030D000016821F44031114301602188090405D5BC
:1030E000A26E016821F44021114301602168C903E7
:1030F00005D5E26E016821F4401111430160216899
:10310000890305D5226F016821F440011143016054
:10311000217800E034E1490605D5626C016821F0B0
:103120000301114301602178090605D5A26C0168ED
:1031300021F00C01114301602188C90505D5E26C1D
:10314000016821F03001114301602188890505D50E
:10315000226D016821F0C0011143016021884905F9
:1031600005D5626D016821F4407111430160218829
:10317000090505D5A26D016821F440611143016084
:103180002188C90407D5E26D016821F4405100E0AF
:103190005FE0114301602188890405D5226E016832
:1031A00021F44041114301602168490205D5A26F15
:1031B000016821F080611143016021684FF0006ACD
:1031C000890209D5E26F016821F0006111430160B5
:1031D000E16F514500D1012721680A0700D5012779
:1031E000490305D5626F016821F040711143016008
:1031F0002168090206D5D4F88020016821F08051A9
:10320000114301602168490106D5D4F88420016882
:1032100021F00051114301602068000106D5D4F867
:103220008810286820F00070084328602068C000DB
:1032300006D5D4F88C10286820F0806008432860F8
:10324000DFF84891012E0ED02068B0F1007F0AD03F
:103250008FE04F4AD9F80030104023F4F8120243AF
:10326000C9F800201BE7D9F800004E4620F0806026
:10327000C9F80000FFF7A6FD804605E0FFF7A2FDB4
:10328000A0EB080064287BD830680001F6D42178D0
:103290003C487C30C90712D0616B81B9237A6268DF
:1032A0000168D0F800C09201C1F3014142EA014235
:1032B000CCF3036142EA016141EA037101602168D4
:1032C0000A0303D5E26BB2F5801F04D0C9021AD5F8
:1032D000216C594517D16368016894F80CC00268E5
:1032E0009B01C1F3014143EA0141C2F3027241EA89
:1032F0000C6141EA027101602968626A21F01F01D4
:10330000521E114329602168C90110D5238A6268C1
:103310000168D0F800C09201C1F3036142EA0342A0
:1033200042EA0162CCF3027142EA01710160216854
:1033300089010CD56168228A237B94F808C0890131
:1033400041EA024141EA036141EA0C7101603168DE
:10335000B04641F080613160FFF734FD064604E07D
:10336000FFF730FD801B64280AD8D8F80000000160
:10337000F6D5E7B3D9F800004E4620F0805009E0BA
:103380007BE0000008380240007000400038024036
:10339000FFFCFF0FC9F80000FFF714FD074604E02B
:1033A000FFF710FDC01B642867D83068C043800059
:1033B000F6D5216835480A0301D5E26B1AB1C90276
:1033C0001DD5216CD9B963690168277E02689B010C
:1033D000C1F3014143EA0143C2F3027143EA0762C8
:1033E00042EA0171016029686FF0FF0300E04BE0E1
:1033F000A26A21F4F85103EB0222114329602168EB
:10340000890212D5E16F51450FD1238C62690168A1
:1034100007689201C1F3036142EA034242EA016292
:10342000C7F3027142EA017101602178090716D5DC
:1034300061690268D0F800C08B01277FC2F3036284
:10344000CCF3014143EA014141EA026141EA0771DB
:1034500001602868E16A20F4403008432860306841
:1034600040F080503060FFF7ADFC044608E000BF3C
:10347000FFF7A8FC001B642802D90320BDE8F88FE1
:103480003068C0438000F3D40020F7E7883802405A
:103490002DE9F04705000F4663D0444E306800F038
:1034A0000F00B84209D2306820F00F003843306076
:1034B000306800F00F00B84253D128683C4C8107B7
:1034C00012D5400703D5206840F4E05020602878EA
:1034D000000703D5206840F460402060A968206898
:1034E00020F0F000084320602878C0072AD0304937
:1034F00068680839012810D00968022810D08907A7
:1035000000292EDA216821F0030101432160FFF731
:1035100059FC804641F288390DE009688903EFE7DC
:103520008901EDE7FFF74EFCA0EB0801494502D900
:103530000320BDE8F0876868216801F00C01B1EB59
:10354000800FEFD1306800F00F00B8420BD930681F
:1035500020F00F0038433060306800F00F00B842B0
:1035600001D00120E5E72878400705D5E968206803
:1035700020F4E050084320602878000706D5286929
:10358000216821F4604141EAC000206000F036F873
:103590002168084AC1F30311515CC840064908601C
:1035A0000020FFF729FC0020C3E70000003C024098
:1035B00008380240325800083C0000200449054801
:1035C00009680068044AC1F38221515CC840704711
:1035D000083802403C0000204258000804490548D1
:1035E00009680068044AC1F34231515CC840704721
:1035F000083802403C00002042580008154910B528
:103600001548096811F00C0213D04110042A0FD09C
:10361000082A0ED10F4C241F2268236802F03F02B3
:103620005B0207D52068C0F38810A0FB010106E00B
:10363000084610BD2168C1F38811A1FB00010023D9
:10364000FCF7F6FD2168C1F30141491C4900B0FBBC
:10365000F1F010BD083802400024F4002DE9F84FC5
:1036600005004FF000076ED02878DFF82093A9F10D
:10367000040AC007AAF104044CD0D9F80010484647
:10368000C1F38101012908D00068C0F3810002283C
:103690000AD1DAF80000400206D52068800339D547
:1036A00068680028DFD035E06868B0F5803F0BD04F
:1036B00010B1B0F5A02F11D0206820F48030206028
:1036C000206820F4802002E0206840F480302060F0
:1036D000686890B1FFF776FB06460AE0206840F480
:1036E00080202060F0E700BFFFF76CFB801B6428A0
:1036F00072D820688003F7D50CE0FFF763FB06461D
:1037000005E000BFFFF75EFB801B6428F0D820684F
:103710008003F7D42878800742D5D9F800104846AE
:1037200011F00C0F08D00068C0F3810002280BD103
:10373000DAF80000400207D42068800718D5E8684E
:10374000012800D114E01EE1E8680028206817D0A5
:1037500040F001002060FFF735FB064605E000BFA2
:10376000FFF730FB801B0228C2D820688007F7D5FE
:103770002869216821F0F80141EAC00020600FE0CB
:1037800020F001002060FFF71DFB064605E000BFAA
:10379000FFF718FB801B02281ED820688007F7D48B
:1037A0002878000729D5794869696C300029804656
:1037B000016812D041F001010160FFF703FB0646EA
:1037C00005E000BFFFF7FEFA801B022804D8D8F8F6
:1037D00000008007F6D510E089E021F001010160CA
:1037E000FFF7F0FA064604E0FFF7ECFA801B022828
:1037F0007DD8D8F800008007F6D4287840076BD52C
:10380000DFF8888108F13808D8F80000C0000BD430
:10381000D8F8001041F08051C8F80010D8F8000026
:10382000012700F08050009059480168C90512D462
:103830000168834641F480710160FFF7C3FA0646D0
:1038400005E000BFFFF7BEFA801B64284FD8DBF805
:103850000000C005F6D54D4EA868683601280AD08C
:1038600008B1052811D0306820F0010030603068C0
:1038700020F0040002E0306840F001003060A868E9
:10388000A0B1FFF79FFA83460CE0306840F00400D7
:103890003060F0E7FFF796FAA0EB0B0141F28830B9
:1038A000814268D830688007F4D50EE0FFF78AFAC5
:1038B000834607E0FFF786FAA0EB0B0141F2883060
:1038C000814258D830688007F4D42FB1D8F800105E
:1038D00021F08051C8F80010A869E0B3D9F80010B1
:1038E000C1F3810102294ED00228206800E042E0A5
:1038F00020F08070206003D0FFF764FA05463DE0B9
:10390000FFF760FA064604E0FFF75CFA801B022826
:1039100031D820688001F7D4D5E90921DFF874C0D7
:10392000D5E9070695F830304F0895F82C1030434C
:103930000CEB074545EA8212104340EA016040EA79
:103940000370CAF80000206840F080702060FFF724
:1039500039FA054605E014E0FFF734FA401B022867
:1039600009D820688001F7D50BE000BFFFF72AFADD
:10397000401B022802D90320BDE8F88F206880018F
:10398000F4D40020F8E70120F6E7000008380240F0
:10399000007000400000FFFF401EB0F1807F10B5B6
:1039A00001D3012010BD4FF0E02460610F216017AA
:1039B00001F0F2FC0020A0610721216110BD7047D9
:1039C0007047704770B590F83C20012A24D0134C02
:1039D000012580F83C50022280F83D20026853689F
:1039E000A242966802D00E4CA24203D14C6823F446
:1039F000700323430C6823F0700389681C435460F0
:103A0000002326F0800602683143916080F83D5023
:103A100080F83C30184670BD022070BD00000140A7
:103A20000004014010B5040003D094F83D0010B12B
:103A300007E0012010BD002084F83C00204600F083
:103A40000DF8022084F83D002068211D01F016F8D1
:103A5000012084F83D00002010BD000008B5016879
:103A60001048B1F1804F0BD00F4A914207D1016845
:103A700041F004010160006800F00400009008BDFE
:103A8000016841F00101016000680022114600F068
:103A9000010000901C20FFF7F5F9BDE808401C204C
:103AA000FFF7E2B940380240000800400168094AC7
:103AB000CB6843F00103CB6001688868104006289A
:103AC00006D0B0F5803F03D0086840F001000860E0
:103AD000002070470700010070B5044690F83C00D4
:103AE000012817D0324B012584F83C50022084F87D
:103AF0003D0022689068184020F47F40906008687C
:103B0000502830D00DDC20284DD005DC98B310288B
:103B10003BD148E0022070BD302844D0402834D149
:103B200039E0602828D0702806D0B0F5805F2CD00E
:103B3000B0F5005F29D10AE04A682068D1E9021394
:103B400001F00FF82068816841F0770109E04A68C8
:103B50002068D1E9021301F004F82068816841F47B
:103B60008041816011E0CA684968206801F040F92D
:103B70002068502107E016E0CA684968206801F013
:103B800048F92068602100F0F5FF002084F83D50DE
:103B900084F83C0070BDCA684968206801F028F9C3
:103BA00020684021EFE7226801461046EBE700005D
:103BB00088FFFEFF704770B5044600680025016964
:103BC000C943890715D4C168C943890711D4EA1EBE
:103BD000026101212177206880698007204602D098
:103BE000FFF7E8FF04E000F0CFF8204600F07DF991
:103BF000257720680169C943490717D4C168C943BB
:103C0000490713D402216FF0040202612177206872
:103C1000806910F4407F204602D0FFF7CBFF04E01C
:103C200000F0B2F8204600F060F9257720680169BD
:103C3000C943090716D4C168C943090712D404212E
:103C40006FF00802026121772068C0698007204672
:103C500002D0FFF7AFFF04E000F096F8204600F036
:103C600044F9257720680169C943C90617D4C1689A
:103C7000C943C90613D408216FF0100202612177ED
:103C80002068C06910F4407F204602D0FFF792FF01
:103C900004E000F079F8204600F027F92577206845
:103CA0000169C943C90708D1C168C943C90704D11B
:103CB000891E0161204600F03FF920680169C9436F
:103CC000090609D4C168C943090605D46FF080010B
:103CD00001612046FFF774FE20680169C943C905E8
:103CE00009D4C168C943090605D46FF48071016124
:103CF0002046FFF764FE20680169C943490609D4DC
:103D0000C168C943490605D46FF0400101612046EE
:103D100000F040F920680169C94389060BD4C168E5
:103D2000C943890607D46FF0200101612046BDE830
:103D30007040FFF746BE70BD10B586B00446142132
:103D40006846FCF7BFFA0D492068884214D10C4838
:103D5000016841F0080101600068002100F00800DE
:103D60000590022082030092CDE90101CDE9031004
:103D700004486946FEF72EFF06B010BD000800405B
:103D800030380240000C0240704770B5044690F88D
:103D90003C000D4601280ED0012684F83C6002202C
:103DA00084F83D000C2A45D007DC5AB1042A1BD008
:103DB000082A78D12CE0022070BD102A4ED0142A97
:103DC00071D15DE0206800F0DDFE2068816941F07E
:103DD000080181612068816921F004018161206806
:103DE0002A698169114311E0206800F005FF20680D
:103DF000816941F4006181612068816921F48061F9
:103E0000816120682969826942EA012181614AE071
:103E1000206800F02DFF2068C16941F00801C161F0
:103E20002068C16921F00401C16120682A69C16963
:103E3000114311E0206800F057FF2068C16941F488
:103E40000061C1612068C16921F48061C16120689D
:103E50002969C26942EA0121C16124E0206800F0B9
:103E60006FFF2068416D41F0080141652068416D98
:103E700021F00401416520682A69416D114311E078
:103E8000206800F089FF2068416D41F400614165C0
:103E90002068416D21F48061416520682969426D87
:103EA00042EA01214165002084F83D6084F83C002D
:103EB00070BD10B5040003D094F83D0010B107E0C8
:103EC000012010BD002084F83C00204600F00CF8D2
:103ED000022084F83D002068211D00F0CFFD012064
:103EE00084F83D00002010BD7047704710B50122D6
:103EF0000446006800F028FE0C492068884202D081
:103F00000B49884203D1416C41F40041416420686F
:103F1000084A81681140062906D0B1F5803F03D0D8
:103F2000016841F001010160002010BD0000014066
:103F3000000401400700010070B572B60068B0F1DE
:103F4000804F21D1114C2068401C20606068401CCB
:103F50006060A068401CA060FCF754FE206800254B
:103F6000322802DBFDF75AFA25606068B0F5FA7F67
:103F700004DB07488021FEF719FF6560A06832283E
:103F800002DBFDF729FBA56062B670BD18000020BA
:103F900000040240704770472DE9F0410268044672
:103FA0000025D0691168936810F00F0F5BD003F003
:103FB000010601F49077374369D0C70707D0CF05D2
:103FC00005D501271762E26F42F00102E26782071E
:103FD00008D5DA0706D0276802223A62E26F42F07B
:103FE0000402E267420708D5DA0706D023680422F4
:103FF0001A62E26F42F00202E26702070AD501F09C
:104000002002324306D0236808221A62E26F42F08F
:104010000802E267E26F002A32D0800605D58806E2
:1040200003D5216E09B1204688472168E06F896871
:10403000490601D4000725D5204600F0C7FF2068B7
:104040008168490619D5816821F040018160E06EE0
:1040500098B11A490165E06EFEF717FC00280FD0F1
:10406000E06E016D06E0830611D58B060FD5216E3B
:1040700012E02046BDE8F04108472046FFF78BFFDD
:10408000BDE8F0812046FFF786FFE567F8E7030605
:1040900005D50B0603D5616E0029EAD1F0E740068D
:1040A000EED54806ECD513682021204623F04003C6
:1040B00013606167656600F07FF9E1E73B4F000838
:1040C00010B5040002D0606F10B107E0012010BDF0
:1040D000002084F87000204600F026F82420606755
:1040E0002068016821F001010160204600F0E0FF36
:1040F0000128ECD0606A10B1204600F09CFE2068D8
:10410000416821F4904141602068816821F02A01D2
:1041100081602068016841F0010101602046BDE82E
:10412000104000F0ECBE000070B586B006461421C9
:104130006846FCF7C7F82249306888423ED12148DA
:10414000016841F480210160006800F4802005903E
:104150001C481038016841F0080101600068002522
:10416000022100F0080005904FF4407007238DE80D
:10417000230003221448CDE903236946FEF72AFDF4
:10418000124C402212484FF0006184E827000315CA
:104190002046C4E90435A561E56125626562FEF744
:1041A00057FC08B1FCF7F0FC0022B466272011464A
:1041B000A663FEF767FE2720FEF756FE06B070BD29
:1041C0000048004040380240000C02409C0700209C
:1041D0005860024070B5836F202B4BD1B9B1B2B19A
:1041E00090F87030012B45D08368012680F870600C
:1041F0000024416535030466AB42A0F85820A0F8BE
:104200005A204FF0FF0107D1026912B126E00120C8
:1042100070BD40F2FF1121E04FF07F02E3B1B3F136
:10422000805F1ED0A0F85C402221C46781670168CE
:104230008A6842F001028A608168A94201D101695D
:10424000B1B10D49016680F870400068016841F421
:1042500090710160002070BD036933B9A0F85C1053
:10426000E2E7016909B13F21F8E7A0F85C20DBE74C
:104270000249E7E7022070BD57500008FD4F0008D3
:104280002DE9F04172B6234D012723494FF0000874
:104290006C1C287848B3214E002085F800800A5C09
:1042A0003254401C0A28FADB1D484FF48041FEF7C7
:1042B0007DFDAF6096ED040BB7EE001BB4EE410B35
:1042C000F1EE10FA01D1FCF73FFE12490322491C1E
:1042D000C81CFCF702F878B10F49012201F10C006B
:1042E000FFF778FF62B6BDE8F08160782070A078B3
:1042F00060700878A070E8E707490A222F7001F182
:104300000C00FFF767FF002041462154401C0328A2
:10431000FBDBE7E7240000201007002080040020DA
:104320000004024070B50446406F20283BD161B3C1
:104330005AB394F87000012835D0A4F85020A4F89E
:1043400052200025A06E0123E164212184F8703001
:10435000E5676167D8B115491346C163A16E14487A
:104360000864A16E1348C864A06E05652068A66E37
:1043700000F12802E16C3046FEF7DCFB38B1102179
:10438000E167202084F870506067012070BD2168CB
:104390004020086284F870502068816841F08001F4
:1043A0008160002070BD022070BD0000954F0008A4
:1043B000C34F00084F4F000870477047FEE70000EA
:1043C000024909220248FDF7F5BD0000A4040020BF
:1043D0004C0500200148FFF769BB00009006002053
:1043E000024901220248FFF7F5BE00001007002035
:1043F0001C070020244A2DE9F04192F802C4BCF1C8
:10440000010F27D0104602270323B0F8A66201242B
:1044100090F80454BCF1020FB0F8AA12B0F8AC0244
:104420000AD0BCF1030F2DD1B2F8AEC2614523D042
:10443000B2F8B0C260451FD028B1022803D00128CD
:1044400001D003280AD082F80234A2F8AE12A2F8F2
:10445000B00211E0BDE8F041FBF790BF82F80244E2
:10446000022DA2F86663A2F8AE12A2F8B00209D03B
:1044700082F80474A2F8224300F0F6FFBDE8F04190
:1044800000F0D6BFBDE8F081400000202DE9FF41DB
:10449000414800214FF440353E4B009101240191E9
:1044A0004FF0090802910391C0E90035046184616D
:1044B00081603A4B80F82010C0E90A31C0F81C80B6
:1044C000C16080F830404461FDF7D2FC08B1FCF7D0
:1044D0005BFB07253048042600966946CDE9014577
:1044E000FDF76AFB08B1FCF74FFB02206946052483
:1044F000CDE900402848FDF75FFB08B1FCF744FB1D
:10450000032069460627CDE900702348FDF754FBD8
:1045100008B1FCF739FB20486946CDE90056FDF7A4
:104520004BFB08B1FCF730FB1B484646CDE9008445
:104530006946FDF741FB08B1FCF726FB0A206946F6
:10454000CDE900071448FDF737FB08B1FCF71CFB69
:104550000B206946CDE900050F48FDF72DFB08B19A
:10456000FCF712FB08210E20CDE900010A4869463C
:10457000FDF722FB08B1FCF707FB0F206946CDE9E8
:1045800000060548FDF718FB002801D0FCF7FCFAEF
:10459000BDE8FF81002001404C0500200100000F14
:1045A00070B510484FF080744FF4A0030C4E0021FA
:1045B0000625C0E902144FF46022C0E90423C0E9D3
:1045C0000065017641768176C17601774177FEF705
:1045D0000CF8002803D0BDE87040FCF7D5BA70BDD8
:1045E0000064004050060020114808B5016841F4FD
:1045F00000110160016801F400110091016841F4AB
:104600008001016000680022114600F480000090E3
:104610000E20FEF737FC0E20FEF726FC0022382085
:104620001146FEF72FFCBDE808403820FEF71CBC01
:1046300030380240704700002DE9F04F87B0142158
:104640006846FBF73FFE3D48016841F00401016008
:10465000016801F004010591016841F080010160E9
:10466000016801F080010591016841F001010160DC
:10467000016801F001010591016841F0020101604A
:10468000016801F002010591016841F0200101601B
:10469000016801F020010591016841F010010160FD
:1046A000016801F010010591016841F00801016005
:1046B000006844F68147DFF88890002200F0080087
:1046C000394605904846FEF778FBDFF878A04FF4AE
:1046D0000056002231465046FEF76FFBDFF868B007
:1046E0004FF44048002241465846FEF766FB00243E
:1046F000164800966946CDE901041548FEF76AFAA6
:1047000001250097CDE90154694648460394FEF718
:1047100061FA00966946CDE9015450460394FEF7CC
:1047200059FACDF800806946CDE901545846039402
:10473000FEF750FA07B0BDE8F08F000030380240B5
:10474000000402400014024000100240000011105A
:104750000008024010B588B01648002440F2E73245
:104760004FF0804100946B230194029403940494CD
:104770000594069480E81600C0E903348461FFF7CD
:1047800051F908B1FCF700FA4FF480500090094845
:104790006946FFF7A1F908B1FCF7F6F9054804A945
:1047A00004940694FFF70EF9002801D0FCF7ECF909
:1047B00008B010BD9006002010B58EB000241C215A
:1047C000009407A801940294039404940594069419
:1047D000FBF778FD1E4840F2CF7140F237421B4B89
:1047E000C0E9024104618461C0E90032FFF71AF9AF
:1047F00008B1FCF7C9F94FF480500090144869469D
:10480000FFF76AF908B1FCF7BFF91148FFF751FB50
:1048100008B1FCF7B9F90E4804A904940694FFF70F
:10482000D1F808B1FCF7B0F96020CDE907040848D9
:104830000C2207A909940B94FFF7A7FA08B1FCF71B
:10484000A3F90348FFF778FA0EB010BD0008004046
:10485000D00600200D48002110B50B4C0C224FF45F
:10486000E1330460C0E90131C160C0E90412816133
:10487000C16101624162FFF723FC002803D0BDE85B
:104880001040FCF781B910BD004800401C07002013
:10489000FEE700001448014690F80724D1F8E8111B
:1048A000012A0ED0022A12D00146032A91F80914D7
:1048B00013D0042A10D1022901D006290CD10221DB
:1048C00008E0022901D0002906D1042102E00129D3
:1048D00002D1032180F807147047022901D006296C
:1048E000FAD10121F6E7000040000020704730B502
:1048F0000588039C2D0A2570007860700888000ADE
:10490000A0700878E0701088000A2071107860713B
:104910001888000AA0711878E07130BD70B5DDE923
:1049200004450688360A2E70007868700888000AE8
:10493000A8700878E8701088000A287110786871EB
:104940001888000AA8711878E8712088000A28726F
:104950002078687270BD002210B501EB420430F877
:1049600012301B0A01F8123010F81230521C142AAF
:104970006370F2DB10BD70477047FEF729BA000084
:1049800030B5B7B0342124A8FBF79CFC142131A822
:10499000FBF798FC90216846FBF794FC1D480168E2
:1049A00041F080510160006800F0805036901A4854
:1049B000016841F44041016000680224D82500F4F8
:1049C000404036900420012103058203CDE92C05E7
:1049D000CDE92A43CDE92E40CDE9241224A8FEF7E3
:1049E0003DFEFEF781FAE2024FF4A0510025CDE929
:1049F000341231AA0F20072182E8310031A8FEF7D6
:104A000047FDE001139500906846FEF7A3FA37B022
:104A100030BD00004038024000700040104A30B500
:104A20001048146800210F4B44F4700414600833DC
:104A300005680D4A0D4C45F00105056019600368D5
:104A4000051D1340074A03600C322C600568E3051E
:104A5000034C25F480250560803C1160236030BD47
:104A600088ED00E000380240FFFFF6FE1030002421
:104A70000148FFF7A0B8000090060020F0B5274BD2
:104A80004FF0804E264D02689842264E264F274C06
:104A900009D0704507D0A84205D0B04203D0B84233
:104AA00001D0A04205D1D1F804C022F070024CEA36
:104AB000020298421BD0704519D0A84217D0B042CC
:104AC00015D0B84213D0A04211D0194DA8420ED033
:104AD000184DA8420BD0184DA84208D0174DA84237
:104AE00005D0174DA84202D0164DA84203D1CD687B
:104AF00022F440722A434D6922F080022A43026068
:104B000098428A68C2620A68826201D0A04201D1DA
:104B10000969016301214161F0BD0000000001400D
:104B20000004004000080040000C00400004014068
:104B3000004001400044014000480140001800408E
:104B4000001C00400020004010B5046A012301F061
:104B50001F018B409C4304628A40016A1143016239
:104B600010BD42EA032283680A4323F47F410A43CB
:104B700082607047826822F070020A4342F00701A7
:104B800081607047F0B5026ADFF860C0184F22F00C
:104B90000102DFF860E00262066A4268836926F07B
:104BA00002060D68B8428C6803EA0C0323F0030385
:104BB00044EA060445EA030501D0704505D1CB68F7
:104BC00024F00804234323F00404B84201D07045C4
:104BD00005D122F44076D1E9053233431A434260CD
:104BE0008561496841630462F0BD00008FFFFEFFEC
:104BF0000000014000040140F0B5026A194E1A4C51
:104C000022F01002DFF864E00262056A43688269FC
:104C100025F02005D1F808C0A0420F6802EA06027C
:104C200022F4407245EA0C1542EA072201D0704591
:104C300006D1CE6825F0800545EA061525F0400529
:104C4000A04201D0704507D1D1E9054623F4406365
:104C500043EA840343EA86034360826149688163CF
:104C60000562F0BDFF8FFFFE00000140000401401F
:104C7000F0B5026A194F1A4E22F48072DFF864E030
:104C80000262056A4368C26925F40075D1F808C05C
:104C9000B0420C6802EA070222F0030245EA0C2542
:104CA00044EA020401D0704506D1CF6825F40062C1
:104CB00042EA072222F48065B04201D0704507D154
:104CC00023F44052D1E9053642EA031242EA0613C0
:104CD0004360C4614968C1630562F0BD8FFFFEFF98
:104CE0000000014000040140F0B5026A124B114F70
:104CF00022F4805298420262046A4268C36924F432
:104D000000548E680D6803EA070323F4407344EAF5
:104D1000063443EA052302D0084DA84204D14D6968
:104D200022F4804242EA85124260C361496801640C
:104D30000462F0BDFF8FFFFE00000140000401404F
:104D4000F0B5026ADFF844C022F480320262056ADC
:104D50004268446D25F400350E8960450C4F0B68A0
:104D600004EA070445EA064543EA040302D0094C75
:104D7000A04204D14C6922F4803242EA042242600B
:104D80004365496881650562F0BD0000000001408F
:104D90008FFFFEFF00040140F0B5026ADFF844C057
:104DA00022F480120262046A4268436D24F4001403
:104DB0000E8960450C4F0D6803EA070344EA065468
:104DC00043EA052302D0094DA84204D14D6922F4DB
:104DD000802242EA8522426043654968C1650462D7
:104DE000F0BD000000000140FF8FFFFE0004014005
:104DF00010B5036A046A23F00A0324F00104046274
:104E000084690B4324F0F00141EA021181610362DD
:104E100010BD10B5036A23F0100303628369046AAE
:104E200023F4704324F0A00443EA0232826144EA8E
:104E30000111016210BD90F82410C90706D0016865
:104E4000836A4A6822F400321A434A6090F82410B8
:104E5000890706D50168C36A4A6822F480321A437A
:104E60004A6090F82410490706D50168036B4A6828
:104E700022F480221A434A6090F82410090706D5CC
:104E80000168436B4A6822F400421A434A6090F872
:104E90002410C90606D50168836B8A6822F4805203
:104EA0001A438A6090F82410890606D50168C36BFE
:104EB0008A6822F400521A438A6090F82410490646
:104EC00011D50168036C4A6822F480121A434A60C3
:104ED000016CB1F5801F06D10168436C4A6822F469
:104EE000C0021A434A6090F82410090606D50168EA
:104EF000826C486820F4002010434860704738B541
:104F000000250446C567FDF75DFF0346206800687D
:104F100000070BD56FF07E400090002220464FF432
:104F2000001100F0EFF908B1032038BD20206067C0
:104F300084F87050A067002038BD10B5806B002148
:104F4000A0F85A10A0F85210FFF725F810BD70B560
:104F5000846B00252168606FA66F8968090606D5F5
:104F6000212804D1A4F85250204600F03FF82068D0
:104F70008068400606D5222E04D1A4F85A50204657
:104F800000F024F8E06F40F01000E0672046FFF7E3
:104F900002F870BD10B5C169806BB1F5807F0DD08E
:104FA0000021A0F8521001688A6822F080028A600D
:104FB0000068016841F04001016010BDFFF7FCF995
:104FC00010BD10B5806BFFF7F8F910BD10B5016882
:104FD000202200230C6824F490740C6001688C6813
:104FE00024F001048C608267036610BD01682022F2
:104FF0000B6823F0C0030B604267704710B5816FE8
:10500000B0F85C202229016804D0886940F00800CB
:10501000886110BD496A436D11401980416D891C3A
:105020004165B0F85A10491EA0F85A10B0F85A104D
:105030000029EED10168202200230C6824F490742A
:105040000C6001688C6824F001048C608267036640
:10505000FFF716F910BD10B5816FB0F85C2022295A
:10506000016804D0886940F00800886110BD496A71
:10507000436D11401970416D491C4165B0F85A10DB
:10508000491EA0F85A10B0F85A100029EED1016854
:10509000202200230C6824F490740C6001688C6852
:1050A00024F001048C6082670366FFF7E9F810BD05
:1050B0002DE9F04104468068DFF818C2864F236866
:1050C000D4E90452E16928431E6800250A43834954
:1050D000104306EA0C0606431E604FF400422068A7
:1050E000E668436823F44053334343602368A6696A
:1050F000206AD3F808C030432CF4306606439E6023
:105100002068B8420AD1086810F0030052D0012884
:105110007BD002287AD003286ED186E0704B98426B
:105120000AD1086810F00C0079D004287BD0082838
:1051300077D00C2860D178E06A4B98420AD1086891
:1051400010F030006BD010286DD0202869D03028A6
:1051500052D16AE0644B98420AD1086810F0C0004E
:105160005DD040285FD080285BD0C02844D15CE06F
:105170005E4B98420DD1086810F440704FD0B0F5E6
:10518000807F50D0B0F5007F4BD0B0F5407F33D159
:105190004BE0574B98420FD1086810F4406009D09B
:1051A000B0F5806F3FD0B0F5006F3AD0B0F5406FEA
:1051B00022D13AE0012120E04E4B98420DD10868FF
:1051C00010F440502BD0B0F5805F2CD0B0F5005FCC
:1051D00027D0B0F5405F0FD127E0474B98420BD165
:1051E000086810F440401AD0B0F5804F1BD09042B0
:1051F00017D0B0F5404F18D01021E0694FF6EF7688
:10520000904238D109295DD202E00CE009E006E0C5
:10521000DFE801F00D1027582A5858582D000021BA
:10522000EBE70221E9E70421E7E70821E5E7FEF7DC
:10523000C5F901E0FEF7D2F90146D4F804004900AF
:1052400001EB5001B1FBF0F080B2A0F11001B142CE
:1052500038D84FF6F0732168C0F34202184010436B
:1052600024E026496068EBE7FEF7C8F9E4E76068E8
:105270004FF48031E4E7092924D2DFE801F0050882
:1052800019231C2323231F00FEF798F901E0FEF7E2
:10529000A5F90146D4F8040001EB5001B1FBF0F090
:1052A00080B2A0F11001B1420CD82168C8600AE0B8
:1052B00013496068F0E7FEF7A1F9EAE7606802EBDE
:1052C0005001EBE701250020206660662846BDE816
:1052D000F0810000F369FFEF0010014090380240B8
:1052E0000044004000480040004C00400050004096
:1052F0000014014000780040007C00400048E801B4
:105300000024F4002DE9F041984617460E46044665
:10531000069D08E0681C06D0FDF754FDA0EB0800D0
:10532000A8420BD855B12068C06936EA000017D0F2
:105330000020B842EED00020BDE8F0812168202096
:1053400000220B6823F4D0730B6021688B6823F074
:1053500001038B606067A067032084F87020EBE78F
:105360000120E6E70148FEF717BE00001C070020F9
:1053700070B5DDE90445068876BA0E80418849BAE1
:105380001180818849BA1980C18849BA2180008971
:1053900040BA288070BDFEE7090700284FEA116176
:1053A00004DB00F1E02080F80014704700F00F00EB
:1053B00000F1E02080F8141D704702E008C8121FB9
:1053C00008C1002AFAD170477047002001E001C1EE
:1053D000121F002AFBD1704770B5144C94F81414B6
:1053E00094F8E80381421FD104EB8000B4F89C12CA
:1053F000826C914218DB806DB4F89E12814213DBFF
:10540000D4F8E8510220C4F8E80194F80A0408B17D
:10541000FCF78CF9C4F8E85194F81404401CFF28F8
:1054200000DDFF2084F8140470BD0000400000205F
:105430000C4890F8742390F815148A4208D001465D
:1054400090F80934012B91F8071402D0032902D1F6
:1054500070470429FCD180F8152490F87503FBF7F8
:10546000E1BA0000400000202DE9F041214CB4F8E1
:10547000A212B4F86803814225D02046A4F868132C
:10548000B4F8A4220226D0F8E851B2F5C87F90F80B
:10549000080410D0C82A4FF0000716D0322A4FF067
:1054A00001011FD0642A0ED1C4F8E81188B100BFF1
:1054B000FFF7F0F90DE0C4F8E861B8B9C4F8E861A5
:1054C00009E0C4F8E851BDE8F0810028C4F8E871AB
:1054D000EED1C4F8E87194F80A040028F1D0FCF782
:1054E00025F9EEE70028C4F8E811E7D0FFF7D2F974
:1054F000E4E7000040000020024901EB8000006C5E
:10550000704700004000002070B542F6F8213222BA
:10551000026000234360FA24C0E902412E250161A4
:105520003D2641614D227123183080E86200C0E9B8
:10553000032370BD0F22F0B514216423C0E91012BB
:1055400073278164C0E90C7346278363C3634FF4F8
:1055500096752324C0E90837C0E90A128260162331
:105560001927C1640221C460C0E900354FF4FA76FE
:105570000665C0E91561C0E90624C0E90475F0BDFF
:105580002DED028BFDF72CFCFFF7FAF9FFF754F82D
:10559000FFF72AF8FFF75EF9FFF7DCF8FFF70CF9E1
:1055A000FFF748F8FEF772FFFEF7FAFFFBF7EEFA97
:1055B0000B4CB7EE000B84ED040BFBF7C5FCB0EE13
:1055C000088B00BF94ED040BB4EE480BF1EE10FA1B
:1055D000F8D1FBF7B9FC6420FDF7EAFAF2E7000026
:1055E00080040020F0B50B78002A04464FF000003C
:1055F00003F003074FEA930501DD012301E0D20F19
:105600005300144A4FF0FF3602EB8702B442D25CDB
:1056100018D0ACB1012C17D00024224207D0AC071F
:1056200001D5540703D4EC0602D5940600D5002218
:1056300012F0380F43EA82030B7007D03046F0BDFA
:105640003F24EAE73824E8E70724E6E75107F6D0E5
:105650000120F0BD145800080849B1F8B622FF2A0D
:1056600001D3002205E0521CB2F5803F01DB4FF66A
:10567000FF72A1F8B622A1F8B802704740000020DE
:1056800038B5048800220A480823C2600460036118
:10569000826002750020074A0B5C1354401C0828E6
:1056A000FADB044A6B4602490348FCF725FD38BD86
:1056B000780600200000002050060020094991F8DB
:1056C0008A23FF2A01D3002203E0521CFF2A00DDB7
:1056D000FF2281F88A23FF2800D9FF2081F88B035D
:1056E00070470000400000200CA10D4A30B409684A
:1056F00011700B0A53700C0C947000215418435C09
:10570000491C2829E370F9DB0D2082F82B0030BCFE
:1057100003492C220348FEF705BE000068647200AE
:10572000200500201C07002007B582B0054802A90B
:105730000346CDE90002044803AAFFF7EFF805B0DD
:1057400000BD00001258000828580008284930B54C
:105750000A4691F8EA434FF48035681EB2F8643384
:105760001CB991F80024012A24D0012C29D0B1F8C9
:1057700060239632AA4200D30246A1F86023B1F812
:105780006223521DAA4200D3024690B2A1F86203DE
:1057900091ED080BB5EEC00BF1EE10FA16D040F209
:1057A00006329FED140B81ED080BA1F81C23A1F824
:1057B0001E0319E05A1CAA4200D30246A1F8642332
:1057C00012E00020A1F86003A1F8620340F2053066
:1057D000B7EE000B81ED080BA1F81C03A1F81E33F6
:1057E000B1F86003A1F8200381F8004430BD000047
:1057F0004000002000000000000000005FF00002F8
:1058000050F8223041F82230521C092AF8DB704748
:105810007047000000042000100008000201000092
:1058200000000000640000001903000610160006C6
:10583000101600000000000000000102030406072B
:105840000809000000000102030400006C58000871
:105850000000002040000000BA530008AC580008C7
:1058600040000020C00B0000CA53000800000000E8
:105870000000000000000000000000000000000028
:105880000000000000000000000000000000000018
:1058900000000000686472000000000001000000C9
:0C58A00010000000000000000024F400D4
:04000005080001F9F5
:00000001FF
