:020000040800F2
:10000000600900200D02000899410008A13B00088A
:100010003D410008850A0008874D000800000000E7
:100020000000000000000000000000001543000870
:10003000D10B000800000000F5410008174300083C
:1000400027020008270200082702000827020008EC
:1000500027020008270200082702000827020008DC
:1000600027020008270200082702000827020008CC
:100070002702000827020008150B000827020008C5
:10008000270200082702000841090008270200088B
:10009000270200082702000827020008270200089C
:1000A000270200082702000827020008270200088C
:1000B0000D44000827020008270200082702000854
:1000C000270200082702000827020008270200086C
:1000D000270200082702000827020008554D0008E3
:1000E000270200082702000827020008270200084C
:1000F000270200082702000827020008270200083C
:10010000270200082702000827020008270200082B
:10011000270200082702000827020008270200081B
:10012000210B000827020008270200082702000808
:1001300027020008270200082702000827020008FB
:1001400027020008270200082702000827020008EB
:1001500027020008270200082702000827020008DB
:1001600027020008270200082702000827020008CB
:1001700027020008270200082702000800000000EC
:1001800027020008270200082702000827020008AB
:10019000270200082702000827020008270200089B
:1001A000270200082702000827020008270200088B
:1001B000270200082702000827020008270200087B
:1001C000270200082702000800000000270200089C
:1001D000270200082702000827020008270200085B
:1001E000270200082702000827020008270200084B
:1001F0002702000827020008DFF80CD000F08AF878
:100200000048004751500008600900200648804718
:1002100006480047FEE7FEE7FEE7FEE7FEE7FEE7EB
:10022000FEE7FEE7FEE7FEE7B9430008F901000834
:100230002DE9F05F0546002092469B46884606461B
:10024000814640241BE0284641464746224600F0AE
:1002500050F853465A46C01A914110D311461846D9
:10026000224600F037F82D1A67EB01084F46224668
:100270000120002100F02EF817EB00094E41201E4E
:10028000A4F10104DFDC484631462A464346BDE876
:10029000F09FD2B201E000F8012B491EFBD270475B
:1002A0000022F6E710B513460A4604461946FFF742
:1002B000F0FF204610BD30B505460020034600E0A3
:1002C0005B1C934205D2EC5CC85C201A01D1002C67
:1002D000F6D130BD202A04DB203A00FA02F10020DA
:1002E00070479140C2F1200320FA03F31943904074
:1002F0007047202A04DB203A21FA02F000217047DF
:1003000021FA02F3D040C2F120029140084319467D
:1003100070470000064C074D06E0E06840F001031E
:1003200094E8070098471034AC42F6D3FFF768FF13
:10033000E0520008005300082DE9F041444D844686
:100340001646284600F11403B5F8B04100F5A9722D
:10035000B0F8B201A4F54077053F1FD0B4F5017F96
:1003600035D0B4F5007F39D00127A4F5007EBEF565
:10037000837E1DD0A4F50071013936D0A4F500713B
:1003800002393DD0A4F50071033945D0B4F57A7F28
:1003900057D0032085F87802BDE8F081022785F860
:1003A0007872A5F8BA0100240C80B5F8B40108E011
:1003B000092085F878020F800A20B5F8B241B4FB15
:1003C000F0F030800988BDE8F04100F043B8062025
:1003D00085F87802BDE8F04104F0CABE082185F82E
:1003E0007812BDE8F04104F0A1BE042185F878122E
:1003F000040A1E2C02D9002004F05AFE204607E011
:1004000085F8787204F054FEB5F84C010028C3D189
:10041000BDE8F04104F060BE6422052185F8781241
:100420005043B0F5803F01DB4FF6FF70084A80B2C1
:10043000ACF80000BDE8F0411C3202F5D07104F0C8
:10044000C9B9072185F87812BDE8F04104F05ABE19
:100450002800002010B51C8814805C8854809C887B
:10046000948022F811001088188050885880908855
:10047000988010BD2DE9F04FDFF82094022600246B
:100480004FF0030B48462DED028B81B000F11101B6
:1004900000F24D2A00910127B9F83E01B9F8421146
:1004A000884239D0B9F84001B9F84411884233D0B4
:1004B0000099504600F0B6FBB9F84001A0B10228FF
:1004C00012D0012810D089F86542032889F86442C7
:1004D00019D089F8634289F861B2B9F83E11A9F8D8
:1004E0004211A9F844013AE089F8654289F864426A
:1004F00089F8634289F861B201B0BDEC028BBDE8B6
:10050000F04F04F08BBD89F86172B9F83E11A9F87B
:100510004211A9F844011EE0E04A192599F863C286
:10052000BCF1010F92F865E2B2F8DC11B2F83C01BF
:10053000B2F83A3107D0BCF1020F7CD18B420CD01B
:10054000012879D009E099F86422012A10D0022A02
:1005500071D189F8644289F86362A9F8AA7104F03C
:1005600015FD01B0BDEC028BBDE8F04F04F0F2BC0C
:100570008B4200D060B19FEDCA8BC84ABEF1060F16
:10058000B2F8E02157D2DFE80EF0E41499F2F0EF70
:10059000A9F8DC31504689F8654289F8646200990F
:1005A00000F040FBA9F8AC7121463846A9F8AE41ED
:1005B000F7E0012A4C467BD88B4201D0022804D0B8
:1005C00084F86572A4F8AAB1F4E00520A4F8DC313F
:1005D00084F86502002004F033FD00EE100AB8EE46
:1005E000C00B84ED120BB4EEC80BF1EE10FA0CD276
:1005F000B5EEC00BF1EE10FA05DBBCEEC00B10EE51
:10060000100AC0B202E0002000E0FF2000F070FA03
:10061000022004F015FD90FBF5F10020A046C4F87F
:10062000881004F00DFD0446012004F009FD002CA3
:10063000014608DB01E08CE0E0E06FF00040221AA8
:10064000914208DB06E004F10040814202DD4FF0F8
:10065000004000E0601A6FF0004280FB054000217E
:10066000121B814102DA6FF0004407E04FF00041B5
:10067000611A70F1FF3001DA4FF00044022004F0FB
:10068000DFFC00EE100A854A31463846B8EEC01B42
:1006900000EE104AB8EEC00B80EE012B88ED142B53
:1006A000A8F8E051A8F8AC71A8F8AE61EEE0FFE759
:1006B000521E00D50022A9F8E02180E0012A4C4614
:1006C0004CD8D4F88800002806DD012004F0B8FCDE
:1006D00094F8501288420FDB002000F009FA0099CC
:1006E000504600F09FFA84F865B2A4F8E05194F8FF
:1006F000470284F873023FE084F8656294ED120BC0
:1007000094ED141B30EE410B84ED120BB4EEC80BCC
:10071000F1EE10FA0CD2B5EEC00BF1EE10FA05DBDB
:10072000BCEEC00B10EE100AC0B202E0002000E0E8
:10073000FF2000F0DDF9D4F888004FF00041884236
:1007400002DCC4F8881002E0401EC4F88800A4F857
:10075000E05101B0BDEC028BBDE8F08F521E00D518
:100760000022A9F8E021F4E730E01CE0FFE799F867
:1007700047024D46052806D001B0BDEC028BBDE80E
:10078000F04F04F0BBBB85F86542504685F86462C3
:10079000009900F047FAA5F8AC7138462146A5F853
:1007A000AE413E4A72E0012A4846D7D880F86572C9
:1007B000A0F8AAB16420A9F8E05100F099F901B0BD
:1007C000BDEC028BBDE8F04F04F0E0BB012A4C46C3
:1007D000C4D884F8656294ED120B94ED141B30EECE
:1007E000410B84ED120BB4EEC80BF1EE10FA9FD260
:1007F000B5EEC00BF1EE10FA98DB91E7A9F8DC3109
:10080000BB463A464846FA2789F863224FF0320C35
:10081000C9F858C042F6F8214FF07108C0E91747EF
:10082000C9F864107030C9F868102E23C9F88080A8
:100830003D274FF04D0CC9F86C1080E88A109FEDF1
:100840001A0BA9F8E041BEF1040F89ED120B89EDF6
:10085000140B846189F8642285D0104C042089F837
:1008600065021234A9F8AA612046A9F8E05155465C
:1008700000F0BAF920782870642000F039F9074AAE
:100880005846A9F8ACB10146A9F8AEB101B0BDEC2B
:10089000028BBDE8F04F04F099BC00002800002056
:1008A0000000000000007040000000000000000098
:1008B00010B50146806B026C12F0500F05D0026C2F
:1008C000D20626D501F00BFA10BD016C41F400717F
:1008D000016401688A6812F0405F17D18269AAB981
:1008E000CA6A12F4700F02D08A6852050ED44A68A0
:1008F00022F020024A60016C21F480710164016CD5
:10090000C90403D4016C41F00101016401F0DCF978
:1009100010BD806BC26C0846BDE81040104710B592
:10092000806B40210164416C41F00401416401F09D
:10093000D6F910BD10B5806B01F0D0F910BD0000E4
:10094000014801F0CDB900004C0300204A496FF086
:10095000706210B5D1F8043323F44033C1F8043386
:10096000D1F8043344682343C1F8043301684B6869
:1009700023F480734B60016803694C6844EA0323E5
:100980004B6001684B6823F040734B6001688468DA
:100990004B6823434B6001688B6823F400638B60D2
:1009A0000168C4688B6823438B60816AD142016807
:1009B0008A6822F070628A6001680DD0836A8A6852
:1009C0001A438A6001688A6822F040528A6001688E
:1009D000C36A8A681A4302E08A6822F040528A6039
:1009E00001688A6822F002028A60016882698B6865
:1009F00043EA42028A6090F820100029016811D071
:100A00001E4A4B6843F400634B6001684B6823F453
:100A100060434B600168446A4B6802EB4432134305
:100A20004B6003E04A6822F400624A600168144B9C
:100A3000CA6A22F47002CA620168848BCA6A03EB34
:100A400004531A43CA6201688A6822F400728A60F9
:100A5000016890F830208B6843EA42228A6001687E
:100A60008A6822F480628A60016840698A6842EA82
:100A70008020886010BD00000020014000E0FFFFE2
:100A80000000F0FFFEE7000004480C2110B502F062
:100A900027FEBDE8104000F023B800003404002019
:100AA00010B5007888B0642800D964200B4964230D
:100AB0006024CA68002100944243B2FBF3F00C2288
:100AC000CDE9010105480491694602F058FD03484B
:100AD0000C2102F005FE08B010BD00003404002017
:100AE00008B564208DF800006846FFF7D9FF08BDFF
:100AF0000649642881F8500200D36420C0F16400E4
:100B000081F858020248FFF7CBBF00002800002000
:100B100080020020014801F0C5BA00000005002055
:100B2000014801F0BFBA00009403002001681823B7
:100B3000CAB2103AB2FBF3F2054B6FF30901032A74
:100B40009B5CC36500D9091D81650846704700009C
:100B5000C052000810B583694FF0C074826A014624
:100B6000002053B1B3F5005F15D072B1012A0CD04B
:100B7000022A0AD0032A09D104E01AB1012A06D0B8
:100B8000022A03D1C96AC90100D5012010BDC96A72
:100B9000A142FAD010BD002AF7D0012AF2D0022AD1
:100BA000F3D0032AF3D010BD30B50468256825F4CE
:100BB00080252560046863608368402B036803D048
:100BC00099600068C26030BD9A600068C16030BD45
:100BD000704770470121017002480A46C90201F0BE
:100BE000E6BC0000000402400121017002480A46F0
:100BF000490301F0DCBC0000001402400021017038
:100C000002480A464FF4006101F0D1BC00040240E2
:100C10000021017002480A464FF4005101F0C7BCA0
:100C20000014024070B505460C460846FFF7F0FF79
:100C30002078287070BD70B505460C46084600F057
:100C400003F82078287070BD0121017070470021E1
:100C500001707047704700002DE9F041164F0326E0
:100C60001648321F322342F6F82100247E70FA25FE
:100C70003E702E26C0F884203D2283654D23C46536
:100C800071240566082541668166C166C0E91C16A7
:100C900000F1780181E81C0080F85E52FFF7F4FE55
:100CA000FFF797FF00F0B2FE03F00AF803F012F826
:100CB000BDE8F04103F014B8000000202800002037
:100CC000F8B5774C022601254FF0FF32002094F84A
:100CD0005B1284F8471294F9E21101EB410104EB35
:100CE0004101B1F86C31A4F83031B1F86E31A4F89B
:100CF0003231B1F87011A4F8341194F9E31104EB16
:100D00008101B1F87831A4F83631B1F87A11A4F83C
:100D1000381194F85C1284F8481294F9E41104EB49
:100D20008101B1F88031A4F83A31B1F88211A4F808
:100D30003C1194F9E51104EB410191F8413284F83A
:100D4000ED3191F8421284F8EE1194F9E61104EBBA
:100D50008101B1F88831A4F83E31B1F88A11A4F8C4
:100D60004011C4F8842094F86012E9B194F862024A
:100D700008B102F0BFFF94F8670208B103F0E0F990
:100D800094F8690208B100F03FFC94F8720278B35D
:100D90004349642794F871020A31012829D00228B6
:100DA0003CD003284BD139E084F8605284F8625279
:100DB000A4F8DC01A4F8DE0184F8740284F861620E
:100DC00084F8675284F8665284F86952C4F88C003B
:100DD00094F86812042902D0042184F8681284F877
:100DE0007252032184F8750284F8760284F8711235
:100DF00025E094F8760258B194F8482294F87532B8
:100E00009A4211D1401E00D5002084F8760216E0E7
:100E1000244884F87162FFF71AFF10E094F8480242
:100E200094F8752290420AD0684684F87152FFF710
:100E300002FF94F8480284F8750284F8767294F8F8
:100E40004D1209B1012300E0002317484278012A1E
:100E50000ED00025AB4203D0032A01D084F84C12F7
:100E600001B10121417094F85D1219B1012202E033
:100E70000125EFE70022017801290ED000239A42D4
:100E800005D0032903D094F85D1284F84C1294F82D
:100E90005D1201B101210170F8BD0123EFE70000EF
:100EA0002800002079020020000000202DE9F04FEA
:100EB000FE4C85B0012540F2022920464FF6FF7B0B
:100EC000022694F84F12032784F849124FF47A7AD5
:100ED00094F85E22B0F8DA01092A4DD2DFE802F078
:100EE0004C056311631B223C4600062184F85E1208
:100EF0004FF40070A4F8A4014FF4C872A4F8A6211E
:100F000051E0042802D004F073F94CE084F85E62EA
:100F1000A4F8A4A10FE084F85E52A4F8A491A4F868
:100F2000A65140E0012801D041B112E0072084F829
:100F30005E02A4F8A491A4F8A66134E094F85F22BC
:100F4000012A06D1401CB0F5803F00D35846A4F8D2
:100F5000DA0184F85F1226E084F85E720020A4F8BB
:100F6000A401A4F8D601A4F8D8011CE009209FED43
:100F7000D00B84F85E0214E094ED100BB2EE041B6B
:100F8000B4EE410BF1EE10FA07D1052084F85E02B1
:100F9000A4F8A4A1A4F8A67105E0B7EE001B30EEFA
:100FA000010B84ED100BC448C449A0F151020B465B
:100FB000CDE90010911E553803F0EFF8BE49873196
:100FC00091ED040BBDEEC00B10EE100A012834D0D9
:100FD00002284FF0000039D02118401C0A2891F84F
:100FE000F92181F8EF21F7DBB04CB349413994F88E
:100FF0005022881E84F84A22831ECDE90001021F78
:10100000811F393003F0ACFE94F8770238B32146E3
:1010100094F8780201F1140340F2053E01F5A9723B
:1010200001F11C0C092801F5DE7172D2DFE800F035
:10103000F31D23292F357B9DC000002023180A5C57
:10104000401C0A2883F8EF21F8DBCDE70A182318A3
:10105000401C127E0A2883F8EF21F7DBC4E793488F
:1010600080F8775280F87872DAE004AA03A902A81F
:10107000FFF762F9D4E004AA03A902A800F010FC6B
:10108000CEE004AA03A902A802F08CFDC8E004AADD
:1010900003A902A803F0B0F8C2E0B4F8B0017045AB
:1010A0007ED0B0F5017F7CD0B0F5007F23D0A0F5D5
:1010B0004076063E76D0A0F50072013A0CD0484545
:1010C00021D100BF84F87852B4F8B20103F0F0FFE8
:1010D000B4F84C0160B1A3E0042084F87802B4F8BD
:1010E000B201040A1E2C02D9002003F0E1FF2046C1
:1010F00003F0F2FF94E0082084F878026CE000BF6F
:10110000FFF7A8F98CE0A0F50072033A24D164221D
:1011100079E080E080B2624603F05CFB80E000BFD3
:1011200084F878727CE0B4F8B001704544D0B0F532
:10113000017F17D0B0F5007FDDD000BFA0F540766D
:10114000063E52D0A0F50072013AC5D04845B9D04C
:10115000A0F50072033A52D05045E1D1072084F83F
:1011600078021CE004F004F85AE0B4F8B0017045CD
:1011700022D0B0F5017F34D0B0F5007FBBD0A0F510
:101180004076063E31D0A0F50072013AA4D0484521
:1011900098D0A0F50072033A31D05045C0D102E09A
:1011A0000AE01EE021E0B4F8B20103F0ABFF37E043
:1011B000B4F8B001704509D184F878620021B4F820
:1011C000B201A4F8BA01B4F8B40199E7B0F5017F0F
:1011D00007D0B0F5007FB1D1B4F8B20103F0A6FF9B
:1011E0001EE0062084F87802BCE7092084F8780223
:1011F000B4F8B2110A20B1FBF0F0012180E705201C
:1012000084F878026422B4F8B2015043B0F5803F0C
:1012100080DB58467EE704AA03A902A803F0B4FDC8
:10122000224890F8E71159B9B0F85211A0F890117E
:10123000B0F85411A0F89211B0F85611A0F894111A
:1012400090F8E81139B9B0F84611A0F89611B0F845
:101250004811A0F8981190F8E91139B9B0F84E1179
:10126000A0F89A11B0F85011A0F89C1190F8EA116A
:1012700039B990F8031280F8451290F8041280F8FA
:10128000461290F8BA1180F84B1280F85B1290F871
:10129000E221B0F85211E2B35FF0000202EB420229
:1012A00000EB4202A2F86C110AE0000028000020C6
:1012B000000000000000000021020020B4520008DD
:1012C00090F8E221B0F85411F2B3002202EB42028E
:1012D00000EB4202A2F86E1190F8E221B0F856112C
:1012E0009AB3002202EB420200EB4202A2F8701114
:1012F00090F8E21151B3002180F8E21190F8E32157
:10130000B0F84611F2B3002200EB8202A2F8781185
:1013100000E077E090F8E321B0F848119AB300229A
:1013200000EB8202A2F87A1190F8E31161B3002178
:1013300080F8E31190F85A1280F85C1290F8E421DA
:10134000B0F84A11EAB302E05EE05FE060E000223C
:1013500000EB8202A2F8801190F8E421B0F84C1161
:1013600082B3002200EB8202A2F8821190F8E4110D
:1013700049B3002180F8E41190F8E51190F80322B8
:10138000E9B302E046E047E048E0002100EB41011C
:1013900081F8412290F8E52190F8041282B30022EE
:1013A00000EB420282F8421290F8E51149B30021A5
:1013B00080F8E51190F8E621B0F84E1182B30022D2
:1013C00002E02EE02FE030E000EB8202A2F888116C
:1013D00090F8E621B0F850117AB3002200EB8202B7
:1013E000A2F88A1190F8E61141B3002180F8E611C5
:1013F00090F8591280F85D1205B0BDE8F08F16E044
:1014000017E018E0012249E701225FE7012269E7BE
:10141000012171E7012277E7012281E7012187E7B6
:101420000DE0012294E701229CE70121A2E70121BE
:10143000ACE70122B4E70121BAE702E003E00122B0
:10144000BEE70122CAE70121D0E700002DE9F04FF5
:1014500047480123002495B080F8E731B0F890C1E7
:10146000B0F89251B0F8941180F8E74180F8E83173
:10147000B0F89661B0F8987180F8E84180F8E931E9
:101480006CF30F02B0F89AC1214665F31F429346F0
:10149000B0F89C2180F8E94180F8EA3166F30F0842
:1014A00090F8455290F8463280F8EA416CF30F0903
:1014B00090F9EB4167F31F4862F31F4990F85062BF
:1014C00065F3070AB0F8AA5104EB840290F84F4282
:1014D000C44690F84B825200CE4663F30F2A8B1815
:1014E00000EB8303D3F8B87001AB43F82170491CBB
:1014F0000A29F4DB019F4FEA1B41A0F858714FEA1B
:101500001E4BA0F85A81E1460B91A0F85C110AF03D
:10151000FF01A0F85E51CAF3072AA0F86041A0F8C5
:101520006261A0F864C1A0F866B10D91A0F86811DD
:101530001049A0F86AA1A1F1D5000C9102F04AFE71
:101540000C9803F025FE0B48A3300780A0F802801A
:101550000B998180C58004814681A0F80C90A0F889
:101560000EB00D990182A0F812A015B0BDE8F08F61
:101570002800002055020020214910B501F5057012
:1015800003F08EFE1E48903890F8EC1149B900BF68
:1015900000EB8102D2F89030C2F80831491C0A29C8
:1015A000F6DB184A002100BF00EB810402EB810347
:1015B000491CD4F890400A295C61F5DB5FF000011A
:1015C00090F8EB3100EB8102D2F890209BB1002320
:1015D00003EB830301EB4303491C00EB83030A295C
:1015E000C3F8B820ECDB90F8EB1131B15FF00001EB
:1015F00080F8EB1110BD0123EAE70121F8E70000B4
:10160000B8000020F80200202DE9F04FA24C89B06C
:101610000125234603F24E2094F868C203F24F22BC
:10162000009003F10B0BD3F88C00002103920327E9
:1016300093F86EA2421E93F86A920226EB07BCF161
:10164000070F46D2DFE80CF04504F465F4BCF40063
:10165000BAF1010FD4460AD0BCF1020F10D0BCF190
:10166000030F16D0BAF1040F33D1A8B3BEE000289F
:1016700070D184F8701284F86E1284F86862CCE03D
:10168000002867D184F86E7200F03EFAC4F88C002E
:10169000C3E000285ED184F86E5200F035FAC4F839
:1016A0008C0094F85002512894F8700207D2012857
:1016B0000FD0502084F87052FFF71AFA03E0022886
:1016C00007D084F8706204A9009A5B46039800F082
:1016D000E5F909B0BDE8F08FFFE784F86F1284F8F0
:1016E0006E6200F011FA6D4AC4F88C00511E481E5B
:1016F00000F09CF994F8540284F84E0294F85202D7
:1017000084F84F02E5E7C4F88C30E2E7C4F88C2097
:10171000DFE7D4F88410042011B30229D9D10522BF
:1017200084F86822B9F1040F05D084F86A0200F049
:10173000EBF9C4F88C0094F86602032894F86D0263
:1017400009D00128C5D0554884F86D52C01CFFF758
:1017500041FABEE74AE00228BBD084F86D622AE075
:10176000BAF1040F84F8685205D084F86E0200F0D4
:10177000CBF9C4F88C0094F86602032811D0042831
:101780001BD000BF94F850023C2816D894F86F0282
:1017900001289ED05FF03C0084F86F52FFF7A8F953
:1017A00097E794F850025028ECD894F86F02032879
:1017B0008FD084F86F725020F0E784F86F6288E76A
:1017C000B9F1010FCC460AD0BCF1020F11D0BCF127
:1017D000030F2FD0B9F1040F94D150B306E028B90C
:1017E00084F86A12062084F8680216E098428DDCBC
:1017F00089E70028FAD184F86C1284F86A7200F044
:1018000083F9C4F88C0094F86602032894F86B02FC
:1018100006D001289DD084F86B5200F053F958E7A8
:10182000022896D0002084F86B62FFF761F9F4E794
:101830002FE00AE00028D9D184F86B1284F86A52AC
:1018400000F062F9C4F88C003DE784F86D1284F86A
:101850006A6200F059F9104FC4F88C0094F86602DF
:101860000E37032894F86C0208D0012898D007F5A9
:10187000127084F86C52FFF7C1F903E002288FD090
:1018800084F86C6204A9009A3B46039800F028F99A
:101890001FE784F868721CE7280000207C02002003
:1018A0002DE9F0414A4D00270F8016462A4602F1E5
:1018B0001403B5F8B04102F5A972A4F5407CBCF15F
:1018C000050C1FD0B4F5017F36D0B4F5007F3AD0B7
:1018D0000127A4F5007CBCF5837C1ED0A4F5007123
:1018E000013939D0A4F50071023942D0A4F5007154
:1018F00003394CD0B4F57A7F60D0032085F87802A4
:10190000BDE8F081022085F87802B5F8B201A5F8AB
:10191000BA010F80B5F8B40108E0092085F8780213
:101920000F800A20B5F8B241B4FBF0F0308009888E
:10193000BDE8F041FEF78EBD062085F87802BDE8CF
:10194000F04103F015BC082085F87802B5F8B20123
:10195000BDE8F04103F0EABB042085F87802B5F851
:10196000B201040A1E2C02D9002003F0A1FB20467C
:1019700009E085F87872B5F8B20103F099FBB5F883
:101980004C010028BCD1BDE8F04103F0A5BB052106
:1019900085F87812B5F8B21164225143B1F5803F51
:1019A00001DB4FF6FF710A4A8BB20380BDE8F041BC
:1019B0001C32184602F5D07102F00CBF072085F8E2
:1019C0007802B5F8B201BDE8F04103F09BBB00001E
:1019D0002800002010B50023037001240B70147040
:1019E0001A46A103074C204600F0E1FD06480022FC
:1019F000211500F0DCFD01222046BDE81040D10396
:101A000000F0D5BD001002400004024008B5684651
:101A100000F002F808BD00000021017002480A46EB
:101A20004FF4004100F0C3BD0010024010B5002487
:101A3000047001230B7013702246084C9903204652
:101A400000F0B5FD01220648910200F0B0FD012230
:101A50002046BDE81040D10300F0A9BD00100240AF
:101A60000004024010B50123037000240C70094CDF
:101A7000990313701A46204600F099FD064800228B
:101A8000211500F094FD01222046BDE81040D1034D
:101A900000F08DBD00100240000402402DE9F0412D
:101AA0001C4615469A1C0E46591C07462046FFF751
:101AB00091FFA07828702078387060783070BDE889
:101AC000F0810000044810B5FFF7A6FF034890F826
:101AD000551280F84E1210BD7D0200202800002013
:101AE0002DE9F0411C4615469A1C0E46591C074626
:101AF0002046FFF7B7FFA07828702078387060780C
:101B00003070BDE8F08100001448014690F86A2268
:101B100091F86612042A0FD0022A0FD0032A09D0A6
:101B2000012A15D090F86E02042815D002280BD097
:101B3000032801D00F207047142070470329FBD0E1
:101B400090F84702012801D0642070477320704745
:101B50000329F1D123207047462070472800002038
:101B600070470000F8B50025009590F83C20012A48
:101B700018D0012280F83C200A6807234E4C0668E2
:101B8000092A1AD90A3A02EB4207F268BB409A4383
:101B9000F2600E680268A64206D10B7AD66846EA61
:101BA000036308E00220F8BD0A3E8B68D76806EBA5
:101BB0004606B3403B43D3600EE002EB4207326976
:101BC000BB409A43326103680E788A681F6906EB4E
:101BD0004606B2403A431A614A681F23072A13D2C5
:101BE0000668521E02EB8207726BBB409A43726317
:101BF00003680E790A88761E5F6B92B206EB860642
:101C0000B2403A435A6327E006680D2A12D2D21F27
:101C100002EB8207326BBB409A43326302680E7953
:101C20000B88F61F176B9BB206EB8606B3403B434F
:101C3000136311E00D3A02EB8207F26ABB409A434C
:101C4000F26202680E790B880D3ED76A9BB206EBF2
:101C50008606B3403B43D362184A0368934208D1D7
:101C60000B68122B05D1D2F8043343F48003C2F879
:101C70000433036893421AD10B68A34201D0112B9D
:101C800015D1D2F8043343F40003C2F804330968D1
:101C9000A1420CD10A490B4A0968B1FBF2F101EBF0
:101CA0008101490000E0491E00910029FBD180F824
:101CB0003C500020F8BD0000120000100020014040
:101CC0002400002040420F0000680349884201D1EF
:101CD000FFF752BC7047000000200140704770477A
:101CE00070B50446006801684268C1F34001C2F360
:101CF000401251B34AB3216CC90603D4216C41F49C
:101D000000712164816811F0405F17D1A169A9B900
:101D1000C16A11F4700F02D0816849050ED4416880
:101D200021F020014160206C20F480702064206C40
:101D3000C00403D4206C40F0010020642046FFF76B
:101D4000C3FF21686FF012000860206801684268D4
:101D5000C1F38001C2F3C01289B382B3216CC906FA
:101D600003D4216C41F400512164816811F4401FB7
:101D70001ED1816B11F4401F02D08168490517D430
:101D80004168490514D4816811F0405F10D1A16900
:101D900071B9416821F080014160206C20F48050CD
:101DA0002064206CC00503D4206C40F00100206446
:101DB0002046FFF7D5FE21686FF00C000860206810
:101DC0000168436811F0010FC3F380110ED069B1AF
:101DD0000068C0070AD0206C40F4803020642046A0
:101DE00000F046F821686FF0010008602068016883
:101DF0004268C1F340110029C2F380620DD0002A6D
:101E00000BD0616C6FF0200541F002016164056048
:101E10002046FFF764FF2068056070BD70B50400C0
:101E20004FF0000503D0206C002610B107E0012020
:101E300070BD204600F01EF8666484F83C60206C9B
:101E4000C00610D4206C20F4885040F002002064BA
:101E50002046FEF77BFD6664206C20F0020040F017
:101E60000100206400E0012584F83C60284670BD34
:101E700070470000F0B587B0064614216846FEF7AB
:101E80000FFA30493068884259D12F48016841F42F
:101E90008071016000682C4900F48070059014394D
:101EA000086840F004000860086800F0040005902D
:101EB000086840F001000860086800F00100059023
:101EC000086840F00200086008680324002569469D
:101ED00000F00200059033208DE831001B4800F02F
:101EE00073FAF02069468DE83100194800F06CFA69
:101EF000022069468DE83100164800F065FA164C5C
:101F000016480115C4E900058715A5600B01C4E951
:101F1000035182142046C4E907756562C4E90523AC
:101F200000F090F908B1FEF795FE0022B46312208C
:101F30001146A66300F0A0FB122000F08FFB07B053
:101F4000F0BD00000020014044380240000802407B
:101F5000000002400004024094030020106402408C
:101F6000F8B50D4604460021009190F83C00012888
:101F700007D0012084F83C0020688368DB0702D08A
:101F800011E00220F8BD8668364B46F001068660F7
:101F900035480068B0FBF3F000EB400000E0401E65
:101FA00000900028FBD120688368DB0758D0236CA1
:101FB00040F20166B34343F48073236440684005F4
:101FC00005D5206C20F4005040F480502064206C33
:101FD000C00404D5606C20F00600606400E0616419
:101FE0006FF0220084F83C10A36B2049D963A36BE7
:101FF0001F491964A36B1F49D964216808602068D0
:10200000416841F0806141602068816841F48071DD
:10201000816021681346A06B2A464C3100F084F998
:102020001549D1F80403C006206811D0884207D1B1
:10203000826812F0405F03D1826842F08042826081
:10204000D1F80403C0060BD40C492068884207D19C
:10205000816811F0405F03D1816841F08041816067
:102060000020F8BD40420F0024000020B108000805
:10207000350900081F090008002001400022014026
:1020800090F83510022903D0802141650120704766
:10209000052180F835100068016821F00101016018
:1020A000002070472DE9F84304464FF00009644BC7
:1020B0000820CDF800904FF41652A56D94F85C10EE
:1020C0001B682E68B3FBF2F700FA01F131420FD022
:1020D00021680A6852070BD50A6822F004020A60D8
:1020E00094F85C108840A860606D40F00100606565
:1020F00094F85C104FF0010808FA01F0304208D063
:1021000021684969090604D5A860606D40F00200A5
:10211000606594F85C1004208840304208D0216843
:102120000968890704D5A860606D40F00400606507
:1021300094F85C1010208840304218D0216809685B
:10214000090714D5A86020680168490304D5006810
:10215000000308D5A16C07E00168C90503D4016834
:1021600021F008010160216C09B12046884794F8EC
:102170005C1020208840304231D021680968C906AF
:102180002DD5A86094F8350005282068016806D090
:10219000490347D5006800031DD4616C1CE021F0A1
:1021A000160101602068416921F080014161206CC5
:1021B00008B9A06C20B12068016821F00801016015
:1021C00094F85C303F229A40AA6084F8349084F8F6
:1021D0003580216D1FE0E16B09B120468847606DB5
:1021E00000282BD0606DC00714D0052084F835007E
:1021F0002068016821F0010101600098401C0090F6
:10220000B84203D820680068C007F6D184F834903B
:1022100084F83580E16C002910D001B02046BDE87B
:10222000F04308470168C905D5D4036823F01003BB
:10223000036084F8349084F83580CCE7BDE8F883F7
:10224000240000202DE9F047044600F0B5F90546CA
:1022500064B14FF0000984F83490022184F83510FD
:102260002068016821F0010101600EE00120BDE855
:10227000F08700BF00F0A0F9401B052805D92021F8
:102280006165032084F83500F1E720680068C00725
:10229000F0D1D4E90020D4E90251D4E9043C284328
:1022A00004F1180519430843116895E8E00140EA74
:1022B0000C001C4B2843194040EA060040EA070086
:1022C000B8F1040F40EA010003D1D4E90B1319431C
:1022D0000843106020680126656A4069042D20F0DB
:1022E000070045EA00050CD1D4E90A01054341B1D4
:1022F0002046FEF72FFC20B14020606584F8356051
:10230000B4E7206845612046FEF710FC94F85C3085
:102310003F229A408260C4F8549084F835600020CF
:10232000A5E700003F8010E02DE9F041044690F859
:10233000340000250128A66D0ED094F835C0012781
:10234000002084F83470BCF1010F07D0022584F816
:1023500034002846BDE8F0810220FBE7022784F81C
:10236000357060652046FEF71FFC94F85C103F2036
:102370008840B0602068016841F016010160206863
:10238000416941F080014161206C20B12068016801
:1023900041F0080101602068016841F0010101601D
:1023A000D7E7000070B5044600F006F90546601C4A
:1023B00002D004480078044400F0FEF8401BA0421C
:1023C000FAD370BD180000202DE9F84FDFF89CE12A
:1023D00000224FF001084FF0030B4FF00F0A00BF2F
:1023E0000B6808FA02F42340A34271D14D68022D14
:1023F00001D0122D0FD1D5080E69570700EB8505C6
:10240000A9462D6AFF0E0AFA07FCBE4025EA0C0514
:102410002E43C9F820600F79550006680BFA05FCB9
:1024200007F0030726EA0C06AF40374307604E6803
:10243000012E05D0022E03D0112E01D0122E0ED166
:102440008668CF6826EA0C06AF4037438760466847
:102450000F79A643C7F30017974037434760C46816
:102460008E6824EA0C04AE402643C6604C68E40043
:1024700075D53F4C256845F480452560246822F0D9
:102480000306950704F4804400943A4C2D0F26442B
:10249000D6F80848DFF8E0C00AFA05F7604524EAF4
:1024A000070401D100272EE0344FB84201D10127A3
:1024B00029E0334FB84201D1022724E0314FB8421E
:1024C00001D103271FE0304FB84202D104271AE0A0
:1024D00045E02E4FB84201D1052714E02C4FB842F9
:1024E00001D106270FE02B4FB84201D107270AE0A0
:1024F000294FB84201D1082705E0284FB84201D141
:10250000092700E00A27AF4027437546C6F8087838
:102510004E68DEF80040F60324EA030400D51C43AD
:10252000124E2C60361D4D683468AD0324EA030456
:1025300000D51C430D4F346008374D683C68ED02F0
:1025400024EA030400D51C43084D3C600C354E685A
:102550002C68B60224EA030400D51C432C60521CEC
:10256000102AFFF43DAFBDE8F88F0000003C0140A9
:1025700044380240003001400000024000040240A4
:1025800000080240000C024000100240001402400B
:1025900000180240001C02400020024000240240BB
:1025A000426931EA020200D10904816170470AB12F
:1025B000816170470904FBE70148806870470000AB
:1025C0001800002002488168027811448160704739
:1025D00018000020032010B500F06EF8002000F075
:1025E00005F800F023F8002010BD000070B50D4D77
:1025F00004464FF47A700C4A29781268B0FBF1F067
:10260000B2FBF0F000F0C2FD48B9102C07D2002256
:102610002146501E00F030F800206C6070BD012093
:1026200070BD000018000020240000200A4808B5F2
:10263000016841F080510160006800F08050009016
:102640000548001D016841F480410160006800F404
:102650008040009008BD000040380240002809DB9F
:10266000410900F01F028900012001F1E0219040A2
:10267000C1F80001704700000E4BF0B41B680D4616
:10268000C3F30223C3F10706042E00D90426191D43
:10269000072901D2002300E0DB1E012404FA06F121
:1026A0009C40491E2940641E994014402143F0BCBF
:1026B00002F004BC0CED00E0064900F0070210B582
:1026C0004FF6FF040868044B204040EA02201843FC
:1026D000086010BD0CED00E00000FA051848F8B5E0
:1026E000016841F0805101600068164C00F0805094
:1026F0000090206840F480302060FFF75DFF4FF4C9
:102700007A76054605E000BFFFF756FF401BB04252
:102710000FD86068C003F7D5206840F4003020600F
:10272000FFF74AFF054606E0FFF746FF401BB042B1
:1027300001D90320F8BD60688003F5D50020F8BDFD
:1027400040380240007000402DE9F84F0446007800
:10275000DFF824944FF000063746C0070ED0D9F8B2
:10276000001021F40001C9F80010D9F80010626BC4
:102770001143C9F80010606B00B90126FE4D2068B6
:10278000843500030ED5E16B286820F4401008431F
:102790002860E06BB0F5801F01D010B102E0012687
:1027A00000E0012720684FF4800BC0020CD5216C9B
:1027B000286820F4400008432860206C584501D167
:1027C000012601E000B901272068C10100D50126DA
:1027D000800666D5E8483830016841F080510160D4
:1027E0000068DFF898A300F080500090DAF800103D
:1027F00041F48071CAF80010FFF7DEFE804605E064
:10280000FFF7DAFEA0EB080064287DD8DAF80000B4
:10281000C005F5D5DFF8608308F16808D8F8000036
:1028200010F440702AD0218E01F44071814225D0ED
:10283000D8F80010D8F8002021F4407142F480321A
:10284000C8F80020D8F8002022F48032C8F8002010
:10285000C8F80010D8F80000C0070FD0FFF7ACFE92
:10286000824607E0FFF7A8FEA0EB0A0141F288309C
:102870008142CAD8D8F800008007F3D5206BC0F396
:10288000012103297ED0D9F8001021F4F811C9F8EC
:102890000010228ED8F80010C2F30B021143C8F8C2
:1028A00000102078C00607D5286820F080702860C6
:1028B0002868A16B084328602188AF488830490404
:1028C00005D5626E016821F4403111430160218811
:1028D000090405D5A26E016821F44021114301606D
:1028E0002168C90305D5E26E016821F44011114346
:1028F00001602168890305D5226F016821F4400138
:1029000011430160217800E034E1490605D5626C8D
:10291000016821F00301114301602178090605D502
:10292000A26C016821F00C01114301602188C905E6
:1029300005D5E26C016821F0300111430160218866
:10294000890505D5226D016821F0C00111430160A0
:102950002188490505D5626D016821F44071114354
:1029600001602188090505D5A26D016821F4406147
:10297000114301602188C90407D5E26D016821F483
:10298000405100E05FE0114301602188890405D5D2
:10299000226E016821F4404111430160216849021F
:1029A00005D5A26F016821F08061114301602168A3
:1029B0004FF0006A890209D5E26F016821F00061D9
:1029C00011430160E16F514500D1012721680A07D9
:1029D00000D50127490305D5626F016821F04071D8
:1029E000114301602168090206D5D4F880200168EE
:1029F00021F08051114301602168490106D5D4F8C6
:102A00008420016821F00051114301602068000119
:102A100006D5D4F88810286820F000700843286094
:102A20002068C00006D5D4F88C10286820F080609B
:102A300008432860DFF84891012E0ED02068B0F1DD
:102A4000007F0AD08FE04F4AD9F80030104023F4BD
:102A5000F8120243C9F800201BE7D9F800004E46DF
:102A600020F08060C9F80000FFF7A6FD804605E071
:102A7000FFF7A2FDA0EB080064287BD830680001B6
:102A8000F6D421783C487C30C90712D0616B81B9FB
:102A9000237A62680168D0F800C09201C1F3014155
:102AA00042EA0142CCF3036142EA016141EA037167
:102AB000016021680A0303D5E26BB2F5801F04D0E0
:102AC000C9021AD5216C594517D16368016894F879
:102AD0000CC002689B01C1F3014143EA0141C2F30A
:102AE000027241EA0C6141EA027101602968626A7E
:102AF00021F01F01521E114329602168C90110D520
:102B0000238A62680168D0F800C09201C1F30361B2
:102B100042EA034242EA0162CCF3027142EA0171E5
:102B20000160216889010CD56168228A237B94F8B1
:102B300008C0890141EA024141EA036141EA0C719E
:102B400001603168B04641F080613160FFF734FDCB
:102B5000064604E0FFF730FD801B64280AD8D8F849
:102B600000000001F6D5E7B3D9F800004E4620F08A
:102B7000805009E07BE0000008380240007000400F
:102B800000380240FFFCFF0FC9F80000FFF714FDFA
:102B9000074604E0FFF710FDC01B642867D83068C3
:102BA000C0438000F6D5216835480A0301D5E26BA1
:102BB0001AB1C9021DD5216CD9B963690168277E94
:102BC00002689B01C1F3014143EA0143C2F3027170
:102BD00043EA076242EA0171016029686FF0FF036E
:102BE00000E04BE0A26A21F4F85103EB022211430A
:102BF00029602168890212D5E16F51450FD1238CDC
:102C00006269016807689201C1F3036142EA034205
:102C100042EA0162C7F3027142EA01710160217860
:102C2000090716D561690268D0F800C08B01277FBB
:102C3000C2F30362CCF3014143EA014141EA02617C
:102C400041EA077101602868E16A20F440300843D6
:102C50002860306840F080503060FFF7ADFC0446DB
:102C600008E000BFFFF7A8FC001B642802D903207E
:102C7000BDE8F88F3068C0438000F3D40020F7E748
:102C8000883802402DE9F04705000F4663D0444ED6
:102C9000306800F00F00B84209D2306820F00F0011
:102CA00038433060306800F00F00B84253D12868D4
:102CB0003C4C810712D5400703D5206840F4E05012
:102CC00020602878000703D5206840F46040206029
:102CD000A968206820F0F000084320602878C00729
:102CE0002AD0304968680839012810D009680228BC
:102CF00010D0890700292EDA216821F00301014351
:102D00002160FFF759FC804641F288390DE00968DF
:102D10008903EFE78901EDE7FFF74EFCA0EB08011F
:102D2000494502D90320BDE8F0876868216801F0B1
:102D30000C01B1EB800FEFD1306800F00F00B8420A
:102D40000BD9306820F00F0038433060306800F055
:102D50000F00B84201D00120E5E72878400705D5EB
:102D6000E968206820F4E0500843206028780007D4
:102D700006D52869216821F4604141EAC00020603D
:102D800000F036F82168084AC1F30311515CC840CD
:102D9000064908600020FFF729FC0020C3E7000077
:102DA000003C024008380240C852000824000020BD
:102DB0000449054809680068044AC1F38221515C4E
:102DC000C84070470838024024000020D85200084C
:102DD0000449054809680068044AC1F34231515C5E
:102DE000C84070470838024024000020D85200082C
:102DF000154910B51548096811F00C0213D041109F
:102E0000042A0FD0082A0ED10F4C241F22682368F1
:102E100002F03F025B0207D52068C0F38810A0FBD8
:102E2000010106E0084610BD2168C1F38811A1FB2D
:102E300000010023FDF7FCF92168C1F30141491CA1
:102E40004900B0FBF1F010BD083802400024F40046
:102E50002DE9F84F05004FF000076ED02878DFF815
:102E60002093A9F1040AC007AAF104044CD0D9F8B0
:102E700000104846C1F38101012908D00068C0F361
:102E8000810002280AD1DAF80000400206D5206845
:102E9000800339D568680028DFD035E06868B0F570
:102EA000803F0BD010B1B0F5A02F11D0206820F4D6
:102EB00080302060206820F4802002E0206840F408
:102EC00080302060686890B1FFF776FB06460AE024
:102ED000206840F480202060F0E700BFFFF76CFB23
:102EE000801B642872D820688003F7D50CE0FFF7B8
:102EF00063FB064605E000BFFFF75EFB801B64280E
:102F0000F0D820688003F7D42878800742D5D9F814
:102F10000010484611F00C0F08D00068C0F3810083
:102F200002280BD1DAF80000400207D4206880079D
:102F300018D5E868012800D114E01EE1E8680028EF
:102F4000206817D040F001002060FFF735FB0646EF
:102F500005E000BFFFF730FB801B0228C2D82068C5
:102F60008007F7D52869216821F0F80141EAC000FF
:102F700020600FE020F001002060FFF71DFB0646F7
:102F800005E000BFFFF718FB801B02281ED8206851
:102F90008007F7D42878000729D5794869696C300B
:102FA00000298046016812D041F001010160FFF75D
:102FB00003FB064605E000BFFFF7FEFA801B022870
:102FC00004D8D8F800008007F6D510E089E021F099
:102FD00001010160FFF7F0FA064604E0FFF7ECFAA2
:102FE000801B02287DD8D8F800008007F6D4287806
:102FF00040076BD5DFF8888108F13808D8F8000061
:10300000C0000BD4D8F8001041F08051C8F800106F
:10301000D8F80000012700F080500090594801685E
:10302000C90512D40168834641F480710160FFF73D
:10303000C3FA064605E000BFFFF7BEFA801B64280E
:103040004FD8DBF80000C005F6D54D4EA8686836AD
:1030500001280AD008B1052811D0306820F00100FD
:103060003060306820F0040002E0306840F0010079
:103070003060A868A0B1FFF79FFA83460CE0306883
:1030800040F004003060F0E7FFF796FAA0EB0B0188
:1030900041F28830814268D830688007F4D50EE06C
:1030A000FFF78AFA834607E0FFF786FAA0EB0B01E9
:1030B00041F28830814258D830688007F4D42FB16B
:1030C000D8F8001021F08051C8F80010A869E0B3CA
:1030D000D9F80010C1F3810102294ED002282068DE
:1030E00000E042E020F08070206003D0FFF764FA37
:1030F00005463DE0FFF760FA064604E0FFF75CFA9C
:10310000801B022831D820688001F7D4D5E9092135
:10311000DFF874C0D5E9070695F830304F0895F808
:103120002C1030430CEB074545EA8212104340EA6D
:10313000016040EA0370CAF80000206840F0807027
:103140002060FFF739FA054605E014E0FFF734FA8E
:10315000401B022809D820688001F7D50BE000BF8A
:10316000FFF72AFA401B022802D90320BDE8F88F96
:1031700020688001F4D40020F8E70120F6E7000081
:1031800008380240007000400000FFFF401EB0F110
:10319000807F10B501D3012010BD4FF0E0246061A5
:1031A0000F21601701F08AFE0020A0610721216134
:1031B00010BD70477047704770B590F83C20012AE9
:1031C00024D0134C012580F83C50022280F83D2089
:1031D00002685368A242966802D00E4CA24203D104
:1031E0004C6823F4700323430C6823F07003896850
:1031F0001C435460002326F080060268314391602E
:1032000080F83D5080F83C30184670BD022070BDFB
:10321000000001400004014010B5040003D094F800
:103220003D0010B107E0012010BD002084F83C00F3
:10323000204600F00DF8022084F83D002068211D92
:1032400001F0EAF8012084F83D00002010BD0000E4
:1032500008B501681048B1F1804F0BD00F4A914278
:1032600007D1016841F004010160006800F004002A
:10327000009008BD016841F0010101600068002272
:10328000114600F0010000901C20FFF7F5F9BDE8A1
:1032900008401C20FFF7E2B9403802400008004017
:1032A0000168094ACB6843F00103CB600168886874
:1032B0001040062806D0B0F5803F03D0086840F0E3
:1032C00001000860002070470700010070B5044647
:1032D00090F83C00012817D0324B012584F83C506F
:1032E000022084F83D0022689068184020F47F4056
:1032F00090600868502830D00DDC20284DD005DCC7
:1033000098B310283BD148E0022070BD302844D04B
:10331000402834D139E0602828D0702806D0B0F594
:10332000805F2CD0B0F5005F29D10AE04A682068A0
:10333000D1E9021301F0E3F82068816841F07701D8
:1033400009E04A682068D1E9021301F0D8F8206842
:10335000816841F48041816011E0CA684968206851
:1033600001F014FA2068502107E016E0CA684968A5
:10337000206801F01CFA2068602101F0C9F80020E3
:1033800084F83D5084F83C0070BDCA6849682068E4
:1033900001F0FCF920684021EFE722680146104661
:1033A000EBE7000088FFFEFF704770B50446006839
:1033B00000250169C943890715D4C168C943890734
:1033C00011D4EA1E026101212177206880698007FB
:1033D000204602D0FFF7E8FF04E000F0CFF82046D7
:1033E00000F07DF9257720680169C943490717D4A2
:1033F000C168C943490713D402216FF00402026176
:1034000021772068806910F4407F204602D0FFF7C2
:10341000CBFF04E000F0B2F8204600F060F9257719
:1034200020680169C943090716D4C168C94309075F
:1034300012D404216FF00802026121772068C0696C
:103440008007204602D0FFF7AFFF04E000F096F8B7
:10345000204600F044F9257720680169C943C90670
:1034600017D4C168C943C90613D408216FF01002EC
:10347000026121772068C06910F4407F204602D0A5
:10348000FFF792FF04E000F079F8204600F027F9FA
:10349000257720680169C943C90708D1C168C943B4
:1034A000C90704D1891E0161204600F03FF9206858
:1034B0000169C943090609D4C168C943090605D48D
:1034C0006FF0800101612046FFF774FE20680169FA
:1034D000C943C90509D4C168C943090605D46FF4B5
:1034E000807101612046FFF764FE20680169C943CD
:1034F000490609D4C168C943490605D46FF04001A3
:103500000161204600F038F920680169C943890645
:103510000BD4C168C943890607D46FF0200101614B
:103520002046BDE87040FFF746BE70BD10B586B0BE
:10353000044614216846FCF7B3FE0D492068884212
:1035400014D10C48016841F00801016000680021B5
:1035500000F008000590022082030092CDE90101ED
:10356000CDE9031004486946FEF72EFF06B010BDF2
:103570000008004030380240000C0240704770B52F
:10358000044690F83C000D4601280ED0012684F830
:103590003C60022084F83D000C2A45D007DC5AB17B
:1035A000042A1BD0082A78D12CE0022070BD102AF2
:1035B0004ED0142A71D15DE0206800F0B1FF206880
:1035C000816941F0080181612068816921F004016D
:1035D000816120682A698169114311E0206800F047
:1035E000D9FF2068816941F40061816120688169A7
:1035F00021F48061816120682969826942EA0121A0
:1036000081614AE0206801F001F82068C16941F059
:103610000801C1612068C16921F00401C16120680D
:103620002A69C169114311E0206801F02BF8206874
:10363000C16941F40061C1612068C16921F4806100
:10364000C16120682969C26942EA0121C16124E09F
:10365000206801F043F82068416D41F008014165A0
:103660002068416D21F00401416520682A69416D9F
:10367000114311E0206801F05DF82068416D41F4CC
:10368000006141652068416D21F4806141652068D9
:103690002969426D42EA01214165002084F83D60BC
:1036A00084F83C0070BD10B5040003D094F83D00D0
:1036B00010B107E0012010BD002084F83C00204636
:1036C00000F00CF8022084F83D002068211D00F075
:1036D000A3FE012084F83D00002010BD7047704714
:1036E00010B501220446006800F0FCFE0C49206879
:1036F000884202D00B49884203D1416C41F4004119
:1037000041642068084A81681140062906D0B1F555
:10371000803F03D0016841F001010160002010BD2D
:1037200000000140000401400700010070B572B6BE
:103730000068B0F1804F18D10D4C2068401C20600B
:103740006068401C6060FDF7BBFA206800253228E5
:1037500002DBFDF77BFE25606068B0F5FA7F04DBD5
:1037600004488021FEF71CFF656062B670BD000052
:103770000400002000040240704770472DE9F0412A
:10378000026804460025D0691168936810F00F0F95
:103790005BD003F0010601F49077374369D0C70787
:1037A00007D0CF0505D501271762E26F42F001026D
:1037B000E267820708D5DA0706D0276802223A6254
:1037C000E26F42F00402E267420708D5DA0706D04A
:1037D000236804221A62E26F42F00202E2670207E3
:1037E0000AD501F02002324306D0236808221A626B
:1037F000E26F42F00802E267E26F002A32D08006F0
:1038000005D5880603D5216E09B120468847216871
:10381000E06F8968490601D4000725D5204601F0EC
:10382000CCF820688168490619D5816821F04001EB
:103830008160E06E98B11A490165E06EFEF720FCE8
:1038400000280FD0E06E016D06E0830611D58B06CF
:103850000FD5216E12E02046BDE8F0410847204612
:10386000FFF78BFFBDE8F0812046FFF786FFE56795
:10387000F8E7030605D50B0603D5616E0029EAD1EA
:10388000F0E74006EED54806ECD513682021204627
:1038900023F0400313606167656600F07FF9E1E79C
:1038A0002949000810B5040002D0606F10B107E08C
:1038B000012010BD002084F87000204600F026F89A
:1038C000242060672068016821F001010160204622
:1038D00001F0E6F80128ECD0606A10B1204600F053
:1038E000A1FF2068416821F490414160206881680F
:1038F00021F02A0181602068016841F00101016026
:103900002046BDE8104000F0F1BF000070B586B061
:10391000064614216846FCF7C3FC224930688842F9
:103920003ED12148016841F480210160006800F423
:10393000802005901C481038016841F008010160A2
:1039400000680025022100F0080005904FF4407047
:1039500007238DE8230003221448CDE90323694699
:10396000FEF732FD124C402212484FF0006184E80D
:10397000270003152046C4E90435A561E5612562E9
:103980006562FEF75FFC08B1FDF764F90022B466DA
:1039900027201146A663FEF76FFE2720FEF75EFE86
:1039A00006B070BD0048004040380240000C0240A4
:1039B000000500205860024070B5836F202B4BD16A
:1039C000B9B1B2B190F87030012B45D083680126AF
:1039D00080F870600024416535030466AB42A0F8AE
:1039E0005820A0F85A204FF0FF0107D1026912B108
:1039F00026E0012070BD40F2FF1121E04FF07F0270
:103A0000E3B1B3F1805F1ED0A0F85C402221C4670F
:103A1000816701688A6842F001028A608168A94270
:103A200001D10169B1B10D49016680F870400068AB
:103A3000016841F490710160002070BD036933B9E1
:103A4000A0F85C10E2E7016909B13F21F8E7A0F8AE
:103A50005C20DBE70249E7E7022070BD454A000829
:103A6000EB4900082DE9F04172B6234D01272349A7
:103A70004FF000086C1C287848B3214E002085F8D0
:103A800000800A5C3254401C0A28FADB1D484FF4BF
:103A90008041FEF785FDAF6096ED040BB7EE001B8D
:103AA000B4EE410BF1EE10FA01D1FDF7FFF9124926
:103AB0000322491CC81CFCF7FEFB78B10F49012208
:103AC00001F10C00FFF778FF62B6BDE8F081607885
:103AD0002070A07860700878A070E8E707490A2293
:103AE0002F7001F10C00FFF767FF002041462154C1
:103AF000401C0328FBDBE7E70C00002074040020D7
:103B0000A80200200004024070B50446406F20283F
:103B10003BD161B35AB394F87000012835D0A4F8B2
:103B20005020A4F852200025A06E0123E164212139
:103B300084F87030E5676167D8B115491346C163F1
:103B4000A16E14480864A16E1348C864A06E056590
:103B50002068A66E00F12802E16C3046FEF7E4FB17
:103B600038B11021E167202084F87050606701208F
:103B700070BD21684020086284F870502068816818
:103B800041F080018160002070BD022070BD000006
:103B900083490008B14900083D4900087047704753
:103BA000FEE700002DE9F041444D844616462846C4
:103BB00000F11403B5F8B04100F5A972B0F8B201F4
:103BC000A4F54077053F1FD0B4F5017F35D0B4F59B
:103BD000007F39D00127A4F5007EBEF5837E1DD07D
:103BE000A4F50071013936D0A4F5007102393DD039
:103BF000A4F50071033945D0B4F57A7F57D003207E
:103C000085F87802BDE8F081022785F87872A5F87A
:103C1000BA0100240C80B5F8B40108E0092085F849
:103C200078020F800A20B5F8B241B4FBF0F0308082
:103C30000988BDE8F041FCF70DBC062085F8780244
:103C4000BDE8F04101F094BA082185F87812BDE88A
:103C5000F04101F06BBA042185F87812040A1E2C99
:103C600002D9002001F024FA204607E085F8787296
:103C700001F01EFAB5F84C010028C3D1BDE8F041AF
:103C800001F02ABA6422052185F878125043B0F574
:103C9000803F01DB4FF6FF70084A80B2ACF80000AD
:103CA000BDE8F0411C3202F5D07100F093BD072150
:103CB00085F87812BDE8F04101F024BA2800002010
:103CC000024909220248FEF74BB90000CC0200204D
:103CD0004C0300200148FFF7E3BA0000F403002082
:103CE000024901220248FFF767BE00007404002069
:103CF00080040020214A2DE9F04192F86172012FE1
:103D000023D010460226032390F863520124B0F812
:103D10003E11022FB0F8400109D0032F2BD1B2F889
:103D20004271B94221D0B2F84471B8421DD028B1D5
:103D3000022803D0012801D003280AD082F861327A
:103D4000A2F84211A2F844010FE0BDE8F041FCF7EF
:103D500091BB82F86142022DA2F84211A2F84401FF
:103D600009D082F86362A2F8AA4101F00FF9BDE818
:103D7000F04101F0EFB8BDE8F0810000280000201C
:103D80002DE9FF41414800214FF440353E4B009161
:103D9000012401914FF0090802910391C0E9003517
:103DA0000461846181603A4B80F82010C0E90A31D7
:103DB000C0F81C80C16080F830404461FEF72EF8E6
:103DC00008B1FCF747FF07253048042600966946EE
:103DD000CDE90145FDF7C6FE08B1FCF73BFF022027
:103DE00069460524CDE900402848FDF7BBFE08B12F
:103DF000FCF730FF032069460627CDE90070234811
:103E0000FDF7B0FE08B1FCF725FF20486946CDE973
:103E10000056FDF7A7FE08B1FCF71CFF1B484646FD
:103E2000CDE900846946FDF79DFE08B1FCF712FF5D
:103E30000A206946CDE900071448FDF793FE08B152
:103E4000FCF708FF0B206946CDE900050F48FDF798
:103E500089FE08B1FCF7FEFE08210E20CDE9000125
:103E60000A486946FDF77EFE08B1FCF7F3FE0F2015
:103E70006946CDE900060548FDF774FE002801D02B
:103E8000FCF7E8FEBDE8FF81002001404C03002064
:103E90000100000F114808B5016841F400110160EC
:103EA000016801F400110091016841F48001016092
:103EB00000680022114600F4800000900E20FEF7FA
:103EC000DBFB0E20FEF7CAFB002238201146FEF76E
:103ED000D3FBBDE808403820FEF7C0BB30380240B5
:103EE000704700002DE9F04F87B014216846FCF7B9
:103EF000D7F93D48016841F004010160016801F013
:103F000004010591016841F080010160016801F040
:103F100080010591016841F001010160016801F033
:103F200001010591016841F002010160016801F0A1
:103F300002010591016841F020010160016801F072
:103F400020010591016841F010010160016801F054
:103F500010010591016841F008010160006844F614
:103F60008147DFF88890002200F00800394605906C
:103F70004846FEF71CFBDFF878A04FF400560022FD
:103F800031465046FEF713FBDFF868B04FF4404867
:103F9000002241465846FEF70AFB002416480096C8
:103FA0006946CDE901041548FEF70EFA0125009790
:103FB000CDE90154694648460394FEF705FA009698
:103FC0006946CDE9015450460394FEF7FDF9CDF85A
:103FD00000806946CDE9015458460394FEF7F4F990
:103FE00007B0BDE8F08F0000303802400004024006
:103FF00000140240001002400000111000080240AE
:1040000010B588B01648002440F2E7324FF08041E6
:1040100000946B23019402940394049405940694F1
:1040200080E81600C0E903348461FFF7F5F808B1B1
:10403000FCF710FE4FF48050009009486946FFF7E6
:1040400045F908B1FCF706FE054804A90494069456
:10405000FFF7B2F8002801D0FCF7FCFD08B010BD56
:10406000F403002010B58EB000241C21009407A892
:10407000019402940394049405940694FCF710F9B7
:104080001E4840F2CF7140F237421B4BC0E902415B
:1040900004618461C0E90032FFF7BEF808B1FCF7A3
:1040A000D9FD4FF48050009014486946FFF70EF98F
:1040B00008B1FCF7CFFD1148FFF7F5FA08B1FCF79E
:1040C000C9FD0E4804A904940694FFF775F808B1D9
:1040D000FCF7C0FD6020CDE9070408480C2207A9C1
:1040E00009940B94FFF74BFA08B1FCF7B3FD0348B2
:1040F000FFF71CFA0EB010BD000800403404002089
:104100000D48002110B50B4C0C224FF4E133046034
:10411000C0E90131C160C0E904128161C16101627D
:104120004162FFF7BFFB002803D0BDE81040FCF759
:1041300091BD10BD0048004080040020FEE7000053
:104140001448014690F86622D1F88410012A0ED056
:10415000022A12D00146032A91F8681213D0042AC9
:1041600010D1022901D006290CD1022108E0022930
:1041700001D0002906D1042102E0012902D1032146
:1041800080F866127047022901D00629FAD1012170
:10419000F6E7000028000020704770B5DDE904450F
:1041A0000688360A2E70007868700888000AA870A1
:1041B0000878E8701088000A2871107868711888EB
:1041C000000AA8711878E8712088000A28722078FF
:1041D000687270BD002210B501EB420430F8123055
:1041E0001B0A01F8123010F81230521C0A2A6370B0
:1041F000F2DB10BD704700002DE9F041444D8446CC
:104200001646284600F11403B5F8B04100F5A9722E
:10421000B0F8B201A4F54077053F1FD0B4F5017F97
:1042200035D0B4F5007F39D00127A4F5007EBEF566
:10423000837E1DD0A4F50071013936D0A4F500713C
:1042400002393DD0A4F50071033945D0B4F57A7F29
:1042500057D0032085F87802BDE8F081022785F861
:104260007872A5F8BA0100240C80B5F8B40108E012
:10427000092085F878020F800A20B5F8B241B4FB16
:10428000F0F030800988BDE8F041FCF7E3B8062083
:1042900085F87802BDE8F04100F06ABF082185F892
:1042A0007812BDE8F04100F041BF042185F8781292
:1042B000040A1E2C02D9002000F0FAFE204607E076
:1042C00085F8787200F0F4FEB5F84C010028C3D1EF
:1042D000BDE8F04100F000BF6422052185F87812A6
:1042E0005043B0F5803F01DB4FF6FF70084A80B2C3
:1042F000ACF80000BDE8F0411C3202F5D07100F0CE
:1043000069BA072185F87812BDE8F04100F0FABEDD
:10431000280000207047FEF755B9000030B5B7B04F
:10432000342124A8FBF7BCFF142131A8FBF7B8FF08
:1043300090216846FBF7B4FF1D48016841F08051A9
:104340000160006800F0805036901A48016841F41E
:104350004041016000680224D82500F440403690B6
:104360000420012103058203CDE92C05CDE92A4370
:10437000CDE92E40CDE9241224A8FEF769FDFEF711
:10438000ADF9E2024FF4A0510025CDE9341231AA73
:104390000F20072182E8310031A8FEF773FCE0010D
:1043A000139500906846FEF7CFF937B030BD000096
:1043B0004038024000700040104A30B51048146880
:1043C00000210F4B44F470041460083305680D4A53
:1043D0000D4C45F00105056019600368051D13408B
:1043E000074A03600C322C600568E305034C25F492
:1043F00080250560803C1160236030BD88ED00E0C1
:1044000000380240FFFFF6FE103000240148FEF79E
:10441000CCBF0000F4030020F0B5274B4FF0804ED6
:10442000264D02689842264E264F274C09D07045EB
:1044300007D0A84205D0B04203D0B84201D0A04274
:1044400005D1D1F804C022F070024CEA0202984271
:104450001BD0704519D0A84217D0B04215D0B84231
:1044600013D0A04211D0194DA8420ED0184DA84229
:104470000BD0184DA84208D0174DA84205D0174DB3
:10448000A84202D0164DA84203D1CD6822F4407252
:104490002A434D6922F080022A43026098428A68CA
:1044A000C2620A68826201D0A04201D10969016337
:1044B00001214161F0BD0000000001400004004006
:1044C00000080040000C0040000401400040014092
:1044D000004401400048014000180040001C00401A
:1044E0000020004010B5046A012301F01F018B4039
:1044F0009C4304628A40016A1143016210BD42EA92
:10450000032283680A4323F47F410A438260704791
:10451000826822F070020A4342F00701816070470E
:10452000F0B5026ADFF860C0184F22F00102DFF830
:1045300060E00262066A4268836926F002060D683E
:10454000B8428C6803EA0C0323F0030344EA060430
:1045500045EA030501D0704505D1CB6824F0080475
:10456000234323F00404B84201D0704505D122F45E
:104570004076D1E9053233431A4342608561496888
:1045800041630462F0BD00008FFFFEFF00000140A8
:1045900000040140F0B5026A194E1A4C22F01002D4
:1045A000DFF864E00262056A4368826925F020054D
:1045B000D1F808C0A0420F6802EA060222F4407255
:1045C00045EA0C1542EA072201D0704506D1CE68B3
:1045D00025F0800545EA061525F04005A04201D0EA
:1045E000704507D1D1E9054623F4406343EA8403CB
:1045F00043EA860343608261496881630562F0BDD6
:10460000FF8FFFFE0000014000040140F0B5026A88
:10461000194F1A4E22F48072DFF864E00262056AD4
:104620004368C26925F40075D1F808C0B0420C682F
:1046300002EA070222F0030245EA0C2544EA0204DA
:1046400001D0704506D1CF6825F4006242EA072206
:1046500022F48065B04201D0704507D123F4405266
:10466000D1E9053642EA031242EA06134360C46107
:104670004968C1630562F0BD8FFFFEFF0000014085
:1046800000040140F0B5026A124B114F22F480522F
:1046900098420262046A4268C36924F400548E6836
:1046A0000D6803EA070323F4407344EA063443EA3F
:1046B000052302D0084DA84204D14D6922F480425E
:1046C00042EA85124260C361496801640462F0BD38
:1046D000FF8FFFFE0000014000040140F0B5026AB8
:1046E000DFF844C022F480320262056A4268446DF9
:1046F00025F400350E8960450C4F0B6804EA070469
:1047000045EA064543EA040302D0094CA04204D11D
:104710004C6922F4803242EA0422426043654968CF
:1047200081650562F0BD0000000001408FFFFEFFC3
:1047300000040140F0B5026ADFF844C022F48012A0
:104740000262046A4268436D24F400140E896045D5
:104750000C4F0D6803EA070344EA065443EA0523B5
:1047600002D0094DA84204D14D6922F4802242EAC8
:104770008522426043654968C1650462F0BD00005E
:1047800000000140FF8FFFFE0004014010B5036AE6
:10479000046A23F00A0324F00104046284690B43D1
:1047A00024F0F00141EA02118161036210BD10B5ED
:1047B000036A23F0100303628369046A23F47043DD
:1047C00024F0A00443EA0232826144EA011101624A
:1047D00010BD00002DE9FC410D46104F111D104E7B
:1047E0003B4614462880301DCDE900711A46294603
:1047F000FFF7D3FC2988642204F10E003B46B1FB8D
:10480000F2F12246218006F10801CDE90070B01DC9
:10481000FFF7C3FC28886080BDE8FC81B452000823
:10482000B652000890F82410C90706D00168836AC0
:104830004A6822F400321A434A6090F8241089072B
:1048400006D50168C36A4A6822F480321A434A6076
:1048500090F82410490706D50168036B4A6822F4D2
:1048600080221A434A6090F82410090706D501688F
:10487000436B4A6822F400421A434A6090F82410BD
:10488000C90606D50168836B8A6822F480521A43F0
:104890008A6090F82410890606D50168C36B8A687F
:1048A00022F400521A438A6090F82410490611D568
:1048B0000168036C4A6822F480121A434A60016C52
:1048C000B1F5801F06D10168436C4A6822F4C0022A
:1048D0001A434A6090F82410090606D50168826CD4
:1048E000486820F4002010434860704738B5002520
:1048F0000446C567FDF760FE0346206800680007B0
:104900000BD56FF07E400090002220464FF400113E
:1049100000F0F0F908B1032038BD2020606784F86A
:104920007050A067002038BD10B5806B0021A0F842
:104930005A10A0F85210FEF720FF10BD70B5846B1E
:1049400000252168606FA66F8968090606D52128B1
:1049500004D1A4F85250204600F03FF82068806847
:10496000400606D5222E04D1A4F85A50204600F065
:1049700024F8E06F40F01000E0672046FEF7FDFEEF
:1049800070BD10B5C169806BB1F5807F0DD000217D
:10499000A0F8521001688A6822F080028A600068DC
:1049A000016841F04001016010BDFFF7F7F810BD4C
:1049B00010B5806BFFF7F3F810BD10B50168202229
:1049C00000230C6824F490740C6001688C6824F057
:1049D00001048C608267036610BD016820220B68A9
:1049E00023F0C0030B604267704710B5816FB0F8C9
:1049F0005C202229016804D0886940F008008861A1
:104A000010BD496A436D11401980416D891C416593
:104A1000B0F85A10491EA0F85A10B0F85A100029E0
:104A2000EED10168202200230C6824F490740C60FD
:104A300001688C6824F001048C6082670366FFF7CC
:104A400011F810BD10B5816FB0F85C202229016803
:104A500004D0886940F00800886110BD496A436D40
:104A600011401970416D491C4165B0F85A10491E3A
:104A7000A0F85A10B0F85A100029EED1016820228F
:104A800000230C6824F490740C6001688C6824F096
:104A900001048C6082670366FEF7E4FF10BD00002E
:104AA0002DE9F04104468068DFF818C2864F23687C
:104AB000D4E90452E16928431E6800250A4383496A
:104AC000104306EA0C0606431E604FF400422068BD
:104AD000E668436823F44053334343602368A66980
:104AE000206AD3F808C030432CF4306606439E6039
:104AF0002068B8420AD1086810F0030052D001289B
:104B00007BD002287AD003286ED186E0704B984281
:104B10000AD1086810F00C0079D004287BD008284E
:104B200077D00C2860D178E06A4B98420AD10868A7
:104B300010F030006BD010286DD0202869D03028BC
:104B400052D16AE0644B98420AD1086810F0C00064
:104B50005DD040285FD080285BD0C02844D15CE085
:104B60005E4B98420DD1086810F440704FD0B0F5FC
:104B7000807F50D0B0F5007F4BD0B0F5407F33D16F
:104B80004BE0574B98420FD1086810F4406009D0B1
:104B9000B0F5806F3FD0B0F5006F3AD0B0F5406F00
:104BA00022D13AE0012120E04E4B98420DD1086815
:104BB00010F440502BD0B0F5805F2CD0B0F5005FE2
:104BC00027D0B0F5405F0FD127E0474B98420BD17B
:104BD000086810F440401AD0B0F5804F1BD09042C6
:104BE00017D0B0F5404F18D01021E0694FF6EF769E
:104BF000904238D109295DD202E00CE009E006E0DC
:104C0000DFE801F00D1027582A5858582D000021D0
:104C1000EBE70221E9E70421E7E70821E5E7FEF7F2
:104C2000C7F801E0FEF7D4F80146D4F804004900C3
:104C300001EB5001B1FBF0F080B2A0F11001B142E4
:104C400038D84FF6F0732168C0F342021840104381
:104C500024E026496068EBE7FEF7CAF8E4E76068FD
:104C60004FF48031E4E7092924D2DFE801F0050898
:104C700019231C2323231F00FEF79AF801E0FEF7F7
:104C8000A7F80146D4F8040001EB5001B1FBF0F0A5
:104C900080B2A0F11001B1420CD82168C8600AE0CE
:104CA00013496068F0E7FEF7A3F8EAE7606802EBF3
:104CB0005001EBE701250020206660662846BDE82C
:104CC000F0810000F369FFEF0010014090380240CE
:104CD0000044004000480040004C004000500040AC
:104CE0000014014000780040007C00400048E801CA
:104CF0000024F4002DE9F041984617460E4604467C
:104D0000069D08E0681C06D0FDF756FCA0EB0800E5
:104D1000A8420BD855B12068C06936EA000017D008
:104D20000020B842EED00020BDE8F08121682020AC
:104D300000220B6823F4D0730B6021688B6823F08A
:104D400001038B606067A067032084F87020EBE7A5
:104D50000120E6E70148FEF711BD000080040020B5
:104D600070B5DDE90445068876BA0E80418849BAF7
:104D70001180818849BA1980C18849BA2180008987
:104D800040BA288070BDFEE72DE9F0414A4D012769
:104D90000F8016462A4602F11403B5F8B04102F519
:104DA000A972A4F5407CBCF1050C1ED0B4F5017FBE
:104DB00036D0B4F5007F3AD0A4F5007CBCF5837CF6
:104DC0001FD0A4F5007101393AD0A4F50071023961
:104DD00043D0A4F5007103394DD0B4F57A7F61D08A
:104DE000032085F87802BDE8F081022485F8784236
:104DF000B5F8B2410020A5F8BA410880B5F8B40171
:104E000008E0092085F878020F800A20B5F8B24141
:104E1000B4FBF0F030800988BDE8F041FBF71ABB25
:104E2000062085F87802BDE8F04100F0A1B908201D
:104E300085F87802B5F8B201BDE8F04100F076B926
:104E4000042085F87802B5F8B201040A1E2C02D9B4
:104E5000002000F02DF9204609E085F87872B5F8B9
:104E6000B20100F025F9B5F84C010028BBD1BDE82E
:104E7000F04100F031B9052185F87812B5F8B2118A
:104E800064225143B1F5803F01DB4FF6FF710A4ABE
:104E90008BB20380BDE8F0411C32184602F5D07198
:104EA000FFF798BC072085F87802B5F8B201BDE895
:104EB000F04100F027B90000280000200907002871
:104EC0004FEA116104DB00F1E02080F80014704724
:104ED00000F00F0000F1E02080F8141D704702E0A0
:104EE00008C8121F08C1002AFAD170477047002075
:104EF00001E001C1121F002AFBD1704770B5144CAC
:104F000094F8731294F8470281421FD104EB800099
:104F1000B4F83011026E914218DB006FB4F8321110
:104F2000814213DBD4F884500220C4F8840094F842
:104F3000690208B1FCF768FBC4F8845094F8730266
:104F4000401CFF2800DDFF2084F8730270BD0000C4
:104F5000280000200C4890F8ED2190F874128A4245
:104F600008D0014690F86832012B91F8661202D001
:104F7000032902D170470429FCD180F8742290F8EB
:104F8000EE01FBF7B5BD0000280000202DE9F0413F
:104F9000214CB4F83611B4F8DE01814225D0204608
:104FA000A4F8DE11B4F838210226D0F88450B2F506
:104FB000C87F90F8670210D0C82A4FF0000716D0BB
:104FC000322A4FF001011FD0642A0ED1C4F8841098
:104FD00088B100BFFFF7B4F80DE0C4F88460B8B939
:104FE000C4F8846009E0C4F88450BDE8F08100286A
:104FF000C4F88470EED1C4F8847094F86902002873
:10500000F1D0FCF701FBEEE70028C4F88410E7D0EC
:10501000FFF796F8E4E7000028000020074810B5E5
:10502000B0F83E11A0F84211B0F84011A0F84411B8
:10503000FFF7ACFFBDE81040FFF78CBF2800002051
:10504000024901EB8000806D7047000028000020BD
:105050002DED028BFDF7BEFAFFF760F9FEF742FF78
:10506000FEF718FFFFF74CF8FEF7CAFFFEF7FAFF4E
:10507000FEF736FFFEF784FEFBF7EEFD0B4CB7EEB6
:10508000000B84ED040BFBF711FFB0EE088B00BFA3
:1050900094ED040BB4EE480BF1EE10FAF8D1FBF7E7
:1050A00005FF6420FDF77EF9F2E70000A80200206A
:1050B0000849B1F84A21FF2A01D3002205E0521C19
:1050C000B2F5803F01DB4FF6FF72A1F84A21A1F84B
:1050D0004C01704728000020094991F80322FF2A5B
:1050E00001D3002203E0521CFF2A00DDFF2281F8D9
:1050F0000322FF2800D9FF2081F804027047000036
:10510000280000200849B1F84E21FF2A01D30022CF
:1051100005E0521CB2F5803F01DB4FF6FF72A1F8AB
:105120004E21A1F850017047280000200F49B1F826
:105130004621FF2A01D3002205E0521CB2F5803F30
:1051400001DB4FF6FF72A1F84621A1F8480191F862
:105150004A12642908D0322803D0642801D0C82814
:1051600002D10020FFF7A4BF7047000028000020F4
:10517000064991F85A02FF2801D3002003E0401CA1
:10518000FF2800DDFF2081F85A0270472800002028
:105190000BA10C4A30B4096811700B0A53700C0C47
:1051A000947000215418435C491C1429E370F9DB06
:1051B0000D20D07530BC034918220348FEF7A4BC6B
:1051C00068647200340300208004002007B582B0B8
:1051D000054802A90346CDE90002044803AAFEF7E8
:1051E000DCFF05B000BD0000B4520008BC5200084E
:1051F000284930B50A4691F849424FF48035681E77
:10520000B2F8DA311CB991F85F22012A24D0012CBE
:1052100029D0B1F8D6219632AA4200D30246A1F88D
:10522000D621B1F8D821521DAA4200D3024690B22D
:10523000A1F8D80191ED0E0BB5EEC00BF1EE10FA0E
:1052400016D040F206329FED140B81ED0E0BA1F843
:10525000A421A1F8A60119E05A1CAA4200D30246D3
:10526000A1F8DA2112E00020A1F8D601A1F8D801B6
:1052700040F20530B7EE000B81ED0E0BA1F8A40152
:10528000A1F8A631B1F8D601A1F8A80181F85F42D2
:1052900030BD0000280000200000000000000000D9
:1052A0005FF0000250F8223041F82230521C092AE7
:1052B000F8DB7047000064000000000519030300DC
:1052C0000006101600061016000000000000000086
:1052D000010203040607080900000000010203049C
:1052E000005300080000002028000000DE4E0008E7
:1052F000285300082800002038090000EE4E00085E
:10530000000000000000000000000000000000009D
:10531000686472000000000001000000100000003E
:08532000000000000024F4006D
:04000005080001F9F5
:00000001FF
