:020000040800F2
:10000000480900200D02000805410008053B0008D2
:10001000AD400008310A0008A74C000800000000AD
:100020000000000000000000000000008142000805
:100030007D0B0008000000006141000883420008B9
:1000400027020008270200082702000827020008EC
:1000500027020008270200082702000827020008DC
:1000600027020008270200082702000827020008CC
:100070002702000827020008C10A0008270200081A
:100080002702000827020008ED08000827020008E0
:10009000270200082702000827020008270200089C
:1000A000270200082702000827020008270200088C
:1000B00079430008270200082702000827020008E9
:1000C000270200082702000827020008270200086C
:1000D000270200082702000827020008754C0008C4
:1000E000270200082702000827020008270200084C
:1000F000270200082702000827020008270200083C
:10010000270200082702000827020008270200082B
:10011000270200082702000827020008270200081B
:10012000CD0A00082702000827020008270200085D
:1001300027020008270200082702000827020008FB
:1001400027020008270200082702000827020008EB
:1001500027020008270200082702000827020008DB
:1001600027020008270200082702000827020008CB
:1001700027020008270200082702000800000000EC
:1001800027020008270200082702000827020008AB
:10019000270200082702000827020008270200089B
:1001A000270200082702000827020008270200088B
:1001B000270200082702000827020008270200087B
:1001C000270200082702000800000000270200089C
:1001D000270200082702000827020008270200085B
:1001E000270200082702000827020008270200084B
:1001F0002702000827020008DFF80CD000F08AF878
:1002000000480047614F0008480900200648804721
:1002100006480047FEE7FEE7FEE7FEE7FEE7FEE7EB
:10022000FEE7FEE7FEE7FEE725430008F9010008C8
:100230002DE9F05F0546002092469B46884606461B
:10024000814640241BE0284641464746224600F0AE
:1002500050F853465A46C01A914110D311461846D9
:10026000224600F037F82D1A67EB01084F46224668
:100270000120002100F02EF817EB00094E41201E4E
:10028000A4F10104DFDC484631462A464346BDE876
:10029000F09FD2B201E000F8012B491EFBD270475B
:1002A0000022F6E710B513460A4604461946FFF742
:1002B000F0FF204610BD30B505460020034600E0A3
:1002C0005B1C934205D2EC5CC85C201A01D1002C67
:1002D000F6D130BD202A04DB203A00FA02F10020DA
:1002E00070479140C2F1200320FA03F31943904074
:1002F0007047202A04DB203A21FA02F000217047DF
:1003000021FA02F3D040C2F120029140084319467D
:1003100070470000064C074D06E0E06840F001031E
:1003200094E8070098471034AC42F6D3FFF768FF13
:10033000EC5100080C5200082DE9F041444D844670
:100340001646284600F11403B5F8984100F59D7251
:10035000B0F89A01A4F54077053F1FD0B4F5017FAE
:1003600035D0B4F5007F39D00127A4F5007EBEF565
:10037000837E1DD0A4F50071013936D0A4F500713B
:1003800002393DD0A4F50071033945D0B4F57A7F28
:1003900057D0032085F86002BDE8F081022785F878
:1003A0006072A5F8A20100240C80B5F89C0108E059
:1003B000092085F860020F800A20B5F89A41B4FB45
:1003C000F0F030800988BDE8F04100F043B8062025
:1003D00085F86002BDE8F04104F052BE082185F8BE
:1003E0006012BDE8F04104F029BE042185F86012D6
:1003F000040A1E2C02D9002004F0E2FD204607E08A
:1004000085F8607204F0DCFDB5F834010028C3D132
:10041000BDE8F04104F0E8BD6422052185F86012D2
:100420005043B0F5803F01DB4FF6FF70084A80B2C1
:10043000ACF80000BDE8F0411C3202F5C47104F0D4
:100440007EB9072185F86012BDE8F04104F0E2BDF5
:100450002800002010B51C8814805C8854809C887B
:10046000948022F811001088188050885880908855
:10047000988010BD2DE9F04FF34C02254FF0030991
:100480004FF0000B26464FF001082DED028B81B096
:1004900006F1110006F235260090B4F82601B4F8F2
:1004A0002A11884238D0B4F82811B4F82C018142BE
:1004B00032D00099304600F08BFB00205E46A4F855
:1004C00092B100F0EBFAB4F8280128B1022803D069
:1004D000012801D003280ED084F84D6284F84C62C4
:1004E00084F84B6284F84992B4F82611A4F82A11D2
:1004F000A4F82C0131E084F84D6284F84C6284F851
:100500004982B4F82211A4F8C411B4F82611A4F851
:100510002A11A4F82C011CE0CB49192794F84B02AE
:10052000012891F84DC2B1F8C431B1F82421B1F8D5
:10053000221106D0022878D199420CD0012A75D018
:1005400009E094F84C02012810D002286DD184F8FB
:100550004CB284F84B52A4F8928104F0A3FC01B091
:10056000BDEC028BBDE8F04F04F080BC994200D096
:100570006AB1A2469FEDB58BB348BCF1060FB0F847
:10058000C80152D2DFE80CF0D60A8EE1FDFCA4F8D7
:10059000C41184F84DB284F84C52E6E00128544668
:1005A0007AD8994201D0022A04D084F84D82A4F866
:1005B0009291F0E00520A4F8C41184F84D020020C7
:1005C00004F0B0FC00EE100AB8EEC00B84ED0C0B8A
:1005D000B4EEC80BF1EE10FA0CD2B5EEC00BF1EE92
:1005E00010FA05DBBCEEC00B10EE100AC0B202E040
:1005F000002000E0FF2000F051FA022004F092FCFD
:100600003E46274690FBF6F10020216704F08AFC65
:100610000446012004F086FC002C014607DB6FF045
:100620000040221A91420ADB08E083E0D7E004F19F
:100630000040814202DD4FF0004000E0601A6FF0A0
:10064000004280FB06400021121B814102DA6FF05C
:10065000004407E04FF00041611A70F1FF3001DA09
:100660004FF00044022004F05DFC00EE100A764AD0
:1006700040462946B8EEC01B00EE104AB8EEC00B4B
:1006800080EE012B87ED0E2BA7F8C861A7F89481A7
:10069000A7F89651D0E0FFE7401E00D50020AAF849
:1006A000C8017DE00128544649D8206F002806DDA6
:1006B000012004F037FC94F8381288420FDB002048
:1006C00000F0ECF90099304600F082FA84F84D927F
:1006D000A4F8C87194F82F0284F85B023AE084F819
:1006E0004D5294ED0C0B94ED0E1B30EE410B84ED4E
:1006F0000C0BB4EEC80BF1EE10FA0DD2B5EEC00B38
:10070000F1EE10FA06DB00BFBCEEC00B10EE100AD3
:10071000C0B202E0002000E0FF2000F0BFF9206F2F
:100720004FF00041884201DC216701E0401E206754
:10073000A4F8C87101B0BDEC028BBDE8F08F401E7B
:1007400000D50020AAF8C801F4E79AF82F12504605
:10075000052906D001B0BDEC028BBDE8F04F04F0D6
:100760005DBB80F84DB28AF84C523046009900F0DB
:100770002FFA01B00020BDEC028BBDE8F04F01E084
:1007800015E001E000F08AB901285146D7D881F878
:100790004D82A1F892916420AAF8C87100F07EF908
:1007A00001B0BDEC028BBDE8F04F04F07BBB01282B
:1007B0005446C4D884F84D5294ED0C0B94ED0E1BA6
:1007C00030EE410B84ED0C0BB4EEC80BF1EE10FAD9
:1007D000A2D2B5EEC00BF1EE10FA9BDB94E7A4F8C1
:1007E000C411BCF1040F9FED1B0B84F84B82A4F8DD
:1007F000C8B184ED0C0B84ED0E0BC4F870B084F816
:100800004C8297D0042084F84D02A4F892510E4DEA
:10081000A4F8C87104F5C9741235284600F0BAF975
:1008200028783070642000F039F9074A4046A4F86F
:1008300002800146A4F8048001B0BDEC028BBDE843
:10084000F04F04F04BBC0000280000200000000026
:1008500000007040000000000000000010B50146DC
:10086000806B026C12F0500F05D0026CD20626D5B8
:1008700001F0E7F910BD016C41F4007101640168F9
:100880008A6812F0405F17D18269AAB9CA6A12F465
:10089000700F02D08A6852050ED44A6822F02002F6
:1008A0004A60016C21F480710164016CC90403D4B5
:1008B000016C41F00101016401F0B8F910BD806BD9
:1008C000C26C0846BDE81040104710B5806B40214F
:1008D0000164416C41F00401416401F0B2F910BDC2
:1008E00010B5806B01F0ACF910BD0000014801F0BB
:1008F000A9B90000340300204A496FF0706210B5B6
:10090000D1F8043323F44033C1F80433D1F804336D
:1009100044682343C1F8043301684B6823F48073AF
:100920004B60016803694C6844EA03234B6001682B
:100930004B6823F040734B60016884684B68234325
:100940004B6001688B6823F400638B600168C468A6
:100950008B6823438B60816AD14201688A6822F0E8
:1009600070628A6001680DD0836A8A681A438A605F
:1009700001688A6822F040528A600168C36A8A6806
:100980001A4302E08A6822F040528A6001688A684D
:1009900022F002028A60016882698B6843EA42029F
:1009A0008A6090F820100029016811D01E4A4B6817
:1009B00043F400634B6001684B6823F460434B6071
:1009C0000168446A4B6802EB443213434B6003E016
:1009D0004A6822F400624A600168144BCA6A22F431
:1009E0007002CA620168848BCA6A03EB04531A431B
:1009F000CA6201688A6822F400728A60016890F80D
:100A000030208B6843EA42228A6001688A6822F4B7
:100A100080628A60016840698A6842EA8020886052
:100A200010BD00000020014000E0FFFF0000F0FFCB
:100A3000FEE7000004480C2110B502F003FEBDE8FB
:100A4000104000F023B800001C04002010B500780E
:100A500088B0642800D964200B4964236024CA68E4
:100A6000002100944243B2FBF3F00C22CDE90101D6
:100A700005480491694602F034FD03480C2102F058
:100A8000E1FD08B010BD00001C04002008B5642082
:100A90008DF800006846FFF7D9FF08BD06496428B5
:100AA00081F8380200D36420C0F1640081F840026C
:100AB0000248FFF7CBBF000028000020680200209A
:100AC000014801F0A1BA0000E8040020014801F04B
:100AD0009BBA00007C03002001681823CAB2103AB8
:100AE000B2FBF3F2054B6FF30901032A9B5CC3656C
:100AF00000D9091D8165084670470000CC510008E7
:100B000010B583694FF0C074826A0146002053B16A
:100B1000B3F5005F15D072B1012A0CD0022A0AD0B9
:100B2000032A09D104E01AB1012A06D0022A03D10E
:100B3000C96AC90100D5012010BDC96AA142FAD015
:100B400010BD002AF7D0012AF2D0022AF3D0032ADE
:100B5000F3D010BD30B50468256825F480252560E4
:100B6000046863608368402B036803D09960006861
:100B7000C26030BD9A600068C16030BD7047704788
:100B80000121017002480A46C90201F0C2BC0000FE
:100B9000000402400121017002480A46490301F0A5
:100BA000B8BC0000001402400021017002480A464F
:100BB0004FF4006101F0ADBC00040240002101705F
:100BC00002480A464FF4005101F0A3BC0014024051
:100BD00070B505460C460846FFF7F0FF20782870F0
:100BE00070BD70B505460C46084600F003F8207845
:100BF000287070BD0121017070470021017070479D
:100C0000704700000E4803220E49131F10B5082438
:100C10004270027001F14000CB6681F8464204F058
:100C200089F9FFF707FFFFF7AAFF00F0A1FE02F026
:100C3000F9FF03F001F8BDE8104003F003B800002D
:100C40000000002028000020F8B5764C022601257F
:100C50004FF0FF32002094F8431284F82F1294F9D9
:100C6000CA1101EB410104EB4101B1F85431A4F880
:100C70001831B1F85631A4F81A31B1F85811A4F866
:100C80001C1194F9CB1104EB8101B1F86031A4F887
:100C90001E31B1F86211A4F8201194F8441284F8BE
:100CA000301294F9CC1104EB8101B1F86831A4F849
:100CB0002231B1F86A11A4F8241194F9CD1104EB92
:100CC000410191F8293284F8D53191F82A1284F83B
:100CD000D61194F9CE1104EB8101B1F87031A4F86A
:100CE0002631B1F87211A4F82811E26694F848127E
:100CF000E9B194F84A0208B102F0AEFF94F84F024D
:100D000008B103F0D5F994F8510208B100F03AFCAB
:100D100094F85A0270B34349642794F859020A318F
:100D2000012828D002283BD003284AD138E084F893
:100D3000485284F84A52A4F8C401A4F8C60184F8C1
:100D40005C0284F8496284F84F5284F84E5284F869
:100D50005152606794F85012042902D0042184F89B
:100D6000501284F85A52032184F85D0284F85E021E
:100D700084F8591225E094F85E0258B194F83022B4
:100D800094F85D329A4211D1401E00D5002084F8BB
:100D90005E0216E0244884F85962FFF72EFF10E047
:100DA00094F8300294F85D2290420AD0684684F8A4
:100DB0005952FFF716FF94F8300284F85D0284F868
:100DC0005E7294F8351209B1012300E00023174840
:100DD0004278012A0ED00025AB4203D0032A01D06D
:100DE00084F8341201B10121417094F8451219B10F
:100DF000012202E00125EFE70022017801290ED04F
:100E000000239A4205D0032903D094F8451284F8B0
:100E1000341294F8451201B101210170F8BD01238B
:100E2000EFE7000028000020610200200000002001
:100E30002DE9F04FFE4C85B0012540F202292046F5
:100E40004FF6FF7B022694F83712032784F83112FD
:100E50004FF47A7A94F84622B0F8C201092A4DD2AA
:100E6000DFE802F04C056311631B223C46000621BB
:100E700084F846124FF40070A4F88C014FF4C87245
:100E8000A4F88E2151E0042802D004F039F94CE096
:100E900084F84662A4F88CA10FE084F84652A4F8C6
:100EA0008C91A4F88E5140E0012801D041B112E0AC
:100EB000072084F84602A4F88C91A4F88E6134E0EF
:100EC00094F84722012A06D1401CB0F5803F00D398
:100ED0005846A4F8C20184F8471226E084F8467206
:100EE0000020A4F88C01A4F8BE01A4F8C0011CE005
:100EF00009209FEDD00B84F8460214E094ED0A0B14
:100F0000B2EE041BB4EE410BF1EE10FA07D105204E
:100F100084F84602A4F88CA1A4F88E7105E0B7EE1F
:100F2000001B30EE010B84ED0A0BC448C449A0F14C
:100F300051020B46CDE90010911E553803F0E3F83D
:100F4000BE49873191ED040BBDEEC00B10EE100AC7
:100F5000012834D002284FF0000039D02118401C5D
:100F60000A2891F8E12181F8D721F7DBB04CB34989
:100F7000413994F83822881E84F83222831ECDE944
:100F80000001021F811F393003F07AFE94F85F02DE
:100F900038B3214694F8600201F1140340F2053E93
:100FA00001F59D7201F11C0C092801F5D27172D274
:100FB000DFE800F0F31D23292F357B9DC0000020C2
:100FC00023180A5C401C0A2883F8D721F8DBCDE7F8
:100FD0000A182318401C127E0A2883F8D721F7DB51
:100FE000C4E7934880F85F5280F86072DAE004AAA0
:100FF00003A902A8FFF7A0F9D4E004AA03A902A854
:1010000000F000FCCEE004AA03A902A802F07CFDD7
:10101000C8E004AA03A902A803F0A4F8C2E0B4F847
:10102000980170457ED0B0F5017F7CD0B0F5007F8F
:1010300023D0A0F54076063E76D0A0F50072013AA6
:101040000CD0484521D100BF84F86052B4F89A0111
:1010500003F0B6FFB4F8340160B1A3E0042084F8D3
:101060006002B4F89A01040A1E2C02D9002003F091
:10107000A7FF204603F0B8FF94E0082084F8600240
:101080006CE000BFFFF7E6F98CE0A0F50072033AD0
:1010900024D1642279E080E080B2624603F04FFB05
:1010A00080E000BF84F860727CE0B4F8980170457D
:1010B00044D0B0F5017F17D0B0F5007FDDD000BF80
:1010C000A0F54076063E52D0A0F50072013AC5D098
:1010D0004845B9D0A0F50072033A52D05045E1D14D
:1010E000072084F860021CE003F0CAFF5AE0B4F85D
:1010F0009801704522D0B0F5017F34D0B0F5007F63
:10110000BBD0A0F54076063E31D0A0F50072013A82
:10111000A4D0484598D0A0F50072033A31D050458C
:10112000C0D102E00AE01EE021E0B4F89A0103F029
:1011300071FF37E0B4F89801704509D184F8606216
:101140000021B4F89A01A4F8A201B4F89C0199E72F
:10115000B0F5017F07D0B0F5007FB1D1B4F89A01A6
:1011600003F06CFF1EE0062084F86002BCE7092053
:1011700084F86002B4F89A110A20B1FBF0F0012162
:1011800080E7052084F860026422B4F89A01504395
:10119000B0F5803F80DB58467EE704AA03A902A889
:1011A00003F082FD224890F8CF1159B9B0F83A11F6
:1011B000A0F87811B0F83C11A0F87A11B0F83E11FF
:1011C000A0F87C1190F8D01139B9B0F82E11A0F820
:1011D0007E11B0F83011A0F8801190F8D11139B912
:1011E000B0F83611A0F88211B0F83811A0F88411C7
:1011F00090F8D21139B990F8EB1180F82D1290F8CF
:10120000EC1180F82E1290F8A21180F8331280F8B9
:10121000431290F8CA21B0F83A11E2B35FF000022D
:1012200002EB420200EB4202A2F854110AE0000075
:10123000280000200000000000000000090200203B
:10124000C451000890F8CA21B0F83C11F2B3002252
:1012500002EB420200EB4202A2F8561190F8CA21BA
:10126000B0F83E119AB3002202EB420200EB4202B8
:10127000A2F8581190F8CA1151B3002180F8CA1190
:1012800090F8CB21B0F82E11F2B3002200EB8202CD
:10129000A2F8601100E077E090F8CB21B0F83011AF
:1012A0009AB3002200EB8202A2F8621190F8CB11EF
:1012B00061B3002180F8CB1190F8421280F84412FB
:1012C00090F8CC21B0F83211EAB302E05EE05FE0C2
:1012D00060E0002200EB8202A2F8681190F8CC21B5
:1012E000B0F8341182B3002200EB8202A2F86A1136
:1012F00090F8CC1149B3002180F8CC1190F8CD11B1
:1013000090F8EB21E9B302E046E047E048E0002135
:1013100000EB410181F8292290F8CD2190F8EC11E1
:1013200082B3002200EB420282F82A1290F8CD111B
:1013300049B3002180F8CD1190F8CE21B0F83611D4
:1013400082B3002202E02EE02FE030E000EB8202C8
:10135000A2F8701190F8CE21B0F838117AB30022BB
:1013600000EB8202A2F8721190F8CE1141B3002175
:1013700080F8CE1190F8411280F8451205B0BDE812
:10138000F08F16E017E018E0012249E701225FE73D
:10139000012269E7012171E7012277E7012281E754
:1013A000012187E70DE0012294E701229CE701215A
:1013B000A2E70121ACE70122B4E70121BAE702E08C
:1013C00003E00122BEE70122CAE70121D0E70000C5
:1013D0002DE9F04F47480123002495B080F8CF3124
:1013E000B0F878C1B0F87A51B0F87C1180F8CF41EC
:1013F00080F8D031B0F87E61B0F8807180F8D041CB
:1014000080F8D1316CF30F02B0F882C1214665F348
:101410001F429346B0F8842180F8D14180F8D23140
:1014200066F30F0890F82D5290F82E3280F8D241D2
:101430006CF30F0990F9D34167F31F4862F31F491A
:1014400090F8386265F3070AB0F8925104EB840211
:1014500090F83742C44690F833825200CE4663F388
:101460000F2A8B1800EB8303D3F8A07001AB43F86D
:101470002170491C0A29F4DB019F4FEA1B41A0F8A7
:1014800040714FEA1E4BA0F84281E1460B91A0F853
:1014900044110AF0FF01A0F84651CAF3072AA0F848
:1014A0004841A0F84A61A0F84CC1A0F84EB10D9196
:1014B000A0F850111049A0F852A1A1F1D5000C914B
:1014C00002F03EFE0C9803F0EBFD0B48A3300780C2
:1014D000A0F802800B998180C58004814681A0F824
:1014E0000C90A0F80EB00D990182A0F812A015B0D2
:1014F000BDE8F08F280000203D0200201F4910B5F4
:1015000001F5057003F054FE1C48783890F8D411AA
:1015100041B900BF00EB8102936FC2F8F030491C63
:101520000A29F7DB164A002100EB810402EB810354
:10153000491CA46F0A295C61F6DB002190F8D331C5
:1015400000EB8102926FA3B15FF0000303EB830312
:1015500001EB4303491C00EB83030A29C3F8A020D5
:10156000ECDB90F8D31131B15FF0000180F8D311BA
:1015700010BD0123EAE70121F8E70000A0000020E8
:10158000E00200202DE9F04F9C4C89B00125234654
:1015900003F2362094F850C203F23722009003F190
:1015A0000B0B586F00210392032793F856A2421E9B
:1015B00093F852920226EB07BCF1070F44D2DFE802
:1015C0000CF04304F460F4B3F400BAF1010FD44614
:1015D0000AD0BCF1020F10D0BCF1030F15D0BAF144
:1015E000040F31D198B3B5E000286ED184F85812B9
:1015F00084F8561284F85062C2E0002865D184F85D
:10160000567200F033FA6067BAE000285DD184F8C2
:10161000565200F02BFA606794F83802512894F87B
:10162000580207D201280FD0502084F85852FFF7F3
:1016300035FA03E0022807D084F8586204A9009A1A
:101640005B46039800F0DCF909B0BDE8F08FFFE7D6
:1016500084F8571284F8566200F008FA684A606706
:10166000511E481E00F094F994F83C0284F83602AA
:1016700094F83A0284F83702E6E76367E4E76267C2
:10168000E2E7E16E042009B30229DDD1052284F8E6
:101690005022B9F1040F04D084F8520200F0E6F9A8
:1016A000606794F84E02032894F8550208D0012888
:1016B000CAD0534884F85552C01CFFF761FAC3E7FB
:1016C0000228C1D084F8556229E043E0BAF1040F42
:1016D00084F8505204D084F8560200F0C7F96067CD
:1016E00094F84E02032810D004281AD094F8380237
:1016F0003C2816D894F857020128A5D05FF03C008A
:1017000084F85752FFF7CAF99EE794F83802502838
:10171000ECD894F85702032896D084F857725020DA
:10172000F0E784F857628FE7B9F1010FCC460AD091
:10173000BCF1020F11D0BCF1030F2CD0B9F1040F92
:1017400082D198B306E028B984F85212062084F8B2
:10175000500215E0984292DC8FE70028FAD184F815
:10176000541284F8527200F081F9606794F84E02C6
:10177000032894F8530206D00128A0D084F85352CD
:1017800000F052F960E7022899D0002084F85362F3
:10179000FFF784F9F4E70028DCD184F8531284F8C9
:1017A000525200F063F9606748E723E0FFE784F8EE
:1017B000551284F8526200F059F9104F606794F89E
:1017C0004E020E37032894F8540208D001289BD00B
:1017D00007F50C7084F85452FFF7E6F903E002288D
:1017E00092D084F8546204A9009A3B46039800F012
:1017F00029F929E784F8507226E700002800002024
:10180000640200202DE9F0414A4D00270F80164662
:101810002A4602F11403B5F8984102F59D72A4F529
:10182000407CBCF1050C1FD0B4F5017F36D0B4F577
:10183000007F3AD00127A4F5007CBCF5837C1ED044
:10184000A4F50071013939D0A4F50071023942D0F4
:10185000A4F5007103394CD0B4F57A7F60D0032031
:1018600085F86002BDE8F081022085F86002B5F8D5
:101870009A01A5F8A2010F80B5F89C0108E00920A3
:1018800085F860020F800A20B5F89A41B4FBF0F0A9
:1018900030800988BDE8F041FEF7DCBD062085F800
:1018A0006002BDE8F04103F0EBBB082085F8600260
:1018B000B5F89A01BDE8F04103F0C0BB042085F8FB
:1018C0006002B5F89A01040A1E2C02D9002003F028
:1018D00077FB204609E085F86072B5F89A0103F0BD
:1018E0006FFBB5F834010028BCD1BDE8F04103F02E
:1018F0007BBB052185F86012B5F89A11642251432B
:10190000B1F5803F01DB4FF6FF710A4A8BB20380CD
:10191000BDE8F0411C32184602F5C47102F00FBF59
:10192000072085F86002B5F89A01BDE8F04103F0A0
:1019300071BB00002800002010B5002303700124B3
:101940000B7014701A46A103074C204600F0E1FD0D
:1019500006480022211500F0DCFD01222046BDE8EA
:101960001040D10300F0D5BD001002400004024039
:1019700008B5684600F002F808BD000000210170BB
:1019800002480A464FF4004100F0C3BD0010024077
:1019900010B50024047001230B7013702246084C0C
:1019A0009903204600F0B5FD01220648910200F09F
:1019B000B0FD01222046BDE81040D10300F0A9BDD2
:1019C000001002400004024010B5012303700024FF
:1019D0000C70094C990313701A46204600F099FDCB
:1019E00006480022211500F094FD01222046BDE8A2
:1019F0001040D10300F08DBD0010024000040240F1
:101A00002DE9F0411C4615469A1C0E46591C074606
:101A10002046FFF791FFA078287020783870607812
:101A20003070BDE8F0810000044810B5FFF7A6FF54
:101A3000034890F83D1280F8361210BD6502002070
:101A4000280000202DE9F0411C4615469A1C0E4640
:101A5000591C07462046FFF7B7FFA078287020786A
:101A6000387060783070BDE8F0810000144801469D
:101A700090F8522291F84E12042A0FD0022A0FD069
:101A8000032A09D0012A15D090F85602042815D04F
:101A900002280BD0032801D00F2070471420704774
:101AA0000329FBD090F82F02012801D06420704751
:101AB000732070470329F1D12320704746207047D7
:101AC0002800002070470000F8B50025009590F828
:101AD0003C20012A18D0012280F83C200A68072304
:101AE0004E4C0668092A1AD90A3A02EB4207F268F4
:101AF000BB409A43F2600E680268A64206D10B7A98
:101B0000D66846EA036308E00220F8BD0A3E8B6807
:101B1000D76806EB4606B3403B43D3600EE002EBCA
:101B200042073269BB409A43326103680E788A6883
:101B30001F6906EB4606B2403A431A614A681F2302
:101B4000072A13D20668521E02EB8207726BBB4053
:101B50009A43726303680E790A88761E5F6B92B2AD
:101B600006EB8606B2403A435A6327E006680D2A20
:101B700012D2D21F02EB8207326BBB409A43326310
:101B800002680E790B88F61F176B9BB206EB860670
:101B9000B3403B43136311E00D3A02EB8207F26A54
:101BA000BB409A43F26202680E790B880D3ED76AF9
:101BB0009BB206EB8606B3403B43D362184A0368E8
:101BC000934208D10B68122B05D1D2F8043343F4A9
:101BD0008003C2F80433036893421AD10B68A3420E
:101BE00001D0112B15D1D2F8043343F40003C2F80D
:101BF00004330968A1420CD10A490B4A0968B1FBB8
:101C0000F2F101EB8101490000E0491E0091002939
:101C1000FBD180F83C500020F8BD000012000010FD
:101C2000002001402400002040420F0000680349CA
:101C3000884201D1FFF762BC7047000000200140DC
:101C40007047704770B50446006801684268C1F388
:101C50004001C2F3401251B34AB3216CC90603D408
:101C6000216C41F400712164816811F0405F17D14B
:101C7000A169A9B9C16A11F4700F02D08168490540
:101C80000ED4416821F020014160206C20F4807066
:101C90002064206CC00403D4206C40F00100206458
:101CA0002046FFF7C3FF21686FF01200086020682C
:101CB00001684268C1F38001C2F3C01289B382B3E4
:101CC000216CC90603D4216C41F400512164816860
:101CD00011F4401F1ED1816B11F4401F02D08168A6
:101CE000490517D44168490514D4816811F0405F53
:101CF00010D1A16971B9416821F080014160206C67
:101D000020F480502064206CC00503D4206C40F087
:101D1000010020642046FFF7D5FE21686FF00C001B
:101D2000086020680168436811F0010FC3F3801157
:101D30000ED069B10068C0070AD0206C40F4803032
:101D40002064204600F046F821686FF0010008602A
:101D5000206801684268C1F340110029C2F3806223
:101D60000DD0002A0BD0616C6FF0200541F002010C
:101D7000616405602046FFF764FF2068056070BD60
:101D800070B504004FF0000503D0206C002610B1A0
:101D900007E0012070BD204600F01EF8666484F85C
:101DA0003C60206CC00610D4206C20F4885040F0B9
:101DB000020020642046FEF79FFD6664206C20F040
:101DC000020040F00100206400E0012584F83C603E
:101DD000284670BD70470000F0B587B00646142154
:101DE0006846FEF75DFA30493068884259D12F487D
:101DF000016841F48071016000682C4900F4807032
:101E000005901439086840F004000860086800F084
:101E100004000590086840F001000860086800F0C0
:101E200001000590086840F002000860086803247B
:101E30000025694600F00200059033208DE831004E
:101E40001B4800F073FAF02069468DE8310019480C
:101E500000F06CFA022069468DE83100164800F067
:101E600065FA164C16480115C4E900058715A560EA
:101E70000B01C4E9035182142046C4E90775656269
:101E8000C4E9052300F090F908B1FEF7B9FE00227D
:101E9000B46312201146A66300F0A0FB122000F0EC
:101EA0008FFB07B0F0BD0000002001404438024025
:101EB0000008024000000240000402407C030020B1
:101EC00010640240F8B50D4604460021009190F8D8
:101ED0003C00012807D0012084F83C00206883687A
:101EE000DB0702D011E00220F8BD8668364B46F0D1
:101EF0000106866035480068B0FBF3F000EB400057
:101F000000E0401E00900028FBD120688368DB07BA
:101F100058D0236C40F20166B34343F480732364CA
:101F20004068400505D5206C20F4005040F48050F6
:101F30002064206CC00404D5606C20F0060060644E
:101F400000E061646FF0220084F83C10A36B20492C
:101F5000D963A36B1F491964A36B1F49D964216816
:101F600008602068416841F08061416020688168B4
:101F700041F48071816021681346A06B2A464C3180
:101F800000F084F91549D1F80403C006206811D087
:101F9000884207D1826812F0405F03D1826842F024
:101FA00080428260D1F80403C0060BD40C4920683B
:101FB000884207D1816811F0405F03D1816841F008
:101FC000804181600020F8BD40420F0024000020C5
:101FD0005D080008E1080008CB0800080020014067
:101FE0000022014090F83510022903D0802141657C
:101FF00001207047052180F835100068016821F044
:1020000001010160002070472DE9F84304464FF0BC
:102010000009644B0820CDF800904FF41652A56DCE
:1020200094F85C101B682E68B3FBF2F700FA01F11C
:1020300031420FD021680A6852070BD50A6822F096
:1020400004020A6094F85C108840A860606D40F05B
:102050000100606594F85C104FF0010808FA01F087
:10206000304208D021684969090604D5A860606D2E
:1020700040F00200606594F85C1004208840304213
:1020800008D021680968890704D5A860606D40F010
:102090000400606594F85C1010208840304218D02D
:1020A00021680968090714D5A860206801684903F8
:1020B00004D50068000308D5A16C07E00168C905D4
:1020C00003D4016821F008010160216C09B12046A8
:1020D000884794F85C1020208840304231D0216835
:1020E0000968C9062DD5A86094F835000528206830
:1020F000016806D0490347D5006800031DD4616C10
:102100001CE021F0160101602068416921F0800186
:102110004161206C08B9A06C20B12068016821F0F1
:102120000801016094F85C303F229A40AA6084F86C
:10213000349084F83580216D1FE0E16B09B12046B1
:102140008847606D00282BD0606DC00714D0052033
:1021500084F835002068016821F0010101600098D1
:10216000401C0090B84203D820680068C007F6D130
:1021700084F8349084F83580E16C002910D001B0E7
:102180002046BDE8F04308470168C905D5D4036877
:1021900023F01003036084F8349084F83580CCE792
:1021A000BDE8F883240000202DE9F047044600F044
:1021B000B5F9054664B14FF0000984F83490022166
:1021C00084F835102068016821F0010101600EE0FB
:1021D0000120BDE8F08700BF00F0A0F9401B0528F2
:1021E00005D920216165032084F83500F1E72068D6
:1021F0000068C007F0D1D4E90020D4E90251D4E945
:10220000043C284304F1180519430843116895E874
:10221000E00140EA0C001C4B2843194040EA06004C
:1022200040EA0700B8F1040F40EA010003D1D4E905
:102230000B1319430843106020680126656A406942
:10224000042D20F0070045EA00050CD1D4E90A016D
:10225000054341B12046FEF753FC20B140206065A4
:1022600084F83560B4E7206845612046FEF734FC09
:1022700094F85C303F229A408260C4F8549084F80D
:1022800035600020A5E700003F8010E02DE9F04117
:10229000044690F8340000250128A66D0ED094F86D
:1022A00035C00127002084F83470BCF1010F07D03D
:1022B000022584F834002846BDE8F0810220FBE7BF
:1022C000022784F8357060652046FEF743FC94F8D9
:1022D0005C103F208840B0602068016841F0160122
:1022E00001602068416941F080014161206C20B1AA
:1022F0002068016841F0080101602068016841F030
:1023000001010160D7E7000070B5044600F006F94E
:102310000546601C02D004480078044400F0FEF832
:10232000401BA042FAD370BD180000202DE9F84FE1
:10233000DFF89CE100224FF001084FF0030B4FF053
:102340000F0A00BF0B6808FA02F42340A34271D1C0
:102350004D68022D01D0122D0FD1D5080E695707F7
:1023600000EB8505A9462D6AFF0E0AFA07FCBE4060
:1023700025EA0C052E43C9F820600F795500066840
:102380000BFA05FC07F0030726EA0C06AF403743BB
:1023900007604E68012E05D0022E03D0112E01D009
:1023A000122E0ED18668CF6826EA0C06AF4037435E
:1023B000876046680F79A643C7F3001797403743F5
:1023C0004760C4688E6824EA0C04AE402643C660A9
:1023D0004C68E40075D53F4C256845F48045256080
:1023E000246822F00306950704F4804400943A4CD4
:1023F0002D0F2644D6F80848DFF8E0C00AFA05F7A2
:10240000604524EA070401D100272EE0344FB8428A
:1024100001D1012729E0334FB84201D1022724E03E
:10242000314FB84201D103271FE0304FB84202D1EB
:1024300004271AE045E02E4FB84201D1052714E0E9
:102440002C4FB84201D106270FE02B4FB84201D1E3
:1024500007270AE0294FB84201D1082705E0284F95
:10246000B84201D1092700E00A27AF40274375464B
:10247000C6F808784E68DEF80040F60324EA030444
:1024800000D51C43124E2C60361D4D683468AD03D8
:1024900024EA030400D51C430D4F346008374D680F
:1024A0003C68ED0224EA030400D51C43084D3C605F
:1024B0000C354E682C68B60224EA030400D51C4390
:1024C0002C60521C102AFFF43DAFBDE8F88F0000CD
:1024D000003C01404438024000300140000002400E
:1024E0000004024000080240000C024000100240BC
:1024F0000014024000180240001C0240002002406C
:1025000000240240426931EA020200D109048161DB
:1025100070470AB1816170470904FBE70148806890
:1025200070470000180000200248816802781144BA
:102530008160704718000020032010B500F06EF88D
:10254000002000F005F800F023F8002010BD000086
:1025500070B50D4D04464FF47A700C4A2978126814
:10256000B0FBF1F0B2FBF0F000F0C2FD48B9102C66
:1025700007D200222146501E00F030F800206C6087
:1025800070BD012070BD0000180000202400002054
:102590000A4808B5016841F080510160006800F008
:1025A000805000900548001D016841F480410160A1
:1025B000006800F48040009008BD000040380240F0
:1025C000002809DB410900F01F028900012001F108
:1025D000E0219040C1F80001704700000E4BF0B4BC
:1025E0001B680D46C3F30223C3F10706042E00D96E
:1025F0000426191D072901D2002300E0DB1E012457
:1026000004FA06F19C40491E2940641E994014407A
:102610002143F0BC02F0E2BB0CED00E0064900F003
:10262000070210B54FF6FF040868044B204040EA4B
:1026300002201843086010BD0CED00E00000FA0510
:102640001848F8B5016841F0805101600068164CE7
:1026500000F080500090206840F480302060FFF748
:102660005DFF4FF47A76054605E000BFFFF756FFA1
:10267000401BB0420FD86068C003F7D5206840F413
:1026800000302060FFF74AFF054606E0FFF746FFEF
:10269000401BB04201D90320F8BD60688003F5D526
:1026A0000020F8BD40380240007000402DE9F84F8E
:1026B00004460078DFF824944FF000063746C00740
:1026C0000ED0D9F8001021F40001C9F80010D9F893
:1026D0000010626B1143C9F80010606B00B901264D
:1026E000FE4D2068843500030ED5E16B286820F488
:1026F000401008432860E06BB0F5801F01D010B196
:1027000002E0012600E0012720684FF4800BC002A0
:102710000CD5216C286820F4400008432860206C08
:10272000584501D1012601E000B901272068C10107
:1027300000D50126800666D5E8483830016841F0AA
:10274000805101600068DFF898A300F0805000908D
:10275000DAF8001041F48071CAF80010FFF7DEFECD
:10276000804605E0FFF7DAFEA0EB080064287DD87C
:10277000DAF80000C005F5D5DFF8608308F16808D5
:10278000D8F8000010F440702AD0218E01F4407176
:10279000814225D0D8F80010D8F8002021F44071EB
:1027A00042F48032C8F80020D8F8002022F48032A9
:1027B000C8F80020C8F80010D8F80000C0070FD0F3
:1027C000FFF7ACFE824607E0FFF7A8FEA0EB0A0188
:1027D00041F288308142CAD8D8F800008007F3D58A
:1027E000206BC0F3012103297ED0D9F8001021F419
:1027F000F811C9F80010228ED8F80010C2F30B02AD
:102800001143C8F800102078C00607D5286820F0CA
:10281000807028602868A16B084328602188AF4831
:102820008830490405D5626E016821F440311143B6
:1028300001602188090405D5A26E016821F44021B8
:10284000114301602168C90305D5E26E016821F4D6
:102850004011114301602168890305D5226F016889
:1028600021F4400111430160217800E034E1490680
:1028700005D5626C016821F00301114301602178E4
:10288000090605D5A26C016821F00C011143016015
:102890002188C90505D5E26C016821F0300111439A
:1028A00001602188890505D5226D016821F0C001EC
:1028B000114301602188490505D5626D016821F445
:1028C0004071114301602188090505D5A26D016899
:1028D00021F44061114301602188C90407D5E26DEC
:1028E000016821F4405100E05FE01143016021885C
:1028F000890405D5226E016821F44041114301602D
:102900002168490205D5A26F016821F08061114359
:10291000016021684FF0006A890209D5E26F016801
:1029200021F0006111430160E16F514500D10127A1
:1029300021680A0700D50127490305D5626F0168A0
:1029400021F04071114301602168090206D5D4F8D5
:102950008020016821F08051114301602168490104
:1029600006D5D4F88420016821F00051114301609C
:102970002068000106D5D4F88810286820F000707F
:10298000084328602068C00006D5D4F88C10286859
:1029900020F0806008432860DFF84891012E0ED0B7
:1029A0002068B0F1007F0AD08FE04F4AD9F800309C
:1029B000104023F4F8120243C9F800201BE7D9F8AD
:1029C00000004E4620F08060C9F80000FFF7A6FD29
:1029D000804605E0FFF7A2FDA0EB080064287BD845
:1029E00030680001F6D421783C487C30C90712D009
:1029F000616B81B9237A62680168D0F800C09201E6
:102A0000C1F3014142EA0142CCF3036142EA0161B0
:102A100041EA0371016021680A0303D5E26BB2F554
:102A2000801F04D0C9021AD5216C594517D163689B
:102A3000016894F80CC002689B01C1F3014143EAAC
:102A40000141C2F3027241EA0C6141EA0271016084
:102A50002968626A21F01F01521E11432960216812
:102A6000C90110D5238A62680168D0F800C09201BC
:102A7000C1F3036142EA034242EA0162CCF302710C
:102A800042EA01710160216889010CD56168228ADE
:102A9000237B94F808C0890141EA024141EA0361BD
:102AA00041EA0C7101603168B04641F080613160EB
:102AB000FFF734FD064604E0FFF730FD801B642875
:102AC0000AD8D8F800000001F6D5E7B3D9F800001D
:102AD0004E4620F0805009E07BE0000008380240BC
:102AE0000070004000380240FFFCFF0FC9F80000F2
:102AF000FFF714FD074604E0FFF710FDC01B642834
:102B000067D83068C0438000F6D5216835480A038D
:102B100001D5E26B1AB1C9021DD5216CD9B963691F
:102B20000168277E02689B01C1F3014143EA01432A
:102B3000C2F3027143EA076242EA01710160296847
:102B40006FF0FF0300E04BE0A26A21F4F85103EBC1
:102B50000222114329602168890212D5E16F514593
:102B60000FD1238C6269016807689201C1F3036188
:102B700042EA034242EA0162C7F3027142EA01718A
:102B800001602178090716D561690268D0F800C094
:102B90008B01277FC2F30362CCF3014143EA014179
:102BA00041EA026141EA077101602868E16A20F4A4
:102BB000403008432860306840F080503060FFF7B4
:102BC000ADFC044608E000BFFFF7A8FC001B64282A
:102BD00002D90320BDE8F88F3068C0438000F3D4E9
:102BE0000020F7E7883802402DE9F04705000F463E
:102BF00063D0444E306800F00F00B84209D230680C
:102C000020F00F0038433060306800F00F00B84209
:102C100053D128683C4C810712D5400703D5206862
:102C200040F4E05020602878000703D5206840F485
:102C300060402060A968206820F0F0000843206010
:102C40002878C0072AD0304968680839012810D090
:102C50000968022810D0890700292EDA216821F09E
:102C6000030101432160FFF759FC804641F2883996
:102C70000DE009688903EFE78901EDE7FFF74EFCF6
:102C8000A0EB0801494502D90320BDE8F087686838
:102C9000216801F00C01B1EB800FEFD1306800F03A
:102CA0000F00B8420BD9306820F00F003843306075
:102CB000306800F00F00B84201D00120E5E7287825
:102CC000400705D5E968206820F4E05008432060FB
:102CD0002878000706D52869216821F4604141EA77
:102CE000C000206000F036F82168084AC1F30311E3
:102CF000515CC840064908600020FFF729FC00200D
:102D0000C3E70000003C024008380240D4510008EC
:102D1000240000200449054809680068044AC1F3FA
:102D20008221515CC84070470838024024000020CE
:102D3000E45100080449054809680068044AC1F3E1
:102D40004231515CC84070470838024024000020DE
:102D5000E4510008154910B51548096811F00C0236
:102D600013D04110042A0FD0082A0ED10F4C241F73
:102D70002268236802F03F025B0207D52068C0F397
:102D80008810A0FB010106E0084610BD2168C1F3D0
:102D90008811A1FB00010023FDF74AFA2168C1F365
:102DA0000141491C4900B0FBF1F010BD0838024058
:102DB0000024F4002DE9F84F05004FF000076ED015
:102DC0002878DFF82093A9F1040AC007AAF10404C7
:102DD0004CD0D9F800104846C1F38101012908D030
:102DE0000068C0F3810002280AD1DAF8000040022E
:102DF00006D52068800339D568680028DFD035E023
:102E00006868B0F5803F0BD010B1B0F5A02F11D09D
:102E1000206820F480302060206820F4802002E0C8
:102E2000206840F480302060686890B1FFF776FB3E
:102E300006460AE0206840F480202060F0E700BFEA
:102E4000FFF76CFB801B642872D820688003F7D5DD
:102E50000CE0FFF763FB064605E000BFFFF75EFBF3
:102E6000801B6428F0D820688003F7D42878800776
:102E700042D5D9F80010484611F00C0F08D0006870
:102E8000C0F3810002280BD1DAF80000400207D419
:102E90002068800718D5E868012800D114E01EE1F9
:102EA000E8680028206817D040F001002060FFF794
:102EB00035FB064605E000BFFFF730FB801B02280C
:102EC000C2D820688007F7D52869216821F0F80169
:102ED00041EAC00020600FE020F001002060FFF711
:102EE0001DFB064605E000BFFFF718FB801B02280C
:102EF0001ED820688007F7D42878000729D579489C
:102F000069696C3000298046016812D041F00101E6
:102F10000160FFF703FB064605E000BFFFF7FEFA7E
:102F2000801B022804D8D8F800008007F6D510E0EE
:102F300089E021F001010160FFF7F0FA064604E0A4
:102F4000FFF7ECFA801B02287DD8D8F80000800734
:102F5000F6D4287840076BD5DFF8888108F1380867
:102F6000D8F80000C0000BD4D8F8001041F0805110
:102F7000C8F80010D8F80000012700F08050009039
:102F800059480168C90512D40168834641F480712B
:102F90000160FFF7C3FA064605E000BFFFF7BEFA7F
:102FA000801B64284FD8DBF80000C005F6D54D4ED5
:102FB000A868683601280AD008B1052811D0306801
:102FC00020F001003060306820F0040002E030683A
:102FD00040F001003060A868A0B1FFF79FFA834677
:102FE0000CE0306840F004003060F0E7FFF796FA3C
:102FF000A0EB0B0141F28830814268D8306880072D
:10300000F4D50EE0FFF78AFA834607E0FFF786FA69
:10301000A0EB0B0141F28830814258D8306880071C
:10302000F4D42FB1D8F8001021F08051C8F8001066
:10303000A869E0B3D9F80010C1F3810102294ED08C
:103040000228206800E042E020F08070206003D079
:10305000FFF764FA05463DE0FFF760FA064604E034
:10306000FFF75CFA801B022831D820688001F7D472
:10307000D5E90921DFF874C0D5E9070695F83030A5
:103080004F0895F82C1030430CEB074545EA8212A7
:10309000104340EA016040EA0370CAF8000020686B
:1030A00040F080702060FFF739FA054605E014E033
:1030B000FFF734FA401B022809D820688001F7D5B1
:1030C0000BE000BFFFF72AFA401B022802D90320B9
:1030D000BDE8F88F20688001F4D40020F8E70120D3
:1030E000F6E7000008380240007000400000FFFFD3
:1030F000401EB0F1807F10B501D3012010BD4FF00C
:10310000E02460610F21601701F068FE0020A061DB
:103110000721216110BD70477047704770B590F866
:103120003C20012A24D0134C012580F83C50022277
:1031300080F83D2002685368A242966802D00E4C87
:10314000A24203D14C6823F4700323430C6823F09C
:10315000700389681C435460002326F080060268CF
:103160003143916080F83D5080F83C30184670BD86
:10317000022070BD000001400004014010B50400B1
:1031800003D094F83D0010B107E0012010BD0020ED
:1031900084F83C00204600F00DF8022084F83D0041
:1031A0002068211D01F0EEF8012084F83D00002088
:1031B00010BD000008B501681048B1F1804F0BD078
:1031C0000F4A914207D1016841F004010160006893
:1031D00000F00400009008BD016841F001010160A9
:1031E00000680022114600F0010000901C20FFF74B
:1031F000F5F9BDE808401C20FFF7E2B9403802406D
:10320000000800400168094ACB6843F00103CB6025
:10321000016888681040062806D0B0F5803F03D0CA
:10322000086840F0010008600020704707000100B6
:1032300070B5044690F83C00012817D0324B0125A8
:1032400084F83C50022084F83D00226890681840C1
:1032500020F47F4090600868502830D00DDC202892
:103260004DD005DC98B310283BD148E0022070BD5A
:10327000302844D0402834D139E0602828D0702844
:1032800006D0B0F5805F2CD0B0F5005F29D10AE000
:103290004A682068D1E9021301F0E7F820688168E4
:1032A00041F0770109E04A682068D1E9021301F092
:1032B000DCF82068816841F48041816011E0CA68CF
:1032C0004968206801F018FA2068502107E016E0EC
:1032D000CA684968206801F020FA2068602101F07E
:1032E000CDF8002084F83D5084F83C0070BDCA68D9
:1032F0004968206801F000FA20684021EFE7226861
:1033000001461046EBE7000088FFFEFF704770B5EE
:103310000446006800250169C943890715D4C168BE
:10332000C943890711D4EA1E02610121217720686F
:1033300080698007204602D0FFF7E8FF04E000F034
:10334000CFF8204600F07DF9257720680169C94350
:10335000490717D4C168C943490713D402216FF044
:103360000402026121772068806910F4407F2046C2
:1033700002D0FFF7CBFF04E000F0B2F8204600F0E7
:1033800060F9257720680169C943090716D4C16827
:10339000C943090712D404216FF0080202612177A2
:1033A0002068C0698007204602D0FFF7AFFF04E025
:1033B00000F096F8204600F044F92577206801696E
:1033C000C943C90617D4C168C943C90613D4082123
:1033D0006FF01002026121772068C06910F4407F0D
:1033E000204602D0FFF792FF04E000F079F8204673
:1033F00000F027F9257720680169C943C90708D17A
:10340000C168C943C90704D1891E0161204600F083
:103410003FF920680169C943090609D4C168C94355
:10342000090605D46FF0800101612046FFF774FEA4
:1034300020680169C943C90509D4C168C94309069F
:1034400005D46FF4807101612046FFF764FE2068A7
:103450000169C943490609D4C168C943490605D46D
:103460006FF040010161204600F038F920680169E1
:10347000C94389060BD4C168C943890607D46FF0D4
:10348000200101612046BDE87040FFF746BE70BDD7
:1034900010B586B0044614216846FCF701FF0D49BB
:1034A0002068884214D10C48016841F0080101608D
:1034B0000068002100F008000590022082030092BD
:1034C000CDE90101CDE9031004486946FEF72EFF5E
:1034D00006B010BD0008004030380240000C024029
:1034E000704770B5044690F83C000D4601280ED098
:1034F000012684F83C60022084F83D000C2A45D067
:1035000007DC5AB1042A1BD0082A78D12CE002200B
:1035100070BD102A4ED0142A71D15DE0206800F0F1
:10352000B5FF2068816941F00801816120688169E7
:1035300021F00401816120682A698169114311E049
:10354000206800F0DDFF2068816941F4006181613D
:103550002068816921F4806181612068296982691C
:1035600042EA012181614AE0206801F005F8206803
:10357000C16941F00801C1612068C16921F00401FD
:10358000C16120682A69C169114311E0206801F016
:103590002FF82068C16941F40061C1612068C169E8
:1035A00021F48061C16120682969C26942EA012170
:1035B000C16124E0206801F047F82068416D41F0C6
:1035C000080141652068416D21F0040141652068D2
:1035D0002A69416D114311E0206801F061F820680B
:1035E000416D41F4006141652068416D21F48061C5
:1035F000416520682969426D42EA01214165002048
:1036000084F83D6084F83C0070BD10B5040003D020
:1036100094F83D0010B107E0012010BD002084F8AF
:103620003C00204600F00CF8022084F83D002068A1
:10363000211D00F0A7FE012084F83D00002010BDF0
:103640007047704710B501220446006800F000FF83
:103650000C492068884202D00B49884203D1416C52
:1036600041F4004141642068084A816811400629FC
:1036700006D0B1F5803F03D0016841F0010101603F
:10368000002010BD000001400004014007000100BF
:1036900070B572B60068B0F1804F18D10D4C20683B
:1036A000401C20606068401C6060FDF7CDFA206817
:1036B0000025322802DBFDF78BFE25606068B0F53F
:1036C000FA7F04DB04488021FEF71CFF656062B6C8
:1036D00070BD0000040000200004024070477047E5
:1036E0002DE9F041026804460025D069116893680D
:1036F00010F00F0F5BD003F0010601F49077374311
:1037000069D0C70707D0CF0505D501271762E26F3B
:1037100042F00102E267820708D5DA0706D027687F
:1037200002223A62E26F42F00402E267420708D5E1
:10373000DA0706D0236804221A62E26F42F002021E
:10374000E26702070AD501F02002324306D023685F
:1037500008221A62E26F42F00802E267E26F002A72
:1037600032D0800605D5880603D5216E09B12046E2
:1037700088472168E06F8968490601D4000725D58C
:10378000204601F0AAF820688168490619D58168A9
:1037900021F040018160E06E98B11A490165E06E48
:1037A000FEF720FC00280FD0E06E016D06E08306D6
:1037B00011D58B060FD5216E12E02046BDE8F041F1
:1037C00008472046FFF78BFFBDE8F0812046FFF752
:1037D00086FFE567F8E7030605D50B0603D5616E9E
:1037E0000029EAD1F0E74006EED54806ECD513688B
:1037F0002021204623F0400313606167656600F0D6
:103800007FF9E1E74948000810B5040002D0606F75
:1038100010B107E0012010BD002084F870002046A0
:1038200000F026F8242060672068016821F001017B
:103830000160204601F0C4F80128ECD0606A10B1A4
:10384000204600F07FFF2068416821F490414160EC
:103850002068816821F02A0181602068016841F0B8
:10386000010101602046BDE8104000F0CFBF00001C
:1038700070B586B0064614216846FCF711FD224952
:10388000306888423ED12148016841F480210160BE
:10389000006800F4802005901C481038016841F051
:1038A0000801016000680025022100F00800059071
:1038B0004FF4407007238DE8230003221448CDE91C
:1038C00003236946FEF732FD124C402212484FF0A6
:1038D000006184E8270003152046C4E90435A5618A
:1038E000E56125626562FEF75FFC08B1FDF788F9C6
:1038F0000022B46627201146A663FEF76FFE27203C
:10390000FEF75EFE06B070BD004800404038024041
:10391000000C0240E80400205860024070B5836F3C
:10392000202B4BD1B9B1B2B190F87030012B45D0FA
:103930008368012680F870600024416535030466C1
:10394000AB42A0F85820A0F85A204FF0FF0107D151
:10395000026912B126E0012070BD40F2FF1121E0A2
:103960004FF07F02E3B1B3F1805F1ED0A0F85C405E
:103970002221C467816701688A6842F001028A6077
:103980008168A94201D10169B1B10D49016680F890
:1039900070400068016841F490710160002070BDC2
:1039A000036933B9A0F85C10E2E7016909B13F216E
:1039B000F8E7A0F85C20DBE70249E7E7022070BDEA
:1039C000654900080B4900082DE9F04172B6234D06
:1039D000012723494FF000086C1C287848B3214E7A
:1039E000002085F800800A5C3254401C0A28FADB6B
:1039F0001D484FF48041FEF785FDAF6096ED040B46
:103A0000B7EE001BB4EE410BF1EE10FA01D1FDF759
:103A10000FFA12490322491CC81CFCF74CFC78B170
:103A20000F49012201F10C00FFF778FF62B6BDE8F3
:103A3000F08160782070A07860700878A070E8E766
:103A400007490A222F7001F10C00FFF767FF0020E1
:103A500041462154401C0328FBDBE7E70C00002013
:103A60005C040020900200200004024070B504466F
:103A7000406F20283BD161B35AB394F870000128FD
:103A800035D0A4F85020A4F852200025A06E0123C0
:103A9000E164212184F87030E5676167D8B1154988
:103AA0001346C163A16E14480864A16E1348C8642C
:103AB000A06E05652068A66E00F12802E16C304614
:103AC000FEF7E4FB38B11021E167202084F8705044
:103AD0006067012070BD21684020086284F8705042
:103AE0002068816841F080018160002070BD022063
:103AF00070BD0000A3480008D14800085D480008D8
:103B000070477047FEE700002DE9F041444D8446C0
:103B10001646284600F11403B5F8984100F59D7249
:103B2000B0F89A01A4F54077053F1FD0B4F5017FA6
:103B300035D0B4F5007F39D00127A4F5007EBEF55D
:103B4000837E1DD0A4F50071013936D0A4F5007133
:103B500002393DD0A4F50071033945D0B4F57A7F20
:103B600057D0032085F86002BDE8F081022785F870
:103B70006072A5F8A20100240C80B5F89C0108E051
:103B8000092085F860020F800A20B5F89A41B4FB3D
:103B9000F0F030800988BDE8F041FCF75BBC0620FE
:103BA00085F86002BDE8F04101F06ABA082185F8A5
:103BB0006012BDE8F04101F041BA042185F86012BD
:103BC000040A1E2C02D9002001F0FAF9204607E071
:103BD00085F8607201F0F4F9B5F834010028C3D11A
:103BE000BDE8F04101F000BA6422052185F86012B9
:103BF0005043B0F5803F01DB4FF6FF70084A80B2BA
:103C0000ACF80000BDE8F0411C3202F5C47100F0D0
:103C100096BD072185F86012BDE8F04101F0FAB9C0
:103C200028000020024909220248FEF74BB9000093
:103C3000B4020020340300200148FFF7E3BA00007B
:103C4000DC030020024901220248FFF767BE0000A2
:103C50005C04002068040020244A2DE9F04192F819
:103C600049C2BCF1010F27D0104602270323B0F848
:103C70002261012490F84B52BCF1020FB0F82611DA
:103C8000B0F828010AD0BCF1030F2DD1B2F82AC137
:103C9000614523D0B2F82CC160451FD028B102285D
:103CA00003D0012801D003280AD082F84932A2F8B3
:103CB0002A11A2F82C0111E0BDE8F041FCF7DABBB3
:103CC00082F84942022DA2F8C461A2F82A11A2F892
:103CD0002C0109D082F84B72A2F8924101F0E2F86F
:103CE000BDE8F04101F0C2B8BDE8F0812800002035
:103CF0002DE9FF41414800214FF440353E4B0091F2
:103D0000012401914FF0090802910391C0E90035A7
:103D10000461846181603A4B80F82010C0E90A3167
:103D2000C0F81C80C16080F830404461FEF728F87C
:103D300008B1FCF765FF0725304804260096694660
:103D4000CDE90145FDF7C0FE08B1FCF759FF02209F
:103D500069460524CDE900402848FDF7B5FE08B1C5
:103D6000FCF74EFF032069460627CDE90070234883
:103D7000FDF7AAFE08B1FCF743FF20486946CDE9EC
:103D80000056FDF7A1FE08B1FCF73AFF1B48464676
:103D9000CDE900846946FDF797FE08B1FCF730FFD6
:103DA0000A206946CDE900071448FDF78DFE08B1E9
:103DB000FCF726FF0B206946CDE900050F48FDF70B
:103DC00083FE08B1FCF71CFF08210E20CDE900019D
:103DD0000A486946FDF778FE08B1FCF711FF0F208D
:103DE0006946CDE900060548FDF76EFE002801D0C2
:103DF000FCF706FFBDE8FF810020014034030020EE
:103E00000100000F114808B5016841F4001101607C
:103E1000016801F400110091016841F48001016022
:103E200000680022114600F4800000900E20FEF78A
:103E3000D5FB0E20FEF7C4FB002238201146FEF70A
:103E4000CDFBBDE808403820FEF7BABB3038024051
:103E5000704700002DE9F04F87B014216846FCF749
:103E60001FFA3D48016841F004010160016801F05A
:103E700004010591016841F080010160016801F0D1
:103E800080010591016841F001010160016801F0C4
:103E900001010591016841F002010160016801F032
:103EA00002010591016841F020010160016801F003
:103EB00020010591016841F010010160016801F0E5
:103EC00010010591016841F008010160006844F6A5
:103ED0008147DFF88890002200F0080039460590FD
:103EE0004846FEF716FBDFF878A04FF40056002294
:103EF00031465046FEF70DFBDFF868B04FF44048FE
:103F0000002241465846FEF704FB0024164800965E
:103F10006946CDE901041548FEF708FA0125009726
:103F2000CDE90154694648460394FEF7FFF900962F
:103F30006946CDE9015450460394FEF7F7F9CDF8F0
:103F400000806946CDE9015458460394FEF7EEF926
:103F500007B0BDE8F08F0000303802400004024096
:103F6000001402400010024000001110000802403E
:103F700010B588B01648002440F2E7324FF0804177
:103F800000946B2301940294039404940594069482
:103F900080E81600C0E903348461FFF7EFF808B148
:103FA000FCF72EFE4FF48050009009486946FFF759
:103FB0003FF908B1FCF724FE054804A904940694CF
:103FC000FFF7ACF8002801D0FCF71AFE08B010BDCE
:103FD000DC03002010B58EB000241C21009407A83B
:103FE000019402940394049405940694FCF758F900
:103FF0001E4840F2CF7140F237421B4BC0E90241EC
:1040000004618461C0E90032FFF7B8F808B1FCF739
:10401000F7FD4FF48050009014486946FFF708F907
:1040200008B1FCF7EDFD1148FFF7EFFA08B1FCF716
:10403000E7FD0E4804A904940694FFF76FF808B151
:10404000FCF7DEFD6020CDE9070408480C2207A933
:1040500009940B94FFF745FA08B1FCF7D1FD03482A
:10406000FFF716FA0EB010BD000800401C04002037
:104070000D48002110B50B4C0C224FF4E1330460C5
:10408000C0E90131C160C0E904128161C16101620E
:104090004162FFF7B9FB002803D0BDE81040FCF7F0
:1040A000AFBD10BD0048004068040020FEE70000DE
:1040B0001348014690F84E22C96E012A0ED0022AFA
:1040C00012D00146032A91F8501213D0042A10D1BD
:1040D000022901D006290CD1022108E0022901D0D1
:1040E000002906D1042102E0012902D1032180F830
:1040F0004E127047022901D00629FAD10121F6E7B4
:1041000028000020704770B5DDE904450688360AAE
:104110002E70007868700888000AA8700878E87027
:104120001088000A2871107868711888000AA87130
:104130001878E8712088000A28722078687270BDAB
:10414000002210B501EB420430F812301B0A01F8CE
:10415000123010F81230521C0A2A6370F2DB10BDC4
:10416000704700002DE9F041444D8446164628462C
:1041700000F11403B5F8984100F59D72B0F89A016A
:10418000A4F54077053F1FD0B4F5017F35D0B4F5D5
:10419000007F39D00127A4F5007EBEF5837E1DD0B7
:1041A000A4F50071013936D0A4F5007102393DD073
:1041B000A4F50071033945D0B4F57A7F57D00320B8
:1041C00085F86002BDE8F081022785F86072A5F8E5
:1041D000A20100240C80B5F89C0108E0092085F8B4
:1041E00060020F800A20B5F89A41B4FBF0F03080ED
:1041F0000988BDE8F041FCF72DB9062085F860027A
:10420000BDE8F04100F03CBF082185F86012BDE830
:10421000F04100F013BF042185F86012040A1E2C3F
:1042200002D9002000F0CCFE204607E085F860723D
:1042300000F0C6FEB5F834010028C3D1BDE8F04156
:1042400000F0D2BE6422052185F860125043B0F51B
:10425000803F01DB4FF6FF70084A80B2ACF80000E7
:10426000BDE8F0411C3202F5C47100F068BA0721C4
:1042700085F86012BDE8F04100F0CCBE28000020B7
:104280007047FEF751B9000030B5B7B0342124A80B
:10429000FCF706F8142131A8FCF702F890216846D3
:1042A000FBF7FEFF1D48016841F080510160006886
:1042B00000F0805036901A48016841F44041016096
:1042C00000680224D82500F44040369004200121E3
:1042D00003058203CDE92C05CDE92A43CDE92E4023
:1042E000CDE9241224A8FEF765FDFEF7A9F9E20244
:1042F0004FF4A0510025CDE9341231AA0F20072137
:1043000082E8310031A8FEF76FFCE00113950090C0
:104310006846FEF7CBF937B030BD000040380240A8
:1043200000700040104A30B51048146800210F4B4F
:1043300044F470041460083305680D4A0D4C45F0D0
:104340000105056019600368051D1340074A0360F5
:104350000C322C600568E305034C25F480250560CC
:10436000803C1160236030BD88ED00E000380240E1
:10437000FFFFF6FE103000240148FEF7C8BF000022
:10438000DC030020F0B5274B4FF0804E264D02682D
:104390009842264E264F274C09D0704507D0A84298
:1043A00005D0B04203D0B84201D0A04205D1D1F827
:1043B00004C022F070024CEA020298421BD0704501
:1043C00019D0A84217D0B04215D0B84213D0A0429D
:1043D00011D0194DA8420ED0184DA8420BD0184D3F
:1043E000A84208D0174DA84205D0174DA84202D0C8
:1043F000164DA84203D1CD6822F440722A434D697C
:1044000022F080022A43026098428A68C2620A68E7
:10441000826201D0A04201D1096901630121416199
:10442000F0BD000000000140000400400008004012
:10443000000C0040000401400040014000440140E5
:104440000048014000180040001C004000200040CF
:1044500010B5046A012301F01F018B409C430462E4
:104460008A40016A1143016210BD42EA0322836857
:104470000A4323F47F410A4382607047826822F036
:1044800070020A4342F0070181607047F0B5026A8A
:10449000DFF860C0184F22F00102DFF860E002622E
:1044A000066A4268836926F002060D68B8428C6885
:1044B00003EA0C0323F0030344EA060445EA030578
:1044C00001D0704505D1CB6824F00804234323F0C4
:1044D0000404B84201D0704505D122F44076D1E9F8
:1044E000053233431A43426085614968416304627F
:1044F000F0BD00008FFFFEFF0000014000040140FE
:10450000F0B5026A194E1A4C22F01002DFF864E08E
:104510000262056A4368826925F02005D1F808C067
:10452000A0420F6802EA060222F4407245EA0C1526
:1045300042EA072201D0704506D1CE6825F08005F9
:1045400045EA061525F04005A04201D0704507D187
:10455000D1E9054623F4406343EA840343EA860332
:1045600043608261496881630562F0BDFF8FFFFE91
:104570000000014000040140F0B5026A194F1A4ED4
:1045800022F48072DFF864E00262056A4368C2695F
:1045900025F40075D1F808C0B0420C6802EA0702A1
:1045A00022F0030245EA0C2544EA020401D07045DA
:1045B00006D1CF6825F4006242EA072222F4806522
:1045C000B04201D0704507D123F44052D1E90536FD
:1045D00042EA031242EA06134360C4614968C163B8
:1045E0000562F0BD8FFFFEFF0000014000040140A6
:1045F000F0B5026A124B114F22F4805298420262C7
:10460000046A4268C36924F400548E680D6803EAA2
:10461000070323F4407344EA063443EA052302D037
:10462000084DA84204D14D6922F4804242EA851225
:104630004260C361496801640462F0BDFF8FFFFE00
:104640000000014000040140F0B5026ADFF844C0F8
:1046500022F480320262056A4268446D25F4003516
:104660000E8960450C4F0B6804EA070445EA0645CD
:1046700043EA040302D0094CA04204D14C6922F45D
:10468000803242EA042242604365496881650562DE
:10469000F0BD0000000001408FFFFEFF000401405C
:1046A000F0B5026ADFF844C022F480120262046AA4
:1046B0004268436D24F400140E8960450C4F0D6868
:1046C00003EA070344EA065443EA052302D0094DEE
:1046D000A84204D14D6922F4802242EA8522426038
:1046E00043654968C1650462F0BD000000000140F7
:1046F000FF8FFFFE0004014010B5036A046A23F037
:104700000A0324F00104046284690B4324F0F001DD
:1047100041EA02118161036210BD10B5036A23F002
:10472000100303628369046A23F4704324F0A00435
:1047300043EA0232826144EA0111016210BD08803D
:104740001080704790F82410C90706D00168836A6A
:104750004A6822F400321A434A6090F8241089070C
:1047600006D50168C36A4A6822F480321A434A6057
:1047700090F82410490706D50168036B4A6822F4B3
:1047800080221A434A6090F82410090706D5016870
:10479000436B4A6822F400421A434A6090F824109E
:1047A000C90606D50168836B8A6822F480521A43D1
:1047B0008A6090F82410890606D50168C36B8A6860
:1047C00022F400521A438A6090F82410490611D549
:1047D0000168036C4A6822F480121A434A60016C33
:1047E000B1F5801F06D10168436C4A6822F4C0020B
:1047F0001A434A6090F82410090606D50168826CB5
:10480000486820F4002010434860704738B5002500
:104810000446C567FDF782FE03462068006800076E
:104820000BD56FF07E400090002220464FF400111F
:1048300000F0F0F908B1032038BD2020606784F84B
:104840007050A067002038BD10B5806B0021A0F823
:104850005A10A0F85210FEF742FF10BD70B5846BDD
:1048600000252168606FA66F8968090606D5212892
:1048700004D1A4F85250204600F03FF82068806828
:10488000400606D5222E04D1A4F85A50204600F046
:1048900024F8E06F40F01000E0672046FEF71FFFAD
:1048A00070BD10B5C169806BB1F5807F0DD000215E
:1048B000A0F8521001688A6822F080028A600068BD
:1048C000016841F04001016010BDFFF719F910BD0A
:1048D00010B5806BFFF715F910BD10B501682022E7
:1048E00000230C6824F490740C6001688C6824F038
:1048F00001048C608267036610BD016820220B688A
:1049000023F0C0030B604267704710B5816FB0F8A9
:104910005C202229016804D0886940F00800886181
:1049200010BD496A436D11401980416D891C416574
:10493000B0F85A10491EA0F85A10B0F85A100029C1
:10494000EED10168202200230C6824F490740C60DE
:1049500001688C6824F001048C6082670366FFF7AD
:1049600033F810BD10B5816FB0F85C2022290168C2
:1049700004D0886940F00800886110BD496A436D21
:1049800011401970416D491C4165B0F85A10491E1B
:10499000A0F85A10B0F85A100029EED10168202270
:1049A00000230C6824F490740C6001688C6824F077
:1049B00001048C6082670366FFF706F810BD0000F3
:1049C0002DE9F04104468068DFF818C2864F23685D
:1049D000D4E90452E16928431E6800250A4383494B
:1049E000104306EA0C0606431E604FF4004220689E
:1049F000E668436823F44053334343602368A66961
:104A0000206AD3F808C030432CF4306606439E6019
:104A10002068B8420AD1086810F0030052D001287B
:104A20007BD002287AD003286ED186E0704B984262
:104A30000AD1086810F00C0079D004287BD008282F
:104A400077D00C2860D178E06A4B98420AD1086888
:104A500010F030006BD010286DD0202869D030289D
:104A600052D16AE0644B98420AD1086810F0C00045
:104A70005DD040285FD080285BD0C02844D15CE066
:104A80005E4B98420DD1086810F440704FD0B0F5DD
:104A9000807F50D0B0F5007F4BD0B0F5407F33D150
:104AA0004BE0574B98420FD1086810F4406009D092
:104AB000B0F5806F3FD0B0F5006F3AD0B0F5406FE1
:104AC00022D13AE0012120E04E4B98420DD10868F6
:104AD00010F440502BD0B0F5805F2CD0B0F5005FC3
:104AE00027D0B0F5405F0FD127E0474B98420BD15C
:104AF000086810F440401AD0B0F5804F1BD09042A7
:104B000017D0B0F5404F18D01021E0694FF6EF767E
:104B1000904238D109295DD202E00CE009E006E0BC
:104B2000DFE801F00D1027582A5858582D000021B1
:104B3000EBE70221E9E70421E7E70821E5E7FEF7D3
:104B4000E9F801E0FEF7F6F80146D4F80400490060
:104B500001EB5001B1FBF0F080B2A0F11001B142C5
:104B600038D84FF6F0732168C0F342021840104362
:104B700024E026496068EBE7FEF7ECF8E4E76068BC
:104B80004FF48031E4E7092924D2DFE801F0050879
:104B900019231C2323231F00FEF7BCF801E0FEF7B6
:104BA000C9F80146D4F8040001EB5001B1FBF0F064
:104BB00080B2A0F11001B1420CD82168C8600AE0AF
:104BC00013496068F0E7FEF7C5F8EAE7606802EBB2
:104BD0005001EBE701250020206660662846BDE80D
:104BE000F0810000F369FFEF0010014090380240AF
:104BF0000044004000480040004C0040005000408D
:104C00000014014000780040007C00400048E801AA
:104C10000024F4002DE9F041984617460E4604465C
:104C2000069D08E0681C06D0FDF778FCA0EB0800A4
:104C3000A8420BD855B12068C06936EA000017D0E9
:104C40000020B842EED00020BDE8F081216820208D
:104C500000220B6823F4D0730B6021688B6823F06B
:104C600001038B606067A067032084F87020EBE786
:104C70000120E6E70148FEF733BD0000680400208C
:104C800070B5DDE90445068876BA0E80418849BAD8
:104C90001180818849BA1980C18849BA2180008968
:104CA00040BA288070BDFEE72DE9F0414A4D01274A
:104CB0000F8016462A4602F11403B5F8984102F512
:104CC0009D72A4F5407CBCF1050C1ED0B4F5017FAB
:104CD00036D0B4F5007F3AD0A4F5007CBCF5837CD7
:104CE0001FD0A4F5007101393AD0A4F50071023942
:104CF00043D0A4F5007103394DD0B4F57A7F61D06B
:104D0000032085F86002BDE8F081022485F8604246
:104D1000B5F89A410020A5F8A2410880B5F89C0199
:104D200008E0092085F860020F800A20B5F89A4152
:104D3000B4FBF0F030800988BDE8F041FBF78ABB96
:104D4000062085F86002BDE8F04100F099B908201E
:104D500085F86002B5F89A01BDE8F04100F06EB93F
:104D6000042085F86002B5F89A01040A1E2C02D9C5
:104D7000002000F025F9204609E085F86072B5F8BA
:104D80009A0100F01DF9B5F834010028BBD1BDE847
:104D9000F04100F029B9052185F86012B5F89A11A3
:104DA00064225143B1F5803F01DB4FF6FF710A4A9F
:104DB0008BB20380BDE8F0411C32184602F5C47185
:104DC000FFF7BDBC072085F86002B5F89A01BDE881
:104DD000F04100F01FB9000028000020090700285A
:104DE0004FEA116104DB00F1E02080F80014704705
:104DF00000F00F0000F1E02080F8141D704702E081
:104E000008C8121F08C1002AFAD170477047002055
:104E100001E001C1121F002AFBD1704770B5124C8E
:104E200094F85B1294F82F0281421CD104EB8000AD
:104E3000B4F81811826C914215DB806DB4F81A1128
:104E4000814210DBE56E0220E06694F8510208B161
:104E5000FCF798FBE56694F85B02401CFF2800DD38
:104E6000FF2084F85B0270BD280000200C4890F8F9
:104E7000D52190F85C128A4208D0014690F8503251
:104E8000012B91F84E1202D0032902D17047042958
:104E9000FCD180F85C2290F8D601FBF7FFBD000042
:104EA000280000202DE9F0411D4CB4F81E11B4F883
:104EB000C601814220D02046A4F8C611B4F82021B2
:104EC0000226C56EB2F5C87F90F84F020FD0C82AEF
:104ED0004FF0000712D0322A4FF0010119D0642A96
:104EE0000AD1E16668B100BFFFF7E2F809E0E666C3
:104EF00090B9E66606E0E566BDE8F0810028E76661
:104F0000F2D1E76694F851020028F4D0FCF73AFB9E
:104F1000F1E70028E166ECD0FFF7CAF8E9E7000006
:104F200028000020024901EB8000006C704700005F
:104F30002800002070B542F6F821322202600023DA
:104F40004360FA24C0E902412E2501613D264161FA
:104F50004D227123183080E86200C0E9032370BD40
:104F60002DED028BFDF7E8FAFFF78EF9FEF772FFE1
:104F7000FEF748FFFFF77CF8FEF7FAFFFFF72AF885
:104F8000FEF766FFFEF7B4FEFBF73CFE0B4CB7EEF8
:104F9000000B84ED040BFBF74BFFB0EE088B00BF5A
:104FA00094ED040BB4EE480BF1EE10FAF8D1FBF7D8
:104FB0003FFF6420FDF7A8F9F2E70000900200200F
:104FC0000849B1F83221FF2A01D3002205E0521C22
:104FD000B2F5803F01DB4FF6FF72A1F83221A1F854
:104FE0003401704728000020094991F8EB21FF2A7D
:104FF00001D3002203E0521CFF2A00DDFF2281F8CA
:10500000EB21FF2800D9FF2081F8EC017047000058
:10501000280000200849B1F83621FF2A01D30022D8
:1050200005E0521CB2F5803F01DB4FF6FF72A1F89C
:105030003621A1F838017047280000200F49B1F847
:105040002E21FF2A01D3002205E0521CB2F5803F39
:1050500001DB4FF6FF72A1F82E21A1F8300191F883
:105060003212642908D0322803D0642801D0C8281D
:1050700002D10020FFF7A4BF7047000028000020E5
:10508000064991F84202FF2801D3002003E0401CAA
:10509000FF2800DDFF2081F8420270472800002031
:1050A0000BA10C4A30B4096811700B0A53700C0C38
:1050B000947000215418435C491C1429E370F9DBF7
:1050C0000D20D07530BC034918220348FEF7CEBC32
:1050D000686472001C0300206804002007B582B0D9
:1050E000054802A90346CDE90002044803AAFFF7D8
:1050F0000AF805B000BD0000C4510008CA510008FC
:10510000284930B50A4691F831424FF48035681E7F
:10511000B2F8C2311CB991F84722012A24D0012CDF
:1051200029D0B1F8BE219632AA4200D30246A1F896
:10513000BE21B1F8C021521DAA4200D3024690B24E
:10514000A1F8C00191ED080BB5EEC00BF1EE10FA1D
:1051500016D040F206329FED140B81ED080BA1F83A
:105160008C21A1F88E0119E05A1CAA4200D30246F4
:10517000A1F8C22112E00020A1F8BE01A1F8C001EF
:1051800040F20530B7EE000B81ED080BA1F88C0161
:10519000A1F88E31B1F8BE01A1F8900181F8474223
:1051A00030BD0000280000200000000000000000CA
:1051B0005FF0000250F8223041F82230521C092AD8
:1051C000F8DB7047000064000000190300061016A9
:1051D0000006101600000000000000000102030499
:1051E0000607080900000000010203040C52000831
:1051F0000000002028000000FE4D00083452000886
:1052000028000020200900000E4E000800000000C9
:105210000000000000000000000000006864720050
:10522000000000000100000010000000000000006D
:045230000024F40062
:04000005080001F9F5
:00000001FF
