:020000040800F2
:10000000D80400200D0200084B1700082B1600082A
:1000100049170008F5020008291E0008000000002A
:100020000000000000000000000000007117000840
:10003000F7020008000000006F170008731700089F
:1000400027020008270200082702000827020008EC
:1000500027020008270200082702000827020008DC
:1000600027020008270200082702000827020008CC
:1000700027020008270200082702000827020008BC
:1000800027020008270200082702000827020008AC
:10009000270200082702000827020008270200089C
:1000A000270200082702000827020008270200088C
:1000B0008518000827020008270200082702000808
:1000C000270200082702000827020008270200086C
:1000D000270200082702000827020008270200085C
:1000E000270200082702000827020008270200084C
:1000F000270200082702000827020008270200083C
:10010000270200082702000827020008270200082B
:10011000270200082702000827020008270200081B
:10012000270200082702000827020008270200080B
:1001300027020008270200082702000827020008FB
:1001400027020008270200082702000827020008EB
:1001500027020008270200082702000827020008DB
:1001600027020008270200082702000827020008CB
:1001700027020008270200082702000800000000EC
:1001800027020008270200082702000827020008AB
:10019000270200082702000827020008270200089B
:1001A000270200082702000827020008270200088B
:1001B000270200082702000827020008270200087B
:1001C000270200082702000800000000270200089C
:1001D000270200082702000827020008270200085B
:1001E000270200082702000827020008270200084B
:1001F0002702000827020008DFF80CD000F068F89A
:1002000000480047491E0008D804002006488047DF
:1002100006480047FEE7FEE7FEE7FEE7FEE7FEE7EB
:10022000FEE7FEE7FEE7FEE731180008F9010008E7
:100230002DE9F05F0546002092469B46884606461B
:10024000814640241BE0284641464746224600F0AE
:100250002FF853465A46C01A914110D311461846FA
:10026000224600F016F82D1A67EB01084F46224689
:100270000120002100F00DF817EB00094E41201E6F
:10028000A4F10104DFDC484631462A464346BDE876
:10029000F09F202A04DB203A00FA02F10020704788
:1002A0009140C2F1200320FA03F3194390407047B4
:1002B000202A04DB203A21FA02F00021704721FABB
:1002C00002F3D040C2F12002914008431946704722
:1002D000064C074D06E0E06840F0010394E8070093
:1002E00098471034AC42F6D3FFF78AFF8C1E000803
:1002F000AC1E0008FEE7704770B5044600F000F938
:100300000546601C02D004480078044400F0F8F868
:10031000401BA042FAD370BD0C0000202DE9F84F1D
:10032000DFF89CE100224FF001084FF0030B4FF083
:100330000F0A00BF0B6808FA02F42340A34271D1F0
:100340004D68022D01D0122D0FD1D5080E69570727
:1003500000EB8505A9462D6AFF0E0AFA07FCBE4090
:1003600025EA0C052E43C9F820600F795500066870
:100370000BFA05FC07F0030726EA0C06AF403743EB
:1003800007604E68012E05D0022E03D0112E01D039
:10039000122E0ED18668CF6826EA0C06AF4037438E
:1003A000876046680F79A643C7F300179740374325
:1003B0004760C4688E6824EA0C04AE402643C660D9
:1003C0004C68E40075D53F4C256845F480452560B0
:1003D000246822F00306950704F4804400943A4C04
:1003E0002D0F2644D6F80848DFF8E0C00AFA05F7D2
:1003F000604524EA070401D100272EE0344FB842BB
:1004000001D1012729E0334FB84201D1022724E06E
:10041000314FB84201D103271FE0304FB84202D11B
:1004200004271AE045E02E4FB84201D1052714E019
:100430002C4FB84201D106270FE02B4FB84201D113
:1004400007270AE0294FB84201D1082705E0284FC5
:10045000B84201D1092700E00A27AF40274375467B
:10046000C6F808784E68DEF80040F60324EA030474
:1004700000D51C43124E2C60361D4D683468AD0308
:1004800024EA030400D51C430D4F346008374D683F
:100490003C68ED0224EA030400D51C43084D3C608F
:1004A0000C354E682C68B60224EA030400D51C43C0
:1004B0002C60521C102AFFF43DAFBDE8F88F0000FD
:1004C000003C01404438024000300140000002403E
:1004D0000004024000080240000C024000100240EC
:1004E0000014024000180240001C0240002002409C
:1004F000002402400AB1816170470904FBE7000053
:1005000001488068704700000C00002002488168A4
:1005100002781144816070470C000020032010B560
:1005200000F096F8002000F005F800F023F8002015
:1005300010BD000070B50D4D04464FF47A700C4AA2
:1005400029781268B0FBF1F0B2FBF0F000F0C7FDC3
:1005500048B9102C07D200222146501E00F058F84E
:1005600000206C6070BD012070BD00000C000020F8
:10057000180000201F4808B5016841F08051016053
:10058000006800F0805000901A48001D016841F496
:1005900080410160006800F480400090032000F07A
:1005A00057F800226FF00B00114600F031F80022DE
:1005B0006FF00A00114600F02BF800226FF00900DE
:1005C000114600F025F80022501F114600F020F8D7
:1005D0000022101F114600F01BF80022901E114649
:1005E00000F016F80022BDE80840501E114600F049
:1005F0000FB8000040380240410900F01F02890096
:10060000012001F1E0219040C1F800017047000095
:100610000E4BF0B41B680D46C3F30223C3F107066B
:10062000042E00D90426191D072901D2002300E059
:10063000DB1E012404FA06F19C40491E2940641E79
:10064000994014402143F0BC01F080B80CED00E06B
:10065000064900F0070210B54FF6FF040868044B86
:10066000204040EA02201843086010BD0CED00E075
:100670000000FA052DE9F84F04460078DFF82494CD
:100680004FF000063746C0070ED0D9F8001021F40D
:100690000001C9F80010D9F80010626B1143C9F8C5
:1006A0000010606B00B90126FE4D20688435000300
:1006B0000ED5E16B286820F4401008432860E06BF9
:1006C000B0F5801F01D010B102E0012600E0012743
:1006D00020684FF4800BC0020CD5216C286820F4F0
:1006E000400008432860206C584501D1012601E0F4
:1006F00000B901272068C10100D50126800666D512
:10070000E8483830016841F0805101600068DFF846
:1007100098A300F080500090DAF8001041F4807146
:10072000CAF80010FFF7ECFE804605E0FFF7E8FE90
:10073000A0EB080064287DD8DAF80000C005F5D5E4
:10074000DFF8608308F16808D8F8000010F4407002
:100750002AD0218E01F44071814225D0D8F80010B2
:10076000D8F8002021F4407142F48032C8F800200B
:10077000D8F8002022F48032C8F80020C8F8001011
:10078000D8F80000C0070FD0FFF7BAFE824607E096
:10079000FFF7B6FEA0EB0A0141F288308142CAD8C9
:1007A000D8F800008007F3D5206BC0F3012103299E
:1007B0007ED0D9F8001021F4F811C9F80010228E6B
:1007C000D8F80010C2F30B021143C8F800102078CB
:1007D000C00607D5286820F0807028602868A16BC3
:1007E000084328602188AF488830490405D5626EE7
:1007F000016821F44031114301602188090405D5C5
:10080000A26E016821F44021114301602168C903EF
:1008100005D5E26E016821F44011114301602168A1
:10082000890305D5226F016821F44001114301605D
:10083000217800E034E1490605D5626C016821F0B9
:100840000301114301602178090605D5A26C0168F6
:1008500021F00C01114301602188C90505D5E26C26
:10086000016821F03001114301602188890505D517
:10087000226D016821F0C001114301602188490502
:1008800005D5626D016821F4407111430160218832
:10089000090505D5A26D016821F44061114301608D
:1008A0002188C90407D5E26D016821F4405100E0B8
:1008B0005FE0114301602188890405D5226E01683B
:1008C00021F44041114301602168490205D5A26F1E
:1008D000016821F080611143016021684FF0006AD6
:1008E000890209D5E26F016821F0006111430160BE
:1008F000E16F514500D1012721680A0700D5012782
:10090000490305D5626F016821F040711143016010
:100910002168090206D5D4F88020016821F08051B1
:10092000114301602168490106D5D4F8842001688B
:1009300021F00051114301602068000106D5D4F870
:100940008810286820F00070084328602068C000E4
:1009500006D5D4F88C10286820F080600843286001
:10096000DFF84891012E0ED02068B0F1007F0AD048
:100970008FE04F4AD9F80030104023F4F8120243B8
:10098000C9F800201BE7D9F800004E4620F080602F
:10099000C9F80000FFF7B4FD804605E0FFF7B0FDA1
:1009A000A0EB080064287BD830680001F6D42178D9
:1009B0003C487C30C90712D0616B81B9237A6268E8
:1009C0000168D0F800C09201C1F3014142EA01423E
:1009D000CCF3036142EA016141EA037101602168DD
:1009E0000A0303D5E26BB2F5801F04D0C9021AD501
:1009F000216C594517D16368016894F80CC00268EE
:100A00009B01C1F3014143EA0141C2F3027241EA91
:100A10000C6141EA027101602968626A21F01F01DC
:100A2000521E114329602168C90110D5238A6268CA
:100A30000168D0F800C09201C1F3036142EA0342A9
:100A400042EA0162CCF3027142EA0171016021685D
:100A500089010CD56168228A237B94F808C089013A
:100A600041EA024141EA036141EA0C7101603168E7
:100A7000B04641F080613160FFF742FD064604E078
:100A8000FFF73EFD801B64280AD8D8F8000000015B
:100A9000F6D5E7B3D9F800004E4620F0805009E0C3
:100AA0007BE000000838024000700040003802403F
:100AB000FFFCFF0FC9F80000FFF722FD074604E026
:100AC000FFF71EFDC01B642867D83068C043800054
:100AD000F6D5216835480A0301D5E26B1AB1C9027F
:100AE0001DD5216CD9B963690168277E02689B0115
:100AF000C1F3014143EA0143C2F3027143EA0762D1
:100B000042EA0171016029686FF0FF0300E04BE0E9
:100B1000A26A21F4F85103EB0222114329602168F3
:100B2000890212D5E16F51450FD1238C62690168AA
:100B300007689201C1F3036142EA034242EA01629B
:100B4000C7F3027142EA017101602178090716D5E5
:100B500061690268D0F800C08B01277FC2F303628D
:100B6000CCF3014143EA014141EA026141EA0771E4
:100B700001602868E16A20F440300843286030684A
:100B800040F080503060FFF7BBFC044608E000BF37
:100B9000FFF7B6FC001B642802D90320BDE8F88FDC
:100BA0003068C0438000F3D40020F7E78838024063
:100BB0002DE9F04705000F4663D0444E306800F041
:100BC0000F00B84209D2306820F00F00384330607F
:100BD000306800F00F00B84253D128683C4C8107C0
:100BE00012D5400703D5206840F4E05020602878F3
:100BF000000703D5206840F460402060A9682068A1
:100C000020F0F000084320602878C0072AD030493F
:100C100068680839012810D00968022810D08907AF
:100C200000292EDA216821F0030101432160FFF73A
:100C300067FC804641F288390DE009688903EFE7D7
:100C40008901EDE7FFF75CFCA0EB0801494502D9FB
:100C50000320BDE8F0876868216801F00C01B1EB62
:100C6000800FEFD1306800F00F00B8420BD9306828
:100C700020F00F0038433060306800F00F00B842B9
:100C800001D00120E5E72878400705D5E96820680C
:100C900020F4E050084320602878000706D5286932
:100CA000216821F4604141EAC000206000F03CF876
:100CB0002168084AC1F30311515CC8400649086025
:100CC0000020FFF737FC0020C3E70000003C024093
:100CD00008380240741E000818000020014800680F
:100CE00070470000180000200449054809680068A2
:100CF000044AC1F38221515CC84070470838024061
:100D000018000020841E000804490548096800688E
:100D1000044AC1F34231515CC84070470838024070
:100D200018000020841E0008154910B515480968F0
:100D300011F00C0213D04110042A0FD0082A0ED152
:100D40000F4C241F2268236802F03F025B0207D584
:100D50002068C0F38810A0FB010106E0084610BD22
:100D60002168C1F38811A1FB00010023FFF760FA9D
:100D70002168C1F30141491C4900B0FBF1F010BDED
:100D8000083802400024F4002DE9F84F05004FF028
:100D900000076ED02878DFF82093A9F1040AC00775
:100DA000AAF104044CD0D9F800104846C1F38101DF
:100DB000012908D00068C0F3810002280AD1DAF8BE
:100DC0000000400206D52068800339D568680028F5
:100DD000DFD035E06868B0F5803F0BD010B1B0F5DA
:100DE000A02F11D0206820F480302060206820F4EB
:100DF000802002E0206840F480302060686890B174
:100E0000FFF77EFB06460AE0206840F48020206061
:100E1000F0E700BFFFF774FB801B642872D82068DE
:100E20008003F7D50CE0FFF76BFB064605E000BF3B
:100E3000FFF766FB801B6428F0D820688003F7D496
:100E40002878800742D5D9F80010484611F00C0FD9
:100E500008D00068C0F3810002280BD1DAF8000046
:100E6000400207D42068800718D5E868012800D11F
:100E700014E01EE1E8680028206817D040F0010067
:100E80002060FFF73DFB064605E000BFFFF738FB9B
:100E9000801B0228C2D820688007F7D528692168FE
:100EA00021F0F80141EAC00020600FE020F00100CD
:100EB0002060FFF725FB064605E000BFFFF720FB9B
:100EC000801B02281ED820688007F7D428780007E6
:100ED00029D5794869696C3000298046016812D0AB
:100EE00041F001010160FFF70BFB064605E000BF82
:100EF000FFF706FB801B022804D8D8F80000800703
:100F0000F6D510E089E021F001010160FFF7F8FA61
:100F1000064604E0FFF7F4FA801B02287DD8D8F8D3
:100F200000008007F6D4287840076BD5DFF8888169
:100F300008F13808D8F80000C0000BD4D8F8001029
:100F400041F08051C8F80010D8F80000012700F0E7
:100F50008050009059480168C90512D40168834641
:100F600041F480710160FFF7CBFA064605E000BF4F
:100F7000FFF7C6FA801B64284FD8DBF80000C005D5
:100F8000F6D54D4EA868683601280AD008B1052864
:100F900011D0306820F001003060306820F004008B
:100FA00002E0306840F001003060A868A0B1FFF7AF
:100FB000A7FA83460CE0306840F004003060F0E7A8
:100FC000FFF79EFAA0EB0B0141F28830814268D80E
:100FD00030688007F4D50EE0FFF792FA834607E009
:100FE000FFF78EFAA0EB0B0141F28830814258D80E
:100FF00030688007F4D42FB1D8F8001021F0805168
:10100000C8F80010A869E0B3D9F80010C1F3810155
:1010100002294ED00228206800E042E020F08070D3
:10102000206003D0FFF76CFA05463DE0FFF768FA51
:10103000064604E0FFF764FA801B022831D82068D6
:101040008001F7D4D5E90921DFF874C0D5E9070696
:1010500095F830304F0895F82C1030430CEB0745CD
:1010600045EA8212104340EA016040EA0370CAF880
:101070000000206840F080702060FFF741FA0546CC
:1010800005E014E0FFF73CFA401B022809D820686D
:101090008001F7D50BE000BFFFF732FA401B0228B2
:1010A00002D90320BDE8F88F20688001F4D4002025
:1010B000F8E70120F6E70000083802400070004021
:1010C0000000FFFF04284FF0E020016903D021F069
:1010D00004010161704741F00401FAE77047401EC6
:1010E000B0F1807F10B501D3012010BD4FF0E02496
:1010F00060610F21601700F029FB0020A06107212B
:10110000216110BD10B5FFF7E9FF10BD70477047B2
:1011100070B590F83C20012A1FD0012280F83C20B5
:1011200002680F4C5368A242956802D00D4CA2424F
:1011300003D14C6823F4700323430C6889680026AC
:1011400023F070031C43546025F080050268294396
:10115000916080F83C60304670BD022070BD000098
:10116000000001400004014010B5040003D094F8D1
:101170003D0010B107E0012010BD002084F83C00C4
:10118000204600F00DF8022084F83D002068211D63
:1011900000F07EFB012084F83D00002010BD00001F
:1011A00008B50068B0F1804F12D10A48016841F0DB
:1011B0000101016000680022114600F0010000906A
:1011C0001C20FFF725FABDE808401C20FFF714BAE1
:1011D00008BD0000403802400168CA6842F00102C0
:1011E000CA600068016841F0010101600020704799
:1011F00070B5044690F83C00012817D03A4E0125FE
:1012000084F83C50022084F83D0022689068304009
:1012100020F47F4090600868502839D00DDC2028E9
:101220005BD005DC98B3102843D153E0022070BD99
:10123000302855D040283CD141E0602830D070287B
:101240000CD0B0F5805F03D0B0F5005F31D112E073
:101250002068254A70328168114016E04A6820688B
:10126000D1E9021300F07AFB21688868304040F031
:10127000770088601DE04A682068D1E9021300F019
:101280006DFB2068816841F48041816011E01EE0BF
:10129000CA684968206800F072FB2068502106E0A7
:1012A000CA684968206800F07BFB2068602100F074
:1012B0005EFB002084F83D5084F83C0070BDCA6895
:1012C0004968206800F05BFB20684021EFE7206858
:1012D0000021ECE720681021E9E720682021E6E7FB
:1012E00020683021E3E7000088FFFEFF704770B5FB
:1012F0000446006800250169C943890715D4C168FF
:10130000C943890711D4EA1E0261012121772068AF
:1013100080698007204602D0FFF7E8FF04E000F074
:10132000A5F8204600F0A3F8257720680169C94395
:10133000490717D4C168C943490713D402216FF084
:101340000402026121772068806910F4407F204602
:1013500002D0FFF7CBFF04E000F088F8204600F051
:1013600086F8257720680169C943090716D4C16842
:10137000C943090712D404216FF0080202612177E2
:101380002068C0698007204602D0FFF7AFFF04E065
:1013900000F06CF8204600F06AF8257720680169B3
:1013A000C943C90617D4C168C943C90613D4082163
:1013B0006FF01002026121772068C06910F4407F4D
:1013C000204602D0FFF792FF04E000F04FF82046DD
:1013D00000F04DF8257720680169C943C90708D195
:1013E000C168C943C90704D1891E0161204600F0C4
:1013F0003FF820686FF080050169C943090607D4EA
:10140000C168C943090603D405612046FFF77EFE83
:1014100020680169C943C90507D4C168C9430906E1
:1014200003D405612046FFF771FE20680169C943B6
:10143000490609D4C168C943490605D46FF0400183
:101440000161204600F03CF820680169C943890623
:101450000BD4C168C943890607D46FF0200101612C
:101460002046BDE87040FFF752BE70BD7047704720
:1014700070B572B60068B0F1804F0FD10D4C0025E9
:101480006068A0F54071E7390AD0401C60602068B0
:1014900013280DD0401C206000F094FA62B670BD95
:1014A0000549322305480122656000F063F8EEE744
:1014B0002560F1E704000020000000206800002003
:1014C000704710B5040003D094F8690010B107E02C
:1014D000012010BD002084F86800204600F026F8A6
:1014E000242084F869002068016821F0010101606E
:1014F000204600F03BFB0128EBD0606A10B120468B
:1015000000F0B0FA2068416821F490414160206801
:10151000816821F02A0181602068016841F00101A1
:1015200001602046BDE8104000F000BB10B5006827
:1015300086B00D49884214D10C48016841F48021DD
:10154000016000680221002200F48020059003233E
:1015500007244FF440708DE81F0005486946FEF7E8
:10156000DDFE06B010BD00000048004040380240DB
:10157000000C02402DE9F843044690F869001F462C
:1015800016460D4620284ED1C5B1BEB194F868006C
:10159000012848D0012284F8682021214FF000085A
:1015A000C4F86C8084F869105034FEF7A9FF2680D7
:1015B00081466680503C4FF4805619E00120BDE81A
:1015C000F88300BFB4F85200401EA4F85200002275
:1015D0004B4680212046009700F0F4FBA0B9A0689C
:1015E000B04201D1206988B115F8010B21688862E9
:1015F000B4F852000028E5D100224B464021204695
:10160000009700F0DFFB38B10320D8E735F8020B74
:101610002168C0F30800EAE7202184F8691000205F
:1016200084F86880CBE70220C9E7FEE71F4870B561
:1016300086B0016841F004010160016801F0040115
:101640000591016841F080010160016801F08001AD
:101650000591016841F002010160016801F0020199
:101660000591016841F008010160006844F28105BC
:101670000F4E002200F00800294605903046FEF784
:1016800039FF0C4900244FF400508DE813000A483C
:101690006946FEF743FE01200095CDE90104694645
:1016A00030460394FEF73AFE06B070BD3038024073
:1016B00000040240000011100008024013484821B5
:1016C00010B5002488B0C0E902414FF47A72046179
:1016D0004FF080438461C0E90032FFF745FD00B15F
:1016E000FEE74FF480500390084803A9FFF780FD00
:1016F00000B1FEE70548694600940294FFF708FD33
:10170000002800D0FEE708B010BD0000280000202F
:101710000C48002110B50A4C0C224FF4E133046050
:10172000C0E90131C160C0E904128161C161016297
:101730004162FFF7C6FE002800D0FEE710BD0000A2
:101740000048004068000020FEE7704709070028B5
:101750004FEA116106DA00F00F0000F1E02080F896
:10176000141D704700F1E02080F8001470477047A6
:10177000704710B5FEF7CAFEBDE81040FFF7C2BCC7
:10178000294830B5B7B0016841F080510160006868
:1017900000F0805036902548016821F4404141F422
:1017A00080410160006801230224990500F4404053
:1017B00036900420CDE92A412CA990221D0481E80D
:1017C00015002F9024A8CDE92435FFF7DDFA00B1EC
:1017D000FEE7802133AB00254A0183E826000F2075
:1017E000CDE93104022131A8FFF7E2F900B1FEE7AB
:1017F0004FF48070139500906846FEF73BFF00B1F0
:10180000FEE7FFF76BFA4FF47A71B0FBF1F0FFF7E8
:1018100066FC0420FFF756FC0022501E1146FEF71E
:10182000F7FE37B030BD0000403802400070004085
:10183000104A30B51048146800210F4B44F470046E
:101840001460083305680D4A0D4C45F0010505602C
:1018500019600368051D1340074A03600C322C60B1
:101860000568E305034C25F480250560803C116084
:10187000236030BD88ED00E000380240FFFFF6FE37
:10188000103000240148FFF732BD0000280000207E
:10189000F0B5274B4FF0804E264D02689842264EF9
:1018A000264F274C09D0704507D0A84205D0B0423A
:1018B00003D0B84201D0A04205D1D1F804C022F033
:1018C00070024CEA020298421BD0704519D0A8421F
:1018D00017D0B04215D0B84213D0A04211D0194D44
:1018E000A8420ED0184DA8420BD0184DA84208D0DF
:1018F000174DA84205D0174DA84202D0164DA84258
:1019000003D1CD6822F440722A434D6922F080024F
:101910002A43026098428A68C2620A68826201D0E1
:10192000A04201D10969016301214161F0BD0000BC
:10193000000001400004004000080040000C00408E
:1019400000040140004001400044014000480140C3
:1019500000180040001C00400020004042EA032222
:1019600083680A4323F47F410A4382607047826898
:1019700022F070020A4342F007018160704710B5FF
:10198000036A046A23F00A0324F0010404628469F0
:101990000B4324F0F00141EA02118161036210BDA2
:1019A00010B5036A23F0100303628369046A23F409
:1019B000704324F0A00443EA0232826144EA011138
:1019C000016210BD0D48012310B50222447901794E
:1019D0006CB18479012C0CD0012907D1084983719D
:1019E0000878401CFF2800D9FF20087010BD437103
:1019F00001E00029FAD1827110BD00001C00002016
:101A00000000002015484FF0020CF0B5C179002409
:101A1000012759B10146124D027A6E1C09684B1C10
:101A2000012A08D00929224611D008E0C7710022F6
:101A300080F808C00DE009294FF0010203D0A94247
:101A400009DD066008E0002280F808C001E00122FC
:101A50000772046000E003600271F0BD1C0000200A
:101A6000FEFFFF7F90F82410C90706D00168836A43
:101A70004A6822F400321A434A6090F82410890719
:101A800006D50168C36A4A6822F480321A434A6064
:101A900090F82410490706D50168036B4A6822F4C0
:101AA00080221A434A6090F82410090706D501687D
:101AB000436B4A6822F400421A434A6090F82410AB
:101AC000C90606D50168836B8A6822F480521A43DE
:101AD0008A6090F82410890606D50168C36B8A686D
:101AE00022F400521A438A6090F82410490611D556
:101AF0000168036C4A6822F480121A434A60016C40
:101B0000B1F5801F06D10168436C4A6822F4C00217
:101B10001A434A6090F82410090606D50168826CC1
:101B2000486820F4002010434860704738B500250D
:101B30000446C566FEF7E4FC03462068006800071B
:101B40000BD56FF07E400090002220464FF400112C
:101B500000F038F908B1032038BD202084F869006E
:101B600084F8685084F86A00002038BD2DE9F047F9
:101B700004468068874B884F2668D4E90415E269DB
:101B80000843D6F800C0102115430022284315460B
:101B90000CEA030C814B4CEA000CC6F800C04FF471
:101BA00000492068D4F80CC0466826F4405646EA3E
:101BB0000C0646602668D4F82080A069D6F808C0D4
:101BC00040EA08002CF4306C4CEA000CC6F808C05F
:101BD0002068B8420AD11B6813F0030352D0012BCE
:101BE0007AD0022B76D0032B79D177E06C4EB042BD
:101BF0000AD11B6813F00C036AD0042B6CD0082B9D
:101C000068D00C2B6BD169E0664EB0420AD11B68DC
:101C100013F030035CD0102B5ED0202B5AD0302B29
:101C20005DD15BE0604EB0420AD11B6813F0C00387
:101C30004ED0402B50D0802B4CD0C02B4FD14DE0FC
:101C40005A4EB0420DD11B6813F4407340D0B3F527
:101C5000807F41D0B3F5007F3CD0B3F5407F3ED1CB
:101C60003CE0534EB0420FD11B6813F4406309D0DF
:101C7000B3F5806F30D0B3F5006F2BD0B3F5406F64
:101C80002DD12BE001212AE04A4EB0420DD11B6834
:101C900013F440531CD0B3F5805F1DD0B3F5005F43
:101CA00018D0B3F5405F1AD118E0434EB04216D1B8
:101CB0001B6813F440430BD0B3F5804F0CD04B4559
:101CC00008D0B3F5404F0AD108E005E002E0FFE795
:101CD000002104E0022102E0042100E00821E6697D
:101CE0004E452AD109291FD2DFE801F00508141E4C
:101CF000171E1E1E1A00FEF7F7FF01E0FFF704F89B
:101D00000146D4F80400490001EB5001B1FBF0F0AA
:101D100082B20AE029496068F6E7FFF705F8EFE7C5
:101D200060684FF48031EFE70125216822F00F0051
:101D3000C2F342021043C86028E0092925D2DFE837
:101D400001F005080B24102424241C00FEF7CCFF0E
:101D500009E0FEF7D9FF06E06168194A02EB51027B
:101D60000EE0FEF7E1FF0146D4E9002001EB50014F
:101D7000B1FBF0F080B2D06008E0616809EB51027D
:101D8000B2FBF1F189B2C16000E001252846BDE84F
:101D9000F0870000F369FFEF001001409038024027
:101DA0000044004000480040004C0040005000400B
:101DB0000014014000780040007C00400048E80129
:101DC0000024F4002DE9F041984617460E460446DB
:101DD000069D1DE0681C1BD02DB1FEF791FBA0EB0A
:101DE0000800A84214D32168202000220B6823F4A5
:101DF000D0730B6021688B6823F001038B6084F83B
:101E0000690084F86A00032084F86820BDE8F08146
:101E10002068C06936EA000004D00020B842D9D05A
:101E20000020F3E70120F9E7FEE702E008C8121FEF
:101E300008C1002AFAD170477047002001E001C1B3
:101E4000121F002AFBD17047FEF768FBFFF798FCD2
:101E5000FFF7ECFBFFF75CFCFFF730FC0448FFF7F3
:101E6000BBF900BFFFF7CEFD3220FEF745FAF9E7D8
:101E70002800002000000000000000000102030410
:101E8000060708090000000001020304AC1E000858
:101E9000000000201C0000002A1E0008C81E0008C8
:101EA0001C000020BC0400003A1E000800000000D6
:101EB0000000000000000000010000001000000011
:081EC000000000000024F40002
:04000005080001F9F5
:00000001FF
